{
  "contractName": "ReviewNetwork",
  "abi": [
    {
      "inputs": [
        {
          "name": "REWTokenAddress",
          "type": "address"
        }
      ],
      "payable": false,
      "stateMutability": "nonpayable",
      "type": "constructor"
    },
    {
      "anonymous": false,
      "inputs": [
        {
          "indexed": false,
          "name": "creator",
          "type": "address"
        },
        {
          "indexed": false,
          "name": "title",
          "type": "string"
        },
        {
          "indexed": false,
          "name": "surveyJsonHash",
          "type": "string"
        },
        {
          "indexed": false,
          "name": "rewardPerSurvey",
          "type": "uint256"
        }
      ],
      "name": "SurveyAdded",
      "type": "event"
    },
    {
      "anonymous": false,
      "inputs": [
        {
          "indexed": false,
          "name": "creator",
          "type": "address"
        },
        {
          "indexed": false,
          "name": "title",
          "type": "string"
        },
        {
          "indexed": false,
          "name": "surveyJsonHash",
          "type": "string"
        },
        {
          "indexed": false,
          "name": "rewardPerSurvey",
          "type": "uint256"
        }
      ],
      "name": "SurveyFunded",
      "type": "event"
    },
    {
      "anonymous": false,
      "inputs": [
        {
          "indexed": false,
          "name": "creator",
          "type": "address"
        },
        {
          "indexed": false,
          "name": "title",
          "type": "string"
        },
        {
          "indexed": false,
          "name": "surveyJsonHash",
          "type": "string"
        },
        {
          "indexed": false,
          "name": "rewardPerSurvey",
          "type": "uint256"
        }
      ],
      "name": "SurveyStarted",
      "type": "event"
    },
    {
      "anonymous": false,
      "inputs": [
        {
          "indexed": false,
          "name": "creator",
          "type": "address"
        },
        {
          "indexed": false,
          "name": "title",
          "type": "string"
        },
        {
          "indexed": false,
          "name": "surveyJsonHash",
          "type": "string"
        },
        {
          "indexed": false,
          "name": "rewardPerSurvey",
          "type": "uint256"
        }
      ],
      "name": "SurveyCompleted",
      "type": "event"
    },
    {
      "anonymous": false,
      "inputs": [
        {
          "indexed": false,
          "name": "user",
          "type": "address"
        },
        {
          "indexed": false,
          "name": "title",
          "type": "string"
        },
        {
          "indexed": false,
          "name": "rewardPerSurvey",
          "type": "uint256"
        }
      ],
      "name": "SurveyAnswered",
      "type": "event"
    },
    {
      "constant": false,
      "inputs": [
        {
          "name": "title",
          "type": "string"
        },
        {
          "name": "surveyJsonHash",
          "type": "string"
        },
        {
          "name": "rewardPerSurvey",
          "type": "uint256"
        }
      ],
      "name": "createSurvey",
      "outputs": [],
      "payable": false,
      "stateMutability": "nonpayable",
      "type": "function"
    },
    {
      "constant": false,
      "inputs": [
        {
          "name": "surveyJsonHash",
          "type": "string"
        },
        {
          "name": "amount",
          "type": "uint256"
        }
      ],
      "name": "fundSurvey",
      "outputs": [],
      "payable": false,
      "stateMutability": "nonpayable",
      "type": "function"
    },
    {
      "constant": false,
      "inputs": [
        {
          "name": "surveyJsonHash",
          "type": "string"
        }
      ],
      "name": "startSurvey",
      "outputs": [],
      "payable": false,
      "stateMutability": "nonpayable",
      "type": "function"
    },
    {
      "constant": false,
      "inputs": [
        {
          "name": "surveyJsonHash",
          "type": "string"
        }
      ],
      "name": "completeSurvey",
      "outputs": [],
      "payable": false,
      "stateMutability": "nonpayable",
      "type": "function"
    },
    {
      "constant": true,
      "inputs": [
        {
          "name": "surveyJsonHash",
          "type": "string"
        }
      ],
      "name": "getSurveyFunds",
      "outputs": [
        {
          "name": "",
          "type": "uint256"
        }
      ],
      "payable": false,
      "stateMutability": "view",
      "type": "function"
    },
    {
      "constant": true,
      "inputs": [
        {
          "name": "surveyJsonHash",
          "type": "string"
        }
      ],
      "name": "getSurveyStatus",
      "outputs": [
        {
          "name": "",
          "type": "uint8"
        }
      ],
      "payable": false,
      "stateMutability": "view",
      "type": "function"
    },
    {
      "constant": false,
      "inputs": [
        {
          "name": "surveyJsonHash",
          "type": "string"
        },
        {
          "name": "answersJsonHash",
          "type": "string"
        }
      ],
      "name": "answerSurvey",
      "outputs": [],
      "payable": false,
      "stateMutability": "nonpayable",
      "type": "function"
    },
    {
      "constant": true,
      "inputs": [
        {
          "name": "surveyJsonHash",
          "type": "string"
        },
        {
          "name": "user",
          "type": "address"
        }
      ],
      "name": "isSurveyAnsweredBy",
      "outputs": [
        {
          "name": "",
          "type": "bool"
        }
      ],
      "payable": false,
      "stateMutability": "view",
      "type": "function"
    }
  ],
  "bytecode": "0x60806040523480156200001157600080fd5b5060405160208062002261833981018060405262000033919081019062000090565b806000806101000a81548173ffffffffffffffffffffffffffffffffffffffff021916908373ffffffffffffffffffffffffffffffffffffffff16021790555050620000dc565b6000620000888251620000bc565b905092915050565b600060208284031215620000a357600080fd5b6000620000b3848285016200007a565b91505092915050565b600073ffffffffffffffffffffffffffffffffffffffff82169050919050565b61217580620000ec6000396000f30060806040526004361061008e576000357c0100000000000000000000000000000000000000000000000000000000900463ffffffff16806306ba9624146100935780635b49efdf146100bc57806397009090146100e5578063b639c6c91461010e578063b98682611461014b578063c5b4471214610188578063d9e115d3146101b1578063f420e184146101ee575b600080fd5b34801561009f57600080fd5b506100ba60048036036100b59190810190611b61565b610217565b005b3480156100c857600080fd5b506100e360048036036100de9190810190611c62565b6105b7565b005b3480156100f157600080fd5b5061010c60048036036101079190810190611b61565b610782565b005b34801561011a57600080fd5b5061013560048036036101309190810190611b61565b610b22565b6040516101429190611f9d565b60405180910390f35b34801561015757600080fd5b50610172600480360361016d9190810190611b61565b610ba7565b60405161017f9190611fb8565b60405180910390f35b34801561019457600080fd5b506101af60048036036101aa9190810190611bf6565b610c1f565b005b3480156101bd57600080fd5b506101d860048036036101d39190810190611ba2565b6112b3565b6040516101e59190611f82565b60405180910390f35b3480156101fa57600080fd5b5061021560048036036102109190810190611ce1565b6113ed565b005b61021f611995565b6001826040518082805190602001908083835b6020831015156102575780518252602082019150602081019050602083039250610232565b6001836020036101000a038019825116818451168082178552505050505050905001915050908152602001604051809103902060c060405190810160405290816000820160009054906101000a900473ffffffffffffffffffffffffffffffffffffffff1673ffffffffffffffffffffffffffffffffffffffff1673ffffffffffffffffffffffffffffffffffffffff168152602001600182018054600181600116156101000203166002900480601f0160208091040260200160405190810160405280929190818152602001828054600181600116156101000203166002900480156103855780601f1061035a57610100808354040283529160200191610385565b820191906000526020600020905b81548152906001019060200180831161036857829003601f168201915b50505050508152602001600282018054600181600116156101000203166002900480601f0160208091040260200160405190810160405280929190818152602001828054600181600116156101000203166002900480156104275780601f106103fc57610100808354040283529160200191610427565b820191906000526020600020905b81548152906001019060200180831161040a57829003601f168201915b5050505050815260200160038201548152602001600482015481526020016005820160009054906101000a900460ff16600381111561046257fe5b600381111561046d57fe5b815250509050806000015173ffffffffffffffffffffffffffffffffffffffff163373ffffffffffffffffffffffffffffffffffffffff161415156104b157600080fd5b600260038111156104be57fe5b8160a0015160038111156104ce57fe5b1415156104da57600080fd5b60036001836040518082805190602001908083835b60208310151561051457805182526020820191506020810190506020830392506104ef565b6001836020036101000a038019825116818451168082178552505050505050905001915050908152602001604051809103902060050160006101000a81548160ff0219169083600381111561056557fe5b02179055507fc58d262d3a42690cb0eedff6235a5203b304105913b177696b1c8f5cfbfb9a18338260200151836040015184606001516040516105ab9493929190611ec8565b60405180910390a15050565b6105bf611995565b60c0604051908101604052803373ffffffffffffffffffffffffffffffffffffffff168152602001858152602001848152602001838152602001600081526020016000600381111561060d57fe5b8152509050806001846040518082805190602001908083835b60208310151561064b5780518252602082019150602081019050602083039250610626565b6001836020036101000a038019825116818451168082178552505050505050905001915050908152602001604051809103902060008201518160000160006101000a81548173ffffffffffffffffffffffffffffffffffffffff021916908373ffffffffffffffffffffffffffffffffffffffff16021790555060208201518160010190805190602001906106e19291906119ed565b5060408201518160020190805190602001906106fe9291906119ed565b50606082015181600301556080820151816004015560a08201518160050160006101000a81548160ff0219169083600381111561073757fe5b02179055509050507fdf4b34d6a182a61d12551c454ad797eb2cbfffe8b19b1ab751552be8ff11ed47338585856040516107749493929190611e75565b60405180910390a150505050565b61078a611995565b6001826040518082805190602001908083835b6020831015156107c2578051825260208201915060208101905060208303925061079d565b6001836020036101000a038019825116818451168082178552505050505050905001915050908152602001604051809103902060c060405190810160405290816000820160009054906101000a900473ffffffffffffffffffffffffffffffffffffffff1673ffffffffffffffffffffffffffffffffffffffff1673ffffffffffffffffffffffffffffffffffffffff168152602001600182018054600181600116156101000203166002900480601f0160208091040260200160405190810160405280929190818152602001828054600181600116156101000203166002900480156108f05780601f106108c5576101008083540402835291602001916108f0565b820191906000526020600020905b8154815290600101906020018083116108d357829003601f168201915b50505050508152602001600282018054600181600116156101000203166002900480601f0160208091040260200160405190810160405280929190818152602001828054600181600116156101000203166002900480156109925780601f1061096757610100808354040283529160200191610992565b820191906000526020600020905b81548152906001019060200180831161097557829003601f168201915b5050505050815260200160038201548152602001600482015481526020016005820160009054906101000a900460ff1660038111156109cd57fe5b60038111156109d857fe5b815250509050806000015173ffffffffffffffffffffffffffffffffffffffff163373ffffffffffffffffffffffffffffffffffffffff16141515610a1c57600080fd5b60016003811115610a2957fe5b8160a001516003811115610a3957fe5b141515610a4557600080fd5b60026001836040518082805190602001908083835b602083101515610a7f5780518252602082019150602081019050602083039250610a5a565b6001836020036101000a038019825116818451168082178552505050505050905001915050908152602001604051809103902060050160006101000a81548160ff02191690836003811115610ad057fe5b02179055507f9130c578bffc18c797e3fd399afc99ca34df7fad1838f692353d2e587ec41d0f33826020015183604001518460600151604051610b169493929190611ec8565b60405180910390a15050565b60006001826040518082805190602001908083835b602083101515610b5c5780518252602082019150602081019050602083039250610b37565b6001836020036101000a038019825116818451168082178552505050505050905001915050908152602001604051809103902060050160009054906101000a900460ff169050919050565b60006001826040518082805190602001908083835b602083101515610be15780518252602082019150602081019050602083039250610bbc565b6001836020036101000a0380198251168184511680821785525050505050509050019150509081526020016040518091039020600401549050919050565b610c27611995565b6001836040518082805190602001908083835b602083101515610c5f5780518252602082019150602081019050602083039250610c3a565b6001836020036101000a038019825116818451168082178552505050505050905001915050908152602001604051809103902060c060405190810160405290816000820160009054906101000a900473ffffffffffffffffffffffffffffffffffffffff1673ffffffffffffffffffffffffffffffffffffffff1673ffffffffffffffffffffffffffffffffffffffff168152602001600182018054600181600116156101000203166002900480601f016020809104026020016040519081016040528092919081815260200182805460018160011615610100020316600290048015610d8d5780601f10610d6257610100808354040283529160200191610d8d565b820191906000526020600020905b815481529060010190602001808311610d7057829003601f168201915b50505050508152602001600282018054600181600116156101000203166002900480601f016020809104026020016040519081016040528092919081815260200182805460018160011615610100020316600290048015610e2f5780601f10610e0457610100808354040283529160200191610e2f565b820191906000526020600020905b815481529060010190602001808311610e1257829003601f168201915b5050505050815260200160038201548152602001600482015481526020016005820160009054906101000a900460ff166003811115610e6a57fe5b6003811115610e7557fe5b815250509050604051806000019050604051809103902060001916826040518082805190602001908083835b602083101515610ec65780518252602082019150602081019050602083039250610ea1565b6001836020036101000a03801982511681845116808217855250505050505090500191505060405180910390206000191614151515610f0457600080fd5b604051806000019050604051809103902060001916836040518082805190602001908083835b602083101515610f4f5780518252602082019150602081019050602083039250610f2a565b6001836020036101000a03801982511681845116808217855250505050505090500191505060405180910390206000191614151515610f8d57600080fd5b60026003811115610f9a57fe5b8160a001516003811115610faa57fe5b141515610fb657600080fd5b8060600151816080015110151515610fcd57600080fd5b602060405190810160405280838152506001846040518082805190602001908083835b6020831015156110155780518252602082019150602081019050602083039250610ff0565b6001836020036101000a038019825116818451168082178552505050505050905001915050908152602001604051809103902060060160003373ffffffffffffffffffffffffffffffffffffffff1673ffffffffffffffffffffffffffffffffffffffff16815260200190815260200160002060008201518160000190805190602001906110a49291906119ed565b509050506000809054906101000a900473ffffffffffffffffffffffffffffffffffffffff1673ffffffffffffffffffffffffffffffffffffffff1663a9059cbb3383606001516040518363ffffffff167c0100000000000000000000000000000000000000000000000000000000028152600401611124929190611f59565b602060405180830381600087803b15801561113e57600080fd5b505af1158015611152573d6000803e3d6000fd5b505050506040513d601f19601f820116820180604052506111769190810190611b38565b151561118157600080fd5b6001836040518082805190602001908083835b6020831015156111b95780518252602082019150602081019050602083039250611194565b6001836020036101000a0380198251168184511680821785525050505050509050019150509081526020016040518091039020600301546001846040518082805190602001908083835b6020831015156112285780518252602082019150602081019050602083039250611203565b6001836020036101000a0380198251168184511680821785525050505050509050019150509081526020016040518091039020600401600082825403925050819055507ff5716604e7f93841f05be739b783e967ea17dc9105bb23dc7358ce08006e6d0a33826020015183606001516040516112a693929190611f1b565b60405180910390a1505050565b60006040518060000190506040518091039020600019166001846040518082805190602001908083835b60208310151561130257805182526020820191506020810190506020830392506112dd565b6001836020036101000a038019825116818451168082178552505050505050905001915050908152602001604051809103902060060160008473ffffffffffffffffffffffffffffffffffffffff1673ffffffffffffffffffffffffffffffffffffffff16815260200190815260200160002060000160405180828054600181600116156101000203166002900480156113d35780601f106113b15761010080835404028352918201916113d3565b820191906000526020600020905b8154815290600101906020018083116113bf575b505091505060405180910390206000191614905092915050565b6113f5611995565b60006001846040518082805190602001908083835b60208310151561142f578051825260208201915060208101905060208303925061140a565b6001836020036101000a038019825116818451168082178552505050505050905001915050908152602001604051809103902060c060405190810160405290816000820160009054906101000a900473ffffffffffffffffffffffffffffffffffffffff1673ffffffffffffffffffffffffffffffffffffffff1673ffffffffffffffffffffffffffffffffffffffff168152602001600182018054600181600116156101000203166002900480601f01602080910402602001604051908101604052809291908181526020018280546001816001161561010002031660029004801561155d5780601f106115325761010080835404028352916020019161155d565b820191906000526020600020905b81548152906001019060200180831161154057829003601f168201915b50505050508152602001600282018054600181600116156101000203166002900480601f0160208091040260200160405190810160405280929190818152602001828054600181600116156101000203166002900480156115ff5780601f106115d4576101008083540402835291602001916115ff565b820191906000526020600020905b8154815290600101906020018083116115e257829003601f168201915b5050505050815260200160038201548152602001600482015481526020016005820160009054906101000a900460ff16600381111561163a57fe5b600381111561164557fe5b815250509150816000015173ffffffffffffffffffffffffffffffffffffffff163373ffffffffffffffffffffffffffffffffffffffff1614151561168957600080fd5b6000809054906101000a900473ffffffffffffffffffffffffffffffffffffffff1673ffffffffffffffffffffffffffffffffffffffff1663dd62ed3e33306040518363ffffffff167c0100000000000000000000000000000000000000000000000000000000028152600401611701929190611e15565b602060405180830381600087803b15801561171b57600080fd5b505af115801561172f573d6000803e3d6000fd5b505050506040513d601f19601f820116820180604052506117539190810190611d35565b905082811015151561176457600080fd5b6000809054906101000a900473ffffffffffffffffffffffffffffffffffffffff1673ffffffffffffffffffffffffffffffffffffffff166323b872dd3330866040518463ffffffff167c01000000000000000000000000000000000000000000000000000000000281526004016117de93929190611e3e565b602060405180830381600087803b1580156117f857600080fd5b505af115801561180c573d6000803e3d6000fd5b505050506040513d601f19601f820116820180604052506118309190810190611b38565b151561183b57600080fd5b826001856040518082805190602001908083835b602083101515611874578051825260208201915060208101905060208303925061184f565b6001836020036101000a038019825116818451168082178552505050505050905001915050908152602001604051809103902060040160008282540192505081905550600180856040518082805190602001908083835b6020831015156118f057805182526020820191506020810190506020830392506118cb565b6001836020036101000a038019825116818451168082178552505050505050905001915050908152602001604051809103902060050160006101000a81548160ff0219169083600381111561194157fe5b02179055507f1b9105ef2cb84b4903e6a1a902a210ed5998945b2ac3f5885a856f29a362aee0338360200151846040015185606001516040516119879493929190611ec8565b60405180910390a150505050565b60c060405190810160405280600073ffffffffffffffffffffffffffffffffffffffff16815260200160608152602001606081526020016000815260200160008152602001600060038111156119e757fe5b81525090565b828054600181600116156101000203166002900490600052602060002090601f016020900481019282601f10611a2e57805160ff1916838001178555611a5c565b82800160010185558215611a5c579182015b82811115611a5b578251825591602001919060010190611a40565b5b509050611a699190611a6d565b5090565b611a8f91905b80821115611a8b576000816000905550600101611a73565b5090565b90565b6000611a9e823561208e565b905092915050565b6000611ab282516120ae565b905092915050565b600082601f8301121515611acd57600080fd5b8135611ae0611adb82612000565b611fd3565b91508082526020830160208301858383011115611afc57600080fd5b611b078382846120e8565b50505092915050565b6000611b1c82356120ba565b905092915050565b6000611b3082516120ba565b905092915050565b600060208284031215611b4a57600080fd5b6000611b5884828501611aa6565b91505092915050565b600060208284031215611b7357600080fd5b600082013567ffffffffffffffff811115611b8d57600080fd5b611b9984828501611aba565b91505092915050565b60008060408385031215611bb557600080fd5b600083013567ffffffffffffffff811115611bcf57600080fd5b611bdb85828601611aba565b9250506020611bec85828601611a92565b9150509250929050565b60008060408385031215611c0957600080fd5b600083013567ffffffffffffffff811115611c2357600080fd5b611c2f85828601611aba565b925050602083013567ffffffffffffffff811115611c4c57600080fd5b611c5885828601611aba565b9150509250929050565b600080600060608486031215611c7757600080fd5b600084013567ffffffffffffffff811115611c9157600080fd5b611c9d86828701611aba565b935050602084013567ffffffffffffffff811115611cba57600080fd5b611cc686828701611aba565b9250506040611cd786828701611b10565b9150509250925092565b60008060408385031215611cf457600080fd5b600083013567ffffffffffffffff811115611d0e57600080fd5b611d1a85828601611aba565b9250506020611d2b85828601611b10565b9150509250929050565b600060208284031215611d4757600080fd5b6000611d5584828501611b24565b91505092915050565b611d6781612042565b82525050565b611d7681612062565b82525050565b611d85816120c4565b82525050565b611d94816120d6565b82525050565b6000611da582612037565b808452611db98160208601602086016120f7565b611dc28161212a565b602085010191505092915050565b6000611ddb8261202c565b808452611def8160208601602086016120f7565b611df88161212a565b602085010191505092915050565b611e0f81612084565b82525050565b6000604082019050611e2a6000830185611d5e565b611e376020830184611d7c565b9392505050565b6000606082019050611e536000830186611d5e565b611e606020830185611d7c565b611e6d6040830184611e06565b949350505050565b6000608082019050611e8a6000830187611d5e565b8181036020830152611e9c8186611d9a565b90508181036040830152611eb08185611d9a565b9050611ebf6060830184611e06565b95945050505050565b6000608082019050611edd6000830187611d5e565b8181036020830152611eef8186611dd0565b90508181036040830152611f038185611dd0565b9050611f126060830184611e06565b95945050505050565b6000606082019050611f306000830186611d5e565b8181036020830152611f428185611dd0565b9050611f516040830184611e06565b949350505050565b6000604082019050611f6e6000830185611d5e565b611f7b6020830184611e06565b9392505050565b6000602082019050611f976000830184611d6d565b92915050565b6000602082019050611fb26000830184611d8b565b92915050565b6000602082019050611fcd6000830184611e06565b92915050565b6000604051905081810181811067ffffffffffffffff82111715611ff657600080fd5b8060405250919050565b600067ffffffffffffffff82111561201757600080fd5b601f19601f8301169050602081019050919050565b600081519050919050565b600081519050919050565b600073ffffffffffffffffffffffffffffffffffffffff82169050919050565b60008115159050919050565b600060048210151561207c57fe5b819050919050565b6000819050919050565b600073ffffffffffffffffffffffffffffffffffffffff82169050919050565b60008115159050919050565b6000819050919050565b60006120cf82612042565b9050919050565b60006120e18261206e565b9050919050565b82818337600083830152505050565b60005b838110156121155780820151818401526020810190506120fa565b83811115612124576000848401525b50505050565b6000601f19601f83011690509190505600a265627a7a7230582003d58fbe94fc547736fdb7d1b82db45f42e72c847890c3f23df434a3d53c660a6c6578706572696d656e74616cf50037",
  "source": "pragma solidity ^0.4.19;\npragma experimental ABIEncoderV2;\n\nimport \"./REWToken.sol\";\n\ncontract ReviewNetwork {\n    REWToken token;\n\n    enum SurveyStatus { IDLE, FUNDED, IN_PROGRESS, COMPLETED }\n\n    struct Answer {\n        string answersJsonHash;\n    }\n\n    struct Survey {\n        address creator;\n        string title;\n        string surveyJsonHash;\n        uint rewardPerSurvey;\n        uint funds;\n        SurveyStatus status;\n        mapping (address => Answer) answers;\n    }\n\n    // surveyJsonHash => survey\n    mapping (string => Survey) surveys;\n\n    event SurveyAdded(\n        address creator,\n        string title,\n        string surveyJsonHash,\n        uint rewardPerSurvey\n    );\n    \n    event SurveyFunded(\n        address creator,\n        string title,\n        string surveyJsonHash,\n        uint rewardPerSurvey\n    );\n    \n    event SurveyStarted(\n        address creator,\n        string title,\n        string surveyJsonHash,\n        uint rewardPerSurvey\n    );\n\n    event SurveyCompleted(\n        address creator,\n        string title,\n        string surveyJsonHash,\n        uint rewardPerSurvey\n    );\n\n    event SurveyAnswered(\n        address user,\n        string title,\n        uint rewardPerSurvey\n    );\n\n    function ReviewNetwork(address REWTokenAddress) public {\n        token = REWToken(REWTokenAddress);\n    }\n\n    function createSurvey(string title, string surveyJsonHash, uint rewardPerSurvey) public {\n        Survey memory s = Survey(\n            msg.sender,\n            title,\n            surveyJsonHash,\n            rewardPerSurvey,\n            0,\n            SurveyStatus.IDLE\n        );\n\n        surveys[surveyJsonHash] = s;\n\n        SurveyAdded(\n            msg.sender,\n            title,\n            surveyJsonHash,\n            rewardPerSurvey\n        );\n    }\n\n    function fundSurvey(string surveyJsonHash, uint amount) public {\n        Survey memory survey = surveys[surveyJsonHash];\n\n        require(msg.sender == survey.creator);\n\n        uint allowance = token.allowance(msg.sender, this);\n        require(allowance >= amount);\n\n        require(token.transferFrom(msg.sender, this, amount));\n        surveys[surveyJsonHash].funds += amount;\n        surveys[surveyJsonHash].status = SurveyStatus.FUNDED;\n\n        SurveyFunded(\n            msg.sender,\n            survey.title,\n            survey.surveyJsonHash,\n            survey.rewardPerSurvey\n        );\n    }\n\n    function startSurvey(string surveyJsonHash) public {\n        Survey memory survey = surveys[surveyJsonHash];\n        require(msg.sender == survey.creator);\n        require(survey.status == SurveyStatus.FUNDED);\n\n        surveys[surveyJsonHash].status = SurveyStatus.IN_PROGRESS;\n\n        SurveyStarted(\n            msg.sender,\n            survey.title,\n            survey.surveyJsonHash,\n            survey.rewardPerSurvey\n        );\n    }\n\n    function completeSurvey(string surveyJsonHash) public {\n        Survey memory survey = surveys[surveyJsonHash];\n        require(msg.sender == survey.creator);\n        require(survey.status == SurveyStatus.IN_PROGRESS);\n\n        surveys[surveyJsonHash].status = SurveyStatus.COMPLETED;\n\n        SurveyCompleted(\n            msg.sender,\n            survey.title,\n            survey.surveyJsonHash,\n            survey.rewardPerSurvey\n        );\n    }\n\n    function getSurveyFunds(string surveyJsonHash) public view returns (uint) {\n        return surveys[surveyJsonHash].funds;\n    }\n\n    function getSurveyStatus(string surveyJsonHash) public view returns (SurveyStatus) {\n        return surveys[surveyJsonHash].status;\n    }\n\n    function answerSurvey(string surveyJsonHash, string answersJsonHash) public {\n        Survey memory survey = surveys[surveyJsonHash];\n        require(keccak256(answersJsonHash) != keccak256(\"\"));\n        require(keccak256(surveyJsonHash) != keccak256(\"\"));\n        require(survey.status == SurveyStatus.IN_PROGRESS);\n        // require(keccak256(surveys[surveyJsonHash].answers[msg.sender].answersJsonHash) == keccak256(\"\"));\n        require(survey.funds >= survey.rewardPerSurvey);\n        surveys[surveyJsonHash].answers[msg.sender] = Answer(answersJsonHash);\n        require(token.transfer(msg.sender, survey.rewardPerSurvey));\n        surveys[surveyJsonHash].funds -= surveys[surveyJsonHash].rewardPerSurvey;\n        SurveyAnswered(msg.sender, survey.title, survey.rewardPerSurvey);\n    }\n\n    function isSurveyAnsweredBy(string surveyJsonHash, address user) public view returns (bool) {\n        return keccak256(surveys[surveyJsonHash].answers[user].answersJsonHash) == keccak256(\"\");\n    }\n}\n",
  "sourcePath": "/Users/petars/projects/review-network/rew/contracts/ReviewNetwork.sol",
  "compiler": {
    "name": "solc",
    "version": "0.4.24+commit.e67f0147.Emscripten.clang"
  },
  "schemaVersion": "2.0.0",
  "updatedAt": "2018-05-30T18:44:57.741Z"
}