{
  "contractName": "ReviewNetwork",
  "abi": [
    {
      "constant": true,
      "inputs": [],
      "name": "owner",
      "outputs": [
        {
          "name": "",
          "type": "address"
        }
      ],
      "payable": false,
      "stateMutability": "view",
      "type": "function"
    },
    {
      "constant": false,
      "inputs": [
        {
          "name": "newOwner",
          "type": "address"
        }
      ],
      "name": "transferOwnership",
      "outputs": [],
      "payable": false,
      "stateMutability": "nonpayable",
      "type": "function"
    },
    {
      "inputs": [
        {
          "name": "REWTokenAddress",
          "type": "address"
        }
      ],
      "payable": false,
      "stateMutability": "nonpayable",
      "type": "constructor"
    },
    {
      "anonymous": false,
      "inputs": [
        {
          "indexed": true,
          "name": "creator",
          "type": "address"
        },
        {
          "indexed": false,
          "name": "publicKey",
          "type": "string"
        },
        {
          "indexed": false,
          "name": "title",
          "type": "string"
        },
        {
          "indexed": false,
          "name": "surveyJsonHash",
          "type": "string"
        },
        {
          "indexed": false,
          "name": "rewardPerSurvey",
          "type": "uint256"
        },
        {
          "indexed": false,
          "name": "maxAnswers",
          "type": "uint256"
        }
      ],
      "name": "LogSurveyAdded",
      "type": "event"
    },
    {
      "anonymous": false,
      "inputs": [
        {
          "indexed": true,
          "name": "creator",
          "type": "address"
        },
        {
          "indexed": false,
          "name": "publicKey",
          "type": "string"
        },
        {
          "indexed": false,
          "name": "title",
          "type": "string"
        },
        {
          "indexed": false,
          "name": "surveyJsonHash",
          "type": "string"
        },
        {
          "indexed": false,
          "name": "rewardPerSurvey",
          "type": "uint256"
        },
        {
          "indexed": false,
          "name": "maxAnswers",
          "type": "uint256"
        }
      ],
      "name": "LogSurveyFunded",
      "type": "event"
    },
    {
      "anonymous": false,
      "inputs": [
        {
          "indexed": true,
          "name": "creator",
          "type": "address"
        },
        {
          "indexed": false,
          "name": "publicKey",
          "type": "string"
        },
        {
          "indexed": false,
          "name": "title",
          "type": "string"
        },
        {
          "indexed": false,
          "name": "surveyJsonHash",
          "type": "string"
        },
        {
          "indexed": false,
          "name": "rewardPerSurvey",
          "type": "uint256"
        },
        {
          "indexed": false,
          "name": "maxAnswers",
          "type": "uint256"
        }
      ],
      "name": "LogSurveyStarted",
      "type": "event"
    },
    {
      "anonymous": false,
      "inputs": [
        {
          "indexed": true,
          "name": "creator",
          "type": "address"
        },
        {
          "indexed": false,
          "name": "publicKey",
          "type": "string"
        },
        {
          "indexed": false,
          "name": "title",
          "type": "string"
        },
        {
          "indexed": false,
          "name": "surveyJsonHash",
          "type": "string"
        },
        {
          "indexed": false,
          "name": "rewardPerSurvey",
          "type": "uint256"
        },
        {
          "indexed": false,
          "name": "maxAnswers",
          "type": "uint256"
        }
      ],
      "name": "LogSurveyCompleted",
      "type": "event"
    },
    {
      "anonymous": false,
      "inputs": [
        {
          "indexed": true,
          "name": "user",
          "type": "address"
        },
        {
          "indexed": false,
          "name": "surveyJsonHash",
          "type": "string"
        },
        {
          "indexed": false,
          "name": "answersJsonHash",
          "type": "string"
        },
        {
          "indexed": false,
          "name": "title",
          "type": "string"
        },
        {
          "indexed": false,
          "name": "rewardPerSurvey",
          "type": "uint256"
        }
      ],
      "name": "LogSurveyAnswered",
      "type": "event"
    },
    {
      "anonymous": false,
      "inputs": [
        {
          "indexed": true,
          "name": "brandAddress",
          "type": "address"
        },
        {
          "indexed": false,
          "name": "name",
          "type": "string"
        },
        {
          "indexed": false,
          "name": "logo",
          "type": "string"
        },
        {
          "indexed": false,
          "name": "metaHashJson",
          "type": "string"
        }
      ],
      "name": "LogBrandAdded",
      "type": "event"
    },
    {
      "anonymous": false,
      "inputs": [
        {
          "indexed": false,
          "name": "productAddress",
          "type": "address"
        },
        {
          "indexed": true,
          "name": "brandAddress",
          "type": "address"
        },
        {
          "indexed": true,
          "name": "categoryId",
          "type": "uint256"
        },
        {
          "indexed": true,
          "name": "subcategoryId",
          "type": "uint256"
        },
        {
          "indexed": false,
          "name": "name",
          "type": "string"
        },
        {
          "indexed": false,
          "name": "image",
          "type": "string"
        },
        {
          "indexed": false,
          "name": "metaHashJson",
          "type": "string"
        }
      ],
      "name": "LogProductAdded",
      "type": "event"
    },
    {
      "anonymous": false,
      "inputs": [
        {
          "indexed": false,
          "name": "reviewAddress",
          "type": "address"
        },
        {
          "indexed": true,
          "name": "authorAddress",
          "type": "address"
        },
        {
          "indexed": true,
          "name": "productAddress",
          "type": "address"
        },
        {
          "indexed": false,
          "name": "metaJsonHash",
          "type": "string"
        }
      ],
      "name": "LogReviewAdded",
      "type": "event"
    },
    {
      "anonymous": false,
      "inputs": [
        {
          "indexed": false,
          "name": "validatorAddress",
          "type": "address"
        }
      ],
      "name": "LogValidatorAdded",
      "type": "event"
    },
    {
      "anonymous": false,
      "inputs": [
        {
          "indexed": true,
          "name": "reviewAddress",
          "type": "address"
        },
        {
          "indexed": true,
          "name": "validatorAddress",
          "type": "address"
        }
      ],
      "name": "LogValidatorChosen",
      "type": "event"
    },
    {
      "anonymous": false,
      "inputs": [
        {
          "indexed": true,
          "name": "reviewAddress",
          "type": "address"
        }
      ],
      "name": "LogReviewApproved",
      "type": "event"
    },
    {
      "anonymous": false,
      "inputs": [
        {
          "indexed": true,
          "name": "reviewAddress",
          "type": "address"
        }
      ],
      "name": "LogReviewRejected",
      "type": "event"
    },
    {
      "anonymous": false,
      "inputs": [
        {
          "indexed": true,
          "name": "previousOwner",
          "type": "address"
        },
        {
          "indexed": true,
          "name": "newOwner",
          "type": "address"
        }
      ],
      "name": "OwnershipTransferred",
      "type": "event"
    },
    {
      "constant": false,
      "inputs": [
        {
          "name": "publicKey",
          "type": "string"
        },
        {
          "name": "title",
          "type": "string"
        },
        {
          "name": "surveyJsonHash",
          "type": "string"
        },
        {
          "name": "rewardPerSurvey",
          "type": "uint256"
        },
        {
          "name": "maxAnswers",
          "type": "uint256"
        }
      ],
      "name": "createSurvey",
      "outputs": [],
      "payable": false,
      "stateMutability": "nonpayable",
      "type": "function"
    },
    {
      "constant": false,
      "inputs": [
        {
          "name": "surveyJsonHash",
          "type": "string"
        },
        {
          "name": "amount",
          "type": "uint256"
        }
      ],
      "name": "fundSurvey",
      "outputs": [],
      "payable": false,
      "stateMutability": "nonpayable",
      "type": "function"
    },
    {
      "constant": false,
      "inputs": [
        {
          "name": "surveyJsonHash",
          "type": "string"
        }
      ],
      "name": "startSurvey",
      "outputs": [],
      "payable": false,
      "stateMutability": "nonpayable",
      "type": "function"
    },
    {
      "constant": false,
      "inputs": [
        {
          "name": "surveyJsonHash",
          "type": "string"
        }
      ],
      "name": "completeSurvey",
      "outputs": [],
      "payable": false,
      "stateMutability": "nonpayable",
      "type": "function"
    },
    {
      "constant": true,
      "inputs": [
        {
          "name": "surveyJsonHash",
          "type": "string"
        }
      ],
      "name": "getFunds",
      "outputs": [
        {
          "name": "",
          "type": "uint256"
        }
      ],
      "payable": false,
      "stateMutability": "view",
      "type": "function"
    },
    {
      "constant": true,
      "inputs": [
        {
          "name": "surveyJsonHash",
          "type": "string"
        }
      ],
      "name": "getSurveyStatus",
      "outputs": [
        {
          "name": "",
          "type": "uint8"
        }
      ],
      "payable": false,
      "stateMutability": "view",
      "type": "function"
    },
    {
      "constant": false,
      "inputs": [
        {
          "name": "surveyJsonHash",
          "type": "string"
        },
        {
          "name": "answersJsonHash",
          "type": "string"
        }
      ],
      "name": "answerSurvey",
      "outputs": [
        {
          "name": "",
          "type": "bool"
        }
      ],
      "payable": false,
      "stateMutability": "nonpayable",
      "type": "function"
    },
    {
      "constant": true,
      "inputs": [
        {
          "name": "surveyJsonHash",
          "type": "string"
        },
        {
          "name": "user",
          "type": "address"
        }
      ],
      "name": "isSurveyAnsweredBy",
      "outputs": [
        {
          "name": "",
          "type": "bool"
        }
      ],
      "payable": false,
      "stateMutability": "view",
      "type": "function"
    },
    {
      "constant": false,
      "inputs": [
        {
          "name": "brandAddress",
          "type": "address"
        },
        {
          "name": "name",
          "type": "string"
        },
        {
          "name": "logo",
          "type": "string"
        },
        {
          "name": "metaJsonHash",
          "type": "string"
        }
      ],
      "name": "createBrand",
      "outputs": [],
      "payable": false,
      "stateMutability": "nonpayable",
      "type": "function"
    },
    {
      "constant": false,
      "inputs": [
        {
          "name": "productAddress",
          "type": "address"
        },
        {
          "name": "brandAddress",
          "type": "address"
        },
        {
          "name": "categoryId",
          "type": "uint256"
        },
        {
          "name": "subcategoryId",
          "type": "uint256"
        },
        {
          "name": "name",
          "type": "string"
        },
        {
          "name": "image",
          "type": "string"
        },
        {
          "name": "metaJsonHash",
          "type": "string"
        }
      ],
      "name": "createProduct",
      "outputs": [],
      "payable": false,
      "stateMutability": "nonpayable",
      "type": "function"
    },
    {
      "constant": false,
      "inputs": [
        {
          "name": "username",
          "type": "string"
        }
      ],
      "name": "registerUser",
      "outputs": [],
      "payable": false,
      "stateMutability": "nonpayable",
      "type": "function"
    },
    {
      "constant": true,
      "inputs": [
        {
          "name": "userAddress",
          "type": "address"
        }
      ],
      "name": "userExists",
      "outputs": [
        {
          "name": "",
          "type": "bool"
        }
      ],
      "payable": false,
      "stateMutability": "view",
      "type": "function"
    },
    {
      "constant": false,
      "inputs": [
        {
          "name": "reviewAddress",
          "type": "address"
        },
        {
          "name": "productAddress",
          "type": "address"
        },
        {
          "name": "score",
          "type": "uint256"
        },
        {
          "name": "metaJsonHash",
          "type": "string"
        }
      ],
      "name": "createReview",
      "outputs": [],
      "payable": false,
      "stateMutability": "nonpayable",
      "type": "function"
    },
    {
      "constant": true,
      "inputs": [
        {
          "name": "reviewAddress",
          "type": "address"
        }
      ],
      "name": "getReviewStatus",
      "outputs": [
        {
          "name": "",
          "type": "uint8"
        }
      ],
      "payable": false,
      "stateMutability": "view",
      "type": "function"
    },
    {
      "constant": true,
      "inputs": [
        {
          "name": "reviewAddress",
          "type": "address"
        },
        {
          "name": "validator",
          "type": "address"
        }
      ],
      "name": "isValidatorChosenForReview",
      "outputs": [
        {
          "name": "",
          "type": "bool"
        }
      ],
      "payable": false,
      "stateMutability": "view",
      "type": "function"
    },
    {
      "constant": false,
      "inputs": [
        {
          "name": "reviewAddress",
          "type": "address"
        },
        {
          "name": "vote",
          "type": "int256"
        }
      ],
      "name": "validatorVote",
      "outputs": [],
      "payable": false,
      "stateMutability": "nonpayable",
      "type": "function"
    },
    {
      "constant": false,
      "inputs": [
        {
          "name": "validatorAddress",
          "type": "address"
        }
      ],
      "name": "addValidator",
      "outputs": [],
      "payable": false,
      "stateMutability": "nonpayable",
      "type": "function"
    },
    {
      "constant": true,
      "inputs": [
        {
          "name": "author",
          "type": "address"
        }
      ],
      "name": "choseValidators",
      "outputs": [
        {
          "name": "",
          "type": "address[]"
        }
      ],
      "payable": false,
      "stateMutability": "view",
      "type": "function"
    }
  ],
  "bytecode": "0x60806040523480156200001157600080fd5b5060405160208062005cf38339810180604052620000339190810190620000d1565b336000806101000a81548173ffffffffffffffffffffffffffffffffffffffff021916908373ffffffffffffffffffffffffffffffffffffffff16021790555080600160006101000a81548173ffffffffffffffffffffffffffffffffffffffff021916908373ffffffffffffffffffffffffffffffffffffffff160217905550506200011d565b6000620000c98251620000fd565b905092915050565b600060208284031215620000e457600080fd5b6000620000f484828501620000bb565b91505092915050565b600073ffffffffffffffffffffffffffffffffffffffff82169050919050565b615bc6806200012d6000396000f300608060405260043610610112576000357c0100000000000000000000000000000000000000000000000000000000900463ffffffff16806306ba9624146101175780630e666e4914610140578063123afe9e1461017d57806321d77d94146101ba5780632d0c9b1c146101e35780634d238c8e146102205780635219fcdf14610249578063569ea547146102725780635a22283a146102af578063704f1b94146102ec5780638da5cb5b146103155780639700909014610340578063b639c6c914610369578063bba6e36a146103a6578063c5b44712146103cf578063d9e115d31461040c578063e64f674714610449578063f2fde38b14610472578063f420e1841461049b578063fc2fd1ca146104c4575b600080fd5b34801561012357600080fd5b5061013e60048036036101399190810190614fed565b6104ed565b005b34801561014c57600080fd5b5061016760048036036101629190810190614d17565b61095b565b60405161017491906156eb565b60405180910390f35b34801561018957600080fd5b506101a4600480360361019f9190810190614d17565b610a29565b6040516101b191906156c9565b60405180910390f35b3480156101c657600080fd5b506101e160048036036101dc91908101906150ee565b610cc8565b005b3480156101ef57600080fd5b5061020a60048036036102059190810190614fed565b610ee6565b60405161021791906159b2565b60405180910390f35b34801561022c57600080fd5b5061024760048036036102429190810190614d17565b610f5e565b005b34801561025557600080fd5b50610270600480360361026b9190810190614edd565b611059565b005b34801561027e57600080fd5b5061029960048036036102949190810190614d40565b6115a8565b6040516102a691906156eb565b60405180910390f35b3480156102bb57600080fd5b506102d660048036036102d19190810190614d17565b611d59565b6040516102e39190615706565b60405180910390f35b3480156102f857600080fd5b50610313600480360361030e9190810190614fed565b611db2565b005b34801561032157600080fd5b5061032a611eef565b604051610337919061559b565b60405180910390f35b34801561034c57600080fd5b5061036760048036036103629190810190614fed565b611f14565b005b34801561037557600080fd5b50610390600480360361038b9190810190614fed565b612381565b60405161039d9190615721565b60405180910390f35b3480156103b257600080fd5b506103cd60048036036103c89190810190614df7565b612406565b005b3480156103db57600080fd5b506103f660048036036103f19190810190615082565b612945565b60405161040391906156eb565b60405180910390f35b34801561041857600080fd5b50610433600480360361042e919081019061502e565b613341565b60405161044091906156eb565b60405180910390f35b34801561045557600080fd5b50610470600480360361046b9190810190614d7c565b61347c565b005b34801561047e57600080fd5b5061049960048036036104949190810190614d17565b613f10565b005b3480156104a757600080fd5b506104c260048036036104bd91908101906151ad565b614065565b005b3480156104d057600080fd5b506104eb60048036036104e69190810190614f19565b614702565b005b6104f56148d9565b6002826040518082805190602001908083835b60208310151561052d5780518252602082019150602081019050602083039250610508565b6001836020036101000a038019825116818451168082178552505050505050905001915050908152602001604051809103902061010060405190810160405290816000820160009054906101000a900473ffffffffffffffffffffffffffffffffffffffff1673ffffffffffffffffffffffffffffffffffffffff1673ffffffffffffffffffffffffffffffffffffffff168152602001600182018054600181600116156101000203166002900480601f01602080910402602001604051908101604052809291908181526020018280546001816001161561010002031660029004801561065c5780601f106106315761010080835404028352916020019161065c565b820191906000526020600020905b81548152906001019060200180831161063f57829003601f168201915b50505050508152602001600282018054600181600116156101000203166002900480601f0160208091040260200160405190810160405280929190818152602001828054600181600116156101000203166002900480156106fe5780601f106106d3576101008083540402835291602001916106fe565b820191906000526020600020905b8154815290600101906020018083116106e157829003601f168201915b50505050508152602001600382018054600181600116156101000203166002900480601f0160208091040260200160405190810160405280929190818152602001828054600181600116156101000203166002900480156107a05780601f10610775576101008083540402835291602001916107a0565b820191906000526020600020905b81548152906001019060200180831161078357829003601f168201915b505050505081526020016004820154815260200160058201548152602001600682015481526020016007820160009054906101000a900460ff1660038111156107e557fe5b60038111156107f057fe5b815250509050806000015173ffffffffffffffffffffffffffffffffffffffff163373ffffffffffffffffffffffffffffffffffffffff1614151561083457600080fd5b6002600381111561084157fe5b8160e00151600381111561085157fe5b14151561085d57600080fd5b60036002836040518082805190602001908083835b6020831015156108975780518252602082019150602081019050602083039250610872565b6001836020036101000a038019825116818451168082178552505050505050905001915050908152602001604051809103902060070160006101000a81548160ff021916908360038111156108e857fe5b02179055503373ffffffffffffffffffffffffffffffffffffffff167f8d19faf08adf4f904aba4b47ace07c0c7c74712a6d39e931bff4dcbc25b5419582602001518360400151846060015185608001518660c0015160405161094f95949392919061584a565b60405180910390a25050565b6000604051806000019050604051809103902060001916600560008473ffffffffffffffffffffffffffffffffffffffff1673ffffffffffffffffffffffffffffffffffffffff1681526020019081526020016000206000016040518082805460018160011615610100020316600290048015610a0f5780601f106109ed576101008083540402835291820191610a0f565b820191906000526020600020905b8154815290600101906020018083116109fb575b505091505060405180910390206000191614159050919050565b6060600080600080606060008060008060006007808054905010151515610a85576040517f08c379a0000000000000000000000000000000000000000000000000000000008152600401610a7c906158f2565b60405180910390fd5b8b73ffffffffffffffffffffffffffffffffffffffff169950434098508989604051602001808381526020018260001916600019168152602001925050506040516020818303038152906040526040518082805190602001908083835b602083101515610b075780518252602082019150602081019050602083039250610ae2565b6001836020036101000a038019825116818451168082178552505050505050905001915050604051809103902060019004975060078054905088811515610b4a57fe5b0696506007604051908082528060200260200182016040528015610b7d5781602001602082028038833980820191505090505b50955060009450600193505b6007851015610cb65760078080549050858901811515610ba557fe5b06815481101515610bb257fe5b9060005260206000200160009054906101000a900473ffffffffffffffffffffffffffffffffffffffff16925060009150600090505b8551811015610c4e578273ffffffffffffffffffffffffffffffffffffffff168682815181101515610c1657fe5b9060200190602002015173ffffffffffffffffffffffffffffffffffffffff161415610c4157600191505b8080600101915050610be8565b811515610ca957828686815181101515610c6457fe5b9060200190602002019073ffffffffffffffffffffffffffffffffffffffff16908173ffffffffffffffffffffffffffffffffffffffff168152505084806001019550505b8380600101945050610b89565b859a5050505050505050505050919050565b610cd06148d9565b610100604051908101604052803373ffffffffffffffffffffffffffffffffffffffff1681526020018781526020018681526020018581526020018481526020016000815260200183815260200160006003811115610d2b57fe5b8152509050806002856040518082805190602001908083835b602083101515610d695780518252602082019150602081019050602083039250610d44565b6001836020036101000a038019825116818451168082178552505050505050905001915050908152602001604051809103902060008201518160000160006101000a81548173ffffffffffffffffffffffffffffffffffffffff021916908373ffffffffffffffffffffffffffffffffffffffff1602179055506020820151816001019080519060200190610dff929190614940565b506040820151816002019080519060200190610e1c929190614940565b506060820151816003019080519060200190610e39929190614940565b506080820151816004015560a0820151816005015560c0820151816006015560e08201518160070160006101000a81548160ff02191690836003811115610e7c57fe5b02179055509050503373ffffffffffffffffffffffffffffffffffffffff167f95425f5f4392462c32fc4957d62e15f8589a263ec26ba4b863ca0bacfca39fe6826020015187878787604051610ed69594939291906157e2565b60405180910390a2505050505050565b60006002826040518082805190602001908083835b602083101515610f205780518252602082019150602081019050602083039250610efb565b6001836020036101000a0380198251168184511680821785525050505050509050019150509081526020016040518091039020600501549050919050565b6000809054906101000a900473ffffffffffffffffffffffffffffffffffffffff1673ffffffffffffffffffffffffffffffffffffffff163373ffffffffffffffffffffffffffffffffffffffff16141515610fb957600080fd5b60078190806001815401808255809150509060018203906000526020600020016000909192909190916101000a81548173ffffffffffffffffffffffffffffffffffffffff021916908373ffffffffffffffffffffffffffffffffffffffff160217905550507f4abba4877a811c10c94281a6a64a19db457ed00ca5e9c8dcd2563023d04771398160405161104e919061559b565b60405180910390a150565b600080600080600660008773ffffffffffffffffffffffffffffffffffffffff1673ffffffffffffffffffffffffffffffffffffffff1681526020019081526020016000209350600060028111156110ad57fe5b84600d0160009054906101000a900460ff1660028111156110ca57fe5b14151561110c576040517f08c379a000000000000000000000000000000000000000000000000000000000815260040161110390615992565b60405180910390fd5b6000600660008873ffffffffffffffffffffffffffffffffffffffff1673ffffffffffffffffffffffffffffffffffffffff168152602001908152602001600020600f0160003373ffffffffffffffffffffffffffffffffffffffff1673ffffffffffffffffffffffffffffffffffffffff168152602001908152602001600020541415156111d0576040517f08c379a00000000000000000000000000000000000000000000000000000000081526004016111c790615912565b60405180910390fd5b6111da86336115a8565b151561121b576040517f08c379a000000000000000000000000000000000000000000000000000000000815260040161121290615932565b60405180910390fd5b7fffffffffffffffffffffffffffffffffffffffffffffffffffffffffffffffff8514806112495750600185145b151561128a576040517f08c379a0000000000000000000000000000000000000000000000000000000008152600401611281906158d2565b60405180910390fd5b84600660008873ffffffffffffffffffffffffffffffffffffffff1673ffffffffffffffffffffffffffffffffffffffff168152602001908152602001600020600f0160003373ffffffffffffffffffffffffffffffffffffffff1673ffffffffffffffffffffffffffffffffffffffff168152602001908152602001600020819055506001925060009150600090505b600781101561143c5783600f01600085600e018381548110151561133b57fe5b9060005260206000200160009054906101000a900473ffffffffffffffffffffffffffffffffffffffff1673ffffffffffffffffffffffffffffffffffffffff1673ffffffffffffffffffffffffffffffffffffffff1681526020019081526020016000205482019150600084600f01600086600e01848154811015156113be57fe5b9060005260206000200160009054906101000a900473ffffffffffffffffffffffffffffffffffffffff1673ffffffffffffffffffffffffffffffffffffffff1673ffffffffffffffffffffffffffffffffffffffff16815260200190815260200160002054141561142f57600092505b808060010191505061131b565b82156115a05760008213156114f7576001600660008873ffffffffffffffffffffffffffffffffffffffff1673ffffffffffffffffffffffffffffffffffffffff168152602001908152602001600020600d0160006101000a81548160ff021916908360028111156114aa57fe5b02179055508573ffffffffffffffffffffffffffffffffffffffff167f8d67778d3c84e090f29350f79de7d2e71f7cfecc900ac3aa3b6bf8c9839eb2b260405160405180910390a261159f565b6002600660008873ffffffffffffffffffffffffffffffffffffffff1673ffffffffffffffffffffffffffffffffffffffff168152602001908152602001600020600d0160006101000a81548160ff0219169083600281111561155657fe5b02179055508573ffffffffffffffffffffffffffffffffffffffff167f2224994bc80d3e59016dcf8b2c998bb03418f92f4ecec1eab1a01d2e40f7084060405160405180910390a25b5b505050505050565b60006115b26149c0565b600080600660008773ffffffffffffffffffffffffffffffffffffffff1673ffffffffffffffffffffffffffffffffffffffff16815260200190815260200160002060c060405190810160405290816000820160206040519081016040529081600082018054600181600116156101000203166002900480601f0160208091040260200160405190810160405280929190818152602001828054600181600116156101000203166002900480156116aa5780601f1061167f576101008083540402835291602001916116aa565b820191906000526020600020905b81548152906001019060200180831161168d57829003601f168201915b50505050508152505081526020016001820160e060405190810160405290816000820160009054906101000a900473ffffffffffffffffffffffffffffffffffffffff1673ffffffffffffffffffffffffffffffffffffffff1673ffffffffffffffffffffffffffffffffffffffff16815260200160018201608060405190810160405290816000820160009054906101000a900473ffffffffffffffffffffffffffffffffffffffff1673ffffffffffffffffffffffffffffffffffffffff1673ffffffffffffffffffffffffffffffffffffffff168152602001600182018054600181600116156101000203166002900480601f01602080910402602001604051908101604052809291908181526020018280546001816001161561010002031660029004801561181e5780601f106117f35761010080835404028352916020019161181e565b820191906000526020600020905b81548152906001019060200180831161180157829003601f168201915b50505050508152602001600282018054600181600116156101000203166002900480601f0160208091040260200160405190810160405280929190818152602001828054600181600116156101000203166002900480156118c05780601f10611895576101008083540402835291602001916118c0565b820191906000526020600020905b8154815290600101906020018083116118a357829003601f168201915b50505050508152602001600382018054600181600116156101000203166002900480601f0160208091040260200160405190810160405280929190818152602001828054600181600116156101000203166002900480156119625780601f1061193757610100808354040283529160200191611962565b820191906000526020600020905b81548152906001019060200180831161194557829003601f168201915b50505050508152505081526020016005820154815260200160068201548152602001600782018054600181600116156101000203166002900480601f016020809104026020016040519081016040528092919081815260200182805460018160011615610100020316600290048015611a1c5780601f106119f157610100808354040283529160200191611a1c565b820191906000526020600020905b8154815290600101906020018083116119ff57829003601f168201915b50505050508152602001600882018054600181600116156101000203166002900480601f016020809104026020016040519081016040528092919081815260200182805460018160011615610100020316600290048015611abe5780601f10611a9357610100808354040283529160200191611abe565b820191906000526020600020905b815481529060010190602001808311611aa157829003601f168201915b50505050508152602001600982018054600181600116156101000203166002900480601f016020809104026020016040519081016040528092919081815260200182805460018160011615610100020316600290048015611b605780601f10611b3557610100808354040283529160200191611b60565b820191906000526020600020905b815481529060010190602001808311611b4357829003601f168201915b5050505050815250508152602001600b8201548152602001600c82018054600181600116156101000203166002900480601f016020809104026020016040519081016040528092919081815260200182805460018160011615610100020316600290048015611c105780601f10611be557610100808354040283529160200191611c10565b820191906000526020600020905b815481529060010190602001808311611bf357829003601f168201915b50505050508152602001600d820160009054906101000a900460ff166002811115611c3757fe5b6002811115611c4257fe5b8152602001600e8201805480602002602001604051908101604052809291908181526020018280548015611ccb57602002820191906000526020600020905b8160009054906101000a900473ffffffffffffffffffffffffffffffffffffffff1673ffffffffffffffffffffffffffffffffffffffff1681526020019060010190808311611c81575b505050505081525050925060009150600090505b8260a0015151811015611d4d578473ffffffffffffffffffffffffffffffffffffffff168360a0015182815181101515611d1557fe5b9060200190602002015173ffffffffffffffffffffffffffffffffffffffff161415611d4057600191505b8080600101915050611cdf565b81935050505092915050565b6000600660008373ffffffffffffffffffffffffffffffffffffffff1673ffffffffffffffffffffffffffffffffffffffff168152602001908152602001600020600d0160009054906101000a900460ff169050919050565b611dba614a0f565b604051806000019050604051809103902060001916826040518082805190602001908083835b602083101515611e055780518252602082019150602081019050602083039250611de0565b6001836020036101000a03801982511681845116808217855250505050505090500191505060405180910390206000191614151515611e79576040517f08c379a0000000000000000000000000000000000000000000000000000000008152600401611e7090615952565b60405180910390fd5b60206040519081016040528083815250905080600560003373ffffffffffffffffffffffffffffffffffffffff1673ffffffffffffffffffffffffffffffffffffffff1681526020019081526020016000206000820151816000019080519060200190611ee7929190614940565b509050505050565b6000809054906101000a900473ffffffffffffffffffffffffffffffffffffffff1681565b611f1c6148d9565b6002826040518082805190602001908083835b602083101515611f545780518252602082019150602081019050602083039250611f2f565b6001836020036101000a038019825116818451168082178552505050505050905001915050908152602001604051809103902061010060405190810160405290816000820160009054906101000a900473ffffffffffffffffffffffffffffffffffffffff1673ffffffffffffffffffffffffffffffffffffffff1673ffffffffffffffffffffffffffffffffffffffff168152602001600182018054600181600116156101000203166002900480601f0160208091040260200160405190810160405280929190818152602001828054600181600116156101000203166002900480156120835780601f1061205857610100808354040283529160200191612083565b820191906000526020600020905b81548152906001019060200180831161206657829003601f168201915b50505050508152602001600282018054600181600116156101000203166002900480601f0160208091040260200160405190810160405280929190818152602001828054600181600116156101000203166002900480156121255780601f106120fa57610100808354040283529160200191612125565b820191906000526020600020905b81548152906001019060200180831161210857829003601f168201915b50505050508152602001600382018054600181600116156101000203166002900480601f0160208091040260200160405190810160405280929190818152602001828054600181600116156101000203166002900480156121c75780601f1061219c576101008083540402835291602001916121c7565b820191906000526020600020905b8154815290600101906020018083116121aa57829003601f168201915b505050505081526020016004820154815260200160058201548152602001600682015481526020016007820160009054906101000a900460ff16600381111561220c57fe5b600381111561221757fe5b815250509050806000015173ffffffffffffffffffffffffffffffffffffffff163373ffffffffffffffffffffffffffffffffffffffff1614151561225b57600080fd5b6001600381111561226857fe5b8160e00151600381111561227857fe5b14151561228457600080fd5b600280836040518082805190602001908083835b6020831015156122bd5780518252602082019150602081019050602083039250612298565b6001836020036101000a038019825116818451168082178552505050505050905001915050908152602001604051809103902060070160006101000a81548160ff0219169083600381111561230e57fe5b02179055503373ffffffffffffffffffffffffffffffffffffffff167fd2e59155eb79323d200530a040ef34592cb14783597fd17fbb14bfdfa241a19c82602001518360400151846060015185608001518660c0015160405161237595949392919061584a565b60405180910390a25050565b60006002826040518082805190602001908083835b6020831015156123bb5780518252602082019150602081019050602083039250612396565b6001836020036101000a038019825116818451168082178552505050505050905001915050908152602001604051809103902060070160009054906101000a900460ff169050919050565b61240e614a23565b612416614a62565b6000809054906101000a900473ffffffffffffffffffffffffffffffffffffffff1673ffffffffffffffffffffffffffffffffffffffff163373ffffffffffffffffffffffffffffffffffffffff1614151561247157600080fd5b600360008973ffffffffffffffffffffffffffffffffffffffff1673ffffffffffffffffffffffffffffffffffffffff168152602001908152602001600020608060405190810160405290816000820160009054906101000a900473ffffffffffffffffffffffffffffffffffffffff1673ffffffffffffffffffffffffffffffffffffffff1673ffffffffffffffffffffffffffffffffffffffff168152602001600182018054600181600116156101000203166002900480601f0160208091040260200160405190810160405280929190818152602001828054600181600116156101000203166002900480156125ab5780601f10612580576101008083540402835291602001916125ab565b820191906000526020600020905b81548152906001019060200180831161258e57829003601f168201915b50505050508152602001600282018054600181600116156101000203166002900480601f01602080910402602001604051908101604052809291908181526020018280546001816001161561010002031660029004801561264d5780601f106126225761010080835404028352916020019161264d565b820191906000526020600020905b81548152906001019060200180831161263057829003601f168201915b50505050508152602001600382018054600181600116156101000203166002900480601f0160208091040260200160405190810160405280929190818152602001828054600181600116156101000203166002900480156126ef5780601f106126c4576101008083540402835291602001916126ef565b820191906000526020600020905b8154815290600101906020018083116126d257829003601f168201915b505050505081525050915060e0604051908101604052803373ffffffffffffffffffffffffffffffffffffffff16815260200183815260200188815260200187815260200186815260200185815260200184815250905080600460008a73ffffffffffffffffffffffffffffffffffffffff1673ffffffffffffffffffffffffffffffffffffffff16815260200190815260200160002060008201518160000160006101000a81548173ffffffffffffffffffffffffffffffffffffffff021916908373ffffffffffffffffffffffffffffffffffffffff16021790555060208201518160010160008201518160000160006101000a81548173ffffffffffffffffffffffffffffffffffffffff021916908373ffffffffffffffffffffffffffffffffffffffff1602179055506020820151816001019080519060200190612839929190614940565b506040820151816002019080519060200190612856929190614940565b506060820151816003019080519060200190612873929190614940565b505050604082015181600501556060820151816006015560808201518160070190805190602001906128a6929190614940565b5060a08201518160080190805190602001906128c3929190614940565b5060c08201518160090190805190602001906128e0929190614940565b5090505085878973ffffffffffffffffffffffffffffffffffffffff167fa8eb483ae0b26d661084885c61d6b3d1e261e6c23de036d2f9ce374aad8664e28c8989896040516129329493929190615646565b60405180910390a4505050505050505050565b600061294f6148d9565b6002846040518082805190602001908083835b6020831015156129875780518252602082019150602081019050602083039250612962565b6001836020036101000a038019825116818451168082178552505050505050905001915050908152602001604051809103902061010060405190810160405290816000820160009054906101000a900473ffffffffffffffffffffffffffffffffffffffff1673ffffffffffffffffffffffffffffffffffffffff1673ffffffffffffffffffffffffffffffffffffffff168152602001600182018054600181600116156101000203166002900480601f016020809104026020016040519081016040528092919081815260200182805460018160011615610100020316600290048015612ab65780601f10612a8b57610100808354040283529160200191612ab6565b820191906000526020600020905b815481529060010190602001808311612a9957829003601f168201915b50505050508152602001600282018054600181600116156101000203166002900480601f016020809104026020016040519081016040528092919081815260200182805460018160011615610100020316600290048015612b585780601f10612b2d57610100808354040283529160200191612b58565b820191906000526020600020905b815481529060010190602001808311612b3b57829003601f168201915b50505050508152602001600382018054600181600116156101000203166002900480601f016020809104026020016040519081016040528092919081815260200182805460018160011615610100020316600290048015612bfa5780601f10612bcf57610100808354040283529160200191612bfa565b820191906000526020600020905b815481529060010190602001808311612bdd57829003601f168201915b505050505081526020016004820154815260200160058201548152602001600682015481526020016007820160009054906101000a900460ff166003811115612c3f57fe5b6003811115612c4a57fe5b815250509050604051806000019050604051809103902060001916836040518082805190602001908083835b602083101515612c9b5780518252602082019150602081019050602083039250612c76565b6001836020036101000a03801982511681845116808217855250505050505090500191505060405180910390206000191614151515612cd957600080fd5b604051806000019050604051809103902060001916846040518082805190602001908083835b602083101515612d245780518252602082019150602081019050602083039250612cff565b6001836020036101000a03801982511681845116808217855250505050505090500191505060405180910390206000191614151515612d6257600080fd5b60026003811115612d6f57fe5b8160e001516003811115612d7f57fe5b141515612d8b57600080fd5b6040518060000190506040518091039020600019166002856040518082805190602001908083835b602083101515612dd85780518252602082019150602081019050602083039250612db3565b6001836020036101000a038019825116818451168082178552505050505050905001915050908152602001604051809103902060080160003373ffffffffffffffffffffffffffffffffffffffff1673ffffffffffffffffffffffffffffffffffffffff1681526020019081526020016000206000016040518082805460018160011615610100020316600290048015612ea95780601f10612e87576101008083540402835291820191612ea9565b820191906000526020600020905b815481529060010190602001808311612e95575b5050915050604051809103902060001916141515612ec657600080fd5b602060405190810160405280848152506002856040518082805190602001908083835b602083101515612f0e5780518252602082019150602081019050602083039250612ee9565b6001836020036101000a038019825116818451168082178552505050505050905001915050908152602001604051809103902060080160003373ffffffffffffffffffffffffffffffffffffffff1673ffffffffffffffffffffffffffffffffffffffff1681526020019081526020016000206000820151816000019080519060200190612f9d929190614940565b50905050600160009054906101000a900473ffffffffffffffffffffffffffffffffffffffff1673ffffffffffffffffffffffffffffffffffffffff1663a9059cbb3383608001516040518363ffffffff167c010000000000000000000000000000000000000000000000000000000002815260040161301e9291906156a0565b602060405180830381600087803b15801561303857600080fd5b505af115801561304c573d6000803e3d6000fd5b505050506040513d601f19601f820116820180604052506130709190810190614fc4565b151561307b57600080fd5b6002846040518082805190602001908083835b6020831015156130b3578051825260208201915060208101905060208303925061308e565b6001836020036101000a0380198251168184511680821785525050505050509050019150509081526020016040518091039020600401546002856040518082805190602001908083835b60208310151561312257805182526020820191506020810190506020830392506130fd565b6001836020036101000a0380198251168184511680821785525050505050509050019150509081526020016040518091039020600501600082825403925050819055503373ffffffffffffffffffffffffffffffffffffffff167f34c6e4292ec4c54b9ebd046067b22da7c48f22dba9723a4b79b837e3a191a5d68585846040015185608001516040516131b99493929190615788565b60405180910390a280608001516002856040518082805190602001908083835b6020831015156131fe57805182526020820191506020810190506020830392506131d9565b6001836020036101000a038019825116818451168082178552505050505050905001915050908152602001604051809103902060050154101561333a5760036002856040518082805190602001908083835b6020831015156132755780518252602082019150602081019050602083039250613250565b6001836020036101000a038019825116818451168082178552505050505050905001915050908152602001604051809103902060070160006101000a81548160ff021916908360038111156132c657fe5b0217905550806000015173ffffffffffffffffffffffffffffffffffffffff167f8d19faf08adf4f904aba4b47ace07c0c7c74712a6d39e931bff4dcbc25b5419582602001518360400151846060015185608001518660c0015160405161333195949392919061584a565b60405180910390a25b5092915050565b60006040518060000190506040518091039020600019166002846040518082805190602001908083835b602083101515613390578051825260208201915060208101905060208303925061336b565b6001836020036101000a038019825116818451168082178552505050505050905001915050908152602001604051809103902060080160008473ffffffffffffffffffffffffffffffffffffffff1673ffffffffffffffffffffffffffffffffffffffff16815260200190815260200160002060000160405180828054600181600116156101000203166002900480156134615780601f1061343f576101008083540402835291820191613461565b820191906000526020600020905b81548152906001019060200180831161344d575b50509150506040518091039020600019161415905092915050565b613484614a0f565b61348c614a62565b6134946149c0565b6000600186101580156134a8575060048611155b15156134e9576040517f08c379a00000000000000000000000000000000000000000000000000000000081526004016134e090615972565b60405180910390fd5b600560003373ffffffffffffffffffffffffffffffffffffffff1673ffffffffffffffffffffffffffffffffffffffff16815260200190815260200160002060206040519081016040529081600082018054600181600116156101000203166002900480601f0160208091040260200160405190810160405280929190818152602001828054600181600116156101000203166002900480156135cd5780601f106135a2576101008083540402835291602001916135cd565b820191906000526020600020905b8154815290600101906020018083116135b057829003601f168201915b505050505081525050935060405180600001905060405180910390206000191684600001516040518082805190602001908083835b6020831015156136275780518252602082019150602081019050602083039250613602565b6001836020036101000a0380198251168184511680821785525050505050509050019150506040518091039020600019161415151561369b576040517f08c379a0000000000000000000000000000000000000000000000000000000008152600401613692906158b2565b60405180910390fd5b600460008873ffffffffffffffffffffffffffffffffffffffff1673ffffffffffffffffffffffffffffffffffffffff16815260200190815260200160002060e060405190810160405290816000820160009054906101000a900473ffffffffffffffffffffffffffffffffffffffff1673ffffffffffffffffffffffffffffffffffffffff1673ffffffffffffffffffffffffffffffffffffffff16815260200160018201608060405190810160405290816000820160009054906101000a900473ffffffffffffffffffffffffffffffffffffffff1673ffffffffffffffffffffffffffffffffffffffff1673ffffffffffffffffffffffffffffffffffffffff168152602001600182018054600181600116156101000203166002900480601f01602080910402602001604051908101604052809291908181526020018280546001816001161561010002031660029004801561383c5780601f106138115761010080835404028352916020019161383c565b820191906000526020600020905b81548152906001019060200180831161381f57829003601f168201915b50505050508152602001600282018054600181600116156101000203166002900480601f0160208091040260200160405190810160405280929190818152602001828054600181600116156101000203166002900480156138de5780601f106138b3576101008083540402835291602001916138de565b820191906000526020600020905b8154815290600101906020018083116138c157829003601f168201915b50505050508152602001600382018054600181600116156101000203166002900480601f0160208091040260200160405190810160405280929190818152602001828054600181600116156101000203166002900480156139805780601f1061395557610100808354040283529160200191613980565b820191906000526020600020905b81548152906001019060200180831161396357829003601f168201915b50505050508152505081526020016005820154815260200160068201548152602001600782018054600181600116156101000203166002900480601f016020809104026020016040519081016040528092919081815260200182805460018160011615610100020316600290048015613a3a5780601f10613a0f57610100808354040283529160200191613a3a565b820191906000526020600020905b815481529060010190602001808311613a1d57829003601f168201915b50505050508152602001600882018054600181600116156101000203166002900480601f016020809104026020016040519081016040528092919081815260200182805460018160011615610100020316600290048015613adc5780601f10613ab157610100808354040283529160200191613adc565b820191906000526020600020905b815481529060010190602001808311613abf57829003601f168201915b50505050508152602001600982018054600181600116156101000203166002900480601f016020809104026020016040519081016040528092919081815260200182805460018160011615610100020316600290048015613b7e5780601f10613b5357610100808354040283529160200191613b7e565b820191906000526020600020905b815481529060010190602001808311613b6157829003601f168201915b505050505081525050925060c06040519081016040528085815260200184815260200187815260200186815260200160006002811115613bba57fe5b8152602001613bc833610a29565b815250915081600660008a73ffffffffffffffffffffffffffffffffffffffff1673ffffffffffffffffffffffffffffffffffffffff1681526020019081526020016000206000820151816000016000820151816000019080519060200190613c32929190614940565b50505060208201518160010160008201518160000160006101000a81548173ffffffffffffffffffffffffffffffffffffffff021916908373ffffffffffffffffffffffffffffffffffffffff16021790555060208201518160010160008201518160000160006101000a81548173ffffffffffffffffffffffffffffffffffffffff021916908373ffffffffffffffffffffffffffffffffffffffff1602179055506020820151816001019080519060200190613cf1929190614940565b506040820151816002019080519060200190613d0e929190614940565b506060820151816003019080519060200190613d2b929190614940565b50505060408201518160050155606082015181600601556080820151816007019080519060200190613d5e929190614940565b5060a0820151816008019080519060200190613d7b929190614940565b5060c0820151816009019080519060200190613d98929190614940565b505050604082015181600b0155606082015181600c019080519060200190613dc1929190614940565b50608082015181600d0160006101000a81548160ff02191690836002811115613de657fe5b021790555060a082015181600e019080519060200190613e07929190614abd565b50905050600090505b8160a0015151811015613e9f578160a0015181815181101515613e2f57fe5b9060200190602002015173ffffffffffffffffffffffffffffffffffffffff168873ffffffffffffffffffffffffffffffffffffffff167f516fad89f67e240d0a64ec70fafc3d3e19cbef89cf5d91598b143a101e4dbf1b60405160405180910390a38080600101915050613e10565b8673ffffffffffffffffffffffffffffffffffffffff163373ffffffffffffffffffffffffffffffffffffffff167fc8e93948f0d856bad2f514ddd6a9379aabdc542c58efc5f44619ecf11dbe90328a88604051613efe929190615616565b60405180910390a35050505050505050565b6000809054906101000a900473ffffffffffffffffffffffffffffffffffffffff1673ffffffffffffffffffffffffffffffffffffffff163373ffffffffffffffffffffffffffffffffffffffff16141515613f6b57600080fd5b600073ffffffffffffffffffffffffffffffffffffffff168173ffffffffffffffffffffffffffffffffffffffff1614151515613fa757600080fd5b8073ffffffffffffffffffffffffffffffffffffffff166000809054906101000a900473ffffffffffffffffffffffffffffffffffffffff1673ffffffffffffffffffffffffffffffffffffffff167f8be0079c531659141344cd1fd0a4f28419497f9722a3daafe3b4186f6b6457e060405160405180910390a3806000806101000a81548173ffffffffffffffffffffffffffffffffffffffff021916908373ffffffffffffffffffffffffffffffffffffffff16021790555050565b61406d6148d9565b60006002846040518082805190602001908083835b6020831015156140a75780518252602082019150602081019050602083039250614082565b6001836020036101000a038019825116818451168082178552505050505050905001915050908152602001604051809103902061010060405190810160405290816000820160009054906101000a900473ffffffffffffffffffffffffffffffffffffffff1673ffffffffffffffffffffffffffffffffffffffff1673ffffffffffffffffffffffffffffffffffffffff168152602001600182018054600181600116156101000203166002900480601f0160208091040260200160405190810160405280929190818152602001828054600181600116156101000203166002900480156141d65780601f106141ab576101008083540402835291602001916141d6565b820191906000526020600020905b8154815290600101906020018083116141b957829003601f168201915b50505050508152602001600282018054600181600116156101000203166002900480601f0160208091040260200160405190810160405280929190818152602001828054600181600116156101000203166002900480156142785780601f1061424d57610100808354040283529160200191614278565b820191906000526020600020905b81548152906001019060200180831161425b57829003601f168201915b50505050508152602001600382018054600181600116156101000203166002900480601f01602080910402602001604051908101604052809291908181526020018280546001816001161561010002031660029004801561431a5780601f106142ef5761010080835404028352916020019161431a565b820191906000526020600020905b8154815290600101906020018083116142fd57829003601f168201915b505050505081526020016004820154815260200160058201548152602001600682015481526020016007820160009054906101000a900460ff16600381111561435f57fe5b600381111561436a57fe5b815250509150816000015173ffffffffffffffffffffffffffffffffffffffff163373ffffffffffffffffffffffffffffffffffffffff161415156143ae57600080fd5b600160009054906101000a900473ffffffffffffffffffffffffffffffffffffffff1673ffffffffffffffffffffffffffffffffffffffff1663dd62ed3e33306040518363ffffffff167c01000000000000000000000000000000000000000000000000000000000281526004016144279291906155b6565b602060405180830381600087803b15801561444157600080fd5b505af1158015614455573d6000803e3d6000fd5b505050506040513d601f19601f820116820180604052506144799190810190615201565b905082811015151561448a57600080fd5b600160009054906101000a900473ffffffffffffffffffffffffffffffffffffffff1673ffffffffffffffffffffffffffffffffffffffff166323b872dd3330866040518463ffffffff167c0100000000000000000000000000000000000000000000000000000000028152600401614505939291906155df565b602060405180830381600087803b15801561451f57600080fd5b505af1158015614533573d6000803e3d6000fd5b505050506040513d601f19601f820116820180604052506145579190810190614fc4565b151561456257600080fd5b826002856040518082805190602001908083835b60208310151561459b5780518252602082019150602081019050602083039250614576565b6001836020036101000a038019825116818451168082178552505050505050905001915050908152602001604051809103902060050160008282540192505081905550600060038111156145eb57fe5b8260e0015160038111156145fb57fe5b14156146925760016002856040518082805190602001908083835b60208310151561463b5780518252602082019150602081019050602083039250614616565b6001836020036101000a038019825116818451168082178552505050505050905001915050908152602001604051809103902060070160006101000a81548160ff0219169083600381111561468c57fe5b02179055505b3373ffffffffffffffffffffffffffffffffffffffff167f7d703b99136412be3113d8613d984b3314e5afef7799b73dbc59f0dc66ae2b7f83602001518460400151856060015186608001518760c001516040516146f495949392919061584a565b60405180910390a250505050565b61470a614a23565b6000809054906101000a900473ffffffffffffffffffffffffffffffffffffffff1673ffffffffffffffffffffffffffffffffffffffff163373ffffffffffffffffffffffffffffffffffffffff1614151561476557600080fd5b6080604051908101604052803373ffffffffffffffffffffffffffffffffffffffff16815260200185815260200184815260200183815250905080600360008773ffffffffffffffffffffffffffffffffffffffff1673ffffffffffffffffffffffffffffffffffffffff16815260200190815260200160002060008201518160000160006101000a81548173ffffffffffffffffffffffffffffffffffffffff021916908373ffffffffffffffffffffffffffffffffffffffff1602179055506020820151816001019080519060200190614842929190614940565b50604082015181600201908051906020019061485f929190614940565b50606082015181600301908051906020019061487c929190614940565b509050508473ffffffffffffffffffffffffffffffffffffffff167f93344bf09616cc759180686da113c69c7179b2ffe0492c8714a97a99a2f912748585856040516148ca9392919061573c565b60405180910390a25050505050565b61010060405190810160405280600073ffffffffffffffffffffffffffffffffffffffff1681526020016060815260200160608152602001606081526020016000815260200160008152602001600081526020016000600381111561493a57fe5b81525090565b828054600181600116156101000203166002900490600052602060002090601f016020900481019282601f1061498157805160ff19168380011785556149af565b828001600101855582156149af579182015b828111156149ae578251825591602001919060010190614993565b5b5090506149bc9190614b47565b5090565b6101e0604051908101604052806149d5614b6c565b81526020016149e2614b80565b8152602001600081526020016060815260200160006002811115614a0257fe5b8152602001606081525090565b602060405190810160405280606081525090565b608060405190810160405280600073ffffffffffffffffffffffffffffffffffffffff1681526020016060815260200160608152602001606081525090565b61014060405190810160405280600073ffffffffffffffffffffffffffffffffffffffff168152602001614a94614bdb565b815260200160008152602001600081526020016060815260200160608152602001606081525090565b828054828255906000526020600020908101928215614b36579160200282015b82811115614b355782518260006101000a81548173ffffffffffffffffffffffffffffffffffffffff021916908373ffffffffffffffffffffffffffffffffffffffff16021790555091602001919060010190614add565b5b509050614b439190614c1a565b5090565b614b6991905b80821115614b65576000816000905550600101614b4d565b5090565b90565b602060405190810160405280606081525090565b61014060405190810160405280600073ffffffffffffffffffffffffffffffffffffffff168152602001614bb2614bdb565b815260200160008152602001600081526020016060815260200160608152602001606081525090565b608060405190810160405280600073ffffffffffffffffffffffffffffffffffffffff1681526020016060815260200160608152602001606081525090565b614c5a91905b80821115614c5657600081816101000a81549073ffffffffffffffffffffffffffffffffffffffff021916905550600101614c20565b5090565b90565b6000614c698235615ac3565b905092915050565b6000614c7d8251615ae3565b905092915050565b6000614c918235615aef565b905092915050565b600082601f8301121515614cac57600080fd5b8135614cbf614cba826159fa565b6159cd565b91508082526020830160208301858383011115614cdb57600080fd5b614ce6838284615b39565b50505092915050565b6000614cfb8235615af9565b905092915050565b6000614d0f8251615af9565b905092915050565b600060208284031215614d2957600080fd5b6000614d3784828501614c5d565b91505092915050565b60008060408385031215614d5357600080fd5b6000614d6185828601614c5d565b9250506020614d7285828601614c5d565b9150509250929050565b60008060008060808587031215614d9257600080fd5b6000614da087828801614c5d565b9450506020614db187828801614c5d565b9350506040614dc287828801614cef565b925050606085013567ffffffffffffffff811115614ddf57600080fd5b614deb87828801614c99565b91505092959194509250565b600080600080600080600060e0888a031215614e1257600080fd5b6000614e208a828b01614c5d565b9750506020614e318a828b01614c5d565b9650506040614e428a828b01614cef565b9550506060614e538a828b01614cef565b945050608088013567ffffffffffffffff811115614e7057600080fd5b614e7c8a828b01614c99565b93505060a088013567ffffffffffffffff811115614e9957600080fd5b614ea58a828b01614c99565b92505060c088013567ffffffffffffffff811115614ec257600080fd5b614ece8a828b01614c99565b91505092959891949750929550565b60008060408385031215614ef057600080fd5b6000614efe85828601614c5d565b9250506020614f0f85828601614c85565b9150509250929050565b60008060008060808587031215614f2f57600080fd5b6000614f3d87828801614c5d565b945050602085013567ffffffffffffffff811115614f5a57600080fd5b614f6687828801614c99565b935050604085013567ffffffffffffffff811115614f8357600080fd5b614f8f87828801614c99565b925050606085013567ffffffffffffffff811115614fac57600080fd5b614fb887828801614c99565b91505092959194509250565b600060208284031215614fd657600080fd5b6000614fe484828501614c71565b91505092915050565b600060208284031215614fff57600080fd5b600082013567ffffffffffffffff81111561501957600080fd5b61502584828501614c99565b91505092915050565b6000806040838503121561504157600080fd5b600083013567ffffffffffffffff81111561505b57600080fd5b61506785828601614c99565b925050602061507885828601614c5d565b9150509250929050565b6000806040838503121561509557600080fd5b600083013567ffffffffffffffff8111156150af57600080fd5b6150bb85828601614c99565b925050602083013567ffffffffffffffff8111156150d857600080fd5b6150e485828601614c99565b9150509250929050565b600080600080600060a0868803121561510657600080fd5b600086013567ffffffffffffffff81111561512057600080fd5b61512c88828901614c99565b955050602086013567ffffffffffffffff81111561514957600080fd5b61515588828901614c99565b945050604086013567ffffffffffffffff81111561517257600080fd5b61517e88828901614c99565b935050606061518f88828901614cef565b92505060806151a088828901614cef565b9150509295509295909350565b600080604083850312156151c057600080fd5b600083013567ffffffffffffffff8111156151da57600080fd5b6151e685828601614c99565b92505060206151f785828601614cef565b9150509250929050565b60006020828403121561521357600080fd5b600061522184828501614d03565b91505092915050565b61523381615a61565b82525050565b600061524482615a33565b80845260208401935061525683615a26565b60005b828110156152885761526c86835161522a565b61527582615a54565b9150602086019550600181019050615259565b50849250505092915050565b61529d81615a81565b82525050565b6152ac81615b03565b82525050565b6152bb81615b15565b82525050565b6152ca81615b27565b82525050565b60006152db82615a49565b8084526152ef816020860160208601615b48565b6152f881615b7b565b602085010191505092915050565b600061531182615a3e565b808452615325816020860160208601615b48565b61532e81615b7b565b602085010191505092915050565b6000603882527f596f7520617265206e6f7420726567697374657265642061732061207573657260208301527f2e20506c656173652072656769737465722066697273742100000000000000006040830152606082019050919050565b6000601582527f566f7465206d757374206265202d31206f7220312e00000000000000000000006020830152604082019050919050565b6000602482527f4e6f7420656e6f7567682076616c696461746f727320696e207468652073797360208301527f74656d21000000000000000000000000000000000000000000000000000000006040830152606082019050919050565b6000602182527f596f7520616c726561647920766f746564206f6e20746869732072657669657760208301527f2e000000000000000000000000000000000000000000000000000000000000006040830152606082019050919050565b6000602b82527f596f7520617265206e6f742063686f73656e20746f2076616c6964617465207460208301527f686973207265766965772e0000000000000000000000000000000000000000006040830152606082019050919050565b6000601782527f557365726e616d652063616e277420626520656d7074790000000000000000006020830152604082019050919050565b6000601d82527f53636f7265206d757374206265206265747765656e203120616e6420340000006020830152604082019050919050565b6000601982527f52657669657720616c72656164792076616c6964617465642e000000000000006020830152604082019050919050565b61559581615ab9565b82525050565b60006020820190506155b0600083018461522a565b92915050565b60006040820190506155cb600083018561522a565b6155d860208301846152a3565b9392505050565b60006060820190506155f4600083018661522a565b61560160208301856152a3565b61560e604083018461558c565b949350505050565b600060408201905061562b600083018561522a565b818103602083015261563d81846152d0565b90509392505050565b600060808201905061565b600083018761522a565b818103602083015261566d81866152d0565b9050818103604083015261568181856152d0565b9050818103606083015261569581846152d0565b905095945050505050565b60006040820190506156b5600083018561522a565b6156c2602083018461558c565b9392505050565b600060208201905081810360008301526156e38184615239565b905092915050565b60006020820190506157006000830184615294565b92915050565b600060208201905061571b60008301846152b2565b92915050565b600060208201905061573660008301846152c1565b92915050565b6000606082019050818103600083015261575681866152d0565b9050818103602083015261576a81856152d0565b9050818103604083015261577e81846152d0565b9050949350505050565b600060808201905081810360008301526157a281876152d0565b905081810360208301526157b681866152d0565b905081810360408301526157ca8185615306565b90506157d9606083018461558c565b95945050505050565b600060a08201905081810360008301526157fc8188615306565b9050818103602083015261581081876152d0565b9050818103604083015261582481866152d0565b9050615833606083018561558c565b615840608083018461558c565b9695505050505050565b600060a08201905081810360008301526158648188615306565b905081810360208301526158788187615306565b9050818103604083015261588c8186615306565b905061589b606083018561558c565b6158a8608083018461558c565b9695505050505050565b600060208201905081810360008301526158cb8161533c565b9050919050565b600060208201905081810360008301526158eb81615399565b9050919050565b6000602082019050818103600083015261590b816153d0565b9050919050565b6000602082019050818103600083015261592b8161542d565b9050919050565b6000602082019050818103600083015261594b8161548a565b9050919050565b6000602082019050818103600083015261596b816154e7565b9050919050565b6000602082019050818103600083015261598b8161551e565b9050919050565b600060208201905081810360008301526159ab81615555565b9050919050565b60006020820190506159c7600083018461558c565b92915050565b6000604051905081810181811067ffffffffffffffff821117156159f057600080fd5b8060405250919050565b600067ffffffffffffffff821115615a1157600080fd5b601f19601f8301169050602081019050919050565b6000602082019050919050565b600081519050919050565b600081519050919050565b600081519050919050565b6000602082019050919050565b600073ffffffffffffffffffffffffffffffffffffffff82169050919050565b60008115159050919050565b6000600382101515615a9b57fe5b819050919050565b6000600482101515615ab157fe5b819050919050565b6000819050919050565b600073ffffffffffffffffffffffffffffffffffffffff82169050919050565b60008115159050919050565b6000819050919050565b6000819050919050565b6000615b0e82615a61565b9050919050565b6000615b2082615a8d565b9050919050565b6000615b3282615aa3565b9050919050565b82818337600083830152505050565b60005b83811015615b66578082015181840152602081019050615b4b565b83811115615b75576000848401525b50505050565b6000601f19601f83011690509190505600a265627a7a72305820c89c1752e73fdcca35a5fdb897738a6fa2a6b9d64a28f6444788016ed5bcc7296c6578706572696d656e74616cf50037",
  "source": "pragma solidity ^0.4.24;\npragma experimental ABIEncoderV2;\n\nimport \"./REWToken.sol\";\nimport \"zeppelin-solidity/contracts/ownership/Ownable.sol\";\n\ncontract ReviewNetwork is Ownable {\n    REWToken token;\n    uint constant NUMBER_OF_VALIDATORS = 7;\n\n    enum SurveyStatus { IDLE, FUNDED, IN_PROGRESS, COMPLETED }\n    enum ReviewStatus { PENDING, APPROVED, REJECTED }\n\n    struct Answer {\n        string answersJsonHash;\n    }\n\n    struct Survey {\n        address creator;\n        string publicKey;\n        string title;\n        string surveyJsonHash;\n        uint rewardPerSurvey;\n        uint funds;\n        uint maxAnswers;\n        SurveyStatus status;\n        mapping (address => Answer) answers;\n    }\n\n    struct Brand {\n        address addedBy;\n        string name;\n        string logo;\n        string metaJsonHash;\n    }\n\n    struct Product {\n        address addedBy;\n        Brand brand;\n        uint categoryId;\n        uint subcategoryId;\n        string name;\n        string image;\n        string metaJsonHash;\n    }\n\n    struct User {\n        string username;\n    }\n\n    struct Review {\n        User author;\n        Product product;\n        uint score;\n        string metaJsonHash;\n        ReviewStatus status;\n        address[] chosenValidators;\n        mapping (address => int) validationVotes;\n    }\n\n    /**\n     * key: string - Survey JSON IPFS hash\n     */\n    mapping (string => Survey) surveys;\n    mapping (address => Brand) brands;\n    mapping (address => Product) products;\n    mapping (address => User) users;\n    mapping (address => Review) reviews;\n    address[] validators;\n\n    event LogSurveyAdded(\n        address indexed creator,\n        string publicKey,\n        string title,\n        string surveyJsonHash,\n        uint rewardPerSurvey,\n        uint maxAnswers\n    );\n    \n    event LogSurveyFunded(\n        address indexed creator,\n        string publicKey,\n        string title,\n        string surveyJsonHash,\n        uint rewardPerSurvey,\n        uint maxAnswers\n    );\n    \n    event LogSurveyStarted(\n        address indexed creator,\n        string publicKey,\n        string title,\n        string surveyJsonHash,\n        uint rewardPerSurvey,\n        uint maxAnswers\n    );\n\n    event LogSurveyCompleted(\n        address indexed creator,\n        string publicKey,\n        string title,\n        string surveyJsonHash,\n        uint rewardPerSurvey,\n        uint maxAnswers\n    );\n\n    event LogSurveyAnswered(\n        address indexed user,\n        string surveyJsonHash,\n        string answersJsonHash,\n        string title,\n        uint rewardPerSurvey\n    );\n\n    event LogBrandAdded(\n        address indexed brandAddress,\n        string name,\n        string logo,\n        string metaHashJson\n    );\n\n    event LogProductAdded(\n        address productAddress,\n        address indexed brandAddress,\n        uint indexed categoryId,\n        uint indexed subcategoryId,\n        string name,\n        string image,\n        string metaHashJson\n    );\n\n    event LogReviewAdded(\n        address reviewAddress,\n        address indexed authorAddress,\n        address indexed productAddress,\n        string metaJsonHash\n    );\n\n    event LogValidatorAdded(\n        address validatorAddress\n    );\n\n    event LogValidatorChosen(\n        address indexed reviewAddress,\n        address indexed validatorAddress\n    );\n\n    event LogReviewApproved(\n        address indexed reviewAddress\n    );\n\n    event LogReviewRejected(\n        address indexed reviewAddress\n    );\n\n    constructor (address REWTokenAddress) public {\n        token = REWToken(REWTokenAddress);\n    }\n\n    function createSurvey(\n        string publicKey,\n        string title,\n        string surveyJsonHash,\n        uint rewardPerSurvey,\n        uint maxAnswers\n    ) public {\n        Survey memory s = Survey(\n            msg.sender,\n            publicKey,\n            title,\n            surveyJsonHash,\n            rewardPerSurvey,\n            0,\n            maxAnswers,\n            SurveyStatus.IDLE\n        );\n\n        surveys[surveyJsonHash] = s;\n\n        emit LogSurveyAdded(\n            msg.sender,\n            s.publicKey,\n            title,\n            surveyJsonHash,\n            rewardPerSurvey,\n            maxAnswers\n        );\n    }\n\n    function fundSurvey(string surveyJsonHash, uint amount) public {\n        Survey memory survey = surveys[surveyJsonHash];\n\n        require(msg.sender == survey.creator);\n\n        uint allowance = token.allowance(msg.sender, this);\n        require(allowance >= amount);\n\n        require(token.transferFrom(msg.sender, this, amount));\n        surveys[surveyJsonHash].funds += amount;\n        \n        if(survey.status == SurveyStatus.IDLE) {\n            surveys[surveyJsonHash].status = SurveyStatus.FUNDED;\n        }\n\n        emit LogSurveyFunded(\n            msg.sender,\n            survey.publicKey,\n            survey.title,\n            survey.surveyJsonHash,\n            survey.rewardPerSurvey,\n            survey.maxAnswers\n        );\n    }\n\n    function startSurvey(string surveyJsonHash) public {\n        Survey memory survey = surveys[surveyJsonHash];\n        require(msg.sender == survey.creator);\n        require(survey.status == SurveyStatus.FUNDED);\n\n        surveys[surveyJsonHash].status = SurveyStatus.IN_PROGRESS;\n\n        emit LogSurveyStarted(\n            msg.sender,\n            survey.publicKey,\n            survey.title,\n            survey.surveyJsonHash,\n            survey.rewardPerSurvey,\n            survey.maxAnswers\n        );\n    }\n\n    function completeSurvey(string surveyJsonHash) public {\n        Survey memory survey = surveys[surveyJsonHash];\n        require(msg.sender == survey.creator);\n        require(survey.status == SurveyStatus.IN_PROGRESS);\n\n        surveys[surveyJsonHash].status = SurveyStatus.COMPLETED;\n\n        emit LogSurveyCompleted(\n            msg.sender,\n            survey.publicKey,\n            survey.title,\n            survey.surveyJsonHash,\n            survey.rewardPerSurvey,\n            survey.maxAnswers\n        );\n    }\n\n    function getFunds(string surveyJsonHash) public view returns (uint) {\n        return surveys[surveyJsonHash].funds;\n    }\n\n    function getSurveyStatus(string surveyJsonHash) public view returns (SurveyStatus) {\n        return surveys[surveyJsonHash].status;\n    }\n\n    function answerSurvey(string surveyJsonHash, string answersJsonHash) public returns (bool) {\n        Survey memory survey = surveys[surveyJsonHash];\n        require(keccak256(bytes(answersJsonHash)) != keccak256(\"\"));\n        require(keccak256(bytes(surveyJsonHash)) != keccak256(\"\"));\n        require(survey.status == SurveyStatus.IN_PROGRESS);\n        require(keccak256(surveys[surveyJsonHash].answers[msg.sender].answersJsonHash) == keccak256(\"\"));\n\n        surveys[surveyJsonHash].answers[msg.sender] = Answer(answersJsonHash);\n        require(token.transfer(msg.sender, survey.rewardPerSurvey));\n        surveys[surveyJsonHash].funds -= surveys[surveyJsonHash].rewardPerSurvey;\n        emit LogSurveyAnswered(msg.sender, surveyJsonHash, answersJsonHash, survey.title, survey.rewardPerSurvey);\n\n        if (surveys[surveyJsonHash].funds < survey.rewardPerSurvey) {\n            surveys[surveyJsonHash].status = SurveyStatus.COMPLETED;\n            emit LogSurveyCompleted(\n                survey.creator,\n                survey.publicKey,\n                survey.title,\n                survey.surveyJsonHash,\n                survey.rewardPerSurvey,\n                survey.maxAnswers\n            );\n        }\n    }\n\n    function isSurveyAnsweredBy(string surveyJsonHash, address user) public view returns (bool) {\n        return keccak256(bytes(surveys[surveyJsonHash].answers[user].answersJsonHash)) != keccak256(\"\");\n    }\n\n    function createBrand (\n        address brandAddress,\n        string name,\n        string logo,\n        string metaJsonHash\n    ) public onlyOwner {\n        Brand memory brand = Brand({\n            addedBy: msg.sender,\n            name: name,\n            logo: logo,\n            metaJsonHash: metaJsonHash\n        });\n\n        brands[brandAddress] = brand;\n\n        emit LogBrandAdded(brandAddress, name, logo, metaJsonHash);\n    }\n\n    function createProduct (\n        address productAddress,\n        address brandAddress,\n        uint categoryId,\n        uint subcategoryId,\n        string name,\n        string image,\n        string metaJsonHash\n    ) public onlyOwner {\n        Brand memory brand = brands[brandAddress];\n\n        Product memory product = Product({\n            addedBy: msg.sender,\n            brand: brand,\n            categoryId: categoryId,\n            subcategoryId: subcategoryId,\n            name: name,\n            image: image,\n            metaJsonHash: metaJsonHash\n        });\n\n        products[brandAddress] = product;\n\n        emit LogProductAdded(productAddress, brandAddress, categoryId, subcategoryId, name, image, metaJsonHash);\n    }\n\n    function registerUser (string username) public {\n        require(keccak256(username) != keccak256(\"\"), \"Username can't be empty\");\n        User memory user = User({ username: username });\n        users[msg.sender] = user;\n    }\n\n    function userExists (address userAddress) public view returns (bool) {\n        return keccak256(users[userAddress].username) != keccak256(\"\");\n    }\n\n    function createReview (\n        address reviewAddress,\n        address productAddress,\n        uint score,\n        string metaJsonHash\n    ) public {\n        require(score >= 1 && score <= 4, \"Score must be between 1 and 4\");\n\n        User memory author = users[msg.sender];\n        require(keccak256(author.username) != keccak256(\"\"), \"You are not registered as a user. Please register first!\");\n\n        Product memory product = products[productAddress];\n\n        Review memory review = Review({\n            author: author,\n            product: product,\n            score: score,\n            metaJsonHash: metaJsonHash,\n            status: ReviewStatus.PENDING,\n            chosenValidators: choseValidators(msg.sender)\n        });\n\n        reviews[reviewAddress] = review;\n\n        for (uint index = 0; index < review.chosenValidators.length; index++) {\n            emit LogValidatorChosen(reviewAddress, review.chosenValidators[index]);\n        }\n\n        emit LogReviewAdded(reviewAddress, msg.sender, productAddress, metaJsonHash);\n    }\n\n    function getReviewStatus(address reviewAddress) public view returns (ReviewStatus) {\n        return reviews[reviewAddress].status;\n    }\n\n    function isValidatorChosenForReview (address reviewAddress, address validator) public view returns (bool) {\n        Review memory review = reviews[reviewAddress];\n        \n        bool isValidatorChosen = false;\n        for (uint index = 0; index < review.chosenValidators.length; index++) {\n            if (review.chosenValidators[index] == validator) {\n                isValidatorChosen = true;\n            }\n        }\n\n        return isValidatorChosen;\n    }\n\n    function validatorVote(address reviewAddress, int vote) public {\n        Review storage review = reviews[reviewAddress];\n\n        require(review.status == ReviewStatus.PENDING, \"Review already validated.\");\n        require(reviews[reviewAddress].validationVotes[msg.sender] == 0, \"You already voted on this review.\");\n        require(isValidatorChosenForReview(reviewAddress, msg.sender), \"You are not chosen to validate this review.\");\n        require(vote == -1 || vote == 1, \"Vote must be -1 or 1.\");\n\n        reviews[reviewAddress].validationVotes[msg.sender] = vote;\n\n        bool everyoneVoted = true;\n        int tally = 0;\n\n        for (uint index = 0; index < NUMBER_OF_VALIDATORS; index++) {\n            tally += review.validationVotes[review.chosenValidators[index]];\n\n            if (review.validationVotes[review.chosenValidators[index]] == 0) {\n                everyoneVoted = false;\n            }\n        }\n\n        if (everyoneVoted) {\n            if (tally > 0) {\n                reviews[reviewAddress].status = ReviewStatus.APPROVED;\n                emit LogReviewApproved(reviewAddress);\n            } else {\n                reviews[reviewAddress].status = ReviewStatus.REJECTED;\n                emit LogReviewRejected(reviewAddress);\n            }\n        }\n    }\n\n    function addValidator(address validatorAddress) public onlyOwner {\n        validators.push(validatorAddress);\n\n        emit LogValidatorAdded(validatorAddress);\n    }\n\n    function choseValidators(address author) public view returns (address[]) {\n        require(validators.length >= NUMBER_OF_VALIDATORS, \"Not enough validators in the system!\");\n\n        uint a = uint256(author);\n        bytes32 b = blockhash(block.number);\n        uint r = uint(keccak256(abi.encodePacked(a, b)));\n        uint point = r % validators.length;\n\n        address[] memory chosenOnes = new address[](NUMBER_OF_VALIDATORS);\n\n        uint counter = 0;\n        uint index = 1;\n\n        while(counter < NUMBER_OF_VALIDATORS) {\n            address chosenValidator = validators[(point + index) % validators.length];\n\n            bool alreadyPicked = false;\n            for(uint i = 0; i < chosenOnes.length; i++) {\n                if (chosenOnes[i] == chosenValidator) {\n                    alreadyPicked = true;\n                } \n            }\n\n            if (!alreadyPicked) {\n                chosenOnes[counter] = chosenValidator;\n                counter++;\n            }\n\n            index++;\n\n        }\n\n        return chosenOnes;\n    }\n}\n",
  "sourcePath": "/Users/petars/projects/review-network/rn-prototype-solidity/contracts/ReviewNetwork.sol",
  "compiler": {
    "name": "solc",
    "version": "0.4.24+commit.e67f0147.Emscripten.clang"
  },
  "schemaVersion": "2.0.1",
  "updatedAt": "2018-08-23T13:42:52.681Z"
}