{
  "contractName": "ReviewNetwork",
  "abi": [
    {
      "constant": true,
      "inputs": [],
      "name": "owner",
      "outputs": [
        {
          "name": "",
          "type": "address"
        }
      ],
      "payable": false,
      "stateMutability": "view",
      "type": "function"
    },
    {
      "constant": false,
      "inputs": [
        {
          "name": "newOwner",
          "type": "address"
        }
      ],
      "name": "transferOwnership",
      "outputs": [],
      "payable": false,
      "stateMutability": "nonpayable",
      "type": "function"
    },
    {
      "inputs": [
        {
          "name": "REWTokenAddress",
          "type": "address"
        }
      ],
      "payable": false,
      "stateMutability": "nonpayable",
      "type": "constructor"
    },
    {
      "anonymous": false,
      "inputs": [
        {
          "indexed": true,
          "name": "creator",
          "type": "address"
        },
        {
          "indexed": false,
          "name": "publicKey",
          "type": "string"
        },
        {
          "indexed": false,
          "name": "title",
          "type": "string"
        },
        {
          "indexed": false,
          "name": "surveyJsonHash",
          "type": "string"
        },
        {
          "indexed": false,
          "name": "rewardPerSurvey",
          "type": "uint256"
        },
        {
          "indexed": false,
          "name": "maxAnswers",
          "type": "uint256"
        }
      ],
      "name": "LogSurveyAdded",
      "type": "event"
    },
    {
      "anonymous": false,
      "inputs": [
        {
          "indexed": true,
          "name": "creator",
          "type": "address"
        },
        {
          "indexed": false,
          "name": "publicKey",
          "type": "string"
        },
        {
          "indexed": false,
          "name": "title",
          "type": "string"
        },
        {
          "indexed": false,
          "name": "surveyJsonHash",
          "type": "string"
        },
        {
          "indexed": false,
          "name": "rewardPerSurvey",
          "type": "uint256"
        },
        {
          "indexed": false,
          "name": "maxAnswers",
          "type": "uint256"
        }
      ],
      "name": "LogSurveyFunded",
      "type": "event"
    },
    {
      "anonymous": false,
      "inputs": [
        {
          "indexed": true,
          "name": "creator",
          "type": "address"
        },
        {
          "indexed": false,
          "name": "publicKey",
          "type": "string"
        },
        {
          "indexed": false,
          "name": "title",
          "type": "string"
        },
        {
          "indexed": false,
          "name": "surveyJsonHash",
          "type": "string"
        },
        {
          "indexed": false,
          "name": "rewardPerSurvey",
          "type": "uint256"
        },
        {
          "indexed": false,
          "name": "maxAnswers",
          "type": "uint256"
        }
      ],
      "name": "LogSurveyStarted",
      "type": "event"
    },
    {
      "anonymous": false,
      "inputs": [
        {
          "indexed": true,
          "name": "creator",
          "type": "address"
        },
        {
          "indexed": false,
          "name": "publicKey",
          "type": "string"
        },
        {
          "indexed": false,
          "name": "title",
          "type": "string"
        },
        {
          "indexed": false,
          "name": "surveyJsonHash",
          "type": "string"
        },
        {
          "indexed": false,
          "name": "rewardPerSurvey",
          "type": "uint256"
        },
        {
          "indexed": false,
          "name": "maxAnswers",
          "type": "uint256"
        }
      ],
      "name": "LogSurveyCompleted",
      "type": "event"
    },
    {
      "anonymous": false,
      "inputs": [
        {
          "indexed": true,
          "name": "user",
          "type": "address"
        },
        {
          "indexed": false,
          "name": "surveyJsonHash",
          "type": "string"
        },
        {
          "indexed": false,
          "name": "answersJsonHash",
          "type": "string"
        },
        {
          "indexed": false,
          "name": "title",
          "type": "string"
        },
        {
          "indexed": false,
          "name": "rewardPerSurvey",
          "type": "uint256"
        }
      ],
      "name": "LogSurveyAnswered",
      "type": "event"
    },
    {
      "anonymous": false,
      "inputs": [
        {
          "indexed": false,
          "name": "productAddress",
          "type": "address"
        },
        {
          "indexed": true,
          "name": "categoryId",
          "type": "uint256"
        },
        {
          "indexed": true,
          "name": "subcategoryId",
          "type": "uint256"
        },
        {
          "indexed": false,
          "name": "name",
          "type": "string"
        },
        {
          "indexed": false,
          "name": "image",
          "type": "string"
        },
        {
          "indexed": false,
          "name": "description",
          "type": "string"
        },
        {
          "indexed": false,
          "name": "metaHashJson",
          "type": "string"
        }
      ],
      "name": "LogProductAdded",
      "type": "event"
    },
    {
      "anonymous": false,
      "inputs": [
        {
          "indexed": false,
          "name": "reviewAddress",
          "type": "address"
        },
        {
          "indexed": true,
          "name": "authorAddress",
          "type": "address"
        },
        {
          "indexed": true,
          "name": "productAddress",
          "type": "address"
        },
        {
          "indexed": false,
          "name": "metaJsonHash",
          "type": "string"
        }
      ],
      "name": "LogReviewAdded",
      "type": "event"
    },
    {
      "anonymous": false,
      "inputs": [
        {
          "indexed": false,
          "name": "validatorAddress",
          "type": "address"
        }
      ],
      "name": "LogValidatorAdded",
      "type": "event"
    },
    {
      "anonymous": false,
      "inputs": [
        {
          "indexed": true,
          "name": "reviewAddress",
          "type": "address"
        },
        {
          "indexed": true,
          "name": "validatorAddress",
          "type": "address"
        }
      ],
      "name": "LogValidatorChosen",
      "type": "event"
    },
    {
      "anonymous": false,
      "inputs": [
        {
          "indexed": true,
          "name": "reviewAddress",
          "type": "address"
        }
      ],
      "name": "LogReviewApproved",
      "type": "event"
    },
    {
      "anonymous": false,
      "inputs": [
        {
          "indexed": true,
          "name": "reviewAddress",
          "type": "address"
        }
      ],
      "name": "LogReviewRejected",
      "type": "event"
    },
    {
      "anonymous": false,
      "inputs": [
        {
          "indexed": true,
          "name": "previousOwner",
          "type": "address"
        },
        {
          "indexed": true,
          "name": "newOwner",
          "type": "address"
        }
      ],
      "name": "OwnershipTransferred",
      "type": "event"
    },
    {
      "constant": false,
      "inputs": [
        {
          "name": "publicKey",
          "type": "string"
        },
        {
          "name": "title",
          "type": "string"
        },
        {
          "name": "surveyJsonHash",
          "type": "string"
        },
        {
          "name": "rewardPerSurvey",
          "type": "uint256"
        },
        {
          "name": "maxAnswers",
          "type": "uint256"
        }
      ],
      "name": "createSurvey",
      "outputs": [],
      "payable": false,
      "stateMutability": "nonpayable",
      "type": "function"
    },
    {
      "constant": false,
      "inputs": [
        {
          "name": "surveyJsonHash",
          "type": "string"
        },
        {
          "name": "amount",
          "type": "uint256"
        }
      ],
      "name": "fundSurvey",
      "outputs": [],
      "payable": false,
      "stateMutability": "nonpayable",
      "type": "function"
    },
    {
      "constant": false,
      "inputs": [
        {
          "name": "surveyJsonHash",
          "type": "string"
        }
      ],
      "name": "startSurvey",
      "outputs": [],
      "payable": false,
      "stateMutability": "nonpayable",
      "type": "function"
    },
    {
      "constant": false,
      "inputs": [
        {
          "name": "surveyJsonHash",
          "type": "string"
        }
      ],
      "name": "completeSurvey",
      "outputs": [],
      "payable": false,
      "stateMutability": "nonpayable",
      "type": "function"
    },
    {
      "constant": true,
      "inputs": [
        {
          "name": "surveyJsonHash",
          "type": "string"
        }
      ],
      "name": "getFunds",
      "outputs": [
        {
          "name": "",
          "type": "uint256"
        }
      ],
      "payable": false,
      "stateMutability": "view",
      "type": "function"
    },
    {
      "constant": true,
      "inputs": [
        {
          "name": "surveyJsonHash",
          "type": "string"
        }
      ],
      "name": "getSurveyStatus",
      "outputs": [
        {
          "name": "",
          "type": "uint8"
        }
      ],
      "payable": false,
      "stateMutability": "view",
      "type": "function"
    },
    {
      "constant": false,
      "inputs": [
        {
          "name": "surveyJsonHash",
          "type": "string"
        },
        {
          "name": "answersJsonHash",
          "type": "string"
        }
      ],
      "name": "answerSurvey",
      "outputs": [
        {
          "name": "",
          "type": "bool"
        }
      ],
      "payable": false,
      "stateMutability": "nonpayable",
      "type": "function"
    },
    {
      "constant": true,
      "inputs": [
        {
          "name": "surveyJsonHash",
          "type": "string"
        },
        {
          "name": "user",
          "type": "address"
        }
      ],
      "name": "isSurveyAnsweredBy",
      "outputs": [
        {
          "name": "",
          "type": "bool"
        }
      ],
      "payable": false,
      "stateMutability": "view",
      "type": "function"
    },
    {
      "constant": false,
      "inputs": [
        {
          "name": "productAddress",
          "type": "address"
        },
        {
          "name": "categoryId",
          "type": "uint256"
        },
        {
          "name": "subcategoryId",
          "type": "uint256"
        },
        {
          "name": "name",
          "type": "string"
        },
        {
          "name": "image",
          "type": "string"
        },
        {
          "name": "description",
          "type": "string"
        },
        {
          "name": "metaJsonHash",
          "type": "string"
        }
      ],
      "name": "createProduct",
      "outputs": [],
      "payable": false,
      "stateMutability": "nonpayable",
      "type": "function"
    },
    {
      "constant": false,
      "inputs": [
        {
          "name": "username",
          "type": "string"
        }
      ],
      "name": "registerUser",
      "outputs": [],
      "payable": false,
      "stateMutability": "nonpayable",
      "type": "function"
    },
    {
      "constant": true,
      "inputs": [
        {
          "name": "user",
          "type": "address"
        }
      ],
      "name": "getUsername",
      "outputs": [
        {
          "name": "",
          "type": "string"
        }
      ],
      "payable": false,
      "stateMutability": "view",
      "type": "function"
    },
    {
      "constant": true,
      "inputs": [
        {
          "name": "userAddress",
          "type": "address"
        }
      ],
      "name": "userExists",
      "outputs": [
        {
          "name": "",
          "type": "bool"
        }
      ],
      "payable": false,
      "stateMutability": "view",
      "type": "function"
    },
    {
      "constant": false,
      "inputs": [
        {
          "name": "reviewAddress",
          "type": "address"
        },
        {
          "name": "productAddress",
          "type": "address"
        },
        {
          "name": "score",
          "type": "uint256"
        },
        {
          "name": "metaJsonHash",
          "type": "string"
        }
      ],
      "name": "createReview",
      "outputs": [],
      "payable": false,
      "stateMutability": "nonpayable",
      "type": "function"
    },
    {
      "constant": false,
      "inputs": [
        {
          "name": "reviewAddress",
          "type": "address"
        },
        {
          "name": "vote",
          "type": "int256"
        }
      ],
      "name": "voteReview",
      "outputs": [],
      "payable": false,
      "stateMutability": "nonpayable",
      "type": "function"
    },
    {
      "constant": true,
      "inputs": [
        {
          "name": "reviewAddress",
          "type": "address"
        }
      ],
      "name": "getReviewVotes",
      "outputs": [
        {
          "name": "upvotes",
          "type": "uint256"
        },
        {
          "name": "downvotes",
          "type": "uint256"
        }
      ],
      "payable": false,
      "stateMutability": "view",
      "type": "function"
    },
    {
      "constant": true,
      "inputs": [
        {
          "name": "reviewAddress",
          "type": "address"
        }
      ],
      "name": "getReviewStatus",
      "outputs": [
        {
          "name": "",
          "type": "uint8"
        }
      ],
      "payable": false,
      "stateMutability": "view",
      "type": "function"
    },
    {
      "constant": true,
      "inputs": [
        {
          "name": "reviewAddress",
          "type": "address"
        },
        {
          "name": "validator",
          "type": "address"
        }
      ],
      "name": "isValidatorChosenForReview",
      "outputs": [
        {
          "name": "",
          "type": "bool"
        }
      ],
      "payable": false,
      "stateMutability": "view",
      "type": "function"
    },
    {
      "constant": false,
      "inputs": [
        {
          "name": "reviewAddress",
          "type": "address"
        },
        {
          "name": "vote",
          "type": "int256"
        }
      ],
      "name": "validatorVote",
      "outputs": [],
      "payable": false,
      "stateMutability": "nonpayable",
      "type": "function"
    },
    {
      "constant": false,
      "inputs": [
        {
          "name": "validatorAddress",
          "type": "address"
        }
      ],
      "name": "addValidator",
      "outputs": [],
      "payable": false,
      "stateMutability": "nonpayable",
      "type": "function"
    },
    {
      "constant": true,
      "inputs": [
        {
          "name": "author",
          "type": "address"
        }
      ],
      "name": "choseValidators",
      "outputs": [
        {
          "name": "",
          "type": "address[]"
        }
      ],
      "payable": false,
      "stateMutability": "view",
      "type": "function"
    }
  ],
  "bytecode": "0x60806040523480156200001157600080fd5b50604051602080620059898339810180604052620000339190810190620000d1565b336000806101000a81548173ffffffffffffffffffffffffffffffffffffffff021916908373ffffffffffffffffffffffffffffffffffffffff16021790555080600160006101000a81548173ffffffffffffffffffffffffffffffffffffffff021916908373ffffffffffffffffffffffffffffffffffffffff160217905550506200011d565b6000620000c98251620000fd565b905092915050565b600060208284031215620000e457600080fd5b6000620000f484828501620000bb565b91505092915050565b600073ffffffffffffffffffffffffffffffffffffffff82169050919050565b61585c806200012d6000396000f300608060405260043610610128576000357c0100000000000000000000000000000000000000000000000000000000900463ffffffff16806306ba96241461012d5780630e666e4914610156578063123afe9e1461019357806321d77d94146101d05780632d0c9b1c146101f957806348011a58146102365780634d238c8e146102745780635219fcdf1461029d578063569ea547146102c65780635a22283a14610303578063704f1b94146103405780638da5cb5b146103695780639700909014610394578063b031e78b146103bd578063b639c6c9146103e6578063c5b4471214610423578063caa7401914610460578063ce43c03214610489578063d9e115d3146104c6578063e64f674714610503578063f2fde38b1461052c578063f420e18414610555575b600080fd5b34801561013957600080fd5b50610154600480360361014f9190810190614bc1565b61057e565b005b34801561016257600080fd5b5061017d6004803603610178919081019061497e565b6109ec565b60405161018a9190615342565b60405180910390f35b34801561019f57600080fd5b506101ba60048036036101b5919081019061497e565b610aba565b6040516101c79190615320565b60405180910390f35b3480156101dc57600080fd5b506101f760048036036101f29190810190614cc2565b610d5c565b005b34801561020557600080fd5b50610220600480360361021b9190810190614bc1565b610f7a565b60405161022d919061561f565b60405180910390f35b34801561024257600080fd5b5061025d6004803603610258919081019061497e565b610ff2565b60405161026b92919061563a565b60405180910390f35b34801561028057600080fd5b5061029b6004803603610296919081019061497e565b611084565b005b3480156102a957600080fd5b506102c460048036036102bf9190810190614a5e565b61125c565b005b3480156102d257600080fd5b506102ed60048036036102e891908101906149a7565b6117ab565b6040516102fa9190615342565b60405180910390f35b34801561030f57600080fd5b5061032a6004803603610325919081019061497e565b611dc2565b604051610337919061535d565b60405180910390f35b34801561034c57600080fd5b5061036760048036036103629190810190614bc1565b611e1b565b005b34801561037557600080fd5b5061037e611f58565b60405161038b91906151dd565b60405180910390f35b3480156103a057600080fd5b506103bb60048036036103b69190810190614bc1565b611f7d565b005b3480156103c957600080fd5b506103e460048036036103df9190810190614a5e565b6123ea565b005b3480156103f257600080fd5b5061040d60048036036104089190810190614bc1565b6126a4565b60405161041a9190615378565b60405180910390f35b34801561042f57600080fd5b5061044a60048036036104459190810190614c56565b612729565b6040516104579190615342565b60405180910390f35b34801561046c57600080fd5b5061048760048036036104829190810190614a9a565b613125565b005b34801561049557600080fd5b506104b060048036036104ab919081019061497e565b613331565b6040516104bd9190615393565b60405180910390f35b3480156104d257600080fd5b506104ed60048036036104e89190810190614c02565b613415565b6040516104fa9190615342565b60405180910390f35b34801561050f57600080fd5b5061052a600480360361052591908101906149e3565b613550565b005b34801561053857600080fd5b50610553600480360361054e919081019061497e565b613dcc565b005b34801561056157600080fd5b5061057c60048036036105779190810190614d81565b613f21565b005b6105866145be565b6002826040518082805190602001908083835b6020831015156105be5780518252602082019150602081019050602083039250610599565b6001836020036101000a038019825116818451168082178552505050505050905001915050908152602001604051809103902061010060405190810160405290816000820160009054906101000a900473ffffffffffffffffffffffffffffffffffffffff1673ffffffffffffffffffffffffffffffffffffffff1673ffffffffffffffffffffffffffffffffffffffff168152602001600182018054600181600116156101000203166002900480601f0160208091040260200160405190810160405280929190818152602001828054600181600116156101000203166002900480156106ed5780601f106106c2576101008083540402835291602001916106ed565b820191906000526020600020905b8154815290600101906020018083116106d057829003601f168201915b50505050508152602001600282018054600181600116156101000203166002900480601f01602080910402602001604051908101604052809291908181526020018280546001816001161561010002031660029004801561078f5780601f106107645761010080835404028352916020019161078f565b820191906000526020600020905b81548152906001019060200180831161077257829003601f168201915b50505050508152602001600382018054600181600116156101000203166002900480601f0160208091040260200160405190810160405280929190818152602001828054600181600116156101000203166002900480156108315780601f1061080657610100808354040283529160200191610831565b820191906000526020600020905b81548152906001019060200180831161081457829003601f168201915b505050505081526020016004820154815260200160058201548152602001600682015481526020016007820160009054906101000a900460ff16600381111561087657fe5b600381111561088157fe5b815250509050806000015173ffffffffffffffffffffffffffffffffffffffff163373ffffffffffffffffffffffffffffffffffffffff161415156108c557600080fd5b600260038111156108d257fe5b8160e0015160038111156108e257fe5b1415156108ee57600080fd5b60036002836040518082805190602001908083835b6020831015156109285780518252602082019150602081019050602083039250610903565b6001836020036101000a038019825116818451168082178552505050505050905001915050908152602001604051809103902060070160006101000a81548160ff0219169083600381111561097957fe5b02179055503373ffffffffffffffffffffffffffffffffffffffff167f8d19faf08adf4f904aba4b47ace07c0c7c74712a6d39e931bff4dcbc25b5419582602001518360400151846060015185608001518660c001516040516109e0959493929190615477565b60405180910390a25050565b6000604051806000019050604051809103902060001916600460008473ffffffffffffffffffffffffffffffffffffffff1673ffffffffffffffffffffffffffffffffffffffff1681526020019081526020016000206000016040518082805460018160011615610100020316600290048015610aa05780601f10610a7e576101008083540402835291820191610aa0565b820191906000526020600020905b815481529060010190602001808311610a8c575b505091505060405180910390206000191614159050919050565b606060008060008060606000806000806000600360068054905010151515610b17576040517f08c379a0000000000000000000000000000000000000000000000000000000008152600401610b0e9061553f565b60405180910390fd5b8b73ffffffffffffffffffffffffffffffffffffffff1699504260010298508989604051602001808381526020018260001916600019168152602001925050506040516020818303038152906040526040518082805190602001908083835b602083101515610b9b5780518252602082019150602081019050602083039250610b76565b6001836020036101000a038019825116818451168082178552505050505050905001915050604051809103902060019004975060068054905088811515610bde57fe5b0696506003604051908082528060200260200182016040528015610c115781602001602082028038833980820191505090505b50955060009450600193505b6003851015610d4a5760068080549050858901811515610c3957fe5b06815481101515610c4657fe5b9060005260206000200160009054906101000a900473ffffffffffffffffffffffffffffffffffffffff16925060009150600090505b8551811015610ce2578273ffffffffffffffffffffffffffffffffffffffff168682815181101515610caa57fe5b9060200190602002015173ffffffffffffffffffffffffffffffffffffffff161415610cd557600191505b8080600101915050610c7c565b811515610d3d57828686815181101515610cf857fe5b9060200190602002019073ffffffffffffffffffffffffffffffffffffffff16908173ffffffffffffffffffffffffffffffffffffffff168152505084806001019550505b8380600101945050610c1d565b859a5050505050505050505050919050565b610d646145be565b610100604051908101604052803373ffffffffffffffffffffffffffffffffffffffff1681526020018781526020018681526020018581526020018481526020016000815260200183815260200160006003811115610dbf57fe5b8152509050806002856040518082805190602001908083835b602083101515610dfd5780518252602082019150602081019050602083039250610dd8565b6001836020036101000a038019825116818451168082178552505050505050905001915050908152602001604051809103902060008201518160000160006101000a81548173ffffffffffffffffffffffffffffffffffffffff021916908373ffffffffffffffffffffffffffffffffffffffff1602179055506020820151816001019080519060200190610e93929190614625565b506040820151816002019080519060200190610eb0929190614625565b506060820151816003019080519060200190610ecd929190614625565b506080820151816004015560a0820151816005015560c0820151816006015560e08201518160070160006101000a81548160ff02191690836003811115610f1057fe5b02179055509050503373ffffffffffffffffffffffffffffffffffffffff167f95425f5f4392462c32fc4957d62e15f8589a263ec26ba4b863ca0bacfca39fe6826020015187878787604051610f6a95949392919061540f565b60405180910390a2505050505050565b60006002826040518082805190602001908083835b602083101515610fb45780518252602082019150602081019050602083039250610f8f565b6001836020036101000a0380198251168184511680821785525050505050509050019150509081526020016040518091039020600501549050919050565b600080600560008473ffffffffffffffffffffffffffffffffffffffff1673ffffffffffffffffffffffffffffffffffffffff16815260200190815260200160002060090154600560008573ffffffffffffffffffffffffffffffffffffffff1673ffffffffffffffffffffffffffffffffffffffff168152602001908152602001600020600a015491509150915091565b6000806000809054906101000a900473ffffffffffffffffffffffffffffffffffffffff1673ffffffffffffffffffffffffffffffffffffffff163373ffffffffffffffffffffffffffffffffffffffff161415156110e257600080fd5b60009150600090505b6006805490508110156111775760068181548110151561110757fe5b9060005260206000200160009054906101000a900473ffffffffffffffffffffffffffffffffffffffff1673ffffffffffffffffffffffffffffffffffffffff168373ffffffffffffffffffffffffffffffffffffffff16141561116a57600191505b80806001019150506110eb565b811515156111ba576040517f08c379a00000000000000000000000000000000000000000000000000000000081526004016111b1906155ff565b60405180910390fd5b60068390806001815401808255809150509060018203906000526020600020016000909192909190916101000a81548173ffffffffffffffffffffffffffffffffffffffff021916908373ffffffffffffffffffffffffffffffffffffffff160217905550507f4abba4877a811c10c94281a6a64a19db457ed00ca5e9c8dcd2563023d04771398360405161124f91906151dd565b60405180910390a1505050565b600080600080600560008773ffffffffffffffffffffffffffffffffffffffff1673ffffffffffffffffffffffffffffffffffffffff1681526020019081526020016000209350600060028111156112b057fe5b84600c0160009054906101000a900460ff1660028111156112cd57fe5b14151561130f576040517f08c379a0000000000000000000000000000000000000000000000000000000008152600401611306906155df565b60405180910390fd5b6000600560008873ffffffffffffffffffffffffffffffffffffffff1673ffffffffffffffffffffffffffffffffffffffff168152602001908152602001600020600e0160003373ffffffffffffffffffffffffffffffffffffffff1673ffffffffffffffffffffffffffffffffffffffff168152602001908152602001600020541415156113d3576040517f08c379a00000000000000000000000000000000000000000000000000000000081526004016113ca9061555f565b60405180910390fd5b6113dd86336117ab565b151561141e576040517f08c379a00000000000000000000000000000000000000000000000000000000081526004016114159061557f565b60405180910390fd5b7fffffffffffffffffffffffffffffffffffffffffffffffffffffffffffffffff85148061144c5750600185145b151561148d576040517f08c379a00000000000000000000000000000000000000000000000000000000081526004016114849061551f565b60405180910390fd5b84600560008873ffffffffffffffffffffffffffffffffffffffff1673ffffffffffffffffffffffffffffffffffffffff168152602001908152602001600020600e0160003373ffffffffffffffffffffffffffffffffffffffff1673ffffffffffffffffffffffffffffffffffffffff168152602001908152602001600020819055506001925060009150600090505b600381101561163f5783600e01600085600d018381548110151561153e57fe5b9060005260206000200160009054906101000a900473ffffffffffffffffffffffffffffffffffffffff1673ffffffffffffffffffffffffffffffffffffffff1673ffffffffffffffffffffffffffffffffffffffff1681526020019081526020016000205482019150600084600e01600086600d01848154811015156115c157fe5b9060005260206000200160009054906101000a900473ffffffffffffffffffffffffffffffffffffffff1673ffffffffffffffffffffffffffffffffffffffff1673ffffffffffffffffffffffffffffffffffffffff16815260200190815260200160002054141561163257600092505b808060010191505061151e565b82156117a35760008213156116fa576001600560008873ffffffffffffffffffffffffffffffffffffffff1673ffffffffffffffffffffffffffffffffffffffff168152602001908152602001600020600c0160006101000a81548160ff021916908360028111156116ad57fe5b02179055508573ffffffffffffffffffffffffffffffffffffffff167f8d67778d3c84e090f29350f79de7d2e71f7cfecc900ac3aa3b6bf8c9839eb2b260405160405180910390a26117a2565b6002600560008873ffffffffffffffffffffffffffffffffffffffff1673ffffffffffffffffffffffffffffffffffffffff168152602001908152602001600020600c0160006101000a81548160ff0219169083600281111561175957fe5b02179055508573ffffffffffffffffffffffffffffffffffffffff167f2224994bc80d3e59016dcf8b2c998bb03418f92f4ecec1eab1a01d2e40f7084060405160405180910390a25b5b505050505050565b60006117b56146a5565b600080600560008773ffffffffffffffffffffffffffffffffffffffff1673ffffffffffffffffffffffffffffffffffffffff16815260200190815260200160002061010060405190810160405290816000820160206040519081016040529081600082018054600181600116156101000203166002900480601f0160208091040260200160405190810160405280929190818152602001828054600181600116156101000203166002900480156118ae5780601f10611883576101008083540402835291602001916118ae565b820191906000526020600020905b81548152906001019060200180831161189157829003601f168201915b50505050508152505081526020016001820160e060405190810160405290816000820160009054906101000a900473ffffffffffffffffffffffffffffffffffffffff1673ffffffffffffffffffffffffffffffffffffffff1673ffffffffffffffffffffffffffffffffffffffff1681526020016001820154815260200160028201548152602001600382018054600181600116156101000203166002900480601f0160208091040260200160405190810160405280929190818152602001828054600181600116156101000203166002900480156119cf5780601f106119a4576101008083540402835291602001916119cf565b820191906000526020600020905b8154815290600101906020018083116119b257829003601f168201915b50505050508152602001600482018054600181600116156101000203166002900480601f016020809104026020016040519081016040528092919081815260200182805460018160011615610100020316600290048015611a715780601f10611a4657610100808354040283529160200191611a71565b820191906000526020600020905b815481529060010190602001808311611a5457829003601f168201915b50505050508152602001600582018054600181600116156101000203166002900480601f016020809104026020016040519081016040528092919081815260200182805460018160011615610100020316600290048015611b135780601f10611ae857610100808354040283529160200191611b13565b820191906000526020600020905b815481529060010190602001808311611af657829003601f168201915b50505050508152602001600682018054600181600116156101000203166002900480601f016020809104026020016040519081016040528092919081815260200182805460018160011615610100020316600290048015611bb55780601f10611b8a57610100808354040283529160200191611bb5565b820191906000526020600020905b815481529060010190602001808311611b9857829003601f168201915b50505050508152505081526020016008820154815260200160098201548152602001600a8201548152602001600b82018054600181600116156101000203166002900480601f016020809104026020016040519081016040528092919081815260200182805460018160011615610100020316600290048015611c795780601f10611c4e57610100808354040283529160200191611c79565b820191906000526020600020905b815481529060010190602001808311611c5c57829003601f168201915b50505050508152602001600c820160009054906101000a900460ff166002811115611ca057fe5b6002811115611cab57fe5b8152602001600d8201805480602002602001604051908101604052809291908181526020018280548015611d3457602002820191906000526020600020905b8160009054906101000a900473ffffffffffffffffffffffffffffffffffffffff1673ffffffffffffffffffffffffffffffffffffffff1681526020019060010190808311611cea575b505050505081525050925060009150600090505b8260e0015151811015611db6578473ffffffffffffffffffffffffffffffffffffffff168360e0015182815181101515611d7e57fe5b9060200190602002015173ffffffffffffffffffffffffffffffffffffffff161415611da957600191505b8080600101915050611d48565b81935050505092915050565b6000600560008373ffffffffffffffffffffffffffffffffffffffff1673ffffffffffffffffffffffffffffffffffffffff168152602001908152602001600020600c0160009054906101000a900460ff169050919050565b611e23614702565b604051806000019050604051809103902060001916826040518082805190602001908083835b602083101515611e6e5780518252602082019150602081019050602083039250611e49565b6001836020036101000a03801982511681845116808217855250505050505090500191505060405180910390206000191614151515611ee2576040517f08c379a0000000000000000000000000000000000000000000000000000000008152600401611ed99061559f565b60405180910390fd5b60206040519081016040528083815250905080600460003373ffffffffffffffffffffffffffffffffffffffff1673ffffffffffffffffffffffffffffffffffffffff1681526020019081526020016000206000820151816000019080519060200190611f50929190614625565b509050505050565b6000809054906101000a900473ffffffffffffffffffffffffffffffffffffffff1681565b611f856145be565b6002826040518082805190602001908083835b602083101515611fbd5780518252602082019150602081019050602083039250611f98565b6001836020036101000a038019825116818451168082178552505050505050905001915050908152602001604051809103902061010060405190810160405290816000820160009054906101000a900473ffffffffffffffffffffffffffffffffffffffff1673ffffffffffffffffffffffffffffffffffffffff1673ffffffffffffffffffffffffffffffffffffffff168152602001600182018054600181600116156101000203166002900480601f0160208091040260200160405190810160405280929190818152602001828054600181600116156101000203166002900480156120ec5780601f106120c1576101008083540402835291602001916120ec565b820191906000526020600020905b8154815290600101906020018083116120cf57829003601f168201915b50505050508152602001600282018054600181600116156101000203166002900480601f01602080910402602001604051908101604052809291908181526020018280546001816001161561010002031660029004801561218e5780601f106121635761010080835404028352916020019161218e565b820191906000526020600020905b81548152906001019060200180831161217157829003601f168201915b50505050508152602001600382018054600181600116156101000203166002900480601f0160208091040260200160405190810160405280929190818152602001828054600181600116156101000203166002900480156122305780601f1061220557610100808354040283529160200191612230565b820191906000526020600020905b81548152906001019060200180831161221357829003601f168201915b505050505081526020016004820154815260200160058201548152602001600682015481526020016007820160009054906101000a900460ff16600381111561227557fe5b600381111561228057fe5b815250509050806000015173ffffffffffffffffffffffffffffffffffffffff163373ffffffffffffffffffffffffffffffffffffffff161415156122c457600080fd5b600160038111156122d157fe5b8160e0015160038111156122e157fe5b1415156122ed57600080fd5b600280836040518082805190602001908083835b6020831015156123265780518252602082019150602081019050602083039250612301565b6001836020036101000a038019825116818451168082178552505050505050905001915050908152602001604051809103902060070160006101000a81548160ff0219169083600381111561237757fe5b02179055503373ffffffffffffffffffffffffffffffffffffffff167fd2e59155eb79323d200530a040ef34592cb14783597fd17fbb14bfdfa241a19c82602001518360400151846060015185608001518660c001516040516123de959493929190615477565b60405180910390a25050565b600181148061241857507fffffffffffffffffffffffffffffffffffffffffffffffffffffffffffffffff81145b1515612459576040517f08c379a0000000000000000000000000000000000000000000000000000000008152600401612450906154df565b60405180910390fd5b60001515600560008473ffffffffffffffffffffffffffffffffffffffff1673ffffffffffffffffffffffffffffffffffffffff168152602001908152602001600020600f0160003373ffffffffffffffffffffffffffffffffffffffff1673ffffffffffffffffffffffffffffffffffffffff16815260200190815260200160002060009054906101000a900460ff16151514151561252e576040517f08c379a00000000000000000000000000000000000000000000000000000000081526004016125259061555f565b60405180910390fd5b6001600560008473ffffffffffffffffffffffffffffffffffffffff1673ffffffffffffffffffffffffffffffffffffffff168152602001908152602001600020600f0160003373ffffffffffffffffffffffffffffffffffffffff1673ffffffffffffffffffffffffffffffffffffffff16815260200190815260200160002060006101000a81548160ff0219169083151502179055506001811415612625576001600560008473ffffffffffffffffffffffffffffffffffffffff1673ffffffffffffffffffffffffffffffffffffffff168152602001908152602001600020600901600082825401925050819055506126a0565b7fffffffffffffffffffffffffffffffffffffffffffffffffffffffffffffffff81141561269f576001600560008473ffffffffffffffffffffffffffffffffffffffff1673ffffffffffffffffffffffffffffffffffffffff168152602001908152602001600020600a01600082825401925050819055505b5b5050565b60006002826040518082805190602001908083835b6020831015156126de57805182526020820191506020810190506020830392506126b9565b6001836020036101000a038019825116818451168082178552505050505050905001915050908152602001604051809103902060070160009054906101000a900460ff169050919050565b60006127336145be565b6002846040518082805190602001908083835b60208310151561276b5780518252602082019150602081019050602083039250612746565b6001836020036101000a038019825116818451168082178552505050505050905001915050908152602001604051809103902061010060405190810160405290816000820160009054906101000a900473ffffffffffffffffffffffffffffffffffffffff1673ffffffffffffffffffffffffffffffffffffffff1673ffffffffffffffffffffffffffffffffffffffff168152602001600182018054600181600116156101000203166002900480601f01602080910402602001604051908101604052809291908181526020018280546001816001161561010002031660029004801561289a5780601f1061286f5761010080835404028352916020019161289a565b820191906000526020600020905b81548152906001019060200180831161287d57829003601f168201915b50505050508152602001600282018054600181600116156101000203166002900480601f01602080910402602001604051908101604052809291908181526020018280546001816001161561010002031660029004801561293c5780601f106129115761010080835404028352916020019161293c565b820191906000526020600020905b81548152906001019060200180831161291f57829003601f168201915b50505050508152602001600382018054600181600116156101000203166002900480601f0160208091040260200160405190810160405280929190818152602001828054600181600116156101000203166002900480156129de5780601f106129b3576101008083540402835291602001916129de565b820191906000526020600020905b8154815290600101906020018083116129c157829003601f168201915b505050505081526020016004820154815260200160058201548152602001600682015481526020016007820160009054906101000a900460ff166003811115612a2357fe5b6003811115612a2e57fe5b815250509050604051806000019050604051809103902060001916836040518082805190602001908083835b602083101515612a7f5780518252602082019150602081019050602083039250612a5a565b6001836020036101000a03801982511681845116808217855250505050505090500191505060405180910390206000191614151515612abd57600080fd5b604051806000019050604051809103902060001916846040518082805190602001908083835b602083101515612b085780518252602082019150602081019050602083039250612ae3565b6001836020036101000a03801982511681845116808217855250505050505090500191505060405180910390206000191614151515612b4657600080fd5b60026003811115612b5357fe5b8160e001516003811115612b6357fe5b141515612b6f57600080fd5b6040518060000190506040518091039020600019166002856040518082805190602001908083835b602083101515612bbc5780518252602082019150602081019050602083039250612b97565b6001836020036101000a038019825116818451168082178552505050505050905001915050908152602001604051809103902060080160003373ffffffffffffffffffffffffffffffffffffffff1673ffffffffffffffffffffffffffffffffffffffff1681526020019081526020016000206000016040518082805460018160011615610100020316600290048015612c8d5780601f10612c6b576101008083540402835291820191612c8d565b820191906000526020600020905b815481529060010190602001808311612c79575b5050915050604051809103902060001916141515612caa57600080fd5b602060405190810160405280848152506002856040518082805190602001908083835b602083101515612cf25780518252602082019150602081019050602083039250612ccd565b6001836020036101000a038019825116818451168082178552505050505050905001915050908152602001604051809103902060080160003373ffffffffffffffffffffffffffffffffffffffff1673ffffffffffffffffffffffffffffffffffffffff1681526020019081526020016000206000820151816000019080519060200190612d81929190614625565b50905050600160009054906101000a900473ffffffffffffffffffffffffffffffffffffffff1673ffffffffffffffffffffffffffffffffffffffff1663a9059cbb3383608001516040518363ffffffff167c0100000000000000000000000000000000000000000000000000000000028152600401612e029291906152f7565b602060405180830381600087803b158015612e1c57600080fd5b505af1158015612e30573d6000803e3d6000fd5b505050506040513d601f19601f82011682018060405250612e549190810190614b98565b1515612e5f57600080fd5b6002846040518082805190602001908083835b602083101515612e975780518252602082019150602081019050602083039250612e72565b6001836020036101000a0380198251168184511680821785525050505050509050019150509081526020016040518091039020600401546002856040518082805190602001908083835b602083101515612f065780518252602082019150602081019050602083039250612ee1565b6001836020036101000a0380198251168184511680821785525050505050509050019150509081526020016040518091039020600501600082825403925050819055503373ffffffffffffffffffffffffffffffffffffffff167f34c6e4292ec4c54b9ebd046067b22da7c48f22dba9723a4b79b837e3a191a5d6858584604001518560800151604051612f9d94939291906153b5565b60405180910390a280608001516002856040518082805190602001908083835b602083101515612fe25780518252602082019150602081019050602083039250612fbd565b6001836020036101000a038019825116818451168082178552505050505050905001915050908152602001604051809103902060050154101561311e5760036002856040518082805190602001908083835b6020831015156130595780518252602082019150602081019050602083039250613034565b6001836020036101000a038019825116818451168082178552505050505050905001915050908152602001604051809103902060070160006101000a81548160ff021916908360038111156130aa57fe5b0217905550806000015173ffffffffffffffffffffffffffffffffffffffff167f8d19faf08adf4f904aba4b47ace07c0c7c74712a6d39e931bff4dcbc25b5419582602001518360400151846060015185608001518660c00151604051613115959493929190615477565b60405180910390a25b5092915050565b61312d614716565b6000809054906101000a900473ffffffffffffffffffffffffffffffffffffffff1673ffffffffffffffffffffffffffffffffffffffff163373ffffffffffffffffffffffffffffffffffffffff1614151561318857600080fd5b60e0604051908101604052803373ffffffffffffffffffffffffffffffffffffffff16815260200188815260200187815260200186815260200185815260200184815260200183815250905080600360008a73ffffffffffffffffffffffffffffffffffffffff1673ffffffffffffffffffffffffffffffffffffffff16815260200190815260200160002060008201518160000160006101000a81548173ffffffffffffffffffffffffffffffffffffffff021916908373ffffffffffffffffffffffffffffffffffffffff1602179055506020820151816001015560408201518160020155606082015181600301908051906020019061328b929190614625565b5060808201518160040190805190602001906132a8929190614625565b5060a08201518160050190805190602001906132c5929190614625565b5060c08201518160060190805190602001906132e2929190614625565b5090505085877f4053d8cb76e386f51bfe2ded3dc6303b2d7076dfa9d3fe6b8ced13a9b50f77dd8a8888888860405161331f959493929190615288565b60405180910390a35050505050505050565b6060600460008373ffffffffffffffffffffffffffffffffffffffff1673ffffffffffffffffffffffffffffffffffffffff1681526020019081526020016000206000018054600181600116156101000203166002900480601f0160208091040260200160405190810160405280929190818152602001828054600181600116156101000203166002900480156134095780601f106133de57610100808354040283529160200191613409565b820191906000526020600020905b8154815290600101906020018083116133ec57829003601f168201915b50505050509050919050565b60006040518060000190506040518091039020600019166002846040518082805190602001908083835b602083101515613464578051825260208201915060208101905060208303925061343f565b6001836020036101000a038019825116818451168082178552505050505050905001915050908152602001604051809103902060080160008473ffffffffffffffffffffffffffffffffffffffff1673ffffffffffffffffffffffffffffffffffffffff16815260200190815260200160002060000160405180828054600181600116156101000203166002900480156135355780601f10613513576101008083540402835291820191613535565b820191906000526020600020905b815481529060010190602001808311613521575b50509150506040518091039020600019161415905092915050565b613558614702565b613560614716565b6135686146a5565b60006001861015801561357c575060048611155b15156135bd576040517f08c379a00000000000000000000000000000000000000000000000000000000081526004016135b4906155bf565b60405180910390fd5b600460003373ffffffffffffffffffffffffffffffffffffffff1673ffffffffffffffffffffffffffffffffffffffff16815260200190815260200160002060206040519081016040529081600082018054600181600116156101000203166002900480601f0160208091040260200160405190810160405280929190818152602001828054600181600116156101000203166002900480156136a15780601f10613676576101008083540402835291602001916136a1565b820191906000526020600020905b81548152906001019060200180831161368457829003601f168201915b505050505081525050935060405180600001905060405180910390206000191684600001516040518082805190602001908083835b6020831015156136fb57805182526020820191506020810190506020830392506136d6565b6001836020036101000a0380198251168184511680821785525050505050509050019150506040518091039020600019161415151561376f576040517f08c379a0000000000000000000000000000000000000000000000000000000008152600401613766906154ff565b60405180910390fd5b600360008873ffffffffffffffffffffffffffffffffffffffff1673ffffffffffffffffffffffffffffffffffffffff16815260200190815260200160002060e060405190810160405290816000820160009054906101000a900473ffffffffffffffffffffffffffffffffffffffff1673ffffffffffffffffffffffffffffffffffffffff1673ffffffffffffffffffffffffffffffffffffffff1681526020016001820154815260200160028201548152602001600382018054600181600116156101000203166002900480601f0160208091040260200160405190810160405280929190818152602001828054600181600116156101000203166002900480156138bd5780601f10613892576101008083540402835291602001916138bd565b820191906000526020600020905b8154815290600101906020018083116138a057829003601f168201915b50505050508152602001600482018054600181600116156101000203166002900480601f01602080910402602001604051908101604052809291908181526020018280546001816001161561010002031660029004801561395f5780601f106139345761010080835404028352916020019161395f565b820191906000526020600020905b81548152906001019060200180831161394257829003601f168201915b50505050508152602001600582018054600181600116156101000203166002900480601f016020809104026020016040519081016040528092919081815260200182805460018160011615610100020316600290048015613a015780601f106139d657610100808354040283529160200191613a01565b820191906000526020600020905b8154815290600101906020018083116139e457829003601f168201915b50505050508152602001600682018054600181600116156101000203166002900480601f016020809104026020016040519081016040528092919081815260200182805460018160011615610100020316600290048015613aa35780601f10613a7857610100808354040283529160200191613aa3565b820191906000526020600020905b815481529060010190602001808311613a8657829003601f168201915b505050505081525050925061010060405190810160405280858152602001848152602001878152602001600081526020016000815260200186815260200160006002811115613aee57fe5b8152602001613afc33610aba565b815250915081600560008a73ffffffffffffffffffffffffffffffffffffffff1673ffffffffffffffffffffffffffffffffffffffff1681526020019081526020016000206000820151816000016000820151816000019080519060200190613b66929190614625565b50505060208201518160010160008201518160000160006101000a81548173ffffffffffffffffffffffffffffffffffffffff021916908373ffffffffffffffffffffffffffffffffffffffff16021790555060208201518160010155604082015181600201556060820151816003019080519060200190613be9929190614625565b506080820151816004019080519060200190613c06929190614625565b5060a0820151816005019080519060200190613c23929190614625565b5060c0820151816006019080519060200190613c40929190614625565b5050506040820151816008015560608201518160090155608082015181600a015560a082015181600b019080519060200190613c7d929190614625565b5060c082015181600c0160006101000a81548160ff02191690836002811115613ca257fe5b021790555060e082015181600d019080519060200190613cc392919061476a565b50905050600090505b8160e0015151811015613d5b578160e0015181815181101515613ceb57fe5b9060200190602002015173ffffffffffffffffffffffffffffffffffffffff168873ffffffffffffffffffffffffffffffffffffffff167f516fad89f67e240d0a64ec70fafc3d3e19cbef89cf5d91598b143a101e4dbf1b60405160405180910390a38080600101915050613ccc565b8673ffffffffffffffffffffffffffffffffffffffff163373ffffffffffffffffffffffffffffffffffffffff167fc8e93948f0d856bad2f514ddd6a9379aabdc542c58efc5f44619ecf11dbe90328a88604051613dba929190615258565b60405180910390a35050505050505050565b6000809054906101000a900473ffffffffffffffffffffffffffffffffffffffff1673ffffffffffffffffffffffffffffffffffffffff163373ffffffffffffffffffffffffffffffffffffffff16141515613e2757600080fd5b600073ffffffffffffffffffffffffffffffffffffffff168173ffffffffffffffffffffffffffffffffffffffff1614151515613e6357600080fd5b8073ffffffffffffffffffffffffffffffffffffffff166000809054906101000a900473ffffffffffffffffffffffffffffffffffffffff1673ffffffffffffffffffffffffffffffffffffffff167f8be0079c531659141344cd1fd0a4f28419497f9722a3daafe3b4186f6b6457e060405160405180910390a3806000806101000a81548173ffffffffffffffffffffffffffffffffffffffff021916908373ffffffffffffffffffffffffffffffffffffffff16021790555050565b613f296145be565b60006002846040518082805190602001908083835b602083101515613f635780518252602082019150602081019050602083039250613f3e565b6001836020036101000a038019825116818451168082178552505050505050905001915050908152602001604051809103902061010060405190810160405290816000820160009054906101000a900473ffffffffffffffffffffffffffffffffffffffff1673ffffffffffffffffffffffffffffffffffffffff1673ffffffffffffffffffffffffffffffffffffffff168152602001600182018054600181600116156101000203166002900480601f0160208091040260200160405190810160405280929190818152602001828054600181600116156101000203166002900480156140925780601f1061406757610100808354040283529160200191614092565b820191906000526020600020905b81548152906001019060200180831161407557829003601f168201915b50505050508152602001600282018054600181600116156101000203166002900480601f0160208091040260200160405190810160405280929190818152602001828054600181600116156101000203166002900480156141345780601f1061410957610100808354040283529160200191614134565b820191906000526020600020905b81548152906001019060200180831161411757829003601f168201915b50505050508152602001600382018054600181600116156101000203166002900480601f0160208091040260200160405190810160405280929190818152602001828054600181600116156101000203166002900480156141d65780601f106141ab576101008083540402835291602001916141d6565b820191906000526020600020905b8154815290600101906020018083116141b957829003601f168201915b505050505081526020016004820154815260200160058201548152602001600682015481526020016007820160009054906101000a900460ff16600381111561421b57fe5b600381111561422657fe5b815250509150816000015173ffffffffffffffffffffffffffffffffffffffff163373ffffffffffffffffffffffffffffffffffffffff1614151561426a57600080fd5b600160009054906101000a900473ffffffffffffffffffffffffffffffffffffffff1673ffffffffffffffffffffffffffffffffffffffff1663dd62ed3e33306040518363ffffffff167c01000000000000000000000000000000000000000000000000000000000281526004016142e39291906151f8565b602060405180830381600087803b1580156142fd57600080fd5b505af1158015614311573d6000803e3d6000fd5b505050506040513d601f19601f820116820180604052506143359190810190614dd5565b905082811015151561434657600080fd5b600160009054906101000a900473ffffffffffffffffffffffffffffffffffffffff1673ffffffffffffffffffffffffffffffffffffffff166323b872dd3330866040518463ffffffff167c01000000000000000000000000000000000000000000000000000000000281526004016143c193929190615221565b602060405180830381600087803b1580156143db57600080fd5b505af11580156143ef573d6000803e3d6000fd5b505050506040513d601f19601f820116820180604052506144139190810190614b98565b151561441e57600080fd5b826002856040518082805190602001908083835b6020831015156144575780518252602082019150602081019050602083039250614432565b6001836020036101000a038019825116818451168082178552505050505050905001915050908152602001604051809103902060050160008282540192505081905550600060038111156144a757fe5b8260e0015160038111156144b757fe5b141561454e5760016002856040518082805190602001908083835b6020831015156144f757805182526020820191506020810190506020830392506144d2565b6001836020036101000a038019825116818451168082178552505050505050905001915050908152602001604051809103902060070160006101000a81548160ff0219169083600381111561454857fe5b02179055505b3373ffffffffffffffffffffffffffffffffffffffff167f7d703b99136412be3113d8613d984b3314e5afef7799b73dbc59f0dc66ae2b7f83602001518460400151856060015186608001518760c001516040516145b0959493929190615477565b60405180910390a250505050565b61010060405190810160405280600073ffffffffffffffffffffffffffffffffffffffff1681526020016060815260200160608152602001606081526020016000815260200160008152602001600081526020016000600381111561461f57fe5b81525090565b828054600181600116156101000203166002900490600052602060002090601f016020900481019282601f1061466657805160ff1916838001178555614694565b82800160010185558215614694579182015b82811115614693578251825591602001919060010190614678565b5b5090506146a191906147f4565b5090565b6101c0604051908101604052806146ba614819565b81526020016146c761482d565b815260200160008152602001600081526020016000815260200160608152602001600060028111156146f557fe5b8152602001606081525090565b602060405190810160405280606081525090565b60e060405190810160405280600073ffffffffffffffffffffffffffffffffffffffff1681526020016000815260200160008152602001606081526020016060815260200160608152602001606081525090565b8280548282559060005260206000209081019282156147e3579160200282015b828111156147e25782518260006101000a81548173ffffffffffffffffffffffffffffffffffffffff021916908373ffffffffffffffffffffffffffffffffffffffff1602179055509160200191906001019061478a565b5b5090506147f09190614881565b5090565b61481691905b808211156148125760008160009055506001016147fa565b5090565b90565b602060405190810160405280606081525090565b60e060405190810160405280600073ffffffffffffffffffffffffffffffffffffffff1681526020016000815260200160008152602001606081526020016060815260200160608152602001606081525090565b6148c191905b808211156148bd57600081816101000a81549073ffffffffffffffffffffffffffffffffffffffff021916905550600101614887565b5090565b90565b60006148d08235615759565b905092915050565b60006148e48251615779565b905092915050565b60006148f88235615785565b905092915050565b600082601f830112151561491357600080fd5b813561492661492182615690565b615663565b9150808252602083016020830185838301111561494257600080fd5b61494d8382846157cf565b50505092915050565b6000614962823561578f565b905092915050565b6000614976825161578f565b905092915050565b60006020828403121561499057600080fd5b600061499e848285016148c4565b91505092915050565b600080604083850312156149ba57600080fd5b60006149c8858286016148c4565b92505060206149d9858286016148c4565b9150509250929050565b600080600080608085870312156149f957600080fd5b6000614a07878288016148c4565b9450506020614a18878288016148c4565b9350506040614a2987828801614956565b925050606085013567ffffffffffffffff811115614a4657600080fd5b614a5287828801614900565b91505092959194509250565b60008060408385031215614a7157600080fd5b6000614a7f858286016148c4565b9250506020614a90858286016148ec565b9150509250929050565b600080600080600080600060e0888a031215614ab557600080fd5b6000614ac38a828b016148c4565b9750506020614ad48a828b01614956565b9650506040614ae58a828b01614956565b955050606088013567ffffffffffffffff811115614b0257600080fd5b614b0e8a828b01614900565b945050608088013567ffffffffffffffff811115614b2b57600080fd5b614b378a828b01614900565b93505060a088013567ffffffffffffffff811115614b5457600080fd5b614b608a828b01614900565b92505060c088013567ffffffffffffffff811115614b7d57600080fd5b614b898a828b01614900565b91505092959891949750929550565b600060208284031215614baa57600080fd5b6000614bb8848285016148d8565b91505092915050565b600060208284031215614bd357600080fd5b600082013567ffffffffffffffff811115614bed57600080fd5b614bf984828501614900565b91505092915050565b60008060408385031215614c1557600080fd5b600083013567ffffffffffffffff811115614c2f57600080fd5b614c3b85828601614900565b9250506020614c4c858286016148c4565b9150509250929050565b60008060408385031215614c6957600080fd5b600083013567ffffffffffffffff811115614c8357600080fd5b614c8f85828601614900565b925050602083013567ffffffffffffffff811115614cac57600080fd5b614cb885828601614900565b9150509250929050565b600080600080600060a08688031215614cda57600080fd5b600086013567ffffffffffffffff811115614cf457600080fd5b614d0088828901614900565b955050602086013567ffffffffffffffff811115614d1d57600080fd5b614d2988828901614900565b945050604086013567ffffffffffffffff811115614d4657600080fd5b614d5288828901614900565b9350506060614d6388828901614956565b9250506080614d7488828901614956565b9150509295509295909350565b60008060408385031215614d9457600080fd5b600083013567ffffffffffffffff811115614dae57600080fd5b614dba85828601614900565b9250506020614dcb85828601614956565b9150509250929050565b600060208284031215614de757600080fd5b6000614df58482850161496a565b91505092915050565b614e07816156f7565b82525050565b6000614e18826156c9565b808452602084019350614e2a836156bc565b60005b82811015614e5c57614e40868351614dfe565b614e49826156ea565b9150602086019550600181019050614e2d565b50849250505092915050565b614e7181615717565b82525050565b614e8081615799565b82525050565b614e8f816157ab565b82525050565b614e9e816157bd565b82525050565b6000614eaf826156df565b808452614ec38160208601602086016157de565b614ecc81615811565b602085010191505092915050565b6000614ee5826156d4565b808452614ef98160208601602086016157de565b614f0281615811565b602085010191505092915050565b6000601c82527f566f7465206d757374206265206569746865722031206f72202d312e000000006020830152604082019050919050565b6000603882527f596f7520617265206e6f7420726567697374657265642061732061207573657260208301527f2e20506c656173652072656769737465722066697273742100000000000000006040830152606082019050919050565b6000601582527f566f7465206d757374206265202d31206f7220312e00000000000000000000006020830152604082019050919050565b6000602482527f4e6f7420656e6f7567682076616c696461746f727320696e207468652073797360208301527f74656d21000000000000000000000000000000000000000000000000000000006040830152606082019050919050565b6000602182527f596f7520616c726561647920766f746564206f6e20746869732072657669657760208301527f2e000000000000000000000000000000000000000000000000000000000000006040830152606082019050919050565b6000602b82527f596f7520617265206e6f742063686f73656e20746f2076616c6964617465207460208301527f686973207265766965772e0000000000000000000000000000000000000000006040830152606082019050919050565b6000601782527f557365726e616d652063616e277420626520656d7074790000000000000000006020830152604082019050919050565b6000601d82527f53636f7265206d757374206265206265747765656e203120616e6420340000006020830152604082019050919050565b6000601982527f52657669657720616c72656164792076616c6964617465642e000000000000006020830152604082019050919050565b6000601882527f56616c696461746f7220616c72656164792065786973747300000000000000006020830152604082019050919050565b6151d78161574f565b82525050565b60006020820190506151f26000830184614dfe565b92915050565b600060408201905061520d6000830185614dfe565b61521a6020830184614e77565b9392505050565b60006060820190506152366000830186614dfe565b6152436020830185614e77565b61525060408301846151ce565b949350505050565b600060408201905061526d6000830185614dfe565b818103602083015261527f8184614ea4565b90509392505050565b600060a08201905061529d6000830188614dfe565b81810360208301526152af8187614ea4565b905081810360408301526152c38186614ea4565b905081810360608301526152d78185614ea4565b905081810360808301526152eb8184614ea4565b90509695505050505050565b600060408201905061530c6000830185614dfe565b61531960208301846151ce565b9392505050565b6000602082019050818103600083015261533a8184614e0d565b905092915050565b60006020820190506153576000830184614e68565b92915050565b60006020820190506153726000830184614e86565b92915050565b600060208201905061538d6000830184614e95565b92915050565b600060208201905081810360008301526153ad8184614ea4565b905092915050565b600060808201905081810360008301526153cf8187614ea4565b905081810360208301526153e38186614ea4565b905081810360408301526153f78185614eda565b905061540660608301846151ce565b95945050505050565b600060a08201905081810360008301526154298188614eda565b9050818103602083015261543d8187614ea4565b905081810360408301526154518186614ea4565b905061546060608301856151ce565b61546d60808301846151ce565b9695505050505050565b600060a08201905081810360008301526154918188614eda565b905081810360208301526154a58187614eda565b905081810360408301526154b98186614eda565b90506154c860608301856151ce565b6154d560808301846151ce565b9695505050505050565b600060208201905081810360008301526154f881614f10565b9050919050565b6000602082019050818103600083015261551881614f47565b9050919050565b6000602082019050818103600083015261553881614fa4565b9050919050565b6000602082019050818103600083015261555881614fdb565b9050919050565b6000602082019050818103600083015261557881615038565b9050919050565b6000602082019050818103600083015261559881615095565b9050919050565b600060208201905081810360008301526155b8816150f2565b9050919050565b600060208201905081810360008301526155d881615129565b9050919050565b600060208201905081810360008301526155f881615160565b9050919050565b6000602082019050818103600083015261561881615197565b9050919050565b600060208201905061563460008301846151ce565b92915050565b600060408201905061564f60008301856151ce565b61565c60208301846151ce565b9392505050565b6000604051905081810181811067ffffffffffffffff8211171561568657600080fd5b8060405250919050565b600067ffffffffffffffff8211156156a757600080fd5b601f19601f8301169050602081019050919050565b6000602082019050919050565b600081519050919050565b600081519050919050565b600081519050919050565b6000602082019050919050565b600073ffffffffffffffffffffffffffffffffffffffff82169050919050565b60008115159050919050565b600060038210151561573157fe5b819050919050565b600060048210151561574757fe5b819050919050565b6000819050919050565b600073ffffffffffffffffffffffffffffffffffffffff82169050919050565b60008115159050919050565b6000819050919050565b6000819050919050565b60006157a4826156f7565b9050919050565b60006157b682615723565b9050919050565b60006157c882615739565b9050919050565b82818337600083830152505050565b60005b838110156157fc5780820151818401526020810190506157e1565b8381111561580b576000848401525b50505050565b6000601f19601f83011690509190505600a265627a7a723058208a58df4ab66ace05df60a8db5cb4ff3e7f1eb841b2629f742e957b1ba34d09006c6578706572696d656e74616cf50037",
  "source": "pragma solidity ^0.4.24;\npragma experimental ABIEncoderV2;\n\nimport \"./REWToken.sol\";\nimport \"zeppelin-solidity/contracts/ownership/Ownable.sol\";\n\ncontract ReviewNetwork is Ownable {\n    REWToken token;\n    uint constant NUMBER_OF_VALIDATORS = 3;\n\n    enum SurveyStatus { IDLE, FUNDED, IN_PROGRESS, COMPLETED }\n    enum ReviewStatus { PENDING, APPROVED, REJECTED }\n\n    struct User {\n        string username;\n    }\n\n    struct Answer {\n        string answersJsonHash;\n    }\n\n    struct Survey {\n        address creator;\n        string publicKey;\n        string title;\n        string surveyJsonHash;\n        uint rewardPerSurvey;\n        uint funds;\n        uint maxAnswers;\n        SurveyStatus status;\n        mapping (address => Answer) answers;\n    }\n\n    struct Product {\n        address addedBy;\n        uint categoryId;\n        uint subcategoryId;\n        string name;\n        string image;\n        string description;\n        string metaJsonHash;\n    }\n\n    struct Review {\n        User author;\n        Product product;\n        uint score;\n        uint upvotes;\n        uint downvotes;\n        string metaJsonHash;\n        ReviewStatus status;\n        address[] chosenValidators;\n        mapping (address => int) validationVotes;\n        mapping (address => bool) userVotes;\n    }\n\n    /**\n     * key: string - Survey JSON IPFS hash\n     */\n    mapping (string => Survey) surveys;\n    mapping (address => Product) products;\n    mapping (address => User) users;\n    mapping (address => Review) reviews;\n    address[] validators;\n\n    event LogSurveyAdded(\n        address indexed creator,\n        string publicKey,\n        string title,\n        string surveyJsonHash,\n        uint rewardPerSurvey,\n        uint maxAnswers\n    );\n    \n    event LogSurveyFunded(\n        address indexed creator,\n        string publicKey,\n        string title,\n        string surveyJsonHash,\n        uint rewardPerSurvey,\n        uint maxAnswers\n    );\n    \n    event LogSurveyStarted(\n        address indexed creator,\n        string publicKey,\n        string title,\n        string surveyJsonHash,\n        uint rewardPerSurvey,\n        uint maxAnswers\n    );\n\n    event LogSurveyCompleted(\n        address indexed creator,\n        string publicKey,\n        string title,\n        string surveyJsonHash,\n        uint rewardPerSurvey,\n        uint maxAnswers\n    );\n\n    event LogSurveyAnswered(\n        address indexed user,\n        string surveyJsonHash,\n        string answersJsonHash,\n        string title,\n        uint rewardPerSurvey\n    );\n\n    event LogProductAdded(\n        address productAddress,\n        uint indexed categoryId,\n        uint indexed subcategoryId,\n        string name,\n        string image,\n        string description,\n        string metaHashJson\n    );\n\n    event LogReviewAdded(\n        address reviewAddress,\n        address indexed authorAddress,\n        address indexed productAddress,\n        string metaJsonHash\n    );\n\n    event LogValidatorAdded(\n        address validatorAddress\n    );\n\n    event LogValidatorChosen(\n        address indexed reviewAddress,\n        address indexed validatorAddress\n    );\n\n    event LogReviewApproved(\n        address indexed reviewAddress\n    );\n\n    event LogReviewRejected(\n        address indexed reviewAddress\n    );\n\n    constructor (address REWTokenAddress) public {\n        token = REWToken(REWTokenAddress);\n    }\n\n    function createSurvey(\n        string publicKey,\n        string title,\n        string surveyJsonHash,\n        uint rewardPerSurvey,\n        uint maxAnswers\n    ) public {\n        Survey memory s = Survey(\n            msg.sender,\n            publicKey,\n            title,\n            surveyJsonHash,\n            rewardPerSurvey,\n            0,\n            maxAnswers,\n            SurveyStatus.IDLE\n        );\n\n        surveys[surveyJsonHash] = s;\n\n        emit LogSurveyAdded(\n            msg.sender,\n            s.publicKey,\n            title,\n            surveyJsonHash,\n            rewardPerSurvey,\n            maxAnswers\n        );\n    }\n\n    function fundSurvey(string surveyJsonHash, uint amount) public {\n        Survey memory survey = surveys[surveyJsonHash];\n\n        require(msg.sender == survey.creator);\n\n        uint allowance = token.allowance(msg.sender, this);\n        require(allowance >= amount);\n\n        require(token.transferFrom(msg.sender, this, amount));\n        surveys[surveyJsonHash].funds += amount;\n        \n        if(survey.status == SurveyStatus.IDLE) {\n            surveys[surveyJsonHash].status = SurveyStatus.FUNDED;\n        }\n\n        emit LogSurveyFunded(\n            msg.sender,\n            survey.publicKey,\n            survey.title,\n            survey.surveyJsonHash,\n            survey.rewardPerSurvey,\n            survey.maxAnswers\n        );\n    }\n\n    function startSurvey(string surveyJsonHash) public {\n        Survey memory survey = surveys[surveyJsonHash];\n        require(msg.sender == survey.creator);\n        require(survey.status == SurveyStatus.FUNDED);\n\n        surveys[surveyJsonHash].status = SurveyStatus.IN_PROGRESS;\n\n        emit LogSurveyStarted(\n            msg.sender,\n            survey.publicKey,\n            survey.title,\n            survey.surveyJsonHash,\n            survey.rewardPerSurvey,\n            survey.maxAnswers\n        );\n    }\n\n    function completeSurvey(string surveyJsonHash) public {\n        Survey memory survey = surveys[surveyJsonHash];\n        require(msg.sender == survey.creator);\n        require(survey.status == SurveyStatus.IN_PROGRESS);\n\n        surveys[surveyJsonHash].status = SurveyStatus.COMPLETED;\n\n        emit LogSurveyCompleted(\n            msg.sender,\n            survey.publicKey,\n            survey.title,\n            survey.surveyJsonHash,\n            survey.rewardPerSurvey,\n            survey.maxAnswers\n        );\n    }\n\n    function getFunds(string surveyJsonHash) public view returns (uint) {\n        return surveys[surveyJsonHash].funds;\n    }\n\n    function getSurveyStatus(string surveyJsonHash) public view returns (SurveyStatus) {\n        return surveys[surveyJsonHash].status;\n    }\n\n    function answerSurvey(string surveyJsonHash, string answersJsonHash) public returns (bool) {\n        Survey memory survey = surveys[surveyJsonHash];\n        require(keccak256(bytes(answersJsonHash)) != keccak256(\"\"));\n        require(keccak256(bytes(surveyJsonHash)) != keccak256(\"\"));\n        require(survey.status == SurveyStatus.IN_PROGRESS);\n        require(keccak256(surveys[surveyJsonHash].answers[msg.sender].answersJsonHash) == keccak256(\"\"));\n\n        surveys[surveyJsonHash].answers[msg.sender] = Answer(answersJsonHash);\n        require(token.transfer(msg.sender, survey.rewardPerSurvey));\n        surveys[surveyJsonHash].funds -= surveys[surveyJsonHash].rewardPerSurvey;\n        emit LogSurveyAnswered(msg.sender, surveyJsonHash, answersJsonHash, survey.title, survey.rewardPerSurvey);\n\n        if (surveys[surveyJsonHash].funds < survey.rewardPerSurvey) {\n            surveys[surveyJsonHash].status = SurveyStatus.COMPLETED;\n            emit LogSurveyCompleted(\n                survey.creator,\n                survey.publicKey,\n                survey.title,\n                survey.surveyJsonHash,\n                survey.rewardPerSurvey,\n                survey.maxAnswers\n            );\n        }\n    }\n\n    function isSurveyAnsweredBy(string surveyJsonHash, address user) public view returns (bool) {\n        return keccak256(bytes(surveys[surveyJsonHash].answers[user].answersJsonHash)) != keccak256(\"\");\n    }\n\n    function createProduct (\n        address productAddress,\n        uint categoryId,\n        uint subcategoryId,\n        string name,\n        string image,\n        string description,\n        string metaJsonHash\n    ) public onlyOwner {\n        Product memory product = Product({\n            addedBy: msg.sender,\n            categoryId: categoryId,\n            subcategoryId: subcategoryId,\n            name: name,\n            image: image,\n            description: description,\n            metaJsonHash: metaJsonHash\n        });\n\n        products[productAddress] = product;\n\n        emit LogProductAdded(productAddress, categoryId, subcategoryId, name, image, description, metaJsonHash);\n    }\n\n    function registerUser (string username) public {\n        require(keccak256(username) != keccak256(\"\"), \"Username can't be empty\");\n        User memory user = User({ username: username });\n        users[msg.sender] = user;\n    }\n\n    function getUsername (address user) public view returns (string) {\n        return users[user].username;\n    }\n\n    function userExists (address userAddress) public view returns (bool) {\n        return keccak256(users[userAddress].username) != keccak256(\"\");\n    }\n\n    function createReview (\n        address reviewAddress,\n        address productAddress,\n        uint score,\n        string metaJsonHash\n    ) public {\n        require(score >= 1 && score <= 4, \"Score must be between 1 and 4\");\n\n        User memory author = users[msg.sender];\n        require(keccak256(author.username) != keccak256(\"\"), \"You are not registered as a user. Please register first!\");\n\n        Product memory product = products[productAddress];\n\n        Review memory review = Review({\n            author: author,\n            product: product,\n            score: score,\n            upvotes: 0,\n            downvotes: 0,\n            metaJsonHash: metaJsonHash,\n            status: ReviewStatus.PENDING,\n            chosenValidators: choseValidators(msg.sender)\n        });\n\n        reviews[reviewAddress] = review;\n\n        for (uint index = 0; index < review.chosenValidators.length; index++) {\n            emit LogValidatorChosen(reviewAddress, review.chosenValidators[index]);\n        }\n\n        emit LogReviewAdded(reviewAddress, msg.sender, productAddress, metaJsonHash);\n    }\n\n    function voteReview (address reviewAddress, int vote) public {\n        require(vote == 1 || vote == -1, \"Vote must be either 1 or -1.\");\n        require(reviews[reviewAddress].userVotes[msg.sender] == false, \"You already voted on this review.\");\n\n        reviews[reviewAddress].userVotes[msg.sender] = true;\n\n        if (vote == 1) {\n            reviews[reviewAddress].upvotes += 1;\n        } else if (vote == -1) {\n            reviews[reviewAddress].downvotes += 1;\n        }\n    }\n\n    function getReviewVotes (address reviewAddress) public view returns (uint upvotes, uint downvotes) {\n        return (reviews[reviewAddress].upvotes, reviews[reviewAddress].downvotes);\n    }\n\n    function getReviewStatus(address reviewAddress) public view returns (ReviewStatus) {\n        return reviews[reviewAddress].status;\n    }\n\n    function isValidatorChosenForReview (address reviewAddress, address validator) public view returns (bool) {\n        Review memory review = reviews[reviewAddress];\n        \n        bool isValidatorChosen = false;\n        for (uint index = 0; index < review.chosenValidators.length; index++) {\n            if (review.chosenValidators[index] == validator) {\n                isValidatorChosen = true;\n            }\n        }\n\n        return isValidatorChosen;\n    }\n\n    function validatorVote(address reviewAddress, int vote) public {\n        Review storage review = reviews[reviewAddress];\n\n        require(review.status == ReviewStatus.PENDING, \"Review already validated.\");\n        require(reviews[reviewAddress].validationVotes[msg.sender] == 0, \"You already voted on this review.\");\n        require(isValidatorChosenForReview(reviewAddress, msg.sender), \"You are not chosen to validate this review.\");\n        require(vote == -1 || vote == 1, \"Vote must be -1 or 1.\");\n\n        reviews[reviewAddress].validationVotes[msg.sender] = vote;\n\n        bool everyoneVoted = true;\n        int tally = 0;\n\n        for (uint index = 0; index < NUMBER_OF_VALIDATORS; index++) {\n            tally += review.validationVotes[review.chosenValidators[index]];\n\n            if (review.validationVotes[review.chosenValidators[index]] == 0) {\n                everyoneVoted = false;\n            }\n        }\n\n        if (everyoneVoted) {\n            if (tally > 0) {\n                reviews[reviewAddress].status = ReviewStatus.APPROVED;\n                emit LogReviewApproved(reviewAddress);\n            } else {\n                reviews[reviewAddress].status = ReviewStatus.REJECTED;\n                emit LogReviewRejected(reviewAddress);\n            }\n        }\n    }\n\n    function addValidator(address validatorAddress) public onlyOwner {\n        bool validatorExists = false;\n        for(uint i = 0; i < validators.length; i++) {\n            if (validatorAddress == validators[i]) {\n                validatorExists = true;\n            }\n        }\n        \n        require(!validatorExists, \"Validator already exists\");\n        validators.push(validatorAddress);\n\n        emit LogValidatorAdded(validatorAddress);\n    }\n\n    function choseValidators(address author) public view returns (address[]) {\n        require(validators.length >= NUMBER_OF_VALIDATORS, \"Not enough validators in the system!\");\n\n        uint a = uint256(author);\n        bytes32 b = bytes32(block.timestamp);\n        uint r = uint(keccak256(abi.encodePacked(a, b)));\n        uint point = r % validators.length;\n\n        address[] memory chosenOnes = new address[](NUMBER_OF_VALIDATORS);\n\n        uint counter = 0;\n        uint index = 1;\n\n        while(counter < NUMBER_OF_VALIDATORS) {\n            address chosenValidator = validators[(point + index) % validators.length];\n\n            bool alreadyPicked = false;\n            for(uint i = 0; i < chosenOnes.length; i++) {\n                if (chosenOnes[i] == chosenValidator) {\n                    alreadyPicked = true;\n                } \n            }\n\n            if (!alreadyPicked) {\n                chosenOnes[counter] = chosenValidator;\n                counter++;\n            }\n\n            index++;\n\n        }\n\n        return chosenOnes;\n    }\n}\n",
  "sourcePath": "/Users/petars/projects/review-network/rn-prototype-solidity/contracts/ReviewNetwork.sol",
  "compiler": {
    "name": "solc",
    "version": "0.4.24+commit.e67f0147.Emscripten.clang"
  },
  "schemaVersion": "2.0.1",
  "updatedAt": "2018-08-25T20:46:17.441Z"
}