{
  "contractName": "ReviewNetwork",
  "abi": [
    {
      "constant": true,
      "inputs": [],
      "name": "owner",
      "outputs": [
        {
          "name": "",
          "type": "address"
        }
      ],
      "payable": false,
      "stateMutability": "view",
      "type": "function"
    },
    {
      "constant": false,
      "inputs": [
        {
          "name": "newOwner",
          "type": "address"
        }
      ],
      "name": "transferOwnership",
      "outputs": [],
      "payable": false,
      "stateMutability": "nonpayable",
      "type": "function"
    },
    {
      "inputs": [
        {
          "name": "REWTokenAddress",
          "type": "address"
        }
      ],
      "payable": false,
      "stateMutability": "nonpayable",
      "type": "constructor"
    },
    {
      "anonymous": false,
      "inputs": [
        {
          "indexed": true,
          "name": "creator",
          "type": "address"
        },
        {
          "indexed": false,
          "name": "publicKey",
          "type": "string"
        },
        {
          "indexed": false,
          "name": "title",
          "type": "string"
        },
        {
          "indexed": false,
          "name": "surveyJsonHash",
          "type": "string"
        },
        {
          "indexed": false,
          "name": "rewardPerSurvey",
          "type": "uint256"
        },
        {
          "indexed": false,
          "name": "maxAnswers",
          "type": "uint256"
        }
      ],
      "name": "LogSurveyAdded",
      "type": "event"
    },
    {
      "anonymous": false,
      "inputs": [
        {
          "indexed": true,
          "name": "creator",
          "type": "address"
        },
        {
          "indexed": false,
          "name": "publicKey",
          "type": "string"
        },
        {
          "indexed": false,
          "name": "title",
          "type": "string"
        },
        {
          "indexed": false,
          "name": "surveyJsonHash",
          "type": "string"
        },
        {
          "indexed": false,
          "name": "rewardPerSurvey",
          "type": "uint256"
        },
        {
          "indexed": false,
          "name": "maxAnswers",
          "type": "uint256"
        }
      ],
      "name": "LogSurveyFunded",
      "type": "event"
    },
    {
      "anonymous": false,
      "inputs": [
        {
          "indexed": true,
          "name": "creator",
          "type": "address"
        },
        {
          "indexed": false,
          "name": "publicKey",
          "type": "string"
        },
        {
          "indexed": false,
          "name": "title",
          "type": "string"
        },
        {
          "indexed": false,
          "name": "surveyJsonHash",
          "type": "string"
        },
        {
          "indexed": false,
          "name": "rewardPerSurvey",
          "type": "uint256"
        },
        {
          "indexed": false,
          "name": "maxAnswers",
          "type": "uint256"
        }
      ],
      "name": "LogSurveyStarted",
      "type": "event"
    },
    {
      "anonymous": false,
      "inputs": [
        {
          "indexed": true,
          "name": "creator",
          "type": "address"
        },
        {
          "indexed": false,
          "name": "publicKey",
          "type": "string"
        },
        {
          "indexed": false,
          "name": "title",
          "type": "string"
        },
        {
          "indexed": false,
          "name": "surveyJsonHash",
          "type": "string"
        },
        {
          "indexed": false,
          "name": "rewardPerSurvey",
          "type": "uint256"
        },
        {
          "indexed": false,
          "name": "maxAnswers",
          "type": "uint256"
        }
      ],
      "name": "LogSurveyCompleted",
      "type": "event"
    },
    {
      "anonymous": false,
      "inputs": [
        {
          "indexed": true,
          "name": "user",
          "type": "address"
        },
        {
          "indexed": false,
          "name": "surveyJsonHash",
          "type": "string"
        },
        {
          "indexed": false,
          "name": "answersJsonHash",
          "type": "string"
        },
        {
          "indexed": false,
          "name": "title",
          "type": "string"
        },
        {
          "indexed": false,
          "name": "rewardPerSurvey",
          "type": "uint256"
        }
      ],
      "name": "LogSurveyAnswered",
      "type": "event"
    },
    {
      "anonymous": false,
      "inputs": [
        {
          "indexed": true,
          "name": "brandAddress",
          "type": "address"
        },
        {
          "indexed": false,
          "name": "name",
          "type": "string"
        },
        {
          "indexed": false,
          "name": "logo",
          "type": "string"
        },
        {
          "indexed": false,
          "name": "metaHashJson",
          "type": "string"
        }
      ],
      "name": "LogBrandAdded",
      "type": "event"
    },
    {
      "anonymous": false,
      "inputs": [
        {
          "indexed": true,
          "name": "productAddress",
          "type": "address"
        },
        {
          "indexed": true,
          "name": "brandAddress",
          "type": "address"
        },
        {
          "indexed": false,
          "name": "name",
          "type": "string"
        },
        {
          "indexed": false,
          "name": "image",
          "type": "string"
        },
        {
          "indexed": false,
          "name": "metaHashJson",
          "type": "string"
        }
      ],
      "name": "LogProductAdded",
      "type": "event"
    },
    {
      "anonymous": false,
      "inputs": [
        {
          "indexed": false,
          "name": "reviewAddress",
          "type": "address"
        },
        {
          "indexed": true,
          "name": "authorAddress",
          "type": "address"
        },
        {
          "indexed": true,
          "name": "productAddress",
          "type": "address"
        }
      ],
      "name": "LogReviewAdded",
      "type": "event"
    },
    {
      "anonymous": false,
      "inputs": [
        {
          "indexed": true,
          "name": "previousOwner",
          "type": "address"
        },
        {
          "indexed": true,
          "name": "newOwner",
          "type": "address"
        }
      ],
      "name": "OwnershipTransferred",
      "type": "event"
    },
    {
      "constant": false,
      "inputs": [
        {
          "name": "publicKey",
          "type": "string"
        },
        {
          "name": "title",
          "type": "string"
        },
        {
          "name": "surveyJsonHash",
          "type": "string"
        },
        {
          "name": "rewardPerSurvey",
          "type": "uint256"
        },
        {
          "name": "maxAnswers",
          "type": "uint256"
        }
      ],
      "name": "createSurvey",
      "outputs": [],
      "payable": false,
      "stateMutability": "nonpayable",
      "type": "function"
    },
    {
      "constant": false,
      "inputs": [
        {
          "name": "surveyJsonHash",
          "type": "string"
        },
        {
          "name": "amount",
          "type": "uint256"
        }
      ],
      "name": "fundSurvey",
      "outputs": [],
      "payable": false,
      "stateMutability": "nonpayable",
      "type": "function"
    },
    {
      "constant": false,
      "inputs": [
        {
          "name": "surveyJsonHash",
          "type": "string"
        }
      ],
      "name": "startSurvey",
      "outputs": [],
      "payable": false,
      "stateMutability": "nonpayable",
      "type": "function"
    },
    {
      "constant": false,
      "inputs": [
        {
          "name": "surveyJsonHash",
          "type": "string"
        }
      ],
      "name": "completeSurvey",
      "outputs": [],
      "payable": false,
      "stateMutability": "nonpayable",
      "type": "function"
    },
    {
      "constant": true,
      "inputs": [
        {
          "name": "surveyJsonHash",
          "type": "string"
        }
      ],
      "name": "getFunds",
      "outputs": [
        {
          "name": "",
          "type": "uint256"
        }
      ],
      "payable": false,
      "stateMutability": "view",
      "type": "function"
    },
    {
      "constant": true,
      "inputs": [
        {
          "name": "surveyJsonHash",
          "type": "string"
        }
      ],
      "name": "getSurveyStatus",
      "outputs": [
        {
          "name": "",
          "type": "uint8"
        }
      ],
      "payable": false,
      "stateMutability": "view",
      "type": "function"
    },
    {
      "constant": false,
      "inputs": [
        {
          "name": "surveyJsonHash",
          "type": "string"
        },
        {
          "name": "answersJsonHash",
          "type": "string"
        }
      ],
      "name": "answerSurvey",
      "outputs": [
        {
          "name": "",
          "type": "bool"
        }
      ],
      "payable": false,
      "stateMutability": "nonpayable",
      "type": "function"
    },
    {
      "constant": true,
      "inputs": [
        {
          "name": "surveyJsonHash",
          "type": "string"
        },
        {
          "name": "user",
          "type": "address"
        }
      ],
      "name": "isSurveyAnsweredBy",
      "outputs": [
        {
          "name": "",
          "type": "bool"
        }
      ],
      "payable": false,
      "stateMutability": "view",
      "type": "function"
    },
    {
      "constant": false,
      "inputs": [
        {
          "name": "brandAddress",
          "type": "address"
        },
        {
          "name": "name",
          "type": "string"
        },
        {
          "name": "logo",
          "type": "string"
        },
        {
          "name": "metaJsonHash",
          "type": "string"
        }
      ],
      "name": "createBrand",
      "outputs": [],
      "payable": false,
      "stateMutability": "nonpayable",
      "type": "function"
    },
    {
      "constant": false,
      "inputs": [
        {
          "name": "productAddress",
          "type": "address"
        },
        {
          "name": "brandAddress",
          "type": "address"
        },
        {
          "name": "name",
          "type": "string"
        },
        {
          "name": "image",
          "type": "string"
        },
        {
          "name": "metaJsonHash",
          "type": "string"
        }
      ],
      "name": "createProduct",
      "outputs": [],
      "payable": false,
      "stateMutability": "nonpayable",
      "type": "function"
    },
    {
      "constant": false,
      "inputs": [
        {
          "name": "reviewAddress",
          "type": "address"
        },
        {
          "name": "authorAddress",
          "type": "address"
        },
        {
          "name": "productAddress",
          "type": "address"
        },
        {
          "name": "score",
          "type": "uint256"
        },
        {
          "name": "metaJsonHash",
          "type": "string"
        }
      ],
      "name": "createReview",
      "outputs": [],
      "payable": false,
      "stateMutability": "nonpayable",
      "type": "function"
    }
  ],
  "bytecode": "0x60806040523480156200001157600080fd5b5060405160208062003f9f8339810180604052620000339190810190620000d1565b336000806101000a81548173ffffffffffffffffffffffffffffffffffffffff021916908373ffffffffffffffffffffffffffffffffffffffff16021790555080600160006101000a81548173ffffffffffffffffffffffffffffffffffffffff021916908373ffffffffffffffffffffffffffffffffffffffff160217905550506200011d565b6000620000c98251620000fd565b905092915050565b600060208284031215620000e457600080fd5b6000620000f484828501620000bb565b91505092915050565b600073ffffffffffffffffffffffffffffffffffffffff82169050919050565b613e72806200012d6000396000f3006080604052600436106100c5576000357c0100000000000000000000000000000000000000000000000000000000900463ffffffff16806306ba9624146100ca57806321d77d94146100f35780632d0c9b1c1461011c5780638da5cb5b146101595780639700909014610184578063b581e9cf146101ad578063b639c6c9146101d6578063c4f2949b14610213578063c5b447121461023c578063d9e115d314610279578063f2fde38b146102b6578063f420e184146102df578063fc2fd1ca14610308575b600080fd5b3480156100d657600080fd5b506100f160048036036100ec9190810190613771565b610331565b005b3480156100ff57600080fd5b5061011a60048036036101159190810190613872565b61079f565b005b34801561012857600080fd5b50610143600480360361013e9190810190613771565b6109bd565b6040516101509190613cb5565b60405180910390f35b34801561016557600080fd5b5061016e610a35565b60405161017b9190613a65565b60405180910390f35b34801561019057600080fd5b506101ab60048036036101a69190810190613771565b610a5a565b005b3480156101b957600080fd5b506101d460048036036101cf91908101906135de565b610ec7565b005b3480156101e257600080fd5b506101fd60048036036101f89190810190613771565b6113f7565b60405161020a9190613b24565b60405180910390f35b34801561021f57600080fd5b5061023a6004803603610235919081019061354f565b61147c565b005b34801561024857600080fd5b50610263600480360361025e9190810190613806565b611cf1565b6040516102709190613b09565b60405180910390f35b34801561028557600080fd5b506102a0600480360361029b91908101906137b2565b6126fa565b6040516102ad9190613b09565b60405180910390f35b3480156102c257600080fd5b506102dd60048036036102d89190810190613526565b612835565b005b3480156102eb57600080fd5b5061030660048036036103019190810190613931565b61298a565b005b34801561031457600080fd5b5061032f600480360361032a919081019061369d565b613027565b005b6103396131fe565b6002826040518082805190602001908083835b602083101515610371578051825260208201915060208101905060208303925061034c565b6001836020036101000a038019825116818451168082178552505050505050905001915050908152602001604051809103902061010060405190810160405290816000820160009054906101000a900473ffffffffffffffffffffffffffffffffffffffff1673ffffffffffffffffffffffffffffffffffffffff1673ffffffffffffffffffffffffffffffffffffffff168152602001600182018054600181600116156101000203166002900480601f0160208091040260200160405190810160405280929190818152602001828054600181600116156101000203166002900480156104a05780601f10610475576101008083540402835291602001916104a0565b820191906000526020600020905b81548152906001019060200180831161048357829003601f168201915b50505050508152602001600282018054600181600116156101000203166002900480601f0160208091040260200160405190810160405280929190818152602001828054600181600116156101000203166002900480156105425780601f1061051757610100808354040283529160200191610542565b820191906000526020600020905b81548152906001019060200180831161052557829003601f168201915b50505050508152602001600382018054600181600116156101000203166002900480601f0160208091040260200160405190810160405280929190818152602001828054600181600116156101000203166002900480156105e45780601f106105b9576101008083540402835291602001916105e4565b820191906000526020600020905b8154815290600101906020018083116105c757829003601f168201915b505050505081526020016004820154815260200160058201548152602001600682015481526020016007820160009054906101000a900460ff16600381111561062957fe5b600381111561063457fe5b815250509050806000015173ffffffffffffffffffffffffffffffffffffffff163373ffffffffffffffffffffffffffffffffffffffff1614151561067857600080fd5b6002600381111561068557fe5b8160e00151600381111561069557fe5b1415156106a157600080fd5b60036002836040518082805190602001908083835b6020831015156106db57805182526020820191506020810190506020830392506106b6565b6001836020036101000a038019825116818451168082178552505050505050905001915050908152602001604051809103902060070160006101000a81548160ff0219169083600381111561072c57fe5b02179055503373ffffffffffffffffffffffffffffffffffffffff167f8d19faf08adf4f904aba4b47ace07c0c7c74712a6d39e931bff4dcbc25b5419582602001518360400151846060015185608001518660c00151604051610793959493929190613c4d565b60405180910390a25050565b6107a76131fe565b610100604051908101604052803373ffffffffffffffffffffffffffffffffffffffff168152602001878152602001868152602001858152602001848152602001600081526020018381526020016000600381111561080257fe5b8152509050806002856040518082805190602001908083835b602083101515610840578051825260208201915060208101905060208303925061081b565b6001836020036101000a038019825116818451168082178552505050505050905001915050908152602001604051809103902060008201518160000160006101000a81548173ffffffffffffffffffffffffffffffffffffffff021916908373ffffffffffffffffffffffffffffffffffffffff16021790555060208201518160010190805190602001906108d6929190613265565b5060408201518160020190805190602001906108f3929190613265565b506060820151816003019080519060200190610910929190613265565b506080820151816004015560a0820151816005015560c0820151816006015560e08201518160070160006101000a81548160ff0219169083600381111561095357fe5b02179055509050503373ffffffffffffffffffffffffffffffffffffffff167f95425f5f4392462c32fc4957d62e15f8589a263ec26ba4b863ca0bacfca39fe68260200151878787876040516109ad959493929190613be5565b60405180910390a2505050505050565b60006002826040518082805190602001908083835b6020831015156109f757805182526020820191506020810190506020830392506109d2565b6001836020036101000a0380198251168184511680821785525050505050509050019150509081526020016040518091039020600501549050919050565b6000809054906101000a900473ffffffffffffffffffffffffffffffffffffffff1681565b610a626131fe565b6002826040518082805190602001908083835b602083101515610a9a5780518252602082019150602081019050602083039250610a75565b6001836020036101000a038019825116818451168082178552505050505050905001915050908152602001604051809103902061010060405190810160405290816000820160009054906101000a900473ffffffffffffffffffffffffffffffffffffffff1673ffffffffffffffffffffffffffffffffffffffff1673ffffffffffffffffffffffffffffffffffffffff168152602001600182018054600181600116156101000203166002900480601f016020809104026020016040519081016040528092919081815260200182805460018160011615610100020316600290048015610bc95780601f10610b9e57610100808354040283529160200191610bc9565b820191906000526020600020905b815481529060010190602001808311610bac57829003601f168201915b50505050508152602001600282018054600181600116156101000203166002900480601f016020809104026020016040519081016040528092919081815260200182805460018160011615610100020316600290048015610c6b5780601f10610c4057610100808354040283529160200191610c6b565b820191906000526020600020905b815481529060010190602001808311610c4e57829003601f168201915b50505050508152602001600382018054600181600116156101000203166002900480601f016020809104026020016040519081016040528092919081815260200182805460018160011615610100020316600290048015610d0d5780601f10610ce257610100808354040283529160200191610d0d565b820191906000526020600020905b815481529060010190602001808311610cf057829003601f168201915b505050505081526020016004820154815260200160058201548152602001600682015481526020016007820160009054906101000a900460ff166003811115610d5257fe5b6003811115610d5d57fe5b815250509050806000015173ffffffffffffffffffffffffffffffffffffffff163373ffffffffffffffffffffffffffffffffffffffff16141515610da157600080fd5b60016003811115610dae57fe5b8160e001516003811115610dbe57fe5b141515610dca57600080fd5b600280836040518082805190602001908083835b602083101515610e035780518252602082019150602081019050602083039250610dde565b6001836020036101000a038019825116818451168082178552505050505050905001915050908152602001604051809103902060070160006101000a81548160ff02191690836003811115610e5457fe5b02179055503373ffffffffffffffffffffffffffffffffffffffff167fd2e59155eb79323d200530a040ef34592cb14783597fd17fbb14bfdfa241a19c82602001518360400151846060015185608001518660c00151604051610ebb959493929190613c4d565b60405180910390a25050565b610ecf6132e5565b610ed7613324565b6000809054906101000a900473ffffffffffffffffffffffffffffffffffffffff1673ffffffffffffffffffffffffffffffffffffffff163373ffffffffffffffffffffffffffffffffffffffff16141515610f3257600080fd5b600360008773ffffffffffffffffffffffffffffffffffffffff1673ffffffffffffffffffffffffffffffffffffffff168152602001908152602001600020608060405190810160405290816000820160009054906101000a900473ffffffffffffffffffffffffffffffffffffffff1673ffffffffffffffffffffffffffffffffffffffff1673ffffffffffffffffffffffffffffffffffffffff168152602001600182018054600181600116156101000203166002900480601f01602080910402602001604051908101604052809291908181526020018280546001816001161561010002031660029004801561106c5780601f106110415761010080835404028352916020019161106c565b820191906000526020600020905b81548152906001019060200180831161104f57829003601f168201915b50505050508152602001600282018054600181600116156101000203166002900480601f01602080910402602001604051908101604052809291908181526020018280546001816001161561010002031660029004801561110e5780601f106110e35761010080835404028352916020019161110e565b820191906000526020600020905b8154815290600101906020018083116110f157829003601f168201915b50505050508152602001600382018054600181600116156101000203166002900480601f0160208091040260200160405190810160405280929190818152602001828054600181600116156101000203166002900480156111b05780601f10611185576101008083540402835291602001916111b0565b820191906000526020600020905b81548152906001019060200180831161119357829003601f168201915b505050505081525050915060a0604051908101604052803373ffffffffffffffffffffffffffffffffffffffff16815260200183815260200186815260200185815260200184815250905080600460008873ffffffffffffffffffffffffffffffffffffffff1673ffffffffffffffffffffffffffffffffffffffff16815260200190815260200160002060008201518160000160006101000a81548173ffffffffffffffffffffffffffffffffffffffff021916908373ffffffffffffffffffffffffffffffffffffffff16021790555060208201518160010160008201518160000160006101000a81548173ffffffffffffffffffffffffffffffffffffffff021916908373ffffffffffffffffffffffffffffffffffffffff16021790555060208201518160010190805190602001906112ee929190613265565b50604082015181600201908051906020019061130b929190613265565b506060820151816003019080519060200190611328929190613265565b5050506040820151816005019080519060200190611347929190613265565b506060820151816006019080519060200190611364929190613265565b506080820151816007019080519060200190611381929190613265565b509050508573ffffffffffffffffffffffffffffffffffffffff168773ffffffffffffffffffffffffffffffffffffffff167f9d793cdf8c643309229028c49e7d504e34321cbee1e423583e2685885585458e8787876040516113e693929190613b3f565b60405180910390a350505050505050565b60006002826040518082805190602001908083835b602083101515611431578051825260208201915060208101905060208303925061140c565b6001836020036101000a038019825116818451168082178552505050505050905001915050908152602001604051809103902060070160009054906101000a900460ff169050919050565b611484613371565b61148c613324565b611494613385565b600185101580156114a6575060048511155b15156114b157600080fd5b600560008873ffffffffffffffffffffffffffffffffffffffff1673ffffffffffffffffffffffffffffffffffffffff16815260200190815260200160002060206040519081016040529081600082018054600181600116156101000203166002900480601f0160208091040260200160405190810160405280929190818152602001828054600181600116156101000203166002900480156115955780601f1061156a57610100808354040283529160200191611595565b820191906000526020600020905b81548152906001019060200180831161157857829003601f168201915b5050505050815250509250600460008773ffffffffffffffffffffffffffffffffffffffff1673ffffffffffffffffffffffffffffffffffffffff16815260200190815260200160002060a060405190810160405290816000820160009054906101000a900473ffffffffffffffffffffffffffffffffffffffff1673ffffffffffffffffffffffffffffffffffffffff1673ffffffffffffffffffffffffffffffffffffffff16815260200160018201608060405190810160405290816000820160009054906101000a900473ffffffffffffffffffffffffffffffffffffffff1673ffffffffffffffffffffffffffffffffffffffff1673ffffffffffffffffffffffffffffffffffffffff168152602001600182018054600181600116156101000203166002900480601f0160208091040260200160405190810160405280929190818152602001828054600181600116156101000203166002900480156117415780601f1061171657610100808354040283529160200191611741565b820191906000526020600020905b81548152906001019060200180831161172457829003601f168201915b50505050508152602001600282018054600181600116156101000203166002900480601f0160208091040260200160405190810160405280929190818152602001828054600181600116156101000203166002900480156117e35780601f106117b8576101008083540402835291602001916117e3565b820191906000526020600020905b8154815290600101906020018083116117c657829003601f168201915b50505050508152602001600382018054600181600116156101000203166002900480601f0160208091040260200160405190810160405280929190818152602001828054600181600116156101000203166002900480156118855780601f1061185a57610100808354040283529160200191611885565b820191906000526020600020905b81548152906001019060200180831161186857829003601f168201915b5050505050815250508152602001600582018054600181600116156101000203166002900480601f01602080910402602001604051908101604052809291908181526020018280546001816001161561010002031660029004801561192b5780601f106119005761010080835404028352916020019161192b565b820191906000526020600020905b81548152906001019060200180831161190e57829003601f168201915b50505050508152602001600682018054600181600116156101000203166002900480601f0160208091040260200160405190810160405280929190818152602001828054600181600116156101000203166002900480156119cd5780601f106119a2576101008083540402835291602001916119cd565b820191906000526020600020905b8154815290600101906020018083116119b057829003601f168201915b50505050508152602001600782018054600181600116156101000203166002900480601f016020809104026020016040519081016040528092919081815260200182805460018160011615610100020316600290048015611a6f5780601f10611a4457610100808354040283529160200191611a6f565b820191906000526020600020905b815481529060010190602001808311611a5257829003601f168201915b505050505081525050915060806040519081016040528084815260200183815260200186815260200185815250905080600660008a73ffffffffffffffffffffffffffffffffffffffff1673ffffffffffffffffffffffffffffffffffffffff1681526020019081526020016000206000820151816000016000820151816000019080519060200190611b03929190613265565b50505060208201518160010160008201518160000160006101000a81548173ffffffffffffffffffffffffffffffffffffffff021916908373ffffffffffffffffffffffffffffffffffffffff16021790555060208201518160010160008201518160000160006101000a81548173ffffffffffffffffffffffffffffffffffffffff021916908373ffffffffffffffffffffffffffffffffffffffff1602179055506020820151816001019080519060200190611bc2929190613265565b506040820151816002019080519060200190611bdf929190613265565b506060820151816003019080519060200190611bfc929190613265565b5050506040820151816005019080519060200190611c1b929190613265565b506060820151816006019080519060200190611c38929190613265565b506080820151816007019080519060200190611c55929190613265565b50505060408201518160090155606082015181600a019080519060200190611c7e929190613265565b509050508573ffffffffffffffffffffffffffffffffffffffff168773ffffffffffffffffffffffffffffffffffffffff167f98f6997fdd719a2c2a0d71661735475a9d4fa5ef11b5285e7d7c1499be391c5e8a604051611cdf9190613a65565b60405180910390a35050505050505050565b6000611cfb6131fe565b6002846040518082805190602001908083835b602083101515611d335780518252602082019150602081019050602083039250611d0e565b6001836020036101000a038019825116818451168082178552505050505050905001915050908152602001604051809103902061010060405190810160405290816000820160009054906101000a900473ffffffffffffffffffffffffffffffffffffffff1673ffffffffffffffffffffffffffffffffffffffff1673ffffffffffffffffffffffffffffffffffffffff168152602001600182018054600181600116156101000203166002900480601f016020809104026020016040519081016040528092919081815260200182805460018160011615610100020316600290048015611e625780601f10611e3757610100808354040283529160200191611e62565b820191906000526020600020905b815481529060010190602001808311611e4557829003601f168201915b50505050508152602001600282018054600181600116156101000203166002900480601f016020809104026020016040519081016040528092919081815260200182805460018160011615610100020316600290048015611f045780601f10611ed957610100808354040283529160200191611f04565b820191906000526020600020905b815481529060010190602001808311611ee757829003601f168201915b50505050508152602001600382018054600181600116156101000203166002900480601f016020809104026020016040519081016040528092919081815260200182805460018160011615610100020316600290048015611fa65780601f10611f7b57610100808354040283529160200191611fa6565b820191906000526020600020905b815481529060010190602001808311611f8957829003601f168201915b505050505081526020016004820154815260200160058201548152602001600682015481526020016007820160009054906101000a900460ff166003811115611feb57fe5b6003811115611ff657fe5b815250509050604051806000019050604051809103902060001916836040518082805190602001908083835b6020831015156120475780518252602082019150602081019050602083039250612022565b6001836020036101000a0380198251168184511680821785525050505050509050019150506040518091039020600019161415151561208557600080fd5b604051806000019050604051809103902060001916846040518082805190602001908083835b6020831015156120d057805182526020820191506020810190506020830392506120ab565b6001836020036101000a0380198251168184511680821785525050505050509050019150506040518091039020600019161415151561210e57600080fd5b6002600381111561211b57fe5b8160e00151600381111561212b57fe5b14151561213757600080fd5b6040518060000190506040518091039020600019166002856040518082805190602001908083835b602083101515612184578051825260208201915060208101905060208303925061215f565b6001836020036101000a038019825116818451168082178552505050505050905001915050908152602001604051809103902060080160003373ffffffffffffffffffffffffffffffffffffffff1673ffffffffffffffffffffffffffffffffffffffff16815260200190815260200160002060000160405180828054600181600116156101000203166002900480156122555780601f10612233576101008083540402835291820191612255565b820191906000526020600020905b815481529060010190602001808311612241575b505091505060405180910390206000191614151561227257600080fd5b602060405190810160405280848152506002856040518082805190602001908083835b6020831015156122ba5780518252602082019150602081019050602083039250612295565b6001836020036101000a038019825116818451168082178552505050505050905001915050908152602001604051809103902060080160003373ffffffffffffffffffffffffffffffffffffffff1673ffffffffffffffffffffffffffffffffffffffff1681526020019081526020016000206000820151816000019080519060200190612349929190613265565b50905050600160009054906101000a900473ffffffffffffffffffffffffffffffffffffffff1673ffffffffffffffffffffffffffffffffffffffff1663a9059cbb3383608001516040518363ffffffff167c01000000000000000000000000000000000000000000000000000000000281526004016123ca929190613ae0565b602060405180830381600087803b1580156123e457600080fd5b505af11580156123f8573d6000803e3d6000fd5b505050506040513d601f19601f8201168201806040525061241c9190810190613748565b151561242757600080fd5b6002846040518082805190602001908083835b60208310151561245f578051825260208201915060208101905060208303925061243a565b6001836020036101000a0380198251168184511680821785525050505050509050019150509081526020016040518091039020600401546002856040518082805190602001908083835b6020831015156124ce57805182526020820191506020810190506020830392506124a9565b6001836020036101000a0380198251168184511680821785525050505050509050019150509081526020016040518091039020600501600082825403925050819055503373ffffffffffffffffffffffffffffffffffffffff167f34c6e4292ec4c54b9ebd046067b22da7c48f22dba9723a4b79b837e3a191a5d68585846040015185608001516040516125659493929190613b8b565b60405180910390a280608001516002856040518082805190602001908083835b6020831015156125aa5780518252602082019150602081019050602083039250612585565b6001836020036101000a03801982511681845116808217855250505050505090500191505090815260200160405180910390206005015410156126ee5760036002856040518082805190602001908083835b60208310151561262157805182526020820191506020810190506020830392506125fc565b6001836020036101000a038019825116818451168082178552505050505050905001915050908152602001604051809103902060070160006101000a81548160ff0219169083600381111561267257fe5b0217905550806000015173ffffffffffffffffffffffffffffffffffffffff167f8d19faf08adf4f904aba4b47ace07c0c7c74712a6d39e931bff4dcbc25b5419582602001518360400151846060015185608001518660c001516040516126dd959493929190613c4d565b60405180910390a2600091506126f3565b600191505b5092915050565b60006040518060000190506040518091039020600019166002846040518082805190602001908083835b6020831015156127495780518252602082019150602081019050602083039250612724565b6001836020036101000a038019825116818451168082178552505050505050905001915050908152602001604051809103902060080160008473ffffffffffffffffffffffffffffffffffffffff1673ffffffffffffffffffffffffffffffffffffffff168152602001908152602001600020600001604051808280546001816001161561010002031660029004801561281a5780601f106127f857610100808354040283529182019161281a565b820191906000526020600020905b815481529060010190602001808311612806575b50509150506040518091039020600019161415905092915050565b6000809054906101000a900473ffffffffffffffffffffffffffffffffffffffff1673ffffffffffffffffffffffffffffffffffffffff163373ffffffffffffffffffffffffffffffffffffffff1614151561289057600080fd5b600073ffffffffffffffffffffffffffffffffffffffff168173ffffffffffffffffffffffffffffffffffffffff16141515156128cc57600080fd5b8073ffffffffffffffffffffffffffffffffffffffff166000809054906101000a900473ffffffffffffffffffffffffffffffffffffffff1673ffffffffffffffffffffffffffffffffffffffff167f8be0079c531659141344cd1fd0a4f28419497f9722a3daafe3b4186f6b6457e060405160405180910390a3806000806101000a81548173ffffffffffffffffffffffffffffffffffffffff021916908373ffffffffffffffffffffffffffffffffffffffff16021790555050565b6129926131fe565b60006002846040518082805190602001908083835b6020831015156129cc57805182526020820191506020810190506020830392506129a7565b6001836020036101000a038019825116818451168082178552505050505050905001915050908152602001604051809103902061010060405190810160405290816000820160009054906101000a900473ffffffffffffffffffffffffffffffffffffffff1673ffffffffffffffffffffffffffffffffffffffff1673ffffffffffffffffffffffffffffffffffffffff168152602001600182018054600181600116156101000203166002900480601f016020809104026020016040519081016040528092919081815260200182805460018160011615610100020316600290048015612afb5780601f10612ad057610100808354040283529160200191612afb565b820191906000526020600020905b815481529060010190602001808311612ade57829003601f168201915b50505050508152602001600282018054600181600116156101000203166002900480601f016020809104026020016040519081016040528092919081815260200182805460018160011615610100020316600290048015612b9d5780601f10612b7257610100808354040283529160200191612b9d565b820191906000526020600020905b815481529060010190602001808311612b8057829003601f168201915b50505050508152602001600382018054600181600116156101000203166002900480601f016020809104026020016040519081016040528092919081815260200182805460018160011615610100020316600290048015612c3f5780601f10612c1457610100808354040283529160200191612c3f565b820191906000526020600020905b815481529060010190602001808311612c2257829003601f168201915b505050505081526020016004820154815260200160058201548152602001600682015481526020016007820160009054906101000a900460ff166003811115612c8457fe5b6003811115612c8f57fe5b815250509150816000015173ffffffffffffffffffffffffffffffffffffffff163373ffffffffffffffffffffffffffffffffffffffff16141515612cd357600080fd5b600160009054906101000a900473ffffffffffffffffffffffffffffffffffffffff1673ffffffffffffffffffffffffffffffffffffffff1663dd62ed3e33306040518363ffffffff167c0100000000000000000000000000000000000000000000000000000000028152600401612d4c929190613a80565b602060405180830381600087803b158015612d6657600080fd5b505af1158015612d7a573d6000803e3d6000fd5b505050506040513d601f19601f82011682018060405250612d9e9190810190613985565b9050828110151515612daf57600080fd5b600160009054906101000a900473ffffffffffffffffffffffffffffffffffffffff1673ffffffffffffffffffffffffffffffffffffffff166323b872dd3330866040518463ffffffff167c0100000000000000000000000000000000000000000000000000000000028152600401612e2a93929190613aa9565b602060405180830381600087803b158015612e4457600080fd5b505af1158015612e58573d6000803e3d6000fd5b505050506040513d601f19601f82011682018060405250612e7c9190810190613748565b1515612e8757600080fd5b826002856040518082805190602001908083835b602083101515612ec05780518252602082019150602081019050602083039250612e9b565b6001836020036101000a03801982511681845116808217855250505050505090500191505090815260200160405180910390206005016000828254019250508190555060006003811115612f1057fe5b8260e001516003811115612f2057fe5b1415612fb75760016002856040518082805190602001908083835b602083101515612f605780518252602082019150602081019050602083039250612f3b565b6001836020036101000a038019825116818451168082178552505050505050905001915050908152602001604051809103902060070160006101000a81548160ff02191690836003811115612fb157fe5b02179055505b3373ffffffffffffffffffffffffffffffffffffffff167f7d703b99136412be3113d8613d984b3314e5afef7799b73dbc59f0dc66ae2b7f83602001518460400151856060015186608001518760c00151604051613019959493929190613c4d565b60405180910390a250505050565b61302f6132e5565b6000809054906101000a900473ffffffffffffffffffffffffffffffffffffffff1673ffffffffffffffffffffffffffffffffffffffff163373ffffffffffffffffffffffffffffffffffffffff1614151561308a57600080fd5b6080604051908101604052803373ffffffffffffffffffffffffffffffffffffffff16815260200185815260200184815260200183815250905080600360008773ffffffffffffffffffffffffffffffffffffffff1673ffffffffffffffffffffffffffffffffffffffff16815260200190815260200160002060008201518160000160006101000a81548173ffffffffffffffffffffffffffffffffffffffff021916908373ffffffffffffffffffffffffffffffffffffffff1602179055506020820151816001019080519060200190613167929190613265565b506040820151816002019080519060200190613184929190613265565b5060608201518160030190805190602001906131a1929190613265565b509050508473ffffffffffffffffffffffffffffffffffffffff167f93344bf09616cc759180686da113c69c7179b2ffe0492c8714a97a99a2f912748585856040516131ef93929190613b3f565b60405180910390a25050505050565b61010060405190810160405280600073ffffffffffffffffffffffffffffffffffffffff1681526020016060815260200160608152602001606081526020016000815260200160008152602001600081526020016000600381111561325f57fe5b81525090565b828054600181600116156101000203166002900490600052602060002090601f016020900481019282601f106132a657805160ff19168380011785556132d4565b828001600101855582156132d4579182015b828111156132d35782518255916020019190600101906132b8565b5b5090506132e191906133bb565b5090565b608060405190810160405280600073ffffffffffffffffffffffffffffffffffffffff1681526020016060815260200160608152602001606081525090565b61010060405190810160405280600073ffffffffffffffffffffffffffffffffffffffff1681526020016133566133e0565b81526020016060815260200160608152602001606081525090565b602060405190810160405280606081525090565b6101606040519081016040528061339a61341f565b81526020016133a7613433565b815260200160008152602001606081525090565b6133dd91905b808211156133d95760008160009055506001016133c1565b5090565b90565b608060405190810160405280600073ffffffffffffffffffffffffffffffffffffffff1681526020016060815260200160608152602001606081525090565b602060405190810160405280606081525090565b61010060405190810160405280600073ffffffffffffffffffffffffffffffffffffffff1681526020016134656133e0565b81526020016060815260200160608152602001606081525090565b600061348c8235613d8b565b905092915050565b60006134a08251613dab565b905092915050565b600082601f83011215156134bb57600080fd5b81356134ce6134c982613cfd565b613cd0565b915080825260208301602083018583830111156134ea57600080fd5b6134f5838284613de5565b50505092915050565b600061350a8235613db7565b905092915050565b600061351e8251613db7565b905092915050565b60006020828403121561353857600080fd5b600061354684828501613480565b91505092915050565b600080600080600060a0868803121561356757600080fd5b600061357588828901613480565b955050602061358688828901613480565b945050604061359788828901613480565b93505060606135a8888289016134fe565b925050608086013567ffffffffffffffff8111156135c557600080fd5b6135d1888289016134a8565b9150509295509295909350565b600080600080600060a086880312156135f657600080fd5b600061360488828901613480565b955050602061361588828901613480565b945050604086013567ffffffffffffffff81111561363257600080fd5b61363e888289016134a8565b935050606086013567ffffffffffffffff81111561365b57600080fd5b613667888289016134a8565b925050608086013567ffffffffffffffff81111561368457600080fd5b613690888289016134a8565b9150509295509295909350565b600080600080608085870312156136b357600080fd5b60006136c187828801613480565b945050602085013567ffffffffffffffff8111156136de57600080fd5b6136ea878288016134a8565b935050604085013567ffffffffffffffff81111561370757600080fd5b613713878288016134a8565b925050606085013567ffffffffffffffff81111561373057600080fd5b61373c878288016134a8565b91505092959194509250565b60006020828403121561375a57600080fd5b600061376884828501613494565b91505092915050565b60006020828403121561378357600080fd5b600082013567ffffffffffffffff81111561379d57600080fd5b6137a9848285016134a8565b91505092915050565b600080604083850312156137c557600080fd5b600083013567ffffffffffffffff8111156137df57600080fd5b6137eb858286016134a8565b92505060206137fc85828601613480565b9150509250929050565b6000806040838503121561381957600080fd5b600083013567ffffffffffffffff81111561383357600080fd5b61383f858286016134a8565b925050602083013567ffffffffffffffff81111561385c57600080fd5b613868858286016134a8565b9150509250929050565b600080600080600060a0868803121561388a57600080fd5b600086013567ffffffffffffffff8111156138a457600080fd5b6138b0888289016134a8565b955050602086013567ffffffffffffffff8111156138cd57600080fd5b6138d9888289016134a8565b945050604086013567ffffffffffffffff8111156138f657600080fd5b613902888289016134a8565b9350506060613913888289016134fe565b9250506080613924888289016134fe565b9150509295509295909350565b6000806040838503121561394457600080fd5b600083013567ffffffffffffffff81111561395e57600080fd5b61396a858286016134a8565b925050602061397b858286016134fe565b9150509250929050565b60006020828403121561399757600080fd5b60006139a584828501613512565b91505092915050565b6139b781613d3f565b82525050565b6139c681613d5f565b82525050565b6139d581613dc1565b82525050565b6139e481613dd3565b82525050565b60006139f582613d34565b808452613a09816020860160208601613df4565b613a1281613e27565b602085010191505092915050565b6000613a2b82613d29565b808452613a3f816020860160208601613df4565b613a4881613e27565b602085010191505092915050565b613a5f81613d81565b82525050565b6000602082019050613a7a60008301846139ae565b92915050565b6000604082019050613a9560008301856139ae565b613aa260208301846139cc565b9392505050565b6000606082019050613abe60008301866139ae565b613acb60208301856139cc565b613ad86040830184613a56565b949350505050565b6000604082019050613af560008301856139ae565b613b026020830184613a56565b9392505050565b6000602082019050613b1e60008301846139bd565b92915050565b6000602082019050613b3960008301846139db565b92915050565b60006060820190508181036000830152613b5981866139ea565b90508181036020830152613b6d81856139ea565b90508181036040830152613b8181846139ea565b9050949350505050565b60006080820190508181036000830152613ba581876139ea565b90508181036020830152613bb981866139ea565b90508181036040830152613bcd8185613a20565b9050613bdc6060830184613a56565b95945050505050565b600060a0820190508181036000830152613bff8188613a20565b90508181036020830152613c1381876139ea565b90508181036040830152613c2781866139ea565b9050613c366060830185613a56565b613c436080830184613a56565b9695505050505050565b600060a0820190508181036000830152613c678188613a20565b90508181036020830152613c7b8187613a20565b90508181036040830152613c8f8186613a20565b9050613c9e6060830185613a56565b613cab6080830184613a56565b9695505050505050565b6000602082019050613cca6000830184613a56565b92915050565b6000604051905081810181811067ffffffffffffffff82111715613cf357600080fd5b8060405250919050565b600067ffffffffffffffff821115613d1457600080fd5b601f19601f8301169050602081019050919050565b600081519050919050565b600081519050919050565b600073ffffffffffffffffffffffffffffffffffffffff82169050919050565b60008115159050919050565b6000600482101515613d7957fe5b819050919050565b6000819050919050565b600073ffffffffffffffffffffffffffffffffffffffff82169050919050565b60008115159050919050565b6000819050919050565b6000613dcc82613d3f565b9050919050565b6000613dde82613d6b565b9050919050565b82818337600083830152505050565b60005b83811015613e12578082015181840152602081019050613df7565b83811115613e21576000848401525b50505050565b6000601f19601f83011690509190505600a265627a7a7230582082010153e69402a65902f124ca801507fa6868fe6fa250888ed7986832b5e9586c6578706572696d656e74616cf50037",
  "source": "pragma solidity ^0.4.24;\npragma experimental ABIEncoderV2;\n\nimport \"./REWToken.sol\";\nimport \"zeppelin-solidity/contracts/ownership/Ownable.sol\";\n\ncontract ReviewNetwork is Ownable {\n    REWToken token;\n\n    enum SurveyStatus { IDLE, FUNDED, IN_PROGRESS, COMPLETED }\n\n    struct Answer {\n        string answersJsonHash;\n    }\n\n    struct Survey {\n        address creator;\n        string publicKey;\n        string title;\n        string surveyJsonHash;\n        uint rewardPerSurvey;\n        uint funds;\n        uint maxAnswers;\n        SurveyStatus status;\n        mapping (address => Answer) answers;\n    }\n\n    // surveyJsonHash => survey\n    mapping (string => Survey) surveys;\n\n    struct Brand {\n        address addedBy;\n        string name;\n        string logo;\n        string metaJsonHash;\n    }\n\n    mapping (address => Brand) brands;\n    \n    struct Product {\n        address addedBy;\n        Brand brand;\n        string name;\n        string image;\n        string metaJsonHash;\n    }\n\n    mapping (address => Product) products;\n\n    struct User {\n        string username;\n    }\n\n    mapping (address => User) users;\n\n    struct Review {\n        User author;\n        Product product;\n        uint score;\n        string metaJsonHash;\n    }\n\n    mapping (address => Review) reviews;\n\n    event LogSurveyAdded(\n        address indexed creator,\n        string publicKey,\n        string title,\n        string surveyJsonHash,\n        uint rewardPerSurvey,\n        uint maxAnswers\n    );\n    \n    event LogSurveyFunded(\n        address indexed creator,\n        string publicKey,\n        string title,\n        string surveyJsonHash,\n        uint rewardPerSurvey,\n        uint maxAnswers\n    );\n    \n    event LogSurveyStarted(\n        address indexed creator,\n        string publicKey,\n        string title,\n        string surveyJsonHash,\n        uint rewardPerSurvey,\n        uint maxAnswers\n    );\n\n    event LogSurveyCompleted(\n        address indexed creator,\n        string publicKey,\n        string title,\n        string surveyJsonHash,\n        uint rewardPerSurvey,\n        uint maxAnswers\n    );\n\n    event LogSurveyAnswered(\n        address indexed user,\n        string surveyJsonHash,\n        string answersJsonHash,\n        string title,\n        uint rewardPerSurvey\n    );\n\n    event LogBrandAdded(\n        address indexed brandAddress,\n        string name,\n        string logo,\n        string metaHashJson\n    );\n\n    event LogProductAdded(\n        address indexed productAddress,\n        address indexed brandAddress,\n        string name,\n        string image,\n        string metaHashJson\n    );\n\n    event LogReviewAdded(\n        address reviewAddress,\n        address indexed authorAddress,\n        address indexed productAddress\n    );\n\n    constructor (address REWTokenAddress) public {\n        token = REWToken(REWTokenAddress);\n    }\n\n    function createSurvey(string publicKey, string title, string surveyJsonHash, uint rewardPerSurvey, uint maxAnswers) public {\n        Survey memory s = Survey(\n            msg.sender,\n            publicKey,\n            title,\n            surveyJsonHash,\n            rewardPerSurvey,\n            0,\n            maxAnswers,\n            SurveyStatus.IDLE\n        );\n\n        surveys[surveyJsonHash] = s;\n\n        emit LogSurveyAdded(\n            msg.sender,\n            s.publicKey,\n            title,\n            surveyJsonHash,\n            rewardPerSurvey,\n            maxAnswers\n        );\n    }\n\n    function fundSurvey(string surveyJsonHash, uint amount) public {\n        Survey memory survey = surveys[surveyJsonHash];\n\n        require(msg.sender == survey.creator);\n\n        uint allowance = token.allowance(msg.sender, this);\n        require(allowance >= amount);\n\n        require(token.transferFrom(msg.sender, this, amount));\n        surveys[surveyJsonHash].funds += amount;\n        \n        if(survey.status == SurveyStatus.IDLE) {\n            surveys[surveyJsonHash].status = SurveyStatus.FUNDED;\n        }\n\n        emit LogSurveyFunded(\n            msg.sender,\n            survey.publicKey,\n            survey.title,\n            survey.surveyJsonHash,\n            survey.rewardPerSurvey,\n            survey.maxAnswers\n        );\n    }\n\n    function startSurvey(string surveyJsonHash) public {\n        Survey memory survey = surveys[surveyJsonHash];\n        require(msg.sender == survey.creator);\n        require(survey.status == SurveyStatus.FUNDED);\n\n        surveys[surveyJsonHash].status = SurveyStatus.IN_PROGRESS;\n\n        emit LogSurveyStarted(\n            msg.sender,\n            survey.publicKey,\n            survey.title,\n            survey.surveyJsonHash,\n            survey.rewardPerSurvey,\n            survey.maxAnswers\n        );\n    }\n\n    function completeSurvey(string surveyJsonHash) public {\n        Survey memory survey = surveys[surveyJsonHash];\n        require(msg.sender == survey.creator);\n        require(survey.status == SurveyStatus.IN_PROGRESS);\n\n        surveys[surveyJsonHash].status = SurveyStatus.COMPLETED;\n\n        emit LogSurveyCompleted(\n            msg.sender,\n            survey.publicKey,\n            survey.title,\n            survey.surveyJsonHash,\n            survey.rewardPerSurvey,\n            survey.maxAnswers\n        );\n    }\n\n    function getFunds(string surveyJsonHash) public view returns (uint) {\n        return surveys[surveyJsonHash].funds;\n    }\n\n    function getSurveyStatus(string surveyJsonHash) public view returns (SurveyStatus) {\n        return surveys[surveyJsonHash].status;\n    }\n\n    function answerSurvey(string surveyJsonHash, string answersJsonHash) public returns (bool) {\n        Survey memory survey = surveys[surveyJsonHash];\n        require(keccak256(bytes(answersJsonHash)) != keccak256(\"\"));\n        require(keccak256(bytes(surveyJsonHash)) != keccak256(\"\"));\n        require(survey.status == SurveyStatus.IN_PROGRESS);\n        require(keccak256(surveys[surveyJsonHash].answers[msg.sender].answersJsonHash) == keccak256(\"\"));\n\n\n        surveys[surveyJsonHash].answers[msg.sender] = Answer(answersJsonHash);\n        require(token.transfer(msg.sender, survey.rewardPerSurvey));\n        surveys[surveyJsonHash].funds -= surveys[surveyJsonHash].rewardPerSurvey;\n        emit LogSurveyAnswered(msg.sender, surveyJsonHash, answersJsonHash, survey.title, survey.rewardPerSurvey);\n\n        if (surveys[surveyJsonHash].funds < survey.rewardPerSurvey) {\n            surveys[surveyJsonHash].status = SurveyStatus.COMPLETED;\n            emit LogSurveyCompleted(\n                survey.creator,\n                survey.publicKey,\n                survey.title,\n                survey.surveyJsonHash,\n                survey.rewardPerSurvey,\n                survey.maxAnswers\n            );\n\n            return false;\n        }\n        return true;\n    }\n\n    function isSurveyAnsweredBy(string surveyJsonHash, address user) public view returns (bool) {\n        return keccak256(bytes(surveys[surveyJsonHash].answers[user].answersJsonHash)) != keccak256(\"\");\n    }\n\n    function createBrand (\n        address brandAddress,\n        string name,\n        string logo,\n        string metaJsonHash\n    ) public onlyOwner {\n        Brand memory brand = Brand({\n            addedBy: msg.sender,\n            name: name,\n            logo: logo,\n            metaJsonHash: metaJsonHash\n        });\n\n        brands[brandAddress] = brand;\n\n        emit LogBrandAdded(brandAddress, name, logo, metaJsonHash);\n    }\n\n    function createProduct (\n        address productAddress,\n        address brandAddress,\n        string name,\n        string image,\n        string metaJsonHash\n    ) public onlyOwner {\n        Brand memory brand = brands[brandAddress];\n\n        Product memory product = Product({\n            addedBy: msg.sender,\n            brand: brand,\n            name: name,\n            image: image,\n            metaJsonHash: metaJsonHash\n        });\n\n        products[brandAddress] = product;\n\n        emit LogProductAdded(productAddress, brandAddress, name, image, metaJsonHash);\n    }\n\n    function createReview (\n        address reviewAddress,\n        address authorAddress,\n        address productAddress,\n        uint score,\n        string metaJsonHash\n    ) public {\n        require(score >= 1 && score <= 4);\n\n        User memory author = users[authorAddress];\n        Product memory product = products[productAddress];\n\n        Review memory review = Review({\n            author: author,\n            product: product,\n            score: score,\n            metaJsonHash: metaJsonHash\n        });\n\n        reviews[reviewAddress] = review;\n\n        emit LogReviewAdded(reviewAddress, authorAddress, productAddress);\n    }\n}\n",
  "sourcePath": "/Users/alan/projects/RN/rn-solidity/contracts/ReviewNetwork.sol",
  "compiler": {
    "name": "solc",
    "version": "0.4.24+commit.e67f0147.Emscripten.clang"
  },
  "schemaVersion": "2.0.1",
  "updatedAt": "2018-08-20T16:27:45.541Z"
}