{
  "contractName": "ReviewNetwork",
  "abi": [
    {
      "constant": true,
      "inputs": [],
      "name": "owner",
      "outputs": [
        {
          "name": "",
          "type": "address"
        }
      ],
      "payable": false,
      "stateMutability": "view",
      "type": "function"
    },
    {
      "constant": false,
      "inputs": [
        {
          "name": "newOwner",
          "type": "address"
        }
      ],
      "name": "transferOwnership",
      "outputs": [],
      "payable": false,
      "stateMutability": "nonpayable",
      "type": "function"
    },
    {
      "inputs": [
        {
          "name": "REWTokenAddress",
          "type": "address"
        }
      ],
      "payable": false,
      "stateMutability": "nonpayable",
      "type": "constructor"
    },
    {
      "anonymous": false,
      "inputs": [
        {
          "indexed": true,
          "name": "creator",
          "type": "address"
        },
        {
          "indexed": false,
          "name": "publicKey",
          "type": "string"
        },
        {
          "indexed": false,
          "name": "title",
          "type": "string"
        },
        {
          "indexed": false,
          "name": "surveyJsonHash",
          "type": "string"
        },
        {
          "indexed": false,
          "name": "rewardPerSurvey",
          "type": "uint256"
        }
      ],
      "name": "LogSurveyAdded",
      "type": "event"
    },
    {
      "anonymous": false,
      "inputs": [
        {
          "indexed": true,
          "name": "creator",
          "type": "address"
        },
        {
          "indexed": false,
          "name": "publicKey",
          "type": "string"
        },
        {
          "indexed": false,
          "name": "title",
          "type": "string"
        },
        {
          "indexed": false,
          "name": "surveyJsonHash",
          "type": "string"
        },
        {
          "indexed": false,
          "name": "rewardPerSurvey",
          "type": "uint256"
        }
      ],
      "name": "LogSurveyFunded",
      "type": "event"
    },
    {
      "anonymous": false,
      "inputs": [
        {
          "indexed": true,
          "name": "creator",
          "type": "address"
        },
        {
          "indexed": false,
          "name": "publicKey",
          "type": "string"
        },
        {
          "indexed": false,
          "name": "title",
          "type": "string"
        },
        {
          "indexed": false,
          "name": "surveyJsonHash",
          "type": "string"
        },
        {
          "indexed": false,
          "name": "rewardPerSurvey",
          "type": "uint256"
        }
      ],
      "name": "LogSurveyStarted",
      "type": "event"
    },
    {
      "anonymous": false,
      "inputs": [
        {
          "indexed": true,
          "name": "creator",
          "type": "address"
        },
        {
          "indexed": false,
          "name": "publicKey",
          "type": "string"
        },
        {
          "indexed": false,
          "name": "title",
          "type": "string"
        },
        {
          "indexed": false,
          "name": "surveyJsonHash",
          "type": "string"
        },
        {
          "indexed": false,
          "name": "rewardPerSurvey",
          "type": "uint256"
        }
      ],
      "name": "LogSurveyCompleted",
      "type": "event"
    },
    {
      "anonymous": false,
      "inputs": [
        {
          "indexed": true,
          "name": "user",
          "type": "address"
        },
        {
          "indexed": false,
          "name": "surveyJsonHash",
          "type": "string"
        },
        {
          "indexed": false,
          "name": "title",
          "type": "string"
        },
        {
          "indexed": false,
          "name": "rewardPerSurvey",
          "type": "uint256"
        }
      ],
      "name": "LogSurveyAnswered",
      "type": "event"
    },
    {
      "anonymous": false,
      "inputs": [
        {
          "indexed": true,
          "name": "brandAddress",
          "type": "address"
        },
        {
          "indexed": false,
          "name": "name",
          "type": "string"
        },
        {
          "indexed": false,
          "name": "logo",
          "type": "string"
        },
        {
          "indexed": false,
          "name": "metaHashJson",
          "type": "string"
        }
      ],
      "name": "LogBrandAdded",
      "type": "event"
    },
    {
      "anonymous": false,
      "inputs": [
        {
          "indexed": true,
          "name": "productAddress",
          "type": "address"
        },
        {
          "indexed": true,
          "name": "brandAddress",
          "type": "address"
        },
        {
          "indexed": false,
          "name": "name",
          "type": "string"
        },
        {
          "indexed": false,
          "name": "image",
          "type": "string"
        },
        {
          "indexed": false,
          "name": "metaHashJson",
          "type": "string"
        }
      ],
      "name": "LogProductAdded",
      "type": "event"
    },
    {
      "anonymous": false,
      "inputs": [
        {
          "indexed": false,
          "name": "reviewAddress",
          "type": "address"
        },
        {
          "indexed": true,
          "name": "authorAddress",
          "type": "address"
        },
        {
          "indexed": true,
          "name": "productAddress",
          "type": "address"
        }
      ],
      "name": "LogReviewAdded",
      "type": "event"
    },
    {
      "anonymous": false,
      "inputs": [
        {
          "indexed": true,
          "name": "previousOwner",
          "type": "address"
        },
        {
          "indexed": true,
          "name": "newOwner",
          "type": "address"
        }
      ],
      "name": "OwnershipTransferred",
      "type": "event"
    },
    {
      "constant": false,
      "inputs": [
        {
          "name": "publicKey",
          "type": "string"
        },
        {
          "name": "title",
          "type": "string"
        },
        {
          "name": "surveyJsonHash",
          "type": "string"
        },
        {
          "name": "rewardPerSurvey",
          "type": "uint256"
        }
      ],
      "name": "createSurvey",
      "outputs": [],
      "payable": false,
      "stateMutability": "nonpayable",
      "type": "function"
    },
    {
      "constant": false,
      "inputs": [
        {
          "name": "surveyJsonHash",
          "type": "string"
        },
        {
          "name": "amount",
          "type": "uint256"
        }
      ],
      "name": "fundSurvey",
      "outputs": [],
      "payable": false,
      "stateMutability": "nonpayable",
      "type": "function"
    },
    {
      "constant": false,
      "inputs": [
        {
          "name": "surveyJsonHash",
          "type": "string"
        }
      ],
      "name": "startSurvey",
      "outputs": [],
      "payable": false,
      "stateMutability": "nonpayable",
      "type": "function"
    },
    {
      "constant": false,
      "inputs": [
        {
          "name": "surveyJsonHash",
          "type": "string"
        }
      ],
      "name": "completeSurvey",
      "outputs": [],
      "payable": false,
      "stateMutability": "nonpayable",
      "type": "function"
    },
    {
      "constant": true,
      "inputs": [
        {
          "name": "surveyJsonHash",
          "type": "string"
        }
      ],
      "name": "getFunds",
      "outputs": [
        {
          "name": "",
          "type": "uint256"
        }
      ],
      "payable": false,
      "stateMutability": "view",
      "type": "function"
    },
    {
      "constant": true,
      "inputs": [
        {
          "name": "surveyJsonHash",
          "type": "string"
        }
      ],
      "name": "getSurveyStatus",
      "outputs": [
        {
          "name": "",
          "type": "uint8"
        }
      ],
      "payable": false,
      "stateMutability": "view",
      "type": "function"
    },
    {
      "constant": false,
      "inputs": [
        {
          "name": "surveyJsonHash",
          "type": "string"
        },
        {
          "name": "answersJsonHash",
          "type": "string"
        }
      ],
      "name": "answerSurvey",
      "outputs": [
        {
          "components": [
            {
              "name": "answersJsonHash",
              "type": "string"
            }
          ],
          "name": "",
          "type": "tuple"
        }
      ],
      "payable": false,
      "stateMutability": "nonpayable",
      "type": "function"
    },
    {
      "constant": true,
      "inputs": [
        {
          "name": "surveyJsonHash",
          "type": "string"
        },
        {
          "name": "user",
          "type": "address"
        }
      ],
      "name": "isSurveyAnsweredBy",
      "outputs": [
        {
          "name": "",
          "type": "bool"
        }
      ],
      "payable": false,
      "stateMutability": "view",
      "type": "function"
    },
    {
      "constant": false,
      "inputs": [
        {
          "name": "brandAddress",
          "type": "address"
        },
        {
          "name": "name",
          "type": "string"
        },
        {
          "name": "logo",
          "type": "string"
        },
        {
          "name": "metaJsonHash",
          "type": "string"
        }
      ],
      "name": "createBrand",
      "outputs": [],
      "payable": false,
      "stateMutability": "nonpayable",
      "type": "function"
    },
    {
      "constant": false,
      "inputs": [
        {
          "name": "productAddress",
          "type": "address"
        },
        {
          "name": "brandAddress",
          "type": "address"
        },
        {
          "name": "name",
          "type": "string"
        },
        {
          "name": "image",
          "type": "string"
        },
        {
          "name": "metaJsonHash",
          "type": "string"
        }
      ],
      "name": "createProduct",
      "outputs": [],
      "payable": false,
      "stateMutability": "nonpayable",
      "type": "function"
    },
    {
      "constant": false,
      "inputs": [
        {
          "name": "reviewAddress",
          "type": "address"
        },
        {
          "name": "authorAddress",
          "type": "address"
        },
        {
          "name": "productAddress",
          "type": "address"
        },
        {
          "name": "score",
          "type": "uint256"
        },
        {
          "name": "metaJsonHash",
          "type": "string"
        }
      ],
      "name": "createReview",
      "outputs": [],
      "payable": false,
      "stateMutability": "nonpayable",
      "type": "function"
    }
  ],
  "bytecode": "0x60806040523480156200001157600080fd5b5060405160208062003c968339810180604052620000339190810190620000d1565b336000806101000a81548173ffffffffffffffffffffffffffffffffffffffff021916908373ffffffffffffffffffffffffffffffffffffffff16021790555080600160006101000a81548173ffffffffffffffffffffffffffffffffffffffff021916908373ffffffffffffffffffffffffffffffffffffffff160217905550506200011d565b6000620000c98251620000fd565b905092915050565b600060208284031215620000e457600080fd5b6000620000f484828501620000bb565b91505092915050565b600073ffffffffffffffffffffffffffffffffffffffff82169050919050565b613b69806200012d6000396000f3006080604052600436106100c5576000357c0100000000000000000000000000000000000000000000000000000000900463ffffffff16806306ba9624146100ca5780632d0c9b1c146100f35780638da5cb5b14610130578063970090901461015b578063b581e9cf14610184578063b639c6c9146101ad578063c4f2949b146101ea578063c5b4471214610213578063d9e115d314610250578063f2fde38b1461028d578063f420e184146102b6578063f52641de146102df578063fc2fd1ca14610308575b600080fd5b3480156100d657600080fd5b506100f160048036036100ec9190810190613461565b610331565b005b3480156100ff57600080fd5b5061011a60048036036101159190810190613461565b61078e565b60405161012791906139ac565b60405180910390f35b34801561013c57600080fd5b50610145610806565b604051610152919061376b565b60405180910390f35b34801561016757600080fd5b50610182600480360361017d9190810190613461565b61082b565b005b34801561019057600080fd5b506101ab60048036036101a691908101906132ce565b610c87565b005b3480156101b957600080fd5b506101d460048036036101cf9190810190613461565b6111b7565b6040516101e1919061382a565b60405180910390f35b3480156101f657600080fd5b50610211600480360361020c919081019061323f565b61123c565b005b34801561021f57600080fd5b5061023a600480360361023591908101906134f6565b611ab1565b604051610247919061398a565b60405180910390f35b34801561025c57600080fd5b50610277600480360361027291908101906134a2565b612209565b604051610284919061380f565b60405180910390f35b34801561029957600080fd5b506102b460048036036102af9190810190613216565b612344565b005b3480156102c257600080fd5b506102dd60048036036102d8919081019061360d565b612499565b005b3480156102eb57600080fd5b5061030660048036036103019190810190613562565b612b01565b005b34801561031457600080fd5b5061032f600480360361032a919081019061338d565b612d0b565b005b610339612ee2565b6002826040518082805190602001908083835b602083101515610371578051825260208201915060208101905060208303925061034c565b6001836020036101000a038019825116818451168082178552505050505050905001915050908152602001604051809103902060e060405190810160405290816000820160009054906101000a900473ffffffffffffffffffffffffffffffffffffffff1673ffffffffffffffffffffffffffffffffffffffff1673ffffffffffffffffffffffffffffffffffffffff168152602001600182018054600181600116156101000203166002900480601f01602080910402602001604051908101604052809291908181526020018280546001816001161561010002031660029004801561049f5780601f106104745761010080835404028352916020019161049f565b820191906000526020600020905b81548152906001019060200180831161048257829003601f168201915b50505050508152602001600282018054600181600116156101000203166002900480601f0160208091040260200160405190810160405280929190818152602001828054600181600116156101000203166002900480156105415780601f1061051657610100808354040283529160200191610541565b820191906000526020600020905b81548152906001019060200180831161052457829003601f168201915b50505050508152602001600382018054600181600116156101000203166002900480601f0160208091040260200160405190810160405280929190818152602001828054600181600116156101000203166002900480156105e35780601f106105b8576101008083540402835291602001916105e3565b820191906000526020600020905b8154815290600101906020018083116105c657829003601f168201915b5050505050815260200160048201548152602001600582015481526020016006820160009054906101000a900460ff16600381111561061e57fe5b600381111561062957fe5b815250509050806000015173ffffffffffffffffffffffffffffffffffffffff163373ffffffffffffffffffffffffffffffffffffffff1614151561066d57600080fd5b6002600381111561067a57fe5b8160c00151600381111561068a57fe5b14151561069657600080fd5b60036002836040518082805190602001908083835b6020831015156106d057805182526020820191506020810190506020830392506106ab565b6001836020036101000a038019825116818451168082178552505050505050905001915050908152602001604051809103902060060160006101000a81548160ff0219169083600381111561072157fe5b02179055503373ffffffffffffffffffffffffffffffffffffffff167f5e760a5fb8baba2f199649adb35be1f40f9d6bece29c46e7a67e43cd85a5cdef82602001518360400151846060015185608001516040516107829493929190613930565b60405180910390a25050565b60006002826040518082805190602001908083835b6020831015156107c857805182526020820191506020810190506020830392506107a3565b6001836020036101000a0380198251168184511680821785525050505050509050019150509081526020016040518091039020600501549050919050565b6000809054906101000a900473ffffffffffffffffffffffffffffffffffffffff1681565b610833612ee2565b6002826040518082805190602001908083835b60208310151561086b5780518252602082019150602081019050602083039250610846565b6001836020036101000a038019825116818451168082178552505050505050905001915050908152602001604051809103902060e060405190810160405290816000820160009054906101000a900473ffffffffffffffffffffffffffffffffffffffff1673ffffffffffffffffffffffffffffffffffffffff1673ffffffffffffffffffffffffffffffffffffffff168152602001600182018054600181600116156101000203166002900480601f0160208091040260200160405190810160405280929190818152602001828054600181600116156101000203166002900480156109995780601f1061096e57610100808354040283529160200191610999565b820191906000526020600020905b81548152906001019060200180831161097c57829003601f168201915b50505050508152602001600282018054600181600116156101000203166002900480601f016020809104026020016040519081016040528092919081815260200182805460018160011615610100020316600290048015610a3b5780601f10610a1057610100808354040283529160200191610a3b565b820191906000526020600020905b815481529060010190602001808311610a1e57829003601f168201915b50505050508152602001600382018054600181600116156101000203166002900480601f016020809104026020016040519081016040528092919081815260200182805460018160011615610100020316600290048015610add5780601f10610ab257610100808354040283529160200191610add565b820191906000526020600020905b815481529060010190602001808311610ac057829003601f168201915b5050505050815260200160048201548152602001600582015481526020016006820160009054906101000a900460ff166003811115610b1857fe5b6003811115610b2357fe5b815250509050806000015173ffffffffffffffffffffffffffffffffffffffff163373ffffffffffffffffffffffffffffffffffffffff16141515610b6757600080fd5b60016003811115610b7457fe5b8160c001516003811115610b8457fe5b141515610b9057600080fd5b600280836040518082805190602001908083835b602083101515610bc95780518252602082019150602081019050602083039250610ba4565b6001836020036101000a038019825116818451168082178552505050505050905001915050908152602001604051809103902060060160006101000a81548160ff02191690836003811115610c1a57fe5b02179055503373ffffffffffffffffffffffffffffffffffffffff167fe2c2e8720f245d184f0b90c0543f8dda4e210e8c718a70547125628216ed0c5c8260200151836040015184606001518560800151604051610c7b9493929190613930565b60405180910390a25050565b610c8f612f41565b610c97612f80565b6000809054906101000a900473ffffffffffffffffffffffffffffffffffffffff1673ffffffffffffffffffffffffffffffffffffffff163373ffffffffffffffffffffffffffffffffffffffff16141515610cf257600080fd5b600360008773ffffffffffffffffffffffffffffffffffffffff1673ffffffffffffffffffffffffffffffffffffffff168152602001908152602001600020608060405190810160405290816000820160009054906101000a900473ffffffffffffffffffffffffffffffffffffffff1673ffffffffffffffffffffffffffffffffffffffff1673ffffffffffffffffffffffffffffffffffffffff168152602001600182018054600181600116156101000203166002900480601f016020809104026020016040519081016040528092919081815260200182805460018160011615610100020316600290048015610e2c5780601f10610e0157610100808354040283529160200191610e2c565b820191906000526020600020905b815481529060010190602001808311610e0f57829003601f168201915b50505050508152602001600282018054600181600116156101000203166002900480601f016020809104026020016040519081016040528092919081815260200182805460018160011615610100020316600290048015610ece5780601f10610ea357610100808354040283529160200191610ece565b820191906000526020600020905b815481529060010190602001808311610eb157829003601f168201915b50505050508152602001600382018054600181600116156101000203166002900480601f016020809104026020016040519081016040528092919081815260200182805460018160011615610100020316600290048015610f705780601f10610f4557610100808354040283529160200191610f70565b820191906000526020600020905b815481529060010190602001808311610f5357829003601f168201915b505050505081525050915060a0604051908101604052803373ffffffffffffffffffffffffffffffffffffffff16815260200183815260200186815260200185815260200184815250905080600460008873ffffffffffffffffffffffffffffffffffffffff1673ffffffffffffffffffffffffffffffffffffffff16815260200190815260200160002060008201518160000160006101000a81548173ffffffffffffffffffffffffffffffffffffffff021916908373ffffffffffffffffffffffffffffffffffffffff16021790555060208201518160010160008201518160000160006101000a81548173ffffffffffffffffffffffffffffffffffffffff021916908373ffffffffffffffffffffffffffffffffffffffff16021790555060208201518160010190805190602001906110ae929190612fcd565b5060408201518160020190805190602001906110cb929190612fcd565b5060608201518160030190805190602001906110e8929190612fcd565b5050506040820151816005019080519060200190611107929190612fcd565b506060820151816006019080519060200190611124929190612fcd565b506080820151816007019080519060200190611141929190612fcd565b509050508573ffffffffffffffffffffffffffffffffffffffff168773ffffffffffffffffffffffffffffffffffffffff167f9d793cdf8c643309229028c49e7d504e34321cbee1e423583e2685885585458e8787876040516111a693929190613845565b60405180910390a350505050505050565b60006002826040518082805190602001908083835b6020831015156111f157805182526020820191506020810190506020830392506111cc565b6001836020036101000a038019825116818451168082178552505050505050905001915050908152602001604051809103902060060160009054906101000a900460ff169050919050565b61124461304d565b61124c612f80565b611254613061565b60018510158015611266575060048511155b151561127157600080fd5b600560008873ffffffffffffffffffffffffffffffffffffffff1673ffffffffffffffffffffffffffffffffffffffff16815260200190815260200160002060206040519081016040529081600082018054600181600116156101000203166002900480601f0160208091040260200160405190810160405280929190818152602001828054600181600116156101000203166002900480156113555780601f1061132a57610100808354040283529160200191611355565b820191906000526020600020905b81548152906001019060200180831161133857829003601f168201915b5050505050815250509250600460008773ffffffffffffffffffffffffffffffffffffffff1673ffffffffffffffffffffffffffffffffffffffff16815260200190815260200160002060a060405190810160405290816000820160009054906101000a900473ffffffffffffffffffffffffffffffffffffffff1673ffffffffffffffffffffffffffffffffffffffff1673ffffffffffffffffffffffffffffffffffffffff16815260200160018201608060405190810160405290816000820160009054906101000a900473ffffffffffffffffffffffffffffffffffffffff1673ffffffffffffffffffffffffffffffffffffffff1673ffffffffffffffffffffffffffffffffffffffff168152602001600182018054600181600116156101000203166002900480601f0160208091040260200160405190810160405280929190818152602001828054600181600116156101000203166002900480156115015780601f106114d657610100808354040283529160200191611501565b820191906000526020600020905b8154815290600101906020018083116114e457829003601f168201915b50505050508152602001600282018054600181600116156101000203166002900480601f0160208091040260200160405190810160405280929190818152602001828054600181600116156101000203166002900480156115a35780601f10611578576101008083540402835291602001916115a3565b820191906000526020600020905b81548152906001019060200180831161158657829003601f168201915b50505050508152602001600382018054600181600116156101000203166002900480601f0160208091040260200160405190810160405280929190818152602001828054600181600116156101000203166002900480156116455780601f1061161a57610100808354040283529160200191611645565b820191906000526020600020905b81548152906001019060200180831161162857829003601f168201915b5050505050815250508152602001600582018054600181600116156101000203166002900480601f0160208091040260200160405190810160405280929190818152602001828054600181600116156101000203166002900480156116eb5780601f106116c0576101008083540402835291602001916116eb565b820191906000526020600020905b8154815290600101906020018083116116ce57829003601f168201915b50505050508152602001600682018054600181600116156101000203166002900480601f01602080910402602001604051908101604052809291908181526020018280546001816001161561010002031660029004801561178d5780601f106117625761010080835404028352916020019161178d565b820191906000526020600020905b81548152906001019060200180831161177057829003601f168201915b50505050508152602001600782018054600181600116156101000203166002900480601f01602080910402602001604051908101604052809291908181526020018280546001816001161561010002031660029004801561182f5780601f106118045761010080835404028352916020019161182f565b820191906000526020600020905b81548152906001019060200180831161181257829003601f168201915b505050505081525050915060806040519081016040528084815260200183815260200186815260200185815250905080600660008a73ffffffffffffffffffffffffffffffffffffffff1673ffffffffffffffffffffffffffffffffffffffff16815260200190815260200160002060008201518160000160008201518160000190805190602001906118c3929190612fcd565b50505060208201518160010160008201518160000160006101000a81548173ffffffffffffffffffffffffffffffffffffffff021916908373ffffffffffffffffffffffffffffffffffffffff16021790555060208201518160010160008201518160000160006101000a81548173ffffffffffffffffffffffffffffffffffffffff021916908373ffffffffffffffffffffffffffffffffffffffff1602179055506020820151816001019080519060200190611982929190612fcd565b50604082015181600201908051906020019061199f929190612fcd565b5060608201518160030190805190602001906119bc929190612fcd565b50505060408201518160050190805190602001906119db929190612fcd565b5060608201518160060190805190602001906119f8929190612fcd565b506080820151816007019080519060200190611a15929190612fcd565b50505060408201518160090155606082015181600a019080519060200190611a3e929190612fcd565b509050508573ffffffffffffffffffffffffffffffffffffffff168773ffffffffffffffffffffffffffffffffffffffff167f98f6997fdd719a2c2a0d71661735475a9d4fa5ef11b5285e7d7c1499be391c5e8a604051611a9f919061376b565b60405180910390a35050505050505050565b611ab9613097565b611ac1612ee2565b6002846040518082805190602001908083835b602083101515611af95780518252602082019150602081019050602083039250611ad4565b6001836020036101000a038019825116818451168082178552505050505050905001915050908152602001604051809103902060e060405190810160405290816000820160009054906101000a900473ffffffffffffffffffffffffffffffffffffffff1673ffffffffffffffffffffffffffffffffffffffff1673ffffffffffffffffffffffffffffffffffffffff168152602001600182018054600181600116156101000203166002900480601f016020809104026020016040519081016040528092919081815260200182805460018160011615610100020316600290048015611c275780601f10611bfc57610100808354040283529160200191611c27565b820191906000526020600020905b815481529060010190602001808311611c0a57829003601f168201915b50505050508152602001600282018054600181600116156101000203166002900480601f016020809104026020016040519081016040528092919081815260200182805460018160011615610100020316600290048015611cc95780601f10611c9e57610100808354040283529160200191611cc9565b820191906000526020600020905b815481529060010190602001808311611cac57829003601f168201915b50505050508152602001600382018054600181600116156101000203166002900480601f016020809104026020016040519081016040528092919081815260200182805460018160011615610100020316600290048015611d6b5780601f10611d4057610100808354040283529160200191611d6b565b820191906000526020600020905b815481529060010190602001808311611d4e57829003601f168201915b5050505050815260200160048201548152602001600582015481526020016006820160009054906101000a900460ff166003811115611da657fe5b6003811115611db157fe5b815250509050604051806000019050604051809103902060001916836040518082805190602001908083835b602083101515611e025780518252602082019150602081019050602083039250611ddd565b6001836020036101000a03801982511681845116808217855250505050505090500191505060405180910390206000191614151515611e4057600080fd5b604051806000019050604051809103902060001916846040518082805190602001908083835b602083101515611e8b5780518252602082019150602081019050602083039250611e66565b6001836020036101000a03801982511681845116808217855250505050505090500191505060405180910390206000191614151515611ec957600080fd5b60026003811115611ed657fe5b8160c001516003811115611ee657fe5b141515611ef257600080fd5b80608001518160a0015110151515611f0957600080fd5b602060405190810160405280848152506002856040518082805190602001908083835b602083101515611f515780518252602082019150602081019050602083039250611f2c565b6001836020036101000a038019825116818451168082178552505050505050905001915050908152602001604051809103902060070160003373ffffffffffffffffffffffffffffffffffffffff1673ffffffffffffffffffffffffffffffffffffffff1681526020019081526020016000206000820151816000019080519060200190611fe0929190612fcd565b50905050600160009054906101000a900473ffffffffffffffffffffffffffffffffffffffff1673ffffffffffffffffffffffffffffffffffffffff1663a9059cbb3383608001516040518363ffffffff167c01000000000000000000000000000000000000000000000000000000000281526004016120619291906137e6565b602060405180830381600087803b15801561207b57600080fd5b505af115801561208f573d6000803e3d6000fd5b505050506040513d601f19601f820116820180604052506120b39190810190613438565b15156120be57600080fd5b6002846040518082805190602001908083835b6020831015156120f657805182526020820191506020810190506020830392506120d1565b6001836020036101000a0380198251168184511680821785525050505050509050019150509081526020016040518091039020600401546002856040518082805190602001908083835b6020831015156121655780518252602082019150602081019050602083039250612140565b6001836020036101000a0380198251168184511680821785525050505050509050019150509081526020016040518091039020600501600082825403925050819055503373ffffffffffffffffffffffffffffffffffffffff167fdda4b1da7c8e1371eb900990b7fb365b279edfe8ac22ed70885d8cd518cc7d4185836040015184608001516040516121fa93929190613891565b60405180910390a25092915050565b60006040518060000190506040518091039020600019166002846040518082805190602001908083835b6020831015156122585780518252602082019150602081019050602083039250612233565b6001836020036101000a038019825116818451168082178552505050505050905001915050908152602001604051809103902060070160008473ffffffffffffffffffffffffffffffffffffffff1673ffffffffffffffffffffffffffffffffffffffff16815260200190815260200160002060000160405180828054600181600116156101000203166002900480156123295780601f10612307576101008083540402835291820191612329565b820191906000526020600020905b815481529060010190602001808311612315575b50509150506040518091039020600019161415905092915050565b6000809054906101000a900473ffffffffffffffffffffffffffffffffffffffff1673ffffffffffffffffffffffffffffffffffffffff163373ffffffffffffffffffffffffffffffffffffffff1614151561239f57600080fd5b600073ffffffffffffffffffffffffffffffffffffffff168173ffffffffffffffffffffffffffffffffffffffff16141515156123db57600080fd5b8073ffffffffffffffffffffffffffffffffffffffff166000809054906101000a900473ffffffffffffffffffffffffffffffffffffffff1673ffffffffffffffffffffffffffffffffffffffff167f8be0079c531659141344cd1fd0a4f28419497f9722a3daafe3b4186f6b6457e060405160405180910390a3806000806101000a81548173ffffffffffffffffffffffffffffffffffffffff021916908373ffffffffffffffffffffffffffffffffffffffff16021790555050565b6124a1612ee2565b60006002846040518082805190602001908083835b6020831015156124db57805182526020820191506020810190506020830392506124b6565b6001836020036101000a038019825116818451168082178552505050505050905001915050908152602001604051809103902060e060405190810160405290816000820160009054906101000a900473ffffffffffffffffffffffffffffffffffffffff1673ffffffffffffffffffffffffffffffffffffffff1673ffffffffffffffffffffffffffffffffffffffff168152602001600182018054600181600116156101000203166002900480601f0160208091040260200160405190810160405280929190818152602001828054600181600116156101000203166002900480156126095780601f106125de57610100808354040283529160200191612609565b820191906000526020600020905b8154815290600101906020018083116125ec57829003601f168201915b50505050508152602001600282018054600181600116156101000203166002900480601f0160208091040260200160405190810160405280929190818152602001828054600181600116156101000203166002900480156126ab5780601f10612680576101008083540402835291602001916126ab565b820191906000526020600020905b81548152906001019060200180831161268e57829003601f168201915b50505050508152602001600382018054600181600116156101000203166002900480601f01602080910402602001604051908101604052809291908181526020018280546001816001161561010002031660029004801561274d5780601f106127225761010080835404028352916020019161274d565b820191906000526020600020905b81548152906001019060200180831161273057829003601f168201915b5050505050815260200160048201548152602001600582015481526020016006820160009054906101000a900460ff16600381111561278857fe5b600381111561279357fe5b815250509150816000015173ffffffffffffffffffffffffffffffffffffffff163373ffffffffffffffffffffffffffffffffffffffff161415156127d757600080fd5b600160009054906101000a900473ffffffffffffffffffffffffffffffffffffffff1673ffffffffffffffffffffffffffffffffffffffff1663dd62ed3e33306040518363ffffffff167c0100000000000000000000000000000000000000000000000000000000028152600401612850929190613786565b602060405180830381600087803b15801561286a57600080fd5b505af115801561287e573d6000803e3d6000fd5b505050506040513d601f19601f820116820180604052506128a29190810190613661565b90508281101515156128b357600080fd5b600160009054906101000a900473ffffffffffffffffffffffffffffffffffffffff1673ffffffffffffffffffffffffffffffffffffffff166323b872dd3330866040518463ffffffff167c010000000000000000000000000000000000000000000000000000000002815260040161292e939291906137af565b602060405180830381600087803b15801561294857600080fd5b505af115801561295c573d6000803e3d6000fd5b505050506040513d601f19601f820116820180604052506129809190810190613438565b151561298b57600080fd5b826002856040518082805190602001908083835b6020831015156129c4578051825260208201915060208101905060208303925061299f565b6001836020036101000a03801982511681845116808217855250505050505090500191505090815260200160405180910390206005016000828254019250508190555060016002856040518082805190602001908083835b602083101515612a415780518252602082019150602081019050602083039250612a1c565b6001836020036101000a038019825116818451168082178552505050505050905001915050908152602001604051809103902060060160006101000a81548160ff02191690836003811115612a9257fe5b02179055503373ffffffffffffffffffffffffffffffffffffffff167fed447a85cb5983297d36035d405b6ca83cf5c1cea355f4668a54fb506505b7758360200151846040015185606001518660800151604051612af39493929190613930565b60405180910390a250505050565b612b09612ee2565b60e0604051908101604052803373ffffffffffffffffffffffffffffffffffffffff1681526020018681526020018581526020018481526020018381526020016000815260200160006003811115612b5d57fe5b8152509050806002846040518082805190602001908083835b602083101515612b9b5780518252602082019150602081019050602083039250612b76565b6001836020036101000a038019825116818451168082178552505050505050905001915050908152602001604051809103902060008201518160000160006101000a81548173ffffffffffffffffffffffffffffffffffffffff021916908373ffffffffffffffffffffffffffffffffffffffff1602179055506020820151816001019080519060200190612c31929190612fcd565b506040820151816002019080519060200190612c4e929190612fcd565b506060820151816003019080519060200190612c6b929190612fcd565b506080820151816004015560a0820151816005015560c08201518160060160006101000a81548160ff02191690836003811115612ca457fe5b02179055509050503373ffffffffffffffffffffffffffffffffffffffff167fab210e98fc1f300718b08d571af14d095b902150ffd9c189126f028dd0ce0d818260200151868686604051612cfc94939291906138d6565b60405180910390a25050505050565b612d13612f41565b6000809054906101000a900473ffffffffffffffffffffffffffffffffffffffff1673ffffffffffffffffffffffffffffffffffffffff163373ffffffffffffffffffffffffffffffffffffffff16141515612d6e57600080fd5b6080604051908101604052803373ffffffffffffffffffffffffffffffffffffffff16815260200185815260200184815260200183815250905080600360008773ffffffffffffffffffffffffffffffffffffffff1673ffffffffffffffffffffffffffffffffffffffff16815260200190815260200160002060008201518160000160006101000a81548173ffffffffffffffffffffffffffffffffffffffff021916908373ffffffffffffffffffffffffffffffffffffffff1602179055506020820151816001019080519060200190612e4b929190612fcd565b506040820151816002019080519060200190612e68929190612fcd565b506060820151816003019080519060200190612e85929190612fcd565b509050508473ffffffffffffffffffffffffffffffffffffffff167f93344bf09616cc759180686da113c69c7179b2ffe0492c8714a97a99a2f91274858585604051612ed393929190613845565b60405180910390a25050505050565b60e060405190810160405280600073ffffffffffffffffffffffffffffffffffffffff168152602001606081526020016060815260200160608152602001600081526020016000815260200160006003811115612f3b57fe5b81525090565b608060405190810160405280600073ffffffffffffffffffffffffffffffffffffffff1681526020016060815260200160608152602001606081525090565b61010060405190810160405280600073ffffffffffffffffffffffffffffffffffffffff168152602001612fb26130ab565b81526020016060815260200160608152602001606081525090565b828054600181600116156101000203166002900490600052602060002090601f016020900481019282601f1061300e57805160ff191683800117855561303c565b8280016001018555821561303c579182015b8281111561303b578251825591602001919060010190613020565b5b50905061304991906130ea565b5090565b602060405190810160405280606081525090565b6101606040519081016040528061307661310f565b8152602001613083613123565b815260200160008152602001606081525090565b602060405190810160405280606081525090565b608060405190810160405280600073ffffffffffffffffffffffffffffffffffffffff1681526020016060815260200160608152602001606081525090565b61310c91905b808211156131085760008160009055506001016130f0565b5090565b90565b602060405190810160405280606081525090565b61010060405190810160405280600073ffffffffffffffffffffffffffffffffffffffff1681526020016131556130ab565b81526020016060815260200160608152602001606081525090565b600061317c8235613a82565b905092915050565b60006131908251613aa2565b905092915050565b600082601f83011215156131ab57600080fd5b81356131be6131b9826139f4565b6139c7565b915080825260208301602083018583830111156131da57600080fd5b6131e5838284613adc565b50505092915050565b60006131fa8235613aae565b905092915050565b600061320e8251613aae565b905092915050565b60006020828403121561322857600080fd5b600061323684828501613170565b91505092915050565b600080600080600060a0868803121561325757600080fd5b600061326588828901613170565b955050602061327688828901613170565b945050604061328788828901613170565b9350506060613298888289016131ee565b925050608086013567ffffffffffffffff8111156132b557600080fd5b6132c188828901613198565b9150509295509295909350565b600080600080600060a086880312156132e657600080fd5b60006132f488828901613170565b955050602061330588828901613170565b945050604086013567ffffffffffffffff81111561332257600080fd5b61332e88828901613198565b935050606086013567ffffffffffffffff81111561334b57600080fd5b61335788828901613198565b925050608086013567ffffffffffffffff81111561337457600080fd5b61338088828901613198565b9150509295509295909350565b600080600080608085870312156133a357600080fd5b60006133b187828801613170565b945050602085013567ffffffffffffffff8111156133ce57600080fd5b6133da87828801613198565b935050604085013567ffffffffffffffff8111156133f757600080fd5b61340387828801613198565b925050606085013567ffffffffffffffff81111561342057600080fd5b61342c87828801613198565b91505092959194509250565b60006020828403121561344a57600080fd5b600061345884828501613184565b91505092915050565b60006020828403121561347357600080fd5b600082013567ffffffffffffffff81111561348d57600080fd5b61349984828501613198565b91505092915050565b600080604083850312156134b557600080fd5b600083013567ffffffffffffffff8111156134cf57600080fd5b6134db85828601613198565b92505060206134ec85828601613170565b9150509250929050565b6000806040838503121561350957600080fd5b600083013567ffffffffffffffff81111561352357600080fd5b61352f85828601613198565b925050602083013567ffffffffffffffff81111561354c57600080fd5b61355885828601613198565b9150509250929050565b6000806000806080858703121561357857600080fd5b600085013567ffffffffffffffff81111561359257600080fd5b61359e87828801613198565b945050602085013567ffffffffffffffff8111156135bb57600080fd5b6135c787828801613198565b935050604085013567ffffffffffffffff8111156135e457600080fd5b6135f087828801613198565b9250506060613601878288016131ee565b91505092959194509250565b6000806040838503121561362057600080fd5b600083013567ffffffffffffffff81111561363a57600080fd5b61364685828601613198565b9250506020613657858286016131ee565b9150509250929050565b60006020828403121561367357600080fd5b600061368184828501613202565b91505092915050565b61369381613a36565b82525050565b6136a281613a56565b82525050565b6136b181613ab8565b82525050565b6136c081613aca565b82525050565b60006136d182613a2b565b8084526136e5816020860160208601613aeb565b6136ee81613b1e565b602085010191505092915050565b600061370782613a20565b80845261371b816020860160208601613aeb565b61372481613b1e565b602085010191505092915050565b6000602083016000830151848203600086015261374f82826136fc565b9150508091505092915050565b61376581613a78565b82525050565b6000602082019050613780600083018461368a565b92915050565b600060408201905061379b600083018561368a565b6137a860208301846136a8565b9392505050565b60006060820190506137c4600083018661368a565b6137d160208301856136a8565b6137de604083018461375c565b949350505050565b60006040820190506137fb600083018561368a565b613808602083018461375c565b9392505050565b60006020820190506138246000830184613699565b92915050565b600060208201905061383f60008301846136b7565b92915050565b6000606082019050818103600083015261385f81866136c6565b9050818103602083015261387381856136c6565b9050818103604083015261388781846136c6565b9050949350505050565b600060608201905081810360008301526138ab81866136c6565b905081810360208301526138bf81856136fc565b90506138ce604083018461375c565b949350505050565b600060808201905081810360008301526138f081876136fc565b9050818103602083015261390481866136c6565b9050818103604083015261391881856136c6565b9050613927606083018461375c565b95945050505050565b6000608082019050818103600083015261394a81876136fc565b9050818103602083015261395e81866136fc565b9050818103604083015261397281856136fc565b9050613981606083018461375c565b95945050505050565b600060208201905081810360008301526139a48184613732565b905092915050565b60006020820190506139c1600083018461375c565b92915050565b6000604051905081810181811067ffffffffffffffff821117156139ea57600080fd5b8060405250919050565b600067ffffffffffffffff821115613a0b57600080fd5b601f19601f8301169050602081019050919050565b600081519050919050565b600081519050919050565b600073ffffffffffffffffffffffffffffffffffffffff82169050919050565b60008115159050919050565b6000600482101515613a7057fe5b819050919050565b6000819050919050565b600073ffffffffffffffffffffffffffffffffffffffff82169050919050565b60008115159050919050565b6000819050919050565b6000613ac382613a36565b9050919050565b6000613ad582613a62565b9050919050565b82818337600083830152505050565b60005b83811015613b09578082015181840152602081019050613aee565b83811115613b18576000848401525b50505050565b6000601f19601f83011690509190505600a265627a7a7230582043eb95e128972df0953206000f6a5658bb2757d726438c718af54e7dad526eba6c6578706572696d656e74616cf50037",
  "source": "pragma solidity ^0.4.24;\npragma experimental ABIEncoderV2;\n\nimport \"./REWToken.sol\";\nimport \"zeppelin-solidity/contracts/ownership/Ownable.sol\";\n\ncontract ReviewNetwork is Ownable {\n    REWToken token;\n\n    enum SurveyStatus { IDLE, FUNDED, IN_PROGRESS, COMPLETED }\n\n    struct Answer {\n        string answersJsonHash;\n    }\n\n    struct Survey {\n        address creator;\n        string publicKey;\n        string title;\n        string surveyJsonHash;\n        uint rewardPerSurvey;\n        uint funds;\n        SurveyStatus status;\n        mapping (address => Answer) answers;\n    }\n\n    // surveyJsonHash => survey\n    mapping (string => Survey) surveys;\n\n    struct Brand {\n        address addedBy;\n        string name;\n        string logo;\n        string metaJsonHash;\n    }\n\n    mapping (address => Brand) brands;\n    \n    struct Product {\n        address addedBy;\n        Brand brand;\n        string name;\n        string image;\n        string metaJsonHash;\n    }\n\n    mapping (address => Product) products;\n\n    struct User {\n        string username;\n    }\n\n    mapping (address => User) users;\n\n    struct Review {\n        User author;\n        Product product;\n        uint score;\n        string metaJsonHash;\n    }\n\n    mapping (address => Review) reviews;\n\n    event LogSurveyAdded(\n        address indexed creator,\n        string publicKey,\n        string title,\n        string surveyJsonHash,\n        uint rewardPerSurvey\n    );\n    \n    event LogSurveyFunded(\n        address indexed creator,\n        string publicKey,\n        string title,\n        string surveyJsonHash,\n        uint rewardPerSurvey\n    );\n    \n    event LogSurveyStarted(\n        address indexed creator,\n        string publicKey,\n        string title,\n        string surveyJsonHash,\n        uint rewardPerSurvey\n    );\n\n    event LogSurveyCompleted(\n        address indexed creator,\n        string publicKey,\n        string title,\n        string surveyJsonHash,\n        uint rewardPerSurvey\n    );\n\n    event LogSurveyAnswered(\n        address indexed user,\n        string surveyJsonHash,\n        string title,\n        uint rewardPerSurvey\n    );\n\n    event LogBrandAdded(\n        address indexed brandAddress,\n        string name,\n        string logo,\n        string metaHashJson\n    );\n\n    event LogProductAdded(\n        address indexed productAddress,\n        address indexed brandAddress,\n        string name,\n        string image,\n        string metaHashJson\n    );\n\n    event LogReviewAdded(\n        address reviewAddress,\n        address indexed authorAddress,\n        address indexed productAddress\n    );\n\n    constructor (address REWTokenAddress) public {\n        token = REWToken(REWTokenAddress);\n    }\n\n    function createSurvey(string publicKey, string title, string surveyJsonHash, uint rewardPerSurvey) public {\n        Survey memory s = Survey(\n            msg.sender,\n            publicKey,\n            title,\n            surveyJsonHash,\n            rewardPerSurvey,\n            0,\n            SurveyStatus.IDLE\n        );\n\n        surveys[surveyJsonHash] = s;\n\n        emit LogSurveyAdded(\n            msg.sender,\n            s.publicKey,\n            title,\n            surveyJsonHash,\n            rewardPerSurvey\n        );\n    }\n\n    function fundSurvey(string surveyJsonHash, uint amount) public {\n        Survey memory survey = surveys[surveyJsonHash];\n\n        require(msg.sender == survey.creator);\n\n        uint allowance = token.allowance(msg.sender, this);\n        require(allowance >= amount);\n\n        require(token.transferFrom(msg.sender, this, amount));\n        surveys[surveyJsonHash].funds += amount;\n        surveys[surveyJsonHash].status = SurveyStatus.FUNDED;\n\n        emit LogSurveyFunded(\n            msg.sender,\n            survey.publicKey,\n            survey.title,\n            survey.surveyJsonHash,\n            survey.rewardPerSurvey\n        );\n    }\n\n    function startSurvey(string surveyJsonHash) public {\n        Survey memory survey = surveys[surveyJsonHash];\n        require(msg.sender == survey.creator);\n        require(survey.status == SurveyStatus.FUNDED);\n\n        surveys[surveyJsonHash].status = SurveyStatus.IN_PROGRESS;\n\n        emit LogSurveyStarted(\n            msg.sender,\n            survey.publicKey,\n            survey.title,\n            survey.surveyJsonHash,\n            survey.rewardPerSurvey\n        );\n    }\n\n    function completeSurvey(string surveyJsonHash) public {\n        Survey memory survey = surveys[surveyJsonHash];\n        require(msg.sender == survey.creator);\n        require(survey.status == SurveyStatus.IN_PROGRESS);\n\n        surveys[surveyJsonHash].status = SurveyStatus.COMPLETED;\n\n        emit LogSurveyCompleted(\n            msg.sender,\n            survey.publicKey,\n            survey.title,\n            survey.surveyJsonHash,\n            survey.rewardPerSurvey\n        );\n    }\n\n    function getFunds(string surveyJsonHash) public view returns (uint) {\n        return surveys[surveyJsonHash].funds;\n    }\n\n    function getSurveyStatus(string surveyJsonHash) public view returns (SurveyStatus) {\n        return surveys[surveyJsonHash].status;\n    }\n\n    function answerSurvey(string surveyJsonHash, string answersJsonHash) public returns(Answer) {\n        Survey memory survey = surveys[surveyJsonHash];\n        require(keccak256(bytes(answersJsonHash)) != keccak256(\"\"));\n        require(keccak256(bytes(surveyJsonHash)) != keccak256(\"\"));\n        require(survey.status == SurveyStatus.IN_PROGRESS);\n        // require(keccak256(surveys[surveyJsonHash].answers[msg.sender].answersJsonHash) == keccak256(\"\"));\n        require(survey.funds >= survey.rewardPerSurvey);\n        surveys[surveyJsonHash].answers[msg.sender] = Answer(answersJsonHash);\n        require(token.transfer(msg.sender, survey.rewardPerSurvey));\n        surveys[surveyJsonHash].funds -= surveys[surveyJsonHash].rewardPerSurvey;\n        emit LogSurveyAnswered(msg.sender, surveyJsonHash, survey.title, survey.rewardPerSurvey);\n    }\n\n    function isSurveyAnsweredBy(string surveyJsonHash, address user) public view returns (bool) {\n        return keccak256(bytes(surveys[surveyJsonHash].answers[user].answersJsonHash)) != keccak256(\"\");\n    }\n\n    function createBrand (\n        address brandAddress,\n        string name,\n        string logo,\n        string metaJsonHash\n    ) public onlyOwner {\n        Brand memory brand = Brand({\n            addedBy: msg.sender,\n            name: name,\n            logo: logo,\n            metaJsonHash: metaJsonHash\n        });\n\n        brands[brandAddress] = brand;\n\n        emit LogBrandAdded(brandAddress, name, logo, metaJsonHash);\n    }\n\n    function createProduct (\n        address productAddress,\n        address brandAddress,\n        string name,\n        string image,\n        string metaJsonHash\n    ) public onlyOwner {\n        Brand memory brand = brands[brandAddress];\n\n        Product memory product = Product({\n            addedBy: msg.sender,\n            brand: brand,\n            name: name,\n            image: image,\n            metaJsonHash: metaJsonHash\n        });\n\n        products[brandAddress] = product;\n\n        emit LogProductAdded(productAddress, brandAddress, name, image, metaJsonHash);\n    }\n\n    function createReview (\n        address reviewAddress,\n        address authorAddress,\n        address productAddress,\n        uint score,\n        string metaJsonHash\n    ) public {\n        require(score >= 1 && score <= 4);\n\n        User memory author = users[authorAddress];\n        Product memory product = products[productAddress];\n\n        Review memory review = Review({\n            author: author,\n            product: product,\n            score: score,\n            metaJsonHash: metaJsonHash\n        });\n\n        reviews[reviewAddress] = review;\n\n        emit LogReviewAdded(reviewAddress, authorAddress, productAddress);\n    }\n}\n",
  "sourcePath": "/Users/petars/projects/review-network/rn-prototype-solidity/contracts/ReviewNetwork.sol",
  "compiler": {
    "name": "solc",
    "version": "0.4.24+commit.e67f0147.Emscripten.clang"
  },
  "schemaVersion": "2.0.1",
  "updatedAt": "2018-08-03T19:09:37.419Z"
}