{
  "contractName": "ReviewNetwork",
  "abi": [
    {
      "constant": true,
      "inputs": [],
      "name": "owner",
      "outputs": [
        {
          "name": "",
          "type": "address"
        }
      ],
      "payable": false,
      "stateMutability": "view",
      "type": "function"
    },
    {
      "constant": false,
      "inputs": [
        {
          "name": "newOwner",
          "type": "address"
        }
      ],
      "name": "transferOwnership",
      "outputs": [],
      "payable": false,
      "stateMutability": "nonpayable",
      "type": "function"
    },
    {
      "inputs": [
        {
          "name": "REWTokenAddress",
          "type": "address"
        }
      ],
      "payable": false,
      "stateMutability": "nonpayable",
      "type": "constructor"
    },
    {
      "anonymous": false,
      "inputs": [
        {
          "indexed": true,
          "name": "creator",
          "type": "address"
        },
        {
          "indexed": false,
          "name": "publicKey",
          "type": "string"
        },
        {
          "indexed": false,
          "name": "title",
          "type": "string"
        },
        {
          "indexed": false,
          "name": "surveyJsonHash",
          "type": "string"
        },
        {
          "indexed": false,
          "name": "rewardPerSurvey",
          "type": "uint256"
        },
        {
          "indexed": false,
          "name": "maxAnswers",
          "type": "uint256"
        }
      ],
      "name": "LogSurveyAdded",
      "type": "event"
    },
    {
      "anonymous": false,
      "inputs": [
        {
          "indexed": true,
          "name": "creator",
          "type": "address"
        },
        {
          "indexed": false,
          "name": "publicKey",
          "type": "string"
        },
        {
          "indexed": false,
          "name": "title",
          "type": "string"
        },
        {
          "indexed": false,
          "name": "surveyJsonHash",
          "type": "string"
        },
        {
          "indexed": false,
          "name": "rewardPerSurvey",
          "type": "uint256"
        },
        {
          "indexed": false,
          "name": "maxAnswers",
          "type": "uint256"
        }
      ],
      "name": "LogSurveyFunded",
      "type": "event"
    },
    {
      "anonymous": false,
      "inputs": [
        {
          "indexed": true,
          "name": "creator",
          "type": "address"
        },
        {
          "indexed": false,
          "name": "publicKey",
          "type": "string"
        },
        {
          "indexed": false,
          "name": "title",
          "type": "string"
        },
        {
          "indexed": false,
          "name": "surveyJsonHash",
          "type": "string"
        },
        {
          "indexed": false,
          "name": "rewardPerSurvey",
          "type": "uint256"
        },
        {
          "indexed": false,
          "name": "maxAnswers",
          "type": "uint256"
        }
      ],
      "name": "LogSurveyStarted",
      "type": "event"
    },
    {
      "anonymous": false,
      "inputs": [
        {
          "indexed": true,
          "name": "creator",
          "type": "address"
        },
        {
          "indexed": false,
          "name": "publicKey",
          "type": "string"
        },
        {
          "indexed": false,
          "name": "title",
          "type": "string"
        },
        {
          "indexed": false,
          "name": "surveyJsonHash",
          "type": "string"
        },
        {
          "indexed": false,
          "name": "rewardPerSurvey",
          "type": "uint256"
        },
        {
          "indexed": false,
          "name": "maxAnswers",
          "type": "uint256"
        }
      ],
      "name": "LogSurveyCompleted",
      "type": "event"
    },
    {
      "anonymous": false,
      "inputs": [
        {
          "indexed": true,
          "name": "user",
          "type": "address"
        },
        {
          "indexed": false,
          "name": "surveyJsonHash",
          "type": "string"
        },
        {
          "indexed": false,
          "name": "answersJsonHash",
          "type": "string"
        },
        {
          "indexed": false,
          "name": "title",
          "type": "string"
        },
        {
          "indexed": false,
          "name": "rewardPerSurvey",
          "type": "uint256"
        }
      ],
      "name": "LogSurveyAnswered",
      "type": "event"
    },
    {
      "anonymous": false,
      "inputs": [
        {
          "indexed": false,
          "name": "productAddress",
          "type": "address"
        },
        {
          "indexed": true,
          "name": "categoryId",
          "type": "uint256"
        },
        {
          "indexed": true,
          "name": "subcategoryId",
          "type": "uint256"
        },
        {
          "indexed": false,
          "name": "name",
          "type": "string"
        },
        {
          "indexed": false,
          "name": "image",
          "type": "string"
        },
        {
          "indexed": false,
          "name": "description",
          "type": "string"
        },
        {
          "indexed": false,
          "name": "metaHashJson",
          "type": "string"
        }
      ],
      "name": "LogProductAdded",
      "type": "event"
    },
    {
      "anonymous": false,
      "inputs": [
        {
          "indexed": false,
          "name": "reviewAddress",
          "type": "address"
        },
        {
          "indexed": true,
          "name": "authorAddress",
          "type": "address"
        },
        {
          "indexed": true,
          "name": "productAddress",
          "type": "address"
        },
        {
          "indexed": false,
          "name": "metaJsonHash",
          "type": "string"
        }
      ],
      "name": "LogReviewAdded",
      "type": "event"
    },
    {
      "anonymous": false,
      "inputs": [
        {
          "indexed": false,
          "name": "validatorAddress",
          "type": "address"
        }
      ],
      "name": "LogValidatorAdded",
      "type": "event"
    },
    {
      "anonymous": false,
      "inputs": [
        {
          "indexed": true,
          "name": "reviewAddress",
          "type": "address"
        },
        {
          "indexed": true,
          "name": "validatorAddress",
          "type": "address"
        }
      ],
      "name": "LogValidatorChosen",
      "type": "event"
    },
    {
      "anonymous": false,
      "inputs": [
        {
          "indexed": true,
          "name": "productAddress",
          "type": "address"
        },
        {
          "indexed": true,
          "name": "reviewAddress",
          "type": "address"
        }
      ],
      "name": "LogReviewApproved",
      "type": "event"
    },
    {
      "anonymous": false,
      "inputs": [
        {
          "indexed": true,
          "name": "productAddress",
          "type": "address"
        },
        {
          "indexed": true,
          "name": "reviewAddress",
          "type": "address"
        }
      ],
      "name": "LogReviewRejected",
      "type": "event"
    },
    {
      "anonymous": false,
      "inputs": [
        {
          "indexed": true,
          "name": "previousOwner",
          "type": "address"
        },
        {
          "indexed": true,
          "name": "newOwner",
          "type": "address"
        }
      ],
      "name": "OwnershipTransferred",
      "type": "event"
    },
    {
      "constant": false,
      "inputs": [
        {
          "name": "publicKey",
          "type": "string"
        },
        {
          "name": "title",
          "type": "string"
        },
        {
          "name": "surveyJsonHash",
          "type": "string"
        },
        {
          "name": "rewardPerSurvey",
          "type": "uint256"
        },
        {
          "name": "maxAnswers",
          "type": "uint256"
        }
      ],
      "name": "createSurvey",
      "outputs": [],
      "payable": false,
      "stateMutability": "nonpayable",
      "type": "function"
    },
    {
      "constant": false,
      "inputs": [
        {
          "name": "surveyJsonHash",
          "type": "string"
        },
        {
          "name": "amount",
          "type": "uint256"
        }
      ],
      "name": "fundSurvey",
      "outputs": [],
      "payable": false,
      "stateMutability": "nonpayable",
      "type": "function"
    },
    {
      "constant": false,
      "inputs": [
        {
          "name": "surveyJsonHash",
          "type": "string"
        }
      ],
      "name": "startSurvey",
      "outputs": [],
      "payable": false,
      "stateMutability": "nonpayable",
      "type": "function"
    },
    {
      "constant": false,
      "inputs": [
        {
          "name": "surveyJsonHash",
          "type": "string"
        }
      ],
      "name": "completeSurvey",
      "outputs": [],
      "payable": false,
      "stateMutability": "nonpayable",
      "type": "function"
    },
    {
      "constant": true,
      "inputs": [
        {
          "name": "surveyJsonHash",
          "type": "string"
        }
      ],
      "name": "getFunds",
      "outputs": [
        {
          "name": "",
          "type": "uint256"
        }
      ],
      "payable": false,
      "stateMutability": "view",
      "type": "function"
    },
    {
      "constant": true,
      "inputs": [
        {
          "name": "surveyJsonHash",
          "type": "string"
        }
      ],
      "name": "getSurveyStatus",
      "outputs": [
        {
          "name": "",
          "type": "uint8"
        }
      ],
      "payable": false,
      "stateMutability": "view",
      "type": "function"
    },
    {
      "constant": false,
      "inputs": [
        {
          "name": "surveyJsonHash",
          "type": "string"
        },
        {
          "name": "answersJsonHash",
          "type": "string"
        }
      ],
      "name": "answerSurvey",
      "outputs": [
        {
          "name": "",
          "type": "bool"
        }
      ],
      "payable": false,
      "stateMutability": "nonpayable",
      "type": "function"
    },
    {
      "constant": true,
      "inputs": [
        {
          "name": "surveyJsonHash",
          "type": "string"
        },
        {
          "name": "user",
          "type": "address"
        }
      ],
      "name": "isSurveyAnsweredBy",
      "outputs": [
        {
          "name": "",
          "type": "bool"
        }
      ],
      "payable": false,
      "stateMutability": "view",
      "type": "function"
    },
    {
      "constant": false,
      "inputs": [
        {
          "name": "productAddress",
          "type": "address"
        },
        {
          "name": "categoryId",
          "type": "uint256"
        },
        {
          "name": "subcategoryId",
          "type": "uint256"
        },
        {
          "name": "name",
          "type": "string"
        },
        {
          "name": "image",
          "type": "string"
        },
        {
          "name": "description",
          "type": "string"
        },
        {
          "name": "metaJsonHash",
          "type": "string"
        }
      ],
      "name": "createProduct",
      "outputs": [],
      "payable": false,
      "stateMutability": "nonpayable",
      "type": "function"
    },
    {
      "constant": false,
      "inputs": [
        {
          "name": "username",
          "type": "string"
        }
      ],
      "name": "registerUser",
      "outputs": [],
      "payable": false,
      "stateMutability": "nonpayable",
      "type": "function"
    },
    {
      "constant": true,
      "inputs": [
        {
          "name": "user",
          "type": "address"
        }
      ],
      "name": "getUsername",
      "outputs": [
        {
          "name": "",
          "type": "string"
        }
      ],
      "payable": false,
      "stateMutability": "view",
      "type": "function"
    },
    {
      "constant": true,
      "inputs": [
        {
          "name": "userAddress",
          "type": "address"
        }
      ],
      "name": "userExists",
      "outputs": [
        {
          "name": "",
          "type": "bool"
        }
      ],
      "payable": false,
      "stateMutability": "view",
      "type": "function"
    },
    {
      "constant": false,
      "inputs": [
        {
          "name": "reviewAddress",
          "type": "address"
        },
        {
          "name": "productAddress",
          "type": "address"
        },
        {
          "name": "score",
          "type": "uint256"
        },
        {
          "name": "metaJsonHash",
          "type": "string"
        }
      ],
      "name": "createReview",
      "outputs": [],
      "payable": false,
      "stateMutability": "nonpayable",
      "type": "function"
    },
    {
      "constant": false,
      "inputs": [
        {
          "name": "reviewAddress",
          "type": "address"
        },
        {
          "name": "vote",
          "type": "int256"
        }
      ],
      "name": "voteReview",
      "outputs": [],
      "payable": false,
      "stateMutability": "nonpayable",
      "type": "function"
    },
    {
      "constant": true,
      "inputs": [
        {
          "name": "reviewAddress",
          "type": "address"
        }
      ],
      "name": "getReviewVotes",
      "outputs": [
        {
          "name": "upvotes",
          "type": "uint256"
        },
        {
          "name": "downvotes",
          "type": "uint256"
        }
      ],
      "payable": false,
      "stateMutability": "view",
      "type": "function"
    },
    {
      "constant": true,
      "inputs": [
        {
          "name": "reviewAddress",
          "type": "address"
        }
      ],
      "name": "getReviewStatus",
      "outputs": [
        {
          "name": "",
          "type": "uint8"
        }
      ],
      "payable": false,
      "stateMutability": "view",
      "type": "function"
    },
    {
      "constant": true,
      "inputs": [
        {
          "name": "reviewAddress",
          "type": "address"
        },
        {
          "name": "validator",
          "type": "address"
        }
      ],
      "name": "isValidatorChosenForReview",
      "outputs": [
        {
          "name": "",
          "type": "bool"
        }
      ],
      "payable": false,
      "stateMutability": "view",
      "type": "function"
    },
    {
      "constant": false,
      "inputs": [
        {
          "name": "reviewAddress",
          "type": "address"
        },
        {
          "name": "vote",
          "type": "int256"
        }
      ],
      "name": "validatorVote",
      "outputs": [],
      "payable": false,
      "stateMutability": "nonpayable",
      "type": "function"
    },
    {
      "constant": false,
      "inputs": [
        {
          "name": "validatorAddress",
          "type": "address"
        }
      ],
      "name": "addValidator",
      "outputs": [],
      "payable": false,
      "stateMutability": "nonpayable",
      "type": "function"
    },
    {
      "constant": true,
      "inputs": [
        {
          "name": "author",
          "type": "address"
        }
      ],
      "name": "choseValidators",
      "outputs": [
        {
          "name": "",
          "type": "address[]"
        }
      ],
      "payable": false,
      "stateMutability": "view",
      "type": "function"
    }
  ],
  "bytecode": "0x60806040523480156200001157600080fd5b5060405160208062005b9a8339810180604052620000339190810190620000d1565b336000806101000a81548173ffffffffffffffffffffffffffffffffffffffff021916908373ffffffffffffffffffffffffffffffffffffffff16021790555080600160006101000a81548173ffffffffffffffffffffffffffffffffffffffff021916908373ffffffffffffffffffffffffffffffffffffffff160217905550506200011d565b6000620000c98251620000fd565b905092915050565b600060208284031215620000e457600080fd5b6000620000f484828501620000bb565b91505092915050565b600073ffffffffffffffffffffffffffffffffffffffff82169050919050565b615a6d806200012d6000396000f300608060405260043610610128576000357c0100000000000000000000000000000000000000000000000000000000900463ffffffff16806306ba96241461012d5780630e666e4914610156578063123afe9e1461019357806321d77d94146101d05780632d0c9b1c146101f957806348011a58146102365780634d238c8e146102745780635219fcdf1461029d578063569ea547146102c65780635a22283a14610303578063704f1b94146103405780638da5cb5b146103695780639700909014610394578063b031e78b146103bd578063b639c6c9146103e6578063c5b4471214610423578063caa7401914610460578063ce43c03214610489578063d9e115d3146104c6578063e64f674714610503578063f2fde38b1461052c578063f420e18414610555575b600080fd5b34801561013957600080fd5b50610154600480360361014f9190810190614dd2565b61057e565b005b34801561016257600080fd5b5061017d60048036036101789190810190614b8f565b6109ec565b60405161018a9190615553565b60405180910390f35b34801561019f57600080fd5b506101ba60048036036101b59190810190614b8f565b610aba565b6040516101c79190615531565b60405180910390f35b3480156101dc57600080fd5b506101f760048036036101f29190810190614ed3565b610d5c565b005b34801561020557600080fd5b50610220600480360361021b9190810190614dd2565b610f7a565b60405161022d9190615830565b60405180910390f35b34801561024257600080fd5b5061025d60048036036102589190810190614b8f565b610ff2565b60405161026b92919061584b565b60405180910390f35b34801561028057600080fd5b5061029b60048036036102969190810190614b8f565b611084565b005b3480156102a957600080fd5b506102c460048036036102bf9190810190614c6f565b61125c565b005b3480156102d257600080fd5b506102ed60048036036102e89190810190614bb8565b611827565b6040516102fa9190615553565b60405180910390f35b34801561030f57600080fd5b5061032a60048036036103259190810190614b8f565b611e95565b604051610337919061556e565b60405180910390f35b34801561034c57600080fd5b5061036760048036036103629190810190614dd2565b611eee565b005b34801561037557600080fd5b5061037e61202b565b60405161038b91906153ee565b60405180910390f35b3480156103a057600080fd5b506103bb60048036036103b69190810190614dd2565b612050565b005b3480156103c957600080fd5b506103e460048036036103df9190810190614c6f565b6124bd565b005b3480156103f257600080fd5b5061040d60048036036104089190810190614dd2565b612777565b60405161041a9190615589565b60405180910390f35b34801561042f57600080fd5b5061044a60048036036104459190810190614e67565b6127fc565b6040516104579190615553565b60405180910390f35b34801561046c57600080fd5b5061048760048036036104829190810190614cab565b6131f8565b005b34801561049557600080fd5b506104b060048036036104ab9190810190614b8f565b613468565b6040516104bd91906155a4565b60405180910390f35b3480156104d257600080fd5b506104ed60048036036104e89190810190614e13565b61354c565b6040516104fa9190615553565b60405180910390f35b34801561050f57600080fd5b5061052a60048036036105259190810190614bf4565b613687565b005b34801561053857600080fd5b50610553600480360361054e9190810190614b8f565b613fa1565b005b34801561056157600080fd5b5061057c60048036036105779190810190614f92565b6140f6565b005b610586614793565b6002826040518082805190602001908083835b6020831015156105be5780518252602082019150602081019050602083039250610599565b6001836020036101000a038019825116818451168082178552505050505050905001915050908152602001604051809103902061010060405190810160405290816000820160009054906101000a900473ffffffffffffffffffffffffffffffffffffffff1673ffffffffffffffffffffffffffffffffffffffff1673ffffffffffffffffffffffffffffffffffffffff168152602001600182018054600181600116156101000203166002900480601f0160208091040260200160405190810160405280929190818152602001828054600181600116156101000203166002900480156106ed5780601f106106c2576101008083540402835291602001916106ed565b820191906000526020600020905b8154815290600101906020018083116106d057829003601f168201915b50505050508152602001600282018054600181600116156101000203166002900480601f01602080910402602001604051908101604052809291908181526020018280546001816001161561010002031660029004801561078f5780601f106107645761010080835404028352916020019161078f565b820191906000526020600020905b81548152906001019060200180831161077257829003601f168201915b50505050508152602001600382018054600181600116156101000203166002900480601f0160208091040260200160405190810160405280929190818152602001828054600181600116156101000203166002900480156108315780601f1061080657610100808354040283529160200191610831565b820191906000526020600020905b81548152906001019060200180831161081457829003601f168201915b505050505081526020016004820154815260200160058201548152602001600682015481526020016007820160009054906101000a900460ff16600381111561087657fe5b600381111561088157fe5b815250509050806000015173ffffffffffffffffffffffffffffffffffffffff163373ffffffffffffffffffffffffffffffffffffffff161415156108c557600080fd5b600260038111156108d257fe5b8160e0015160038111156108e257fe5b1415156108ee57600080fd5b60036002836040518082805190602001908083835b6020831015156109285780518252602082019150602081019050602083039250610903565b6001836020036101000a038019825116818451168082178552505050505050905001915050908152602001604051809103902060070160006101000a81548160ff0219169083600381111561097957fe5b02179055503373ffffffffffffffffffffffffffffffffffffffff167f8d19faf08adf4f904aba4b47ace07c0c7c74712a6d39e931bff4dcbc25b5419582602001518360400151846060015185608001518660c001516040516109e0959493929190615688565b60405180910390a25050565b6000604051806000019050604051809103902060001916600460008473ffffffffffffffffffffffffffffffffffffffff1673ffffffffffffffffffffffffffffffffffffffff1681526020019081526020016000206000016040518082805460018160011615610100020316600290048015610aa05780601f10610a7e576101008083540402835291820191610aa0565b820191906000526020600020905b815481529060010190602001808311610a8c575b505091505060405180910390206000191614159050919050565b606060008060008060606000806000806000600360068054905010151515610b17576040517f08c379a0000000000000000000000000000000000000000000000000000000008152600401610b0e90615750565b60405180910390fd5b8b73ffffffffffffffffffffffffffffffffffffffff1699504260010298508989604051602001808381526020018260001916600019168152602001925050506040516020818303038152906040526040518082805190602001908083835b602083101515610b9b5780518252602082019150602081019050602083039250610b76565b6001836020036101000a038019825116818451168082178552505050505050905001915050604051809103902060019004975060068054905088811515610bde57fe5b0696506003604051908082528060200260200182016040528015610c115781602001602082028038833980820191505090505b50955060009450600193505b6003851015610d4a5760068080549050858901811515610c3957fe5b06815481101515610c4657fe5b9060005260206000200160009054906101000a900473ffffffffffffffffffffffffffffffffffffffff16925060009150600090505b8551811015610ce2578273ffffffffffffffffffffffffffffffffffffffff168682815181101515610caa57fe5b9060200190602002015173ffffffffffffffffffffffffffffffffffffffff161415610cd557600191505b8080600101915050610c7c565b811515610d3d57828686815181101515610cf857fe5b9060200190602002019073ffffffffffffffffffffffffffffffffffffffff16908173ffffffffffffffffffffffffffffffffffffffff168152505084806001019550505b8380600101945050610c1d565b859a5050505050505050505050919050565b610d64614793565b610100604051908101604052803373ffffffffffffffffffffffffffffffffffffffff1681526020018781526020018681526020018581526020018481526020016000815260200183815260200160006003811115610dbf57fe5b8152509050806002856040518082805190602001908083835b602083101515610dfd5780518252602082019150602081019050602083039250610dd8565b6001836020036101000a038019825116818451168082178552505050505050905001915050908152602001604051809103902060008201518160000160006101000a81548173ffffffffffffffffffffffffffffffffffffffff021916908373ffffffffffffffffffffffffffffffffffffffff1602179055506020820151816001019080519060200190610e939291906147fa565b506040820151816002019080519060200190610eb09291906147fa565b506060820151816003019080519060200190610ecd9291906147fa565b506080820151816004015560a0820151816005015560c0820151816006015560e08201518160070160006101000a81548160ff02191690836003811115610f1057fe5b02179055509050503373ffffffffffffffffffffffffffffffffffffffff167f95425f5f4392462c32fc4957d62e15f8589a263ec26ba4b863ca0bacfca39fe6826020015187878787604051610f6a959493929190615620565b60405180910390a2505050505050565b60006002826040518082805190602001908083835b602083101515610fb45780518252602082019150602081019050602083039250610f8f565b6001836020036101000a0380198251168184511680821785525050505050509050019150509081526020016040518091039020600501549050919050565b600080600560008473ffffffffffffffffffffffffffffffffffffffff1673ffffffffffffffffffffffffffffffffffffffff168152602001908152602001600020600a0154600560008573ffffffffffffffffffffffffffffffffffffffff1673ffffffffffffffffffffffffffffffffffffffff168152602001908152602001600020600b015491509150915091565b6000806000809054906101000a900473ffffffffffffffffffffffffffffffffffffffff1673ffffffffffffffffffffffffffffffffffffffff163373ffffffffffffffffffffffffffffffffffffffff161415156110e257600080fd5b60009150600090505b6006805490508110156111775760068181548110151561110757fe5b9060005260206000200160009054906101000a900473ffffffffffffffffffffffffffffffffffffffff1673ffffffffffffffffffffffffffffffffffffffff168373ffffffffffffffffffffffffffffffffffffffff16141561116a57600191505b80806001019150506110eb565b811515156111ba576040517f08c379a00000000000000000000000000000000000000000000000000000000081526004016111b190615810565b60405180910390fd5b60068390806001815401808255809150509060018203906000526020600020016000909192909190916101000a81548173ffffffffffffffffffffffffffffffffffffffff021916908373ffffffffffffffffffffffffffffffffffffffff160217905550507f4abba4877a811c10c94281a6a64a19db457ed00ca5e9c8dcd2563023d04771398360405161124f91906153ee565b60405180910390a1505050565b600080600080600560008773ffffffffffffffffffffffffffffffffffffffff1673ffffffffffffffffffffffffffffffffffffffff1681526020019081526020016000209350600060028111156112b057fe5b84600d0160009054906101000a900460ff1660028111156112cd57fe5b14151561130f576040517f08c379a0000000000000000000000000000000000000000000000000000000008152600401611306906157f0565b60405180910390fd5b6000600560008873ffffffffffffffffffffffffffffffffffffffff1673ffffffffffffffffffffffffffffffffffffffff168152602001908152602001600020600f0160003373ffffffffffffffffffffffffffffffffffffffff1673ffffffffffffffffffffffffffffffffffffffff168152602001908152602001600020541415156113d3576040517f08c379a00000000000000000000000000000000000000000000000000000000081526004016113ca90615770565b60405180910390fd5b6113dd8633611827565b151561141e576040517f08c379a000000000000000000000000000000000000000000000000000000000815260040161141590615790565b60405180910390fd5b7fffffffffffffffffffffffffffffffffffffffffffffffffffffffffffffffff85148061144c5750600185145b151561148d576040517f08c379a000000000000000000000000000000000000000000000000000000000815260040161148490615730565b60405180910390fd5b84600560008873ffffffffffffffffffffffffffffffffffffffff1673ffffffffffffffffffffffffffffffffffffffff168152602001908152602001600020600f0160003373ffffffffffffffffffffffffffffffffffffffff1673ffffffffffffffffffffffffffffffffffffffff168152602001908152602001600020819055506001925060009150600090505b600381101561163f5783600f01600085600e018381548110151561153e57fe5b9060005260206000200160009054906101000a900473ffffffffffffffffffffffffffffffffffffffff1673ffffffffffffffffffffffffffffffffffffffff1673ffffffffffffffffffffffffffffffffffffffff1681526020019081526020016000205482019150600084600f01600086600e01848154811015156115c157fe5b9060005260206000200160009054906101000a900473ffffffffffffffffffffffffffffffffffffffff1673ffffffffffffffffffffffffffffffffffffffff1673ffffffffffffffffffffffffffffffffffffffff16815260200190815260200160002054141561163257600092505b808060010191505061151e565b821561181f576000821315611738576001600560008873ffffffffffffffffffffffffffffffffffffffff1673ffffffffffffffffffffffffffffffffffffffff168152602001908152602001600020600d0160006101000a81548160ff021916908360028111156116ad57fe5b02179055508573ffffffffffffffffffffffffffffffffffffffff168460010160000160009054906101000a900473ffffffffffffffffffffffffffffffffffffffff1673ffffffffffffffffffffffffffffffffffffffff167f9a0edc7434e25d2680cca8e42e8195c70c89559cecfa24aa86ef60e62bde93b560405160405180910390a361181e565b6002600560008873ffffffffffffffffffffffffffffffffffffffff1673ffffffffffffffffffffffffffffffffffffffff168152602001908152602001600020600d0160006101000a81548160ff0219169083600281111561179757fe5b02179055508573ffffffffffffffffffffffffffffffffffffffff168460010160000160009054906101000a900473ffffffffffffffffffffffffffffffffffffffff1673ffffffffffffffffffffffffffffffffffffffff167f7e2f1c3e8ff474da73c6816c3ba28474efb92270e57a55e006965577b6eadfa460405160405180910390a35b5b505050505050565b600061183161487a565b600080600560008773ffffffffffffffffffffffffffffffffffffffff1673ffffffffffffffffffffffffffffffffffffffff16815260200190815260200160002061010060405190810160405290816000820160206040519081016040529081600082018054600181600116156101000203166002900480601f01602080910402602001604051908101604052809291908181526020018280546001816001161561010002031660029004801561192a5780601f106118ff5761010080835404028352916020019161192a565b820191906000526020600020905b81548152906001019060200180831161190d57829003601f168201915b50505050508152505081526020016001820161010060405190810160405290816000820160009054906101000a900473ffffffffffffffffffffffffffffffffffffffff1673ffffffffffffffffffffffffffffffffffffffff1673ffffffffffffffffffffffffffffffffffffffff1681526020016001820160009054906101000a900473ffffffffffffffffffffffffffffffffffffffff1673ffffffffffffffffffffffffffffffffffffffff1673ffffffffffffffffffffffffffffffffffffffff1681526020016002820154815260200160038201548152602001600482018054600181600116156101000203166002900480601f016020809104026020016040519081016040528092919081815260200182805460018160011615610100020316600290048015611aa25780601f10611a7757610100808354040283529160200191611aa2565b820191906000526020600020905b815481529060010190602001808311611a8557829003601f168201915b50505050508152602001600582018054600181600116156101000203166002900480601f016020809104026020016040519081016040528092919081815260200182805460018160011615610100020316600290048015611b445780601f10611b1957610100808354040283529160200191611b44565b820191906000526020600020905b815481529060010190602001808311611b2757829003601f168201915b50505050508152602001600682018054600181600116156101000203166002900480601f016020809104026020016040519081016040528092919081815260200182805460018160011615610100020316600290048015611be65780601f10611bbb57610100808354040283529160200191611be6565b820191906000526020600020905b815481529060010190602001808311611bc957829003601f168201915b50505050508152602001600782018054600181600116156101000203166002900480601f016020809104026020016040519081016040528092919081815260200182805460018160011615610100020316600290048015611c885780601f10611c5d57610100808354040283529160200191611c88565b820191906000526020600020905b815481529060010190602001808311611c6b57829003601f168201915b505050505081525050815260200160098201548152602001600a8201548152602001600b8201548152602001600c82018054600181600116156101000203166002900480601f016020809104026020016040519081016040528092919081815260200182805460018160011615610100020316600290048015611d4c5780601f10611d2157610100808354040283529160200191611d4c565b820191906000526020600020905b815481529060010190602001808311611d2f57829003601f168201915b50505050508152602001600d820160009054906101000a900460ff166002811115611d7357fe5b6002811115611d7e57fe5b8152602001600e8201805480602002602001604051908101604052809291908181526020018280548015611e0757602002820191906000526020600020905b8160009054906101000a900473ffffffffffffffffffffffffffffffffffffffff1673ffffffffffffffffffffffffffffffffffffffff1681526020019060010190808311611dbd575b505050505081525050925060009150600090505b8260e0015151811015611e89578473ffffffffffffffffffffffffffffffffffffffff168360e0015182815181101515611e5157fe5b9060200190602002015173ffffffffffffffffffffffffffffffffffffffff161415611e7c57600191505b8080600101915050611e1b565b81935050505092915050565b6000600560008373ffffffffffffffffffffffffffffffffffffffff1673ffffffffffffffffffffffffffffffffffffffff168152602001908152602001600020600d0160009054906101000a900460ff169050919050565b611ef66148d7565b604051806000019050604051809103902060001916826040518082805190602001908083835b602083101515611f415780518252602082019150602081019050602083039250611f1c565b6001836020036101000a03801982511681845116808217855250505050505090500191505060405180910390206000191614151515611fb5576040517f08c379a0000000000000000000000000000000000000000000000000000000008152600401611fac906157b0565b60405180910390fd5b60206040519081016040528083815250905080600460003373ffffffffffffffffffffffffffffffffffffffff1673ffffffffffffffffffffffffffffffffffffffff16815260200190815260200160002060008201518160000190805190602001906120239291906147fa565b509050505050565b6000809054906101000a900473ffffffffffffffffffffffffffffffffffffffff1681565b612058614793565b6002826040518082805190602001908083835b602083101515612090578051825260208201915060208101905060208303925061206b565b6001836020036101000a038019825116818451168082178552505050505050905001915050908152602001604051809103902061010060405190810160405290816000820160009054906101000a900473ffffffffffffffffffffffffffffffffffffffff1673ffffffffffffffffffffffffffffffffffffffff1673ffffffffffffffffffffffffffffffffffffffff168152602001600182018054600181600116156101000203166002900480601f0160208091040260200160405190810160405280929190818152602001828054600181600116156101000203166002900480156121bf5780601f10612194576101008083540402835291602001916121bf565b820191906000526020600020905b8154815290600101906020018083116121a257829003601f168201915b50505050508152602001600282018054600181600116156101000203166002900480601f0160208091040260200160405190810160405280929190818152602001828054600181600116156101000203166002900480156122615780601f1061223657610100808354040283529160200191612261565b820191906000526020600020905b81548152906001019060200180831161224457829003601f168201915b50505050508152602001600382018054600181600116156101000203166002900480601f0160208091040260200160405190810160405280929190818152602001828054600181600116156101000203166002900480156123035780601f106122d857610100808354040283529160200191612303565b820191906000526020600020905b8154815290600101906020018083116122e657829003601f168201915b505050505081526020016004820154815260200160058201548152602001600682015481526020016007820160009054906101000a900460ff16600381111561234857fe5b600381111561235357fe5b815250509050806000015173ffffffffffffffffffffffffffffffffffffffff163373ffffffffffffffffffffffffffffffffffffffff1614151561239757600080fd5b600160038111156123a457fe5b8160e0015160038111156123b457fe5b1415156123c057600080fd5b600280836040518082805190602001908083835b6020831015156123f957805182526020820191506020810190506020830392506123d4565b6001836020036101000a038019825116818451168082178552505050505050905001915050908152602001604051809103902060070160006101000a81548160ff0219169083600381111561244a57fe5b02179055503373ffffffffffffffffffffffffffffffffffffffff167fd2e59155eb79323d200530a040ef34592cb14783597fd17fbb14bfdfa241a19c82602001518360400151846060015185608001518660c001516040516124b1959493929190615688565b60405180910390a25050565b60018114806124eb57507fffffffffffffffffffffffffffffffffffffffffffffffffffffffffffffffff81145b151561252c576040517f08c379a0000000000000000000000000000000000000000000000000000000008152600401612523906156f0565b60405180910390fd5b60001515600560008473ffffffffffffffffffffffffffffffffffffffff1673ffffffffffffffffffffffffffffffffffffffff16815260200190815260200160002060100160003373ffffffffffffffffffffffffffffffffffffffff1673ffffffffffffffffffffffffffffffffffffffff16815260200190815260200160002060009054906101000a900460ff161515141515612601576040517f08c379a00000000000000000000000000000000000000000000000000000000081526004016125f890615770565b60405180910390fd5b6001600560008473ffffffffffffffffffffffffffffffffffffffff1673ffffffffffffffffffffffffffffffffffffffff16815260200190815260200160002060100160003373ffffffffffffffffffffffffffffffffffffffff1673ffffffffffffffffffffffffffffffffffffffff16815260200190815260200160002060006101000a81548160ff02191690831515021790555060018114156126f8576001600560008473ffffffffffffffffffffffffffffffffffffffff1673ffffffffffffffffffffffffffffffffffffffff168152602001908152602001600020600a0160008282540192505081905550612773565b7fffffffffffffffffffffffffffffffffffffffffffffffffffffffffffffffff811415612772576001600560008473ffffffffffffffffffffffffffffffffffffffff1673ffffffffffffffffffffffffffffffffffffffff168152602001908152602001600020600b01600082825401925050819055505b5b5050565b60006002826040518082805190602001908083835b6020831015156127b1578051825260208201915060208101905060208303925061278c565b6001836020036101000a038019825116818451168082178552505050505050905001915050908152602001604051809103902060070160009054906101000a900460ff169050919050565b6000612806614793565b6002846040518082805190602001908083835b60208310151561283e5780518252602082019150602081019050602083039250612819565b6001836020036101000a038019825116818451168082178552505050505050905001915050908152602001604051809103902061010060405190810160405290816000820160009054906101000a900473ffffffffffffffffffffffffffffffffffffffff1673ffffffffffffffffffffffffffffffffffffffff1673ffffffffffffffffffffffffffffffffffffffff168152602001600182018054600181600116156101000203166002900480601f01602080910402602001604051908101604052809291908181526020018280546001816001161561010002031660029004801561296d5780601f106129425761010080835404028352916020019161296d565b820191906000526020600020905b81548152906001019060200180831161295057829003601f168201915b50505050508152602001600282018054600181600116156101000203166002900480601f016020809104026020016040519081016040528092919081815260200182805460018160011615610100020316600290048015612a0f5780601f106129e457610100808354040283529160200191612a0f565b820191906000526020600020905b8154815290600101906020018083116129f257829003601f168201915b50505050508152602001600382018054600181600116156101000203166002900480601f016020809104026020016040519081016040528092919081815260200182805460018160011615610100020316600290048015612ab15780601f10612a8657610100808354040283529160200191612ab1565b820191906000526020600020905b815481529060010190602001808311612a9457829003601f168201915b505050505081526020016004820154815260200160058201548152602001600682015481526020016007820160009054906101000a900460ff166003811115612af657fe5b6003811115612b0157fe5b815250509050604051806000019050604051809103902060001916836040518082805190602001908083835b602083101515612b525780518252602082019150602081019050602083039250612b2d565b6001836020036101000a03801982511681845116808217855250505050505090500191505060405180910390206000191614151515612b9057600080fd5b604051806000019050604051809103902060001916846040518082805190602001908083835b602083101515612bdb5780518252602082019150602081019050602083039250612bb6565b6001836020036101000a03801982511681845116808217855250505050505090500191505060405180910390206000191614151515612c1957600080fd5b60026003811115612c2657fe5b8160e001516003811115612c3657fe5b141515612c4257600080fd5b6040518060000190506040518091039020600019166002856040518082805190602001908083835b602083101515612c8f5780518252602082019150602081019050602083039250612c6a565b6001836020036101000a038019825116818451168082178552505050505050905001915050908152602001604051809103902060080160003373ffffffffffffffffffffffffffffffffffffffff1673ffffffffffffffffffffffffffffffffffffffff1681526020019081526020016000206000016040518082805460018160011615610100020316600290048015612d605780601f10612d3e576101008083540402835291820191612d60565b820191906000526020600020905b815481529060010190602001808311612d4c575b5050915050604051809103902060001916141515612d7d57600080fd5b602060405190810160405280848152506002856040518082805190602001908083835b602083101515612dc55780518252602082019150602081019050602083039250612da0565b6001836020036101000a038019825116818451168082178552505050505050905001915050908152602001604051809103902060080160003373ffffffffffffffffffffffffffffffffffffffff1673ffffffffffffffffffffffffffffffffffffffff1681526020019081526020016000206000820151816000019080519060200190612e549291906147fa565b50905050600160009054906101000a900473ffffffffffffffffffffffffffffffffffffffff1673ffffffffffffffffffffffffffffffffffffffff1663a9059cbb3383608001516040518363ffffffff167c0100000000000000000000000000000000000000000000000000000000028152600401612ed5929190615508565b602060405180830381600087803b158015612eef57600080fd5b505af1158015612f03573d6000803e3d6000fd5b505050506040513d601f19601f82011682018060405250612f279190810190614da9565b1515612f3257600080fd5b6002846040518082805190602001908083835b602083101515612f6a5780518252602082019150602081019050602083039250612f45565b6001836020036101000a0380198251168184511680821785525050505050509050019150509081526020016040518091039020600401546002856040518082805190602001908083835b602083101515612fd95780518252602082019150602081019050602083039250612fb4565b6001836020036101000a0380198251168184511680821785525050505050509050019150509081526020016040518091039020600501600082825403925050819055503373ffffffffffffffffffffffffffffffffffffffff167f34c6e4292ec4c54b9ebd046067b22da7c48f22dba9723a4b79b837e3a191a5d685858460400151856080015160405161307094939291906155c6565b60405180910390a280608001516002856040518082805190602001908083835b6020831015156130b55780518252602082019150602081019050602083039250613090565b6001836020036101000a03801982511681845116808217855250505050505090500191505090815260200160405180910390206005015410156131f15760036002856040518082805190602001908083835b60208310151561312c5780518252602082019150602081019050602083039250613107565b6001836020036101000a038019825116818451168082178552505050505050905001915050908152602001604051809103902060070160006101000a81548160ff0219169083600381111561317d57fe5b0217905550806000015173ffffffffffffffffffffffffffffffffffffffff167f8d19faf08adf4f904aba4b47ace07c0c7c74712a6d39e931bff4dcbc25b5419582602001518360400151846060015185608001518660c001516040516131e8959493929190615688565b60405180910390a25b5092915050565b6132006148eb565b6000809054906101000a900473ffffffffffffffffffffffffffffffffffffffff1673ffffffffffffffffffffffffffffffffffffffff163373ffffffffffffffffffffffffffffffffffffffff1614151561325b57600080fd5b610100604051908101604052808973ffffffffffffffffffffffffffffffffffffffff1681526020013373ffffffffffffffffffffffffffffffffffffffff16815260200188815260200187815260200186815260200185815260200184815260200183815250905080600360008a73ffffffffffffffffffffffffffffffffffffffff1673ffffffffffffffffffffffffffffffffffffffff16815260200190815260200160002060008201518160000160006101000a81548173ffffffffffffffffffffffffffffffffffffffff021916908373ffffffffffffffffffffffffffffffffffffffff16021790555060208201518160010160006101000a81548173ffffffffffffffffffffffffffffffffffffffff021916908373ffffffffffffffffffffffffffffffffffffffff160217905550604082015181600201556060820151816003015560808201518160040190805190602001906133c29291906147fa565b5060a08201518160050190805190602001906133df9291906147fa565b5060c08201518160060190805190602001906133fc9291906147fa565b5060e08201518160070190805190602001906134199291906147fa565b5090505085877f4053d8cb76e386f51bfe2ded3dc6303b2d7076dfa9d3fe6b8ced13a9b50f77dd8a88888888604051613456959493929190615499565b60405180910390a35050505050505050565b6060600460008373ffffffffffffffffffffffffffffffffffffffff1673ffffffffffffffffffffffffffffffffffffffff1681526020019081526020016000206000018054600181600116156101000203166002900480601f0160208091040260200160405190810160405280929190818152602001828054600181600116156101000203166002900480156135405780601f1061351557610100808354040283529160200191613540565b820191906000526020600020905b81548152906001019060200180831161352357829003601f168201915b50505050509050919050565b60006040518060000190506040518091039020600019166002846040518082805190602001908083835b60208310151561359b5780518252602082019150602081019050602083039250613576565b6001836020036101000a038019825116818451168082178552505050505050905001915050908152602001604051809103902060080160008473ffffffffffffffffffffffffffffffffffffffff1673ffffffffffffffffffffffffffffffffffffffff168152602001908152602001600020600001604051808280546001816001161561010002031660029004801561366c5780601f1061364a57610100808354040283529182019161366c565b820191906000526020600020905b815481529060010190602001808311613658575b50509150506040518091039020600019161415905092915050565b61368f6148d7565b6136976148eb565b61369f61487a565b6000600186101580156136b3575060048611155b15156136f4576040517f08c379a00000000000000000000000000000000000000000000000000000000081526004016136eb906157d0565b60405180910390fd5b600460003373ffffffffffffffffffffffffffffffffffffffff1673ffffffffffffffffffffffffffffffffffffffff16815260200190815260200160002060206040519081016040529081600082018054600181600116156101000203166002900480601f0160208091040260200160405190810160405280929190818152602001828054600181600116156101000203166002900480156137d85780601f106137ad576101008083540402835291602001916137d8565b820191906000526020600020905b8154815290600101906020018083116137bb57829003601f168201915b505050505081525050935060405180600001905060405180910390206000191684600001516040518082805190602001908083835b602083101515613832578051825260208201915060208101905060208303925061380d565b6001836020036101000a038019825116818451168082178552505050505050905001915050604051809103902060001916141515156138a6576040517f08c379a000000000000000000000000000000000000000000000000000000000815260040161389d90615710565b60405180910390fd5b600360008873ffffffffffffffffffffffffffffffffffffffff1673ffffffffffffffffffffffffffffffffffffffff16815260200190815260200160002061010060405190810160405290816000820160009054906101000a900473ffffffffffffffffffffffffffffffffffffffff1673ffffffffffffffffffffffffffffffffffffffff1673ffffffffffffffffffffffffffffffffffffffff1681526020016001820160009054906101000a900473ffffffffffffffffffffffffffffffffffffffff1673ffffffffffffffffffffffffffffffffffffffff1673ffffffffffffffffffffffffffffffffffffffff1681526020016002820154815260200160038201548152602001600482018054600181600116156101000203166002900480601f016020809104026020016040519081016040528092919081815260200182805460018160011615610100020316600290048015613a4b5780601f10613a2057610100808354040283529160200191613a4b565b820191906000526020600020905b815481529060010190602001808311613a2e57829003601f168201915b50505050508152602001600582018054600181600116156101000203166002900480601f016020809104026020016040519081016040528092919081815260200182805460018160011615610100020316600290048015613aed5780601f10613ac257610100808354040283529160200191613aed565b820191906000526020600020905b815481529060010190602001808311613ad057829003601f168201915b50505050508152602001600682018054600181600116156101000203166002900480601f016020809104026020016040519081016040528092919081815260200182805460018160011615610100020316600290048015613b8f5780601f10613b6457610100808354040283529160200191613b8f565b820191906000526020600020905b815481529060010190602001808311613b7257829003601f168201915b50505050508152602001600782018054600181600116156101000203166002900480601f016020809104026020016040519081016040528092919081815260200182805460018160011615610100020316600290048015613c315780601f10613c0657610100808354040283529160200191613c31565b820191906000526020600020905b815481529060010190602001808311613c1457829003601f168201915b505050505081525050925061010060405190810160405280858152602001848152602001878152602001600081526020016000815260200186815260200160006002811115613c7c57fe5b8152602001613c8a33610aba565b815250915081600560008a73ffffffffffffffffffffffffffffffffffffffff1673ffffffffffffffffffffffffffffffffffffffff1681526020019081526020016000206000820151816000016000820151816000019080519060200190613cf49291906147fa565b50505060208201518160010160008201518160000160006101000a81548173ffffffffffffffffffffffffffffffffffffffff021916908373ffffffffffffffffffffffffffffffffffffffff16021790555060208201518160010160006101000a81548173ffffffffffffffffffffffffffffffffffffffff021916908373ffffffffffffffffffffffffffffffffffffffff16021790555060408201518160020155606082015181600301556080820151816004019080519060200190613dbe9291906147fa565b5060a0820151816005019080519060200190613ddb9291906147fa565b5060c0820151816006019080519060200190613df89291906147fa565b5060e0820151816007019080519060200190613e159291906147fa565b50505060408201518160090155606082015181600a0155608082015181600b015560a082015181600c019080519060200190613e529291906147fa565b5060c082015181600d0160006101000a81548160ff02191690836002811115613e7757fe5b021790555060e082015181600e019080519060200190613e9892919061495d565b50905050600090505b8160e0015151811015613f30578160e0015181815181101515613ec057fe5b9060200190602002015173ffffffffffffffffffffffffffffffffffffffff168873ffffffffffffffffffffffffffffffffffffffff167f516fad89f67e240d0a64ec70fafc3d3e19cbef89cf5d91598b143a101e4dbf1b60405160405180910390a38080600101915050613ea1565b8673ffffffffffffffffffffffffffffffffffffffff163373ffffffffffffffffffffffffffffffffffffffff167fc8e93948f0d856bad2f514ddd6a9379aabdc542c58efc5f44619ecf11dbe90328a88604051613f8f929190615469565b60405180910390a35050505050505050565b6000809054906101000a900473ffffffffffffffffffffffffffffffffffffffff1673ffffffffffffffffffffffffffffffffffffffff163373ffffffffffffffffffffffffffffffffffffffff16141515613ffc57600080fd5b600073ffffffffffffffffffffffffffffffffffffffff168173ffffffffffffffffffffffffffffffffffffffff161415151561403857600080fd5b8073ffffffffffffffffffffffffffffffffffffffff166000809054906101000a900473ffffffffffffffffffffffffffffffffffffffff1673ffffffffffffffffffffffffffffffffffffffff167f8be0079c531659141344cd1fd0a4f28419497f9722a3daafe3b4186f6b6457e060405160405180910390a3806000806101000a81548173ffffffffffffffffffffffffffffffffffffffff021916908373ffffffffffffffffffffffffffffffffffffffff16021790555050565b6140fe614793565b60006002846040518082805190602001908083835b6020831015156141385780518252602082019150602081019050602083039250614113565b6001836020036101000a038019825116818451168082178552505050505050905001915050908152602001604051809103902061010060405190810160405290816000820160009054906101000a900473ffffffffffffffffffffffffffffffffffffffff1673ffffffffffffffffffffffffffffffffffffffff1673ffffffffffffffffffffffffffffffffffffffff168152602001600182018054600181600116156101000203166002900480601f0160208091040260200160405190810160405280929190818152602001828054600181600116156101000203166002900480156142675780601f1061423c57610100808354040283529160200191614267565b820191906000526020600020905b81548152906001019060200180831161424a57829003601f168201915b50505050508152602001600282018054600181600116156101000203166002900480601f0160208091040260200160405190810160405280929190818152602001828054600181600116156101000203166002900480156143095780601f106142de57610100808354040283529160200191614309565b820191906000526020600020905b8154815290600101906020018083116142ec57829003601f168201915b50505050508152602001600382018054600181600116156101000203166002900480601f0160208091040260200160405190810160405280929190818152602001828054600181600116156101000203166002900480156143ab5780601f10614380576101008083540402835291602001916143ab565b820191906000526020600020905b81548152906001019060200180831161438e57829003601f168201915b505050505081526020016004820154815260200160058201548152602001600682015481526020016007820160009054906101000a900460ff1660038111156143f057fe5b60038111156143fb57fe5b815250509150816000015173ffffffffffffffffffffffffffffffffffffffff163373ffffffffffffffffffffffffffffffffffffffff1614151561443f57600080fd5b600160009054906101000a900473ffffffffffffffffffffffffffffffffffffffff1673ffffffffffffffffffffffffffffffffffffffff1663dd62ed3e33306040518363ffffffff167c01000000000000000000000000000000000000000000000000000000000281526004016144b8929190615409565b602060405180830381600087803b1580156144d257600080fd5b505af11580156144e6573d6000803e3d6000fd5b505050506040513d601f19601f8201168201806040525061450a9190810190614fe6565b905082811015151561451b57600080fd5b600160009054906101000a900473ffffffffffffffffffffffffffffffffffffffff1673ffffffffffffffffffffffffffffffffffffffff166323b872dd3330866040518463ffffffff167c010000000000000000000000000000000000000000000000000000000002815260040161459693929190615432565b602060405180830381600087803b1580156145b057600080fd5b505af11580156145c4573d6000803e3d6000fd5b505050506040513d601f19601f820116820180604052506145e89190810190614da9565b15156145f357600080fd5b826002856040518082805190602001908083835b60208310151561462c5780518252602082019150602081019050602083039250614607565b6001836020036101000a0380198251168184511680821785525050505050509050019150509081526020016040518091039020600501600082825401925050819055506000600381111561467c57fe5b8260e00151600381111561468c57fe5b14156147235760016002856040518082805190602001908083835b6020831015156146cc57805182526020820191506020810190506020830392506146a7565b6001836020036101000a038019825116818451168082178552505050505050905001915050908152602001604051809103902060070160006101000a81548160ff0219169083600381111561471d57fe5b02179055505b3373ffffffffffffffffffffffffffffffffffffffff167f7d703b99136412be3113d8613d984b3314e5afef7799b73dbc59f0dc66ae2b7f83602001518460400151856060015186608001518760c00151604051614785959493929190615688565b60405180910390a250505050565b61010060405190810160405280600073ffffffffffffffffffffffffffffffffffffffff168152602001606081526020016060815260200160608152602001600081526020016000815260200160008152602001600060038111156147f457fe5b81525090565b828054600181600116156101000203166002900490600052602060002090601f016020900481019282601f1061483b57805160ff1916838001178555614869565b82800160010185558215614869579182015b8281111561486857825182559160200191906001019061484d565b5b50905061487691906149e7565b5090565b6101e06040519081016040528061488f614a0c565b815260200161489c614a20565b815260200160008152602001600081526020016000815260200160608152602001600060028111156148ca57fe5b8152602001606081525090565b602060405190810160405280606081525090565b61010060405190810160405280600073ffffffffffffffffffffffffffffffffffffffff168152602001600073ffffffffffffffffffffffffffffffffffffffff1681526020016000815260200160008152602001606081526020016060815260200160608152602001606081525090565b8280548282559060005260206000209081019282156149d6579160200282015b828111156149d55782518260006101000a81548173ffffffffffffffffffffffffffffffffffffffff021916908373ffffffffffffffffffffffffffffffffffffffff1602179055509160200191906001019061497d565b5b5090506149e39190614a92565b5090565b614a0991905b80821115614a055760008160009055506001016149ed565b5090565b90565b602060405190810160405280606081525090565b61010060405190810160405280600073ffffffffffffffffffffffffffffffffffffffff168152602001600073ffffffffffffffffffffffffffffffffffffffff1681526020016000815260200160008152602001606081526020016060815260200160608152602001606081525090565b614ad291905b80821115614ace57600081816101000a81549073ffffffffffffffffffffffffffffffffffffffff021916905550600101614a98565b5090565b90565b6000614ae1823561596a565b905092915050565b6000614af5825161598a565b905092915050565b6000614b098235615996565b905092915050565b600082601f8301121515614b2457600080fd5b8135614b37614b32826158a1565b615874565b91508082526020830160208301858383011115614b5357600080fd5b614b5e8382846159e0565b50505092915050565b6000614b7382356159a0565b905092915050565b6000614b8782516159a0565b905092915050565b600060208284031215614ba157600080fd5b6000614baf84828501614ad5565b91505092915050565b60008060408385031215614bcb57600080fd5b6000614bd985828601614ad5565b9250506020614bea85828601614ad5565b9150509250929050565b60008060008060808587031215614c0a57600080fd5b6000614c1887828801614ad5565b9450506020614c2987828801614ad5565b9350506040614c3a87828801614b67565b925050606085013567ffffffffffffffff811115614c5757600080fd5b614c6387828801614b11565b91505092959194509250565b60008060408385031215614c8257600080fd5b6000614c9085828601614ad5565b9250506020614ca185828601614afd565b9150509250929050565b600080600080600080600060e0888a031215614cc657600080fd5b6000614cd48a828b01614ad5565b9750506020614ce58a828b01614b67565b9650506040614cf68a828b01614b67565b955050606088013567ffffffffffffffff811115614d1357600080fd5b614d1f8a828b01614b11565b945050608088013567ffffffffffffffff811115614d3c57600080fd5b614d488a828b01614b11565b93505060a088013567ffffffffffffffff811115614d6557600080fd5b614d718a828b01614b11565b92505060c088013567ffffffffffffffff811115614d8e57600080fd5b614d9a8a828b01614b11565b91505092959891949750929550565b600060208284031215614dbb57600080fd5b6000614dc984828501614ae9565b91505092915050565b600060208284031215614de457600080fd5b600082013567ffffffffffffffff811115614dfe57600080fd5b614e0a84828501614b11565b91505092915050565b60008060408385031215614e2657600080fd5b600083013567ffffffffffffffff811115614e4057600080fd5b614e4c85828601614b11565b9250506020614e5d85828601614ad5565b9150509250929050565b60008060408385031215614e7a57600080fd5b600083013567ffffffffffffffff811115614e9457600080fd5b614ea085828601614b11565b925050602083013567ffffffffffffffff811115614ebd57600080fd5b614ec985828601614b11565b9150509250929050565b600080600080600060a08688031215614eeb57600080fd5b600086013567ffffffffffffffff811115614f0557600080fd5b614f1188828901614b11565b955050602086013567ffffffffffffffff811115614f2e57600080fd5b614f3a88828901614b11565b945050604086013567ffffffffffffffff811115614f5757600080fd5b614f6388828901614b11565b9350506060614f7488828901614b67565b9250506080614f8588828901614b67565b9150509295509295909350565b60008060408385031215614fa557600080fd5b600083013567ffffffffffffffff811115614fbf57600080fd5b614fcb85828601614b11565b9250506020614fdc85828601614b67565b9150509250929050565b600060208284031215614ff857600080fd5b600061500684828501614b7b565b91505092915050565b61501881615908565b82525050565b6000615029826158da565b80845260208401935061503b836158cd565b60005b8281101561506d5761505186835161500f565b61505a826158fb565b915060208601955060018101905061503e565b50849250505092915050565b61508281615928565b82525050565b615091816159aa565b82525050565b6150a0816159bc565b82525050565b6150af816159ce565b82525050565b60006150c0826158f0565b8084526150d48160208601602086016159ef565b6150dd81615a22565b602085010191505092915050565b60006150f6826158e5565b80845261510a8160208601602086016159ef565b61511381615a22565b602085010191505092915050565b6000601c82527f566f7465206d757374206265206569746865722031206f72202d312e000000006020830152604082019050919050565b6000603882527f596f7520617265206e6f7420726567697374657265642061732061207573657260208301527f2e20506c656173652072656769737465722066697273742100000000000000006040830152606082019050919050565b6000601582527f566f7465206d757374206265202d31206f7220312e00000000000000000000006020830152604082019050919050565b6000602482527f4e6f7420656e6f7567682076616c696461746f727320696e207468652073797360208301527f74656d21000000000000000000000000000000000000000000000000000000006040830152606082019050919050565b6000602182527f596f7520616c726561647920766f746564206f6e20746869732072657669657760208301527f2e000000000000000000000000000000000000000000000000000000000000006040830152606082019050919050565b6000602b82527f596f7520617265206e6f742063686f73656e20746f2076616c6964617465207460208301527f686973207265766965772e0000000000000000000000000000000000000000006040830152606082019050919050565b6000601782527f557365726e616d652063616e277420626520656d7074790000000000000000006020830152604082019050919050565b6000601d82527f53636f7265206d757374206265206265747765656e203120616e6420340000006020830152604082019050919050565b6000601982527f52657669657720616c72656164792076616c6964617465642e000000000000006020830152604082019050919050565b6000601882527f56616c696461746f7220616c72656164792065786973747300000000000000006020830152604082019050919050565b6153e881615960565b82525050565b6000602082019050615403600083018461500f565b92915050565b600060408201905061541e600083018561500f565b61542b6020830184615088565b9392505050565b6000606082019050615447600083018661500f565b6154546020830185615088565b61546160408301846153df565b949350505050565b600060408201905061547e600083018561500f565b818103602083015261549081846150b5565b90509392505050565b600060a0820190506154ae600083018861500f565b81810360208301526154c081876150b5565b905081810360408301526154d481866150b5565b905081810360608301526154e881856150b5565b905081810360808301526154fc81846150b5565b90509695505050505050565b600060408201905061551d600083018561500f565b61552a60208301846153df565b9392505050565b6000602082019050818103600083015261554b818461501e565b905092915050565b60006020820190506155686000830184615079565b92915050565b60006020820190506155836000830184615097565b92915050565b600060208201905061559e60008301846150a6565b92915050565b600060208201905081810360008301526155be81846150b5565b905092915050565b600060808201905081810360008301526155e081876150b5565b905081810360208301526155f481866150b5565b9050818103604083015261560881856150eb565b905061561760608301846153df565b95945050505050565b600060a082019050818103600083015261563a81886150eb565b9050818103602083015261564e81876150b5565b9050818103604083015261566281866150b5565b905061567160608301856153df565b61567e60808301846153df565b9695505050505050565b600060a08201905081810360008301526156a281886150eb565b905081810360208301526156b681876150eb565b905081810360408301526156ca81866150eb565b90506156d960608301856153df565b6156e660808301846153df565b9695505050505050565b6000602082019050818103600083015261570981615121565b9050919050565b6000602082019050818103600083015261572981615158565b9050919050565b60006020820190508181036000830152615749816151b5565b9050919050565b60006020820190508181036000830152615769816151ec565b9050919050565b6000602082019050818103600083015261578981615249565b9050919050565b600060208201905081810360008301526157a9816152a6565b9050919050565b600060208201905081810360008301526157c981615303565b9050919050565b600060208201905081810360008301526157e98161533a565b9050919050565b6000602082019050818103600083015261580981615371565b9050919050565b60006020820190508181036000830152615829816153a8565b9050919050565b600060208201905061584560008301846153df565b92915050565b600060408201905061586060008301856153df565b61586d60208301846153df565b9392505050565b6000604051905081810181811067ffffffffffffffff8211171561589757600080fd5b8060405250919050565b600067ffffffffffffffff8211156158b857600080fd5b601f19601f8301169050602081019050919050565b6000602082019050919050565b600081519050919050565b600081519050919050565b600081519050919050565b6000602082019050919050565b600073ffffffffffffffffffffffffffffffffffffffff82169050919050565b60008115159050919050565b600060038210151561594257fe5b819050919050565b600060048210151561595857fe5b819050919050565b6000819050919050565b600073ffffffffffffffffffffffffffffffffffffffff82169050919050565b60008115159050919050565b6000819050919050565b6000819050919050565b60006159b582615908565b9050919050565b60006159c782615934565b9050919050565b60006159d98261594a565b9050919050565b82818337600083830152505050565b60005b83811015615a0d5780820151818401526020810190506159f2565b83811115615a1c576000848401525b50505050565b6000601f19601f83011690509190505600a265627a7a723058202251f9b852f7791314e340840e2c868c8ae708dbbcb84b0a61cce1c27a8e8de56c6578706572696d656e74616cf50037",
  "source": "pragma solidity ^0.4.24;\npragma experimental ABIEncoderV2;\n\nimport \"./REWToken.sol\";\nimport \"zeppelin-solidity/contracts/ownership/Ownable.sol\";\n\ncontract ReviewNetwork is Ownable {\n    REWToken token;\n    uint constant NUMBER_OF_VALIDATORS = 3;\n\n    enum SurveyStatus { IDLE, FUNDED, IN_PROGRESS, COMPLETED }\n    enum ReviewStatus { PENDING, APPROVED, REJECTED }\n\n    struct User {\n        string username;\n    }\n\n    struct Answer {\n        string answersJsonHash;\n    }\n\n    struct Survey {\n        address creator;\n        string publicKey;\n        string title;\n        string surveyJsonHash;\n        uint rewardPerSurvey;\n        uint funds;\n        uint maxAnswers;\n        SurveyStatus status;\n        mapping (address => Answer) answers;\n    }\n\n    struct Product {\n        address productAddress;\n        address addedBy;\n        uint categoryId;\n        uint subcategoryId;\n        string name;\n        string image;\n        string description;\n        string metaJsonHash;\n    }\n\n    struct Review {\n        User author;\n        Product product;\n        uint score;\n        uint upvotes;\n        uint downvotes;\n        string metaJsonHash;\n        ReviewStatus status;\n        address[] chosenValidators;\n        mapping (address => int) validationVotes;\n        mapping (address => bool) userVotes;\n    }\n\n    /**\n     * key: string - Survey JSON IPFS hash\n     */\n    mapping (string => Survey) surveys;\n    mapping (address => Product) products;\n    mapping (address => User) users;\n    mapping (address => Review) reviews;\n    address[] validators;\n\n    event LogSurveyAdded(\n        address indexed creator,\n        string publicKey,\n        string title,\n        string surveyJsonHash,\n        uint rewardPerSurvey,\n        uint maxAnswers\n    );\n    \n    event LogSurveyFunded(\n        address indexed creator,\n        string publicKey,\n        string title,\n        string surveyJsonHash,\n        uint rewardPerSurvey,\n        uint maxAnswers\n    );\n    \n    event LogSurveyStarted(\n        address indexed creator,\n        string publicKey,\n        string title,\n        string surveyJsonHash,\n        uint rewardPerSurvey,\n        uint maxAnswers\n    );\n\n    event LogSurveyCompleted(\n        address indexed creator,\n        string publicKey,\n        string title,\n        string surveyJsonHash,\n        uint rewardPerSurvey,\n        uint maxAnswers\n    );\n\n    event LogSurveyAnswered(\n        address indexed user,\n        string surveyJsonHash,\n        string answersJsonHash,\n        string title,\n        uint rewardPerSurvey\n    );\n\n    event LogProductAdded(\n        address productAddress,\n        uint indexed categoryId,\n        uint indexed subcategoryId,\n        string name,\n        string image,\n        string description,\n        string metaHashJson\n    );\n\n    event LogReviewAdded(\n        address reviewAddress,\n        address indexed authorAddress,\n        address indexed productAddress,\n        string metaJsonHash\n    );\n\n    event LogValidatorAdded(\n        address validatorAddress\n    );\n\n    event LogValidatorChosen(\n        address indexed reviewAddress,\n        address indexed validatorAddress\n    );\n\n    event LogReviewApproved(\n        address indexed productAddress,\n        address indexed reviewAddress\n    );\n\n    event LogReviewRejected(\n        address indexed productAddress,\n        address indexed reviewAddress\n    );\n\n    constructor (address REWTokenAddress) public {\n        token = REWToken(REWTokenAddress);\n    }\n\n    function createSurvey(\n        string publicKey,\n        string title,\n        string surveyJsonHash,\n        uint rewardPerSurvey,\n        uint maxAnswers\n    ) public {\n        Survey memory s = Survey(\n            msg.sender,\n            publicKey,\n            title,\n            surveyJsonHash,\n            rewardPerSurvey,\n            0,\n            maxAnswers,\n            SurveyStatus.IDLE\n        );\n\n        surveys[surveyJsonHash] = s;\n\n        emit LogSurveyAdded(\n            msg.sender,\n            s.publicKey,\n            title,\n            surveyJsonHash,\n            rewardPerSurvey,\n            maxAnswers\n        );\n    }\n\n    function fundSurvey(string surveyJsonHash, uint amount) public {\n        Survey memory survey = surveys[surveyJsonHash];\n\n        require(msg.sender == survey.creator);\n\n        uint allowance = token.allowance(msg.sender, this);\n        require(allowance >= amount);\n\n        require(token.transferFrom(msg.sender, this, amount));\n        surveys[surveyJsonHash].funds += amount;\n        \n        if(survey.status == SurveyStatus.IDLE) {\n            surveys[surveyJsonHash].status = SurveyStatus.FUNDED;\n        }\n\n        emit LogSurveyFunded(\n            msg.sender,\n            survey.publicKey,\n            survey.title,\n            survey.surveyJsonHash,\n            survey.rewardPerSurvey,\n            survey.maxAnswers\n        );\n    }\n\n    function startSurvey(string surveyJsonHash) public {\n        Survey memory survey = surveys[surveyJsonHash];\n        require(msg.sender == survey.creator);\n        require(survey.status == SurveyStatus.FUNDED);\n\n        surveys[surveyJsonHash].status = SurveyStatus.IN_PROGRESS;\n\n        emit LogSurveyStarted(\n            msg.sender,\n            survey.publicKey,\n            survey.title,\n            survey.surveyJsonHash,\n            survey.rewardPerSurvey,\n            survey.maxAnswers\n        );\n    }\n\n    function completeSurvey(string surveyJsonHash) public {\n        Survey memory survey = surveys[surveyJsonHash];\n        require(msg.sender == survey.creator);\n        require(survey.status == SurveyStatus.IN_PROGRESS);\n\n        surveys[surveyJsonHash].status = SurveyStatus.COMPLETED;\n\n        emit LogSurveyCompleted(\n            msg.sender,\n            survey.publicKey,\n            survey.title,\n            survey.surveyJsonHash,\n            survey.rewardPerSurvey,\n            survey.maxAnswers\n        );\n    }\n\n    function getFunds(string surveyJsonHash) public view returns (uint) {\n        return surveys[surveyJsonHash].funds;\n    }\n\n    function getSurveyStatus(string surveyJsonHash) public view returns (SurveyStatus) {\n        return surveys[surveyJsonHash].status;\n    }\n\n    function answerSurvey(string surveyJsonHash, string answersJsonHash) public returns (bool) {\n        Survey memory survey = surveys[surveyJsonHash];\n        require(keccak256(bytes(answersJsonHash)) != keccak256(\"\"));\n        require(keccak256(bytes(surveyJsonHash)) != keccak256(\"\"));\n        require(survey.status == SurveyStatus.IN_PROGRESS);\n        require(keccak256(surveys[surveyJsonHash].answers[msg.sender].answersJsonHash) == keccak256(\"\"));\n\n        surveys[surveyJsonHash].answers[msg.sender] = Answer(answersJsonHash);\n        require(token.transfer(msg.sender, survey.rewardPerSurvey));\n        surveys[surveyJsonHash].funds -= surveys[surveyJsonHash].rewardPerSurvey;\n        emit LogSurveyAnswered(msg.sender, surveyJsonHash, answersJsonHash, survey.title, survey.rewardPerSurvey);\n\n        if (surveys[surveyJsonHash].funds < survey.rewardPerSurvey) {\n            surveys[surveyJsonHash].status = SurveyStatus.COMPLETED;\n            emit LogSurveyCompleted(\n                survey.creator,\n                survey.publicKey,\n                survey.title,\n                survey.surveyJsonHash,\n                survey.rewardPerSurvey,\n                survey.maxAnswers\n            );\n        }\n    }\n\n    function isSurveyAnsweredBy(string surveyJsonHash, address user) public view returns (bool) {\n        return keccak256(bytes(surveys[surveyJsonHash].answers[user].answersJsonHash)) != keccak256(\"\");\n    }\n\n    function createProduct (\n        address productAddress,\n        uint categoryId,\n        uint subcategoryId,\n        string name,\n        string image,\n        string description,\n        string metaJsonHash\n    ) public onlyOwner {\n        Product memory product = Product({\n            productAddress: productAddress,\n            addedBy: msg.sender,\n            categoryId: categoryId,\n            subcategoryId: subcategoryId,\n            name: name,\n            image: image,\n            description: description,\n            metaJsonHash: metaJsonHash\n        });\n\n        products[productAddress] = product;\n\n        emit LogProductAdded(productAddress, categoryId, subcategoryId, name, image, description, metaJsonHash);\n    }\n\n    function registerUser (string username) public {\n        require(keccak256(username) != keccak256(\"\"), \"Username can't be empty\");\n        User memory user = User({ username: username });\n        users[msg.sender] = user;\n    }\n\n    function getUsername (address user) public view returns (string) {\n        return users[user].username;\n    }\n\n    function userExists (address userAddress) public view returns (bool) {\n        return keccak256(users[userAddress].username) != keccak256(\"\");\n    }\n\n    function createReview (\n        address reviewAddress,\n        address productAddress,\n        uint score,\n        string metaJsonHash\n    ) public {\n        require(score >= 1 && score <= 4, \"Score must be between 1 and 4\");\n\n        User memory author = users[msg.sender];\n        require(keccak256(author.username) != keccak256(\"\"), \"You are not registered as a user. Please register first!\");\n\n        Product memory product = products[productAddress];\n\n        Review memory review = Review({\n            author: author,\n            product: product,\n            score: score,\n            upvotes: 0,\n            downvotes: 0,\n            metaJsonHash: metaJsonHash,\n            status: ReviewStatus.PENDING,\n            chosenValidators: choseValidators(msg.sender)\n        });\n\n        reviews[reviewAddress] = review;\n\n        for (uint index = 0; index < review.chosenValidators.length; index++) {\n            emit LogValidatorChosen(reviewAddress, review.chosenValidators[index]);\n        }\n\n        emit LogReviewAdded(reviewAddress, msg.sender, productAddress, metaJsonHash);\n    }\n\n    function voteReview (address reviewAddress, int vote) public {\n        require(vote == 1 || vote == -1, \"Vote must be either 1 or -1.\");\n        require(reviews[reviewAddress].userVotes[msg.sender] == false, \"You already voted on this review.\");\n\n        reviews[reviewAddress].userVotes[msg.sender] = true;\n\n        if (vote == 1) {\n            reviews[reviewAddress].upvotes += 1;\n        } else if (vote == -1) {\n            reviews[reviewAddress].downvotes += 1;\n        }\n    }\n\n    function getReviewVotes (address reviewAddress) public view returns (uint upvotes, uint downvotes) {\n        return (reviews[reviewAddress].upvotes, reviews[reviewAddress].downvotes);\n    }\n\n    function getReviewStatus(address reviewAddress) public view returns (ReviewStatus) {\n        return reviews[reviewAddress].status;\n    }\n\n    function isValidatorChosenForReview (address reviewAddress, address validator) public view returns (bool) {\n        Review memory review = reviews[reviewAddress];\n        \n        bool isValidatorChosen = false;\n        for (uint index = 0; index < review.chosenValidators.length; index++) {\n            if (review.chosenValidators[index] == validator) {\n                isValidatorChosen = true;\n            }\n        }\n\n        return isValidatorChosen;\n    }\n\n    function validatorVote(address reviewAddress, int vote) public {\n        Review storage review = reviews[reviewAddress];\n\n        require(review.status == ReviewStatus.PENDING, \"Review already validated.\");\n        require(reviews[reviewAddress].validationVotes[msg.sender] == 0, \"You already voted on this review.\");\n        require(isValidatorChosenForReview(reviewAddress, msg.sender), \"You are not chosen to validate this review.\");\n        require(vote == -1 || vote == 1, \"Vote must be -1 or 1.\");\n\n        reviews[reviewAddress].validationVotes[msg.sender] = vote;\n\n        bool everyoneVoted = true;\n        int tally = 0;\n\n        for (uint index = 0; index < NUMBER_OF_VALIDATORS; index++) {\n            tally += review.validationVotes[review.chosenValidators[index]];\n\n            if (review.validationVotes[review.chosenValidators[index]] == 0) {\n                everyoneVoted = false;\n            }\n        }\n\n        if (everyoneVoted) {\n            if (tally > 0) {\n                reviews[reviewAddress].status = ReviewStatus.APPROVED;\n                emit LogReviewApproved(review.product.productAddress, reviewAddress);\n            } else {\n                reviews[reviewAddress].status = ReviewStatus.REJECTED;\n                emit LogReviewRejected(review.product.productAddress, reviewAddress);\n            }\n        }\n    }\n\n    function addValidator(address validatorAddress) public onlyOwner {\n        bool validatorExists = false;\n        for(uint i = 0; i < validators.length; i++) {\n            if (validatorAddress == validators[i]) {\n                validatorExists = true;\n            }\n        }\n        \n        require(!validatorExists, \"Validator already exists\");\n        validators.push(validatorAddress);\n\n        emit LogValidatorAdded(validatorAddress);\n    }\n\n    function choseValidators(address author) public view returns (address[]) {\n        require(validators.length >= NUMBER_OF_VALIDATORS, \"Not enough validators in the system!\");\n\n        uint a = uint256(author);\n        bytes32 b = bytes32(block.timestamp);\n        uint r = uint(keccak256(abi.encodePacked(a, b)));\n        uint point = r % validators.length;\n\n        address[] memory chosenOnes = new address[](NUMBER_OF_VALIDATORS);\n\n        uint counter = 0;\n        uint index = 1;\n\n        while(counter < NUMBER_OF_VALIDATORS) {\n            address chosenValidator = validators[(point + index) % validators.length];\n\n            bool alreadyPicked = false;\n            for(uint i = 0; i < chosenOnes.length; i++) {\n                if (chosenOnes[i] == chosenValidator) {\n                    alreadyPicked = true;\n                } \n            }\n\n            if (!alreadyPicked) {\n                chosenOnes[counter] = chosenValidator;\n                counter++;\n            }\n\n            index++;\n\n        }\n\n        return chosenOnes;\n    }\n}\n",
  "sourcePath": "/Users/petars/projects/review-network/rn-prototype-solidity/contracts/ReviewNetwork.sol",
  "compiler": {
    "name": "solc",
    "version": "0.4.24+commit.e67f0147.Emscripten.clang"
  },
  "schemaVersion": "2.0.1",
  "updatedAt": "2018-08-26T23:07:39.831Z"
}