{
  "contractName": "ReviewNetwork",
  "abi": [
    {
      "constant": true,
      "inputs": [],
      "name": "owner",
      "outputs": [
        {
          "name": "",
          "type": "address"
        }
      ],
      "payable": false,
      "stateMutability": "view",
      "type": "function"
    },
    {
      "constant": false,
      "inputs": [
        {
          "name": "newOwner",
          "type": "address"
        }
      ],
      "name": "transferOwnership",
      "outputs": [],
      "payable": false,
      "stateMutability": "nonpayable",
      "type": "function"
    },
    {
      "inputs": [
        {
          "name": "REWTokenAddress",
          "type": "address"
        }
      ],
      "payable": false,
      "stateMutability": "nonpayable",
      "type": "constructor"
    },
    {
      "anonymous": false,
      "inputs": [
        {
          "indexed": true,
          "name": "creator",
          "type": "address"
        },
        {
          "indexed": false,
          "name": "publicKey",
          "type": "string"
        },
        {
          "indexed": false,
          "name": "title",
          "type": "string"
        },
        {
          "indexed": false,
          "name": "surveyJsonHash",
          "type": "string"
        },
        {
          "indexed": false,
          "name": "rewardPerSurvey",
          "type": "uint256"
        },
        {
          "indexed": false,
          "name": "maxAnswers",
          "type": "uint256"
        }
      ],
      "name": "LogSurveyAdded",
      "type": "event"
    },
    {
      "anonymous": false,
      "inputs": [
        {
          "indexed": true,
          "name": "creator",
          "type": "address"
        },
        {
          "indexed": false,
          "name": "publicKey",
          "type": "string"
        },
        {
          "indexed": false,
          "name": "title",
          "type": "string"
        },
        {
          "indexed": false,
          "name": "surveyJsonHash",
          "type": "string"
        },
        {
          "indexed": false,
          "name": "rewardPerSurvey",
          "type": "uint256"
        },
        {
          "indexed": false,
          "name": "maxAnswers",
          "type": "uint256"
        }
      ],
      "name": "LogSurveyFunded",
      "type": "event"
    },
    {
      "anonymous": false,
      "inputs": [
        {
          "indexed": true,
          "name": "creator",
          "type": "address"
        },
        {
          "indexed": false,
          "name": "publicKey",
          "type": "string"
        },
        {
          "indexed": false,
          "name": "title",
          "type": "string"
        },
        {
          "indexed": false,
          "name": "surveyJsonHash",
          "type": "string"
        },
        {
          "indexed": false,
          "name": "rewardPerSurvey",
          "type": "uint256"
        },
        {
          "indexed": false,
          "name": "maxAnswers",
          "type": "uint256"
        }
      ],
      "name": "LogSurveyStarted",
      "type": "event"
    },
    {
      "anonymous": false,
      "inputs": [
        {
          "indexed": true,
          "name": "creator",
          "type": "address"
        },
        {
          "indexed": false,
          "name": "publicKey",
          "type": "string"
        },
        {
          "indexed": false,
          "name": "title",
          "type": "string"
        },
        {
          "indexed": false,
          "name": "surveyJsonHash",
          "type": "string"
        },
        {
          "indexed": false,
          "name": "rewardPerSurvey",
          "type": "uint256"
        },
        {
          "indexed": false,
          "name": "maxAnswers",
          "type": "uint256"
        }
      ],
      "name": "LogSurveyCompleted",
      "type": "event"
    },
    {
      "anonymous": false,
      "inputs": [
        {
          "indexed": true,
          "name": "user",
          "type": "address"
        },
        {
          "indexed": false,
          "name": "surveyJsonHash",
          "type": "string"
        },
        {
          "indexed": false,
          "name": "answersJsonHash",
          "type": "string"
        },
        {
          "indexed": false,
          "name": "title",
          "type": "string"
        },
        {
          "indexed": false,
          "name": "rewardPerSurvey",
          "type": "uint256"
        }
      ],
      "name": "LogSurveyAnswered",
      "type": "event"
    },
    {
      "anonymous": false,
      "inputs": [
        {
          "indexed": true,
          "name": "brandAddress",
          "type": "address"
        },
        {
          "indexed": false,
          "name": "name",
          "type": "string"
        },
        {
          "indexed": false,
          "name": "logo",
          "type": "string"
        },
        {
          "indexed": false,
          "name": "metaHashJson",
          "type": "string"
        }
      ],
      "name": "LogBrandAdded",
      "type": "event"
    },
    {
      "anonymous": false,
      "inputs": [
        {
          "indexed": false,
          "name": "productAddress",
          "type": "address"
        },
        {
          "indexed": true,
          "name": "brandAddress",
          "type": "address"
        },
        {
          "indexed": true,
          "name": "categoryId",
          "type": "uint256"
        },
        {
          "indexed": true,
          "name": "subcategoryId",
          "type": "uint256"
        },
        {
          "indexed": false,
          "name": "name",
          "type": "string"
        },
        {
          "indexed": false,
          "name": "image",
          "type": "string"
        },
        {
          "indexed": false,
          "name": "metaHashJson",
          "type": "string"
        }
      ],
      "name": "LogProductAdded",
      "type": "event"
    },
    {
      "anonymous": false,
      "inputs": [
        {
          "indexed": false,
          "name": "reviewAddress",
          "type": "address"
        },
        {
          "indexed": true,
          "name": "authorAddress",
          "type": "address"
        },
        {
          "indexed": true,
          "name": "productAddress",
          "type": "address"
        },
        {
          "indexed": false,
          "name": "metaJsonHash",
          "type": "string"
        }
      ],
      "name": "LogReviewAdded",
      "type": "event"
    },
    {
      "anonymous": false,
      "inputs": [
        {
          "indexed": false,
          "name": "validatorAddress",
          "type": "address"
        }
      ],
      "name": "LogValidatorAdded",
      "type": "event"
    },
    {
      "anonymous": false,
      "inputs": [
        {
          "indexed": true,
          "name": "reviewAddress",
          "type": "address"
        },
        {
          "indexed": true,
          "name": "validatorAddress",
          "type": "address"
        }
      ],
      "name": "LogValidatorChosen",
      "type": "event"
    },
    {
      "anonymous": false,
      "inputs": [
        {
          "indexed": true,
          "name": "reviewAddress",
          "type": "address"
        }
      ],
      "name": "LogReviewApproved",
      "type": "event"
    },
    {
      "anonymous": false,
      "inputs": [
        {
          "indexed": true,
          "name": "reviewAddress",
          "type": "address"
        }
      ],
      "name": "LogReviewRejected",
      "type": "event"
    },
    {
      "anonymous": false,
      "inputs": [
        {
          "indexed": true,
          "name": "previousOwner",
          "type": "address"
        },
        {
          "indexed": true,
          "name": "newOwner",
          "type": "address"
        }
      ],
      "name": "OwnershipTransferred",
      "type": "event"
    },
    {
      "constant": false,
      "inputs": [
        {
          "name": "publicKey",
          "type": "string"
        },
        {
          "name": "title",
          "type": "string"
        },
        {
          "name": "surveyJsonHash",
          "type": "string"
        },
        {
          "name": "rewardPerSurvey",
          "type": "uint256"
        },
        {
          "name": "maxAnswers",
          "type": "uint256"
        }
      ],
      "name": "createSurvey",
      "outputs": [],
      "payable": false,
      "stateMutability": "nonpayable",
      "type": "function"
    },
    {
      "constant": false,
      "inputs": [
        {
          "name": "surveyJsonHash",
          "type": "string"
        },
        {
          "name": "amount",
          "type": "uint256"
        }
      ],
      "name": "fundSurvey",
      "outputs": [],
      "payable": false,
      "stateMutability": "nonpayable",
      "type": "function"
    },
    {
      "constant": false,
      "inputs": [
        {
          "name": "surveyJsonHash",
          "type": "string"
        }
      ],
      "name": "startSurvey",
      "outputs": [],
      "payable": false,
      "stateMutability": "nonpayable",
      "type": "function"
    },
    {
      "constant": false,
      "inputs": [
        {
          "name": "surveyJsonHash",
          "type": "string"
        }
      ],
      "name": "completeSurvey",
      "outputs": [],
      "payable": false,
      "stateMutability": "nonpayable",
      "type": "function"
    },
    {
      "constant": true,
      "inputs": [
        {
          "name": "surveyJsonHash",
          "type": "string"
        }
      ],
      "name": "getFunds",
      "outputs": [
        {
          "name": "",
          "type": "uint256"
        }
      ],
      "payable": false,
      "stateMutability": "view",
      "type": "function"
    },
    {
      "constant": true,
      "inputs": [
        {
          "name": "surveyJsonHash",
          "type": "string"
        }
      ],
      "name": "getSurveyStatus",
      "outputs": [
        {
          "name": "",
          "type": "uint8"
        }
      ],
      "payable": false,
      "stateMutability": "view",
      "type": "function"
    },
    {
      "constant": false,
      "inputs": [
        {
          "name": "surveyJsonHash",
          "type": "string"
        },
        {
          "name": "answersJsonHash",
          "type": "string"
        }
      ],
      "name": "answerSurvey",
      "outputs": [
        {
          "name": "",
          "type": "bool"
        }
      ],
      "payable": false,
      "stateMutability": "nonpayable",
      "type": "function"
    },
    {
      "constant": true,
      "inputs": [
        {
          "name": "surveyJsonHash",
          "type": "string"
        },
        {
          "name": "user",
          "type": "address"
        }
      ],
      "name": "isSurveyAnsweredBy",
      "outputs": [
        {
          "name": "",
          "type": "bool"
        }
      ],
      "payable": false,
      "stateMutability": "view",
      "type": "function"
    },
    {
      "constant": false,
      "inputs": [
        {
          "name": "brandAddress",
          "type": "address"
        },
        {
          "name": "name",
          "type": "string"
        },
        {
          "name": "logo",
          "type": "string"
        },
        {
          "name": "metaJsonHash",
          "type": "string"
        }
      ],
      "name": "createBrand",
      "outputs": [],
      "payable": false,
      "stateMutability": "nonpayable",
      "type": "function"
    },
    {
      "constant": false,
      "inputs": [
        {
          "name": "productAddress",
          "type": "address"
        },
        {
          "name": "brandAddress",
          "type": "address"
        },
        {
          "name": "categoryId",
          "type": "uint256"
        },
        {
          "name": "subcategoryId",
          "type": "uint256"
        },
        {
          "name": "name",
          "type": "string"
        },
        {
          "name": "image",
          "type": "string"
        },
        {
          "name": "metaJsonHash",
          "type": "string"
        }
      ],
      "name": "createProduct",
      "outputs": [],
      "payable": false,
      "stateMutability": "nonpayable",
      "type": "function"
    },
    {
      "constant": false,
      "inputs": [
        {
          "name": "username",
          "type": "string"
        }
      ],
      "name": "registerUser",
      "outputs": [],
      "payable": false,
      "stateMutability": "nonpayable",
      "type": "function"
    },
    {
      "constant": true,
      "inputs": [
        {
          "name": "user",
          "type": "address"
        }
      ],
      "name": "getUsername",
      "outputs": [
        {
          "name": "",
          "type": "string"
        }
      ],
      "payable": false,
      "stateMutability": "view",
      "type": "function"
    },
    {
      "constant": true,
      "inputs": [
        {
          "name": "userAddress",
          "type": "address"
        }
      ],
      "name": "userExists",
      "outputs": [
        {
          "name": "",
          "type": "bool"
        }
      ],
      "payable": false,
      "stateMutability": "view",
      "type": "function"
    },
    {
      "constant": false,
      "inputs": [
        {
          "name": "reviewAddress",
          "type": "address"
        },
        {
          "name": "productAddress",
          "type": "address"
        },
        {
          "name": "score",
          "type": "uint256"
        },
        {
          "name": "metaJsonHash",
          "type": "string"
        }
      ],
      "name": "createReview",
      "outputs": [],
      "payable": false,
      "stateMutability": "nonpayable",
      "type": "function"
    },
    {
      "constant": true,
      "inputs": [
        {
          "name": "reviewAddress",
          "type": "address"
        }
      ],
      "name": "getReviewStatus",
      "outputs": [
        {
          "name": "",
          "type": "uint8"
        }
      ],
      "payable": false,
      "stateMutability": "view",
      "type": "function"
    },
    {
      "constant": true,
      "inputs": [
        {
          "name": "reviewAddress",
          "type": "address"
        },
        {
          "name": "validator",
          "type": "address"
        }
      ],
      "name": "isValidatorChosenForReview",
      "outputs": [
        {
          "name": "",
          "type": "bool"
        }
      ],
      "payable": false,
      "stateMutability": "view",
      "type": "function"
    },
    {
      "constant": false,
      "inputs": [
        {
          "name": "reviewAddress",
          "type": "address"
        },
        {
          "name": "vote",
          "type": "int256"
        }
      ],
      "name": "validatorVote",
      "outputs": [],
      "payable": false,
      "stateMutability": "nonpayable",
      "type": "function"
    },
    {
      "constant": false,
      "inputs": [
        {
          "name": "validatorAddress",
          "type": "address"
        }
      ],
      "name": "addValidator",
      "outputs": [],
      "payable": false,
      "stateMutability": "nonpayable",
      "type": "function"
    },
    {
      "constant": true,
      "inputs": [
        {
          "name": "author",
          "type": "address"
        }
      ],
      "name": "choseValidators",
      "outputs": [
        {
          "name": "",
          "type": "address[]"
        }
      ],
      "payable": false,
      "stateMutability": "view",
      "type": "function"
    }
  ],
  "bytecode": "0x60806040523480156200001157600080fd5b5060405160208062005e418339810180604052620000339190810190620000d1565b336000806101000a81548173ffffffffffffffffffffffffffffffffffffffff021916908373ffffffffffffffffffffffffffffffffffffffff16021790555080600160006101000a81548173ffffffffffffffffffffffffffffffffffffffff021916908373ffffffffffffffffffffffffffffffffffffffff160217905550506200011d565b6000620000c98251620000fd565b905092915050565b600060208284031215620000e457600080fd5b6000620000f484828501620000bb565b91505092915050565b600073ffffffffffffffffffffffffffffffffffffffff82169050919050565b615d14806200012d6000396000f30060806040526004361061011d576000357c0100000000000000000000000000000000000000000000000000000000900463ffffffff16806306ba9624146101225780630e666e491461014b578063123afe9e1461018857806321d77d94146101c55780632d0c9b1c146101ee5780634d238c8e1461022b5780635219fcdf14610254578063569ea5471461027d5780635a22283a146102ba578063704f1b94146102f75780638da5cb5b14610320578063970090901461034b578063b639c6c914610374578063bba6e36a146103b1578063c5b44712146103da578063ce43c03214610417578063d9e115d314610454578063e64f674714610491578063f2fde38b146104ba578063f420e184146104e3578063fc2fd1ca1461050c575b600080fd5b34801561012e57600080fd5b5061014960048036036101449190810190615119565b610535565b005b34801561015757600080fd5b50610172600480360361016d9190810190614e43565b6109a3565b60405161017f9190615817565b60405180910390f35b34801561019457600080fd5b506101af60048036036101aa9190810190614e43565b610a71565b6040516101bc91906157f5565b60405180910390f35b3480156101d157600080fd5b506101ec60048036036101e7919081019061521a565b610d10565b005b3480156101fa57600080fd5b5061021560048036036102109190810190615119565b610f2e565b6040516102229190615b00565b60405180910390f35b34801561023757600080fd5b50610252600480360361024d9190810190614e43565b610fa6565b005b34801561026057600080fd5b5061027b60048036036102769190810190615009565b6110a1565b005b34801561028957600080fd5b506102a4600480360361029f9190810190614e6c565b6115f0565b6040516102b19190615817565b60405180910390f35b3480156102c657600080fd5b506102e160048036036102dc9190810190614e43565b611da1565b6040516102ee9190615832565b60405180910390f35b34801561030357600080fd5b5061031e60048036036103199190810190615119565b611dfa565b005b34801561032c57600080fd5b50610335611f37565b60405161034291906156c7565b60405180910390f35b34801561035757600080fd5b50610372600480360361036d9190810190615119565b611f5c565b005b34801561038057600080fd5b5061039b60048036036103969190810190615119565b6123c9565b6040516103a8919061584d565b60405180910390f35b3480156103bd57600080fd5b506103d860048036036103d39190810190614f23565b61244e565b005b3480156103e657600080fd5b5061040160048036036103fc91908101906151ae565b61298d565b60405161040e9190615817565b60405180910390f35b34801561042357600080fd5b5061043e60048036036104399190810190614e43565b613389565b60405161044b9190615868565b60405180910390f35b34801561046057600080fd5b5061047b6004803603610476919081019061515a565b61346d565b6040516104889190615817565b60405180910390f35b34801561049d57600080fd5b506104b860048036036104b39190810190614ea8565b6135a8565b005b3480156104c657600080fd5b506104e160048036036104dc9190810190614e43565b61403c565b005b3480156104ef57600080fd5b5061050a600480360361050591908101906152d9565b614191565b005b34801561051857600080fd5b50610533600480360361052e9190810190615045565b61482e565b005b61053d614a05565b6002826040518082805190602001908083835b6020831015156105755780518252602082019150602081019050602083039250610550565b6001836020036101000a038019825116818451168082178552505050505050905001915050908152602001604051809103902061010060405190810160405290816000820160009054906101000a900473ffffffffffffffffffffffffffffffffffffffff1673ffffffffffffffffffffffffffffffffffffffff1673ffffffffffffffffffffffffffffffffffffffff168152602001600182018054600181600116156101000203166002900480601f0160208091040260200160405190810160405280929190818152602001828054600181600116156101000203166002900480156106a45780601f10610679576101008083540402835291602001916106a4565b820191906000526020600020905b81548152906001019060200180831161068757829003601f168201915b50505050508152602001600282018054600181600116156101000203166002900480601f0160208091040260200160405190810160405280929190818152602001828054600181600116156101000203166002900480156107465780601f1061071b57610100808354040283529160200191610746565b820191906000526020600020905b81548152906001019060200180831161072957829003601f168201915b50505050508152602001600382018054600181600116156101000203166002900480601f0160208091040260200160405190810160405280929190818152602001828054600181600116156101000203166002900480156107e85780601f106107bd576101008083540402835291602001916107e8565b820191906000526020600020905b8154815290600101906020018083116107cb57829003601f168201915b505050505081526020016004820154815260200160058201548152602001600682015481526020016007820160009054906101000a900460ff16600381111561082d57fe5b600381111561083857fe5b815250509050806000015173ffffffffffffffffffffffffffffffffffffffff163373ffffffffffffffffffffffffffffffffffffffff1614151561087c57600080fd5b6002600381111561088957fe5b8160e00151600381111561089957fe5b1415156108a557600080fd5b60036002836040518082805190602001908083835b6020831015156108df57805182526020820191506020810190506020830392506108ba565b6001836020036101000a038019825116818451168082178552505050505050905001915050908152602001604051809103902060070160006101000a81548160ff0219169083600381111561093057fe5b02179055503373ffffffffffffffffffffffffffffffffffffffff167f8d19faf08adf4f904aba4b47ace07c0c7c74712a6d39e931bff4dcbc25b5419582602001518360400151846060015185608001518660c00151604051610997959493929190615998565b60405180910390a25050565b6000604051806000019050604051809103902060001916600560008473ffffffffffffffffffffffffffffffffffffffff1673ffffffffffffffffffffffffffffffffffffffff1681526020019081526020016000206000016040518082805460018160011615610100020316600290048015610a575780601f10610a35576101008083540402835291820191610a57565b820191906000526020600020905b815481529060010190602001808311610a43575b505091505060405180910390206000191614159050919050565b6060600080600080606060008060008060006007808054905010151515610acd576040517f08c379a0000000000000000000000000000000000000000000000000000000008152600401610ac490615a40565b60405180910390fd5b8b73ffffffffffffffffffffffffffffffffffffffff169950434098508989604051602001808381526020018260001916600019168152602001925050506040516020818303038152906040526040518082805190602001908083835b602083101515610b4f5780518252602082019150602081019050602083039250610b2a565b6001836020036101000a038019825116818451168082178552505050505050905001915050604051809103902060019004975060078054905088811515610b9257fe5b0696506007604051908082528060200260200182016040528015610bc55781602001602082028038833980820191505090505b50955060009450600193505b6007851015610cfe5760078080549050858901811515610bed57fe5b06815481101515610bfa57fe5b9060005260206000200160009054906101000a900473ffffffffffffffffffffffffffffffffffffffff16925060009150600090505b8551811015610c96578273ffffffffffffffffffffffffffffffffffffffff168682815181101515610c5e57fe5b9060200190602002015173ffffffffffffffffffffffffffffffffffffffff161415610c8957600191505b8080600101915050610c30565b811515610cf157828686815181101515610cac57fe5b9060200190602002019073ffffffffffffffffffffffffffffffffffffffff16908173ffffffffffffffffffffffffffffffffffffffff168152505084806001019550505b8380600101945050610bd1565b859a5050505050505050505050919050565b610d18614a05565b610100604051908101604052803373ffffffffffffffffffffffffffffffffffffffff1681526020018781526020018681526020018581526020018481526020016000815260200183815260200160006003811115610d7357fe5b8152509050806002856040518082805190602001908083835b602083101515610db15780518252602082019150602081019050602083039250610d8c565b6001836020036101000a038019825116818451168082178552505050505050905001915050908152602001604051809103902060008201518160000160006101000a81548173ffffffffffffffffffffffffffffffffffffffff021916908373ffffffffffffffffffffffffffffffffffffffff1602179055506020820151816001019080519060200190610e47929190614a6c565b506040820151816002019080519060200190610e64929190614a6c565b506060820151816003019080519060200190610e81929190614a6c565b506080820151816004015560a0820151816005015560c0820151816006015560e08201518160070160006101000a81548160ff02191690836003811115610ec457fe5b02179055509050503373ffffffffffffffffffffffffffffffffffffffff167f95425f5f4392462c32fc4957d62e15f8589a263ec26ba4b863ca0bacfca39fe6826020015187878787604051610f1e959493929190615930565b60405180910390a2505050505050565b60006002826040518082805190602001908083835b602083101515610f685780518252602082019150602081019050602083039250610f43565b6001836020036101000a0380198251168184511680821785525050505050509050019150509081526020016040518091039020600501549050919050565b6000809054906101000a900473ffffffffffffffffffffffffffffffffffffffff1673ffffffffffffffffffffffffffffffffffffffff163373ffffffffffffffffffffffffffffffffffffffff1614151561100157600080fd5b60078190806001815401808255809150509060018203906000526020600020016000909192909190916101000a81548173ffffffffffffffffffffffffffffffffffffffff021916908373ffffffffffffffffffffffffffffffffffffffff160217905550507f4abba4877a811c10c94281a6a64a19db457ed00ca5e9c8dcd2563023d04771398160405161109691906156c7565b60405180910390a150565b600080600080600660008773ffffffffffffffffffffffffffffffffffffffff1673ffffffffffffffffffffffffffffffffffffffff1681526020019081526020016000209350600060028111156110f557fe5b84600d0160009054906101000a900460ff16600281111561111257fe5b141515611154576040517f08c379a000000000000000000000000000000000000000000000000000000000815260040161114b90615ae0565b60405180910390fd5b6000600660008873ffffffffffffffffffffffffffffffffffffffff1673ffffffffffffffffffffffffffffffffffffffff168152602001908152602001600020600f0160003373ffffffffffffffffffffffffffffffffffffffff1673ffffffffffffffffffffffffffffffffffffffff16815260200190815260200160002054141515611218576040517f08c379a000000000000000000000000000000000000000000000000000000000815260040161120f90615a60565b60405180910390fd5b61122286336115f0565b1515611263576040517f08c379a000000000000000000000000000000000000000000000000000000000815260040161125a90615a80565b60405180910390fd5b7fffffffffffffffffffffffffffffffffffffffffffffffffffffffffffffffff8514806112915750600185145b15156112d2576040517f08c379a00000000000000000000000000000000000000000000000000000000081526004016112c990615a20565b60405180910390fd5b84600660008873ffffffffffffffffffffffffffffffffffffffff1673ffffffffffffffffffffffffffffffffffffffff168152602001908152602001600020600f0160003373ffffffffffffffffffffffffffffffffffffffff1673ffffffffffffffffffffffffffffffffffffffff168152602001908152602001600020819055506001925060009150600090505b60078110156114845783600f01600085600e018381548110151561138357fe5b9060005260206000200160009054906101000a900473ffffffffffffffffffffffffffffffffffffffff1673ffffffffffffffffffffffffffffffffffffffff1673ffffffffffffffffffffffffffffffffffffffff1681526020019081526020016000205482019150600084600f01600086600e018481548110151561140657fe5b9060005260206000200160009054906101000a900473ffffffffffffffffffffffffffffffffffffffff1673ffffffffffffffffffffffffffffffffffffffff1673ffffffffffffffffffffffffffffffffffffffff16815260200190815260200160002054141561147757600092505b8080600101915050611363565b82156115e857600082131561153f576001600660008873ffffffffffffffffffffffffffffffffffffffff1673ffffffffffffffffffffffffffffffffffffffff168152602001908152602001600020600d0160006101000a81548160ff021916908360028111156114f257fe5b02179055508573ffffffffffffffffffffffffffffffffffffffff167f8d67778d3c84e090f29350f79de7d2e71f7cfecc900ac3aa3b6bf8c9839eb2b260405160405180910390a26115e7565b6002600660008873ffffffffffffffffffffffffffffffffffffffff1673ffffffffffffffffffffffffffffffffffffffff168152602001908152602001600020600d0160006101000a81548160ff0219169083600281111561159e57fe5b02179055508573ffffffffffffffffffffffffffffffffffffffff167f2224994bc80d3e59016dcf8b2c998bb03418f92f4ecec1eab1a01d2e40f7084060405160405180910390a25b5b505050505050565b60006115fa614aec565b600080600660008773ffffffffffffffffffffffffffffffffffffffff1673ffffffffffffffffffffffffffffffffffffffff16815260200190815260200160002060c060405190810160405290816000820160206040519081016040529081600082018054600181600116156101000203166002900480601f0160208091040260200160405190810160405280929190818152602001828054600181600116156101000203166002900480156116f25780601f106116c7576101008083540402835291602001916116f2565b820191906000526020600020905b8154815290600101906020018083116116d557829003601f168201915b50505050508152505081526020016001820160e060405190810160405290816000820160009054906101000a900473ffffffffffffffffffffffffffffffffffffffff1673ffffffffffffffffffffffffffffffffffffffff1673ffffffffffffffffffffffffffffffffffffffff16815260200160018201608060405190810160405290816000820160009054906101000a900473ffffffffffffffffffffffffffffffffffffffff1673ffffffffffffffffffffffffffffffffffffffff1673ffffffffffffffffffffffffffffffffffffffff168152602001600182018054600181600116156101000203166002900480601f0160208091040260200160405190810160405280929190818152602001828054600181600116156101000203166002900480156118665780601f1061183b57610100808354040283529160200191611866565b820191906000526020600020905b81548152906001019060200180831161184957829003601f168201915b50505050508152602001600282018054600181600116156101000203166002900480601f0160208091040260200160405190810160405280929190818152602001828054600181600116156101000203166002900480156119085780601f106118dd57610100808354040283529160200191611908565b820191906000526020600020905b8154815290600101906020018083116118eb57829003601f168201915b50505050508152602001600382018054600181600116156101000203166002900480601f0160208091040260200160405190810160405280929190818152602001828054600181600116156101000203166002900480156119aa5780601f1061197f576101008083540402835291602001916119aa565b820191906000526020600020905b81548152906001019060200180831161198d57829003601f168201915b50505050508152505081526020016005820154815260200160068201548152602001600782018054600181600116156101000203166002900480601f016020809104026020016040519081016040528092919081815260200182805460018160011615610100020316600290048015611a645780601f10611a3957610100808354040283529160200191611a64565b820191906000526020600020905b815481529060010190602001808311611a4757829003601f168201915b50505050508152602001600882018054600181600116156101000203166002900480601f016020809104026020016040519081016040528092919081815260200182805460018160011615610100020316600290048015611b065780601f10611adb57610100808354040283529160200191611b06565b820191906000526020600020905b815481529060010190602001808311611ae957829003601f168201915b50505050508152602001600982018054600181600116156101000203166002900480601f016020809104026020016040519081016040528092919081815260200182805460018160011615610100020316600290048015611ba85780601f10611b7d57610100808354040283529160200191611ba8565b820191906000526020600020905b815481529060010190602001808311611b8b57829003601f168201915b5050505050815250508152602001600b8201548152602001600c82018054600181600116156101000203166002900480601f016020809104026020016040519081016040528092919081815260200182805460018160011615610100020316600290048015611c585780601f10611c2d57610100808354040283529160200191611c58565b820191906000526020600020905b815481529060010190602001808311611c3b57829003601f168201915b50505050508152602001600d820160009054906101000a900460ff166002811115611c7f57fe5b6002811115611c8a57fe5b8152602001600e8201805480602002602001604051908101604052809291908181526020018280548015611d1357602002820191906000526020600020905b8160009054906101000a900473ffffffffffffffffffffffffffffffffffffffff1673ffffffffffffffffffffffffffffffffffffffff1681526020019060010190808311611cc9575b505050505081525050925060009150600090505b8260a0015151811015611d95578473ffffffffffffffffffffffffffffffffffffffff168360a0015182815181101515611d5d57fe5b9060200190602002015173ffffffffffffffffffffffffffffffffffffffff161415611d8857600191505b8080600101915050611d27565b81935050505092915050565b6000600660008373ffffffffffffffffffffffffffffffffffffffff1673ffffffffffffffffffffffffffffffffffffffff168152602001908152602001600020600d0160009054906101000a900460ff169050919050565b611e02614b3b565b604051806000019050604051809103902060001916826040518082805190602001908083835b602083101515611e4d5780518252602082019150602081019050602083039250611e28565b6001836020036101000a03801982511681845116808217855250505050505090500191505060405180910390206000191614151515611ec1576040517f08c379a0000000000000000000000000000000000000000000000000000000008152600401611eb890615aa0565b60405180910390fd5b60206040519081016040528083815250905080600560003373ffffffffffffffffffffffffffffffffffffffff1673ffffffffffffffffffffffffffffffffffffffff1681526020019081526020016000206000820151816000019080519060200190611f2f929190614a6c565b509050505050565b6000809054906101000a900473ffffffffffffffffffffffffffffffffffffffff1681565b611f64614a05565b6002826040518082805190602001908083835b602083101515611f9c5780518252602082019150602081019050602083039250611f77565b6001836020036101000a038019825116818451168082178552505050505050905001915050908152602001604051809103902061010060405190810160405290816000820160009054906101000a900473ffffffffffffffffffffffffffffffffffffffff1673ffffffffffffffffffffffffffffffffffffffff1673ffffffffffffffffffffffffffffffffffffffff168152602001600182018054600181600116156101000203166002900480601f0160208091040260200160405190810160405280929190818152602001828054600181600116156101000203166002900480156120cb5780601f106120a0576101008083540402835291602001916120cb565b820191906000526020600020905b8154815290600101906020018083116120ae57829003601f168201915b50505050508152602001600282018054600181600116156101000203166002900480601f01602080910402602001604051908101604052809291908181526020018280546001816001161561010002031660029004801561216d5780601f106121425761010080835404028352916020019161216d565b820191906000526020600020905b81548152906001019060200180831161215057829003601f168201915b50505050508152602001600382018054600181600116156101000203166002900480601f01602080910402602001604051908101604052809291908181526020018280546001816001161561010002031660029004801561220f5780601f106121e45761010080835404028352916020019161220f565b820191906000526020600020905b8154815290600101906020018083116121f257829003601f168201915b505050505081526020016004820154815260200160058201548152602001600682015481526020016007820160009054906101000a900460ff16600381111561225457fe5b600381111561225f57fe5b815250509050806000015173ffffffffffffffffffffffffffffffffffffffff163373ffffffffffffffffffffffffffffffffffffffff161415156122a357600080fd5b600160038111156122b057fe5b8160e0015160038111156122c057fe5b1415156122cc57600080fd5b600280836040518082805190602001908083835b60208310151561230557805182526020820191506020810190506020830392506122e0565b6001836020036101000a038019825116818451168082178552505050505050905001915050908152602001604051809103902060070160006101000a81548160ff0219169083600381111561235657fe5b02179055503373ffffffffffffffffffffffffffffffffffffffff167fd2e59155eb79323d200530a040ef34592cb14783597fd17fbb14bfdfa241a19c82602001518360400151846060015185608001518660c001516040516123bd959493929190615998565b60405180910390a25050565b60006002826040518082805190602001908083835b60208310151561240357805182526020820191506020810190506020830392506123de565b6001836020036101000a038019825116818451168082178552505050505050905001915050908152602001604051809103902060070160009054906101000a900460ff169050919050565b612456614b4f565b61245e614b8e565b6000809054906101000a900473ffffffffffffffffffffffffffffffffffffffff1673ffffffffffffffffffffffffffffffffffffffff163373ffffffffffffffffffffffffffffffffffffffff161415156124b957600080fd5b600360008973ffffffffffffffffffffffffffffffffffffffff1673ffffffffffffffffffffffffffffffffffffffff168152602001908152602001600020608060405190810160405290816000820160009054906101000a900473ffffffffffffffffffffffffffffffffffffffff1673ffffffffffffffffffffffffffffffffffffffff1673ffffffffffffffffffffffffffffffffffffffff168152602001600182018054600181600116156101000203166002900480601f0160208091040260200160405190810160405280929190818152602001828054600181600116156101000203166002900480156125f35780601f106125c8576101008083540402835291602001916125f3565b820191906000526020600020905b8154815290600101906020018083116125d657829003601f168201915b50505050508152602001600282018054600181600116156101000203166002900480601f0160208091040260200160405190810160405280929190818152602001828054600181600116156101000203166002900480156126955780601f1061266a57610100808354040283529160200191612695565b820191906000526020600020905b81548152906001019060200180831161267857829003601f168201915b50505050508152602001600382018054600181600116156101000203166002900480601f0160208091040260200160405190810160405280929190818152602001828054600181600116156101000203166002900480156127375780601f1061270c57610100808354040283529160200191612737565b820191906000526020600020905b81548152906001019060200180831161271a57829003601f168201915b505050505081525050915060e0604051908101604052803373ffffffffffffffffffffffffffffffffffffffff16815260200183815260200188815260200187815260200186815260200185815260200184815250905080600460008a73ffffffffffffffffffffffffffffffffffffffff1673ffffffffffffffffffffffffffffffffffffffff16815260200190815260200160002060008201518160000160006101000a81548173ffffffffffffffffffffffffffffffffffffffff021916908373ffffffffffffffffffffffffffffffffffffffff16021790555060208201518160010160008201518160000160006101000a81548173ffffffffffffffffffffffffffffffffffffffff021916908373ffffffffffffffffffffffffffffffffffffffff1602179055506020820151816001019080519060200190612881929190614a6c565b50604082015181600201908051906020019061289e929190614a6c565b5060608201518160030190805190602001906128bb929190614a6c565b505050604082015181600501556060820151816006015560808201518160070190805190602001906128ee929190614a6c565b5060a082015181600801908051906020019061290b929190614a6c565b5060c0820151816009019080519060200190612928929190614a6c565b5090505085878973ffffffffffffffffffffffffffffffffffffffff167fa8eb483ae0b26d661084885c61d6b3d1e261e6c23de036d2f9ce374aad8664e28c89898960405161297a9493929190615772565b60405180910390a4505050505050505050565b6000612997614a05565b6002846040518082805190602001908083835b6020831015156129cf57805182526020820191506020810190506020830392506129aa565b6001836020036101000a038019825116818451168082178552505050505050905001915050908152602001604051809103902061010060405190810160405290816000820160009054906101000a900473ffffffffffffffffffffffffffffffffffffffff1673ffffffffffffffffffffffffffffffffffffffff1673ffffffffffffffffffffffffffffffffffffffff168152602001600182018054600181600116156101000203166002900480601f016020809104026020016040519081016040528092919081815260200182805460018160011615610100020316600290048015612afe5780601f10612ad357610100808354040283529160200191612afe565b820191906000526020600020905b815481529060010190602001808311612ae157829003601f168201915b50505050508152602001600282018054600181600116156101000203166002900480601f016020809104026020016040519081016040528092919081815260200182805460018160011615610100020316600290048015612ba05780601f10612b7557610100808354040283529160200191612ba0565b820191906000526020600020905b815481529060010190602001808311612b8357829003601f168201915b50505050508152602001600382018054600181600116156101000203166002900480601f016020809104026020016040519081016040528092919081815260200182805460018160011615610100020316600290048015612c425780601f10612c1757610100808354040283529160200191612c42565b820191906000526020600020905b815481529060010190602001808311612c2557829003601f168201915b505050505081526020016004820154815260200160058201548152602001600682015481526020016007820160009054906101000a900460ff166003811115612c8757fe5b6003811115612c9257fe5b815250509050604051806000019050604051809103902060001916836040518082805190602001908083835b602083101515612ce35780518252602082019150602081019050602083039250612cbe565b6001836020036101000a03801982511681845116808217855250505050505090500191505060405180910390206000191614151515612d2157600080fd5b604051806000019050604051809103902060001916846040518082805190602001908083835b602083101515612d6c5780518252602082019150602081019050602083039250612d47565b6001836020036101000a03801982511681845116808217855250505050505090500191505060405180910390206000191614151515612daa57600080fd5b60026003811115612db757fe5b8160e001516003811115612dc757fe5b141515612dd357600080fd5b6040518060000190506040518091039020600019166002856040518082805190602001908083835b602083101515612e205780518252602082019150602081019050602083039250612dfb565b6001836020036101000a038019825116818451168082178552505050505050905001915050908152602001604051809103902060080160003373ffffffffffffffffffffffffffffffffffffffff1673ffffffffffffffffffffffffffffffffffffffff1681526020019081526020016000206000016040518082805460018160011615610100020316600290048015612ef15780601f10612ecf576101008083540402835291820191612ef1565b820191906000526020600020905b815481529060010190602001808311612edd575b5050915050604051809103902060001916141515612f0e57600080fd5b602060405190810160405280848152506002856040518082805190602001908083835b602083101515612f565780518252602082019150602081019050602083039250612f31565b6001836020036101000a038019825116818451168082178552505050505050905001915050908152602001604051809103902060080160003373ffffffffffffffffffffffffffffffffffffffff1673ffffffffffffffffffffffffffffffffffffffff1681526020019081526020016000206000820151816000019080519060200190612fe5929190614a6c565b50905050600160009054906101000a900473ffffffffffffffffffffffffffffffffffffffff1673ffffffffffffffffffffffffffffffffffffffff1663a9059cbb3383608001516040518363ffffffff167c01000000000000000000000000000000000000000000000000000000000281526004016130669291906157cc565b602060405180830381600087803b15801561308057600080fd5b505af1158015613094573d6000803e3d6000fd5b505050506040513d601f19601f820116820180604052506130b891908101906150f0565b15156130c357600080fd5b6002846040518082805190602001908083835b6020831015156130fb57805182526020820191506020810190506020830392506130d6565b6001836020036101000a0380198251168184511680821785525050505050509050019150509081526020016040518091039020600401546002856040518082805190602001908083835b60208310151561316a5780518252602082019150602081019050602083039250613145565b6001836020036101000a0380198251168184511680821785525050505050509050019150509081526020016040518091039020600501600082825403925050819055503373ffffffffffffffffffffffffffffffffffffffff167f34c6e4292ec4c54b9ebd046067b22da7c48f22dba9723a4b79b837e3a191a5d685858460400151856080015160405161320194939291906158d6565b60405180910390a280608001516002856040518082805190602001908083835b6020831015156132465780518252602082019150602081019050602083039250613221565b6001836020036101000a03801982511681845116808217855250505050505090500191505090815260200160405180910390206005015410156133825760036002856040518082805190602001908083835b6020831015156132bd5780518252602082019150602081019050602083039250613298565b6001836020036101000a038019825116818451168082178552505050505050905001915050908152602001604051809103902060070160006101000a81548160ff0219169083600381111561330e57fe5b0217905550806000015173ffffffffffffffffffffffffffffffffffffffff167f8d19faf08adf4f904aba4b47ace07c0c7c74712a6d39e931bff4dcbc25b5419582602001518360400151846060015185608001518660c00151604051613379959493929190615998565b60405180910390a25b5092915050565b6060600560008373ffffffffffffffffffffffffffffffffffffffff1673ffffffffffffffffffffffffffffffffffffffff1681526020019081526020016000206000018054600181600116156101000203166002900480601f0160208091040260200160405190810160405280929190818152602001828054600181600116156101000203166002900480156134615780601f1061343657610100808354040283529160200191613461565b820191906000526020600020905b81548152906001019060200180831161344457829003601f168201915b50505050509050919050565b60006040518060000190506040518091039020600019166002846040518082805190602001908083835b6020831015156134bc5780518252602082019150602081019050602083039250613497565b6001836020036101000a038019825116818451168082178552505050505050905001915050908152602001604051809103902060080160008473ffffffffffffffffffffffffffffffffffffffff1673ffffffffffffffffffffffffffffffffffffffff168152602001908152602001600020600001604051808280546001816001161561010002031660029004801561358d5780601f1061356b57610100808354040283529182019161358d565b820191906000526020600020905b815481529060010190602001808311613579575b50509150506040518091039020600019161415905092915050565b6135b0614b3b565b6135b8614b8e565b6135c0614aec565b6000600186101580156135d4575060048611155b1515613615576040517f08c379a000000000000000000000000000000000000000000000000000000000815260040161360c90615ac0565b60405180910390fd5b600560003373ffffffffffffffffffffffffffffffffffffffff1673ffffffffffffffffffffffffffffffffffffffff16815260200190815260200160002060206040519081016040529081600082018054600181600116156101000203166002900480601f0160208091040260200160405190810160405280929190818152602001828054600181600116156101000203166002900480156136f95780601f106136ce576101008083540402835291602001916136f9565b820191906000526020600020905b8154815290600101906020018083116136dc57829003601f168201915b505050505081525050935060405180600001905060405180910390206000191684600001516040518082805190602001908083835b602083101515613753578051825260208201915060208101905060208303925061372e565b6001836020036101000a038019825116818451168082178552505050505050905001915050604051809103902060001916141515156137c7576040517f08c379a00000000000000000000000000000000000000000000000000000000081526004016137be90615a00565b60405180910390fd5b600460008873ffffffffffffffffffffffffffffffffffffffff1673ffffffffffffffffffffffffffffffffffffffff16815260200190815260200160002060e060405190810160405290816000820160009054906101000a900473ffffffffffffffffffffffffffffffffffffffff1673ffffffffffffffffffffffffffffffffffffffff1673ffffffffffffffffffffffffffffffffffffffff16815260200160018201608060405190810160405290816000820160009054906101000a900473ffffffffffffffffffffffffffffffffffffffff1673ffffffffffffffffffffffffffffffffffffffff1673ffffffffffffffffffffffffffffffffffffffff168152602001600182018054600181600116156101000203166002900480601f0160208091040260200160405190810160405280929190818152602001828054600181600116156101000203166002900480156139685780601f1061393d57610100808354040283529160200191613968565b820191906000526020600020905b81548152906001019060200180831161394b57829003601f168201915b50505050508152602001600282018054600181600116156101000203166002900480601f016020809104026020016040519081016040528092919081815260200182805460018160011615610100020316600290048015613a0a5780601f106139df57610100808354040283529160200191613a0a565b820191906000526020600020905b8154815290600101906020018083116139ed57829003601f168201915b50505050508152602001600382018054600181600116156101000203166002900480601f016020809104026020016040519081016040528092919081815260200182805460018160011615610100020316600290048015613aac5780601f10613a8157610100808354040283529160200191613aac565b820191906000526020600020905b815481529060010190602001808311613a8f57829003601f168201915b50505050508152505081526020016005820154815260200160068201548152602001600782018054600181600116156101000203166002900480601f016020809104026020016040519081016040528092919081815260200182805460018160011615610100020316600290048015613b665780601f10613b3b57610100808354040283529160200191613b66565b820191906000526020600020905b815481529060010190602001808311613b4957829003601f168201915b50505050508152602001600882018054600181600116156101000203166002900480601f016020809104026020016040519081016040528092919081815260200182805460018160011615610100020316600290048015613c085780601f10613bdd57610100808354040283529160200191613c08565b820191906000526020600020905b815481529060010190602001808311613beb57829003601f168201915b50505050508152602001600982018054600181600116156101000203166002900480601f016020809104026020016040519081016040528092919081815260200182805460018160011615610100020316600290048015613caa5780601f10613c7f57610100808354040283529160200191613caa565b820191906000526020600020905b815481529060010190602001808311613c8d57829003601f168201915b505050505081525050925060c06040519081016040528085815260200184815260200187815260200186815260200160006002811115613ce657fe5b8152602001613cf433610a71565b815250915081600660008a73ffffffffffffffffffffffffffffffffffffffff1673ffffffffffffffffffffffffffffffffffffffff1681526020019081526020016000206000820151816000016000820151816000019080519060200190613d5e929190614a6c565b50505060208201518160010160008201518160000160006101000a81548173ffffffffffffffffffffffffffffffffffffffff021916908373ffffffffffffffffffffffffffffffffffffffff16021790555060208201518160010160008201518160000160006101000a81548173ffffffffffffffffffffffffffffffffffffffff021916908373ffffffffffffffffffffffffffffffffffffffff1602179055506020820151816001019080519060200190613e1d929190614a6c565b506040820151816002019080519060200190613e3a929190614a6c565b506060820151816003019080519060200190613e57929190614a6c565b50505060408201518160050155606082015181600601556080820151816007019080519060200190613e8a929190614a6c565b5060a0820151816008019080519060200190613ea7929190614a6c565b5060c0820151816009019080519060200190613ec4929190614a6c565b505050604082015181600b0155606082015181600c019080519060200190613eed929190614a6c565b50608082015181600d0160006101000a81548160ff02191690836002811115613f1257fe5b021790555060a082015181600e019080519060200190613f33929190614be9565b50905050600090505b8160a0015151811015613fcb578160a0015181815181101515613f5b57fe5b9060200190602002015173ffffffffffffffffffffffffffffffffffffffff168873ffffffffffffffffffffffffffffffffffffffff167f516fad89f67e240d0a64ec70fafc3d3e19cbef89cf5d91598b143a101e4dbf1b60405160405180910390a38080600101915050613f3c565b8673ffffffffffffffffffffffffffffffffffffffff163373ffffffffffffffffffffffffffffffffffffffff167fc8e93948f0d856bad2f514ddd6a9379aabdc542c58efc5f44619ecf11dbe90328a8860405161402a929190615742565b60405180910390a35050505050505050565b6000809054906101000a900473ffffffffffffffffffffffffffffffffffffffff1673ffffffffffffffffffffffffffffffffffffffff163373ffffffffffffffffffffffffffffffffffffffff1614151561409757600080fd5b600073ffffffffffffffffffffffffffffffffffffffff168173ffffffffffffffffffffffffffffffffffffffff16141515156140d357600080fd5b8073ffffffffffffffffffffffffffffffffffffffff166000809054906101000a900473ffffffffffffffffffffffffffffffffffffffff1673ffffffffffffffffffffffffffffffffffffffff167f8be0079c531659141344cd1fd0a4f28419497f9722a3daafe3b4186f6b6457e060405160405180910390a3806000806101000a81548173ffffffffffffffffffffffffffffffffffffffff021916908373ffffffffffffffffffffffffffffffffffffffff16021790555050565b614199614a05565b60006002846040518082805190602001908083835b6020831015156141d357805182526020820191506020810190506020830392506141ae565b6001836020036101000a038019825116818451168082178552505050505050905001915050908152602001604051809103902061010060405190810160405290816000820160009054906101000a900473ffffffffffffffffffffffffffffffffffffffff1673ffffffffffffffffffffffffffffffffffffffff1673ffffffffffffffffffffffffffffffffffffffff168152602001600182018054600181600116156101000203166002900480601f0160208091040260200160405190810160405280929190818152602001828054600181600116156101000203166002900480156143025780601f106142d757610100808354040283529160200191614302565b820191906000526020600020905b8154815290600101906020018083116142e557829003601f168201915b50505050508152602001600282018054600181600116156101000203166002900480601f0160208091040260200160405190810160405280929190818152602001828054600181600116156101000203166002900480156143a45780601f10614379576101008083540402835291602001916143a4565b820191906000526020600020905b81548152906001019060200180831161438757829003601f168201915b50505050508152602001600382018054600181600116156101000203166002900480601f0160208091040260200160405190810160405280929190818152602001828054600181600116156101000203166002900480156144465780601f1061441b57610100808354040283529160200191614446565b820191906000526020600020905b81548152906001019060200180831161442957829003601f168201915b505050505081526020016004820154815260200160058201548152602001600682015481526020016007820160009054906101000a900460ff16600381111561448b57fe5b600381111561449657fe5b815250509150816000015173ffffffffffffffffffffffffffffffffffffffff163373ffffffffffffffffffffffffffffffffffffffff161415156144da57600080fd5b600160009054906101000a900473ffffffffffffffffffffffffffffffffffffffff1673ffffffffffffffffffffffffffffffffffffffff1663dd62ed3e33306040518363ffffffff167c01000000000000000000000000000000000000000000000000000000000281526004016145539291906156e2565b602060405180830381600087803b15801561456d57600080fd5b505af1158015614581573d6000803e3d6000fd5b505050506040513d601f19601f820116820180604052506145a5919081019061532d565b90508281101515156145b657600080fd5b600160009054906101000a900473ffffffffffffffffffffffffffffffffffffffff1673ffffffffffffffffffffffffffffffffffffffff166323b872dd3330866040518463ffffffff167c01000000000000000000000000000000000000000000000000000000000281526004016146319392919061570b565b602060405180830381600087803b15801561464b57600080fd5b505af115801561465f573d6000803e3d6000fd5b505050506040513d601f19601f8201168201806040525061468391908101906150f0565b151561468e57600080fd5b826002856040518082805190602001908083835b6020831015156146c757805182526020820191506020810190506020830392506146a2565b6001836020036101000a0380198251168184511680821785525050505050509050019150509081526020016040518091039020600501600082825401925050819055506000600381111561471757fe5b8260e00151600381111561472757fe5b14156147be5760016002856040518082805190602001908083835b6020831015156147675780518252602082019150602081019050602083039250614742565b6001836020036101000a038019825116818451168082178552505050505050905001915050908152602001604051809103902060070160006101000a81548160ff021916908360038111156147b857fe5b02179055505b3373ffffffffffffffffffffffffffffffffffffffff167f7d703b99136412be3113d8613d984b3314e5afef7799b73dbc59f0dc66ae2b7f83602001518460400151856060015186608001518760c00151604051614820959493929190615998565b60405180910390a250505050565b614836614b4f565b6000809054906101000a900473ffffffffffffffffffffffffffffffffffffffff1673ffffffffffffffffffffffffffffffffffffffff163373ffffffffffffffffffffffffffffffffffffffff1614151561489157600080fd5b6080604051908101604052803373ffffffffffffffffffffffffffffffffffffffff16815260200185815260200184815260200183815250905080600360008773ffffffffffffffffffffffffffffffffffffffff1673ffffffffffffffffffffffffffffffffffffffff16815260200190815260200160002060008201518160000160006101000a81548173ffffffffffffffffffffffffffffffffffffffff021916908373ffffffffffffffffffffffffffffffffffffffff160217905550602082015181600101908051906020019061496e929190614a6c565b50604082015181600201908051906020019061498b929190614a6c565b5060608201518160030190805190602001906149a8929190614a6c565b509050508473ffffffffffffffffffffffffffffffffffffffff167f93344bf09616cc759180686da113c69c7179b2ffe0492c8714a97a99a2f912748585856040516149f69392919061588a565b60405180910390a25050505050565b61010060405190810160405280600073ffffffffffffffffffffffffffffffffffffffff16815260200160608152602001606081526020016060815260200160008152602001600081526020016000815260200160006003811115614a6657fe5b81525090565b828054600181600116156101000203166002900490600052602060002090601f016020900481019282601f10614aad57805160ff1916838001178555614adb565b82800160010185558215614adb579182015b82811115614ada578251825591602001919060010190614abf565b5b509050614ae89190614c73565b5090565b6101e060405190810160405280614b01614c98565b8152602001614b0e614cac565b8152602001600081526020016060815260200160006002811115614b2e57fe5b8152602001606081525090565b602060405190810160405280606081525090565b608060405190810160405280600073ffffffffffffffffffffffffffffffffffffffff1681526020016060815260200160608152602001606081525090565b61014060405190810160405280600073ffffffffffffffffffffffffffffffffffffffff168152602001614bc0614d07565b815260200160008152602001600081526020016060815260200160608152602001606081525090565b828054828255906000526020600020908101928215614c62579160200282015b82811115614c615782518260006101000a81548173ffffffffffffffffffffffffffffffffffffffff021916908373ffffffffffffffffffffffffffffffffffffffff16021790555091602001919060010190614c09565b5b509050614c6f9190614d46565b5090565b614c9591905b80821115614c91576000816000905550600101614c79565b5090565b90565b602060405190810160405280606081525090565b61014060405190810160405280600073ffffffffffffffffffffffffffffffffffffffff168152602001614cde614d07565b815260200160008152602001600081526020016060815260200160608152602001606081525090565b608060405190810160405280600073ffffffffffffffffffffffffffffffffffffffff1681526020016060815260200160608152602001606081525090565b614d8691905b80821115614d8257600081816101000a81549073ffffffffffffffffffffffffffffffffffffffff021916905550600101614d4c565b5090565b90565b6000614d958235615c11565b905092915050565b6000614da98251615c31565b905092915050565b6000614dbd8235615c3d565b905092915050565b600082601f8301121515614dd857600080fd5b8135614deb614de682615b48565b615b1b565b91508082526020830160208301858383011115614e0757600080fd5b614e12838284615c87565b50505092915050565b6000614e278235615c47565b905092915050565b6000614e3b8251615c47565b905092915050565b600060208284031215614e5557600080fd5b6000614e6384828501614d89565b91505092915050565b60008060408385031215614e7f57600080fd5b6000614e8d85828601614d89565b9250506020614e9e85828601614d89565b9150509250929050565b60008060008060808587031215614ebe57600080fd5b6000614ecc87828801614d89565b9450506020614edd87828801614d89565b9350506040614eee87828801614e1b565b925050606085013567ffffffffffffffff811115614f0b57600080fd5b614f1787828801614dc5565b91505092959194509250565b600080600080600080600060e0888a031215614f3e57600080fd5b6000614f4c8a828b01614d89565b9750506020614f5d8a828b01614d89565b9650506040614f6e8a828b01614e1b565b9550506060614f7f8a828b01614e1b565b945050608088013567ffffffffffffffff811115614f9c57600080fd5b614fa88a828b01614dc5565b93505060a088013567ffffffffffffffff811115614fc557600080fd5b614fd18a828b01614dc5565b92505060c088013567ffffffffffffffff811115614fee57600080fd5b614ffa8a828b01614dc5565b91505092959891949750929550565b6000806040838503121561501c57600080fd5b600061502a85828601614d89565b925050602061503b85828601614db1565b9150509250929050565b6000806000806080858703121561505b57600080fd5b600061506987828801614d89565b945050602085013567ffffffffffffffff81111561508657600080fd5b61509287828801614dc5565b935050604085013567ffffffffffffffff8111156150af57600080fd5b6150bb87828801614dc5565b925050606085013567ffffffffffffffff8111156150d857600080fd5b6150e487828801614dc5565b91505092959194509250565b60006020828403121561510257600080fd5b600061511084828501614d9d565b91505092915050565b60006020828403121561512b57600080fd5b600082013567ffffffffffffffff81111561514557600080fd5b61515184828501614dc5565b91505092915050565b6000806040838503121561516d57600080fd5b600083013567ffffffffffffffff81111561518757600080fd5b61519385828601614dc5565b92505060206151a485828601614d89565b9150509250929050565b600080604083850312156151c157600080fd5b600083013567ffffffffffffffff8111156151db57600080fd5b6151e785828601614dc5565b925050602083013567ffffffffffffffff81111561520457600080fd5b61521085828601614dc5565b9150509250929050565b600080600080600060a0868803121561523257600080fd5b600086013567ffffffffffffffff81111561524c57600080fd5b61525888828901614dc5565b955050602086013567ffffffffffffffff81111561527557600080fd5b61528188828901614dc5565b945050604086013567ffffffffffffffff81111561529e57600080fd5b6152aa88828901614dc5565b93505060606152bb88828901614e1b565b92505060806152cc88828901614e1b565b9150509295509295909350565b600080604083850312156152ec57600080fd5b600083013567ffffffffffffffff81111561530657600080fd5b61531285828601614dc5565b925050602061532385828601614e1b565b9150509250929050565b60006020828403121561533f57600080fd5b600061534d84828501614e2f565b91505092915050565b61535f81615baf565b82525050565b600061537082615b81565b80845260208401935061538283615b74565b60005b828110156153b457615398868351615356565b6153a182615ba2565b9150602086019550600181019050615385565b50849250505092915050565b6153c981615bcf565b82525050565b6153d881615c51565b82525050565b6153e781615c63565b82525050565b6153f681615c75565b82525050565b600061540782615b97565b80845261541b816020860160208601615c96565b61542481615cc9565b602085010191505092915050565b600061543d82615b8c565b808452615451816020860160208601615c96565b61545a81615cc9565b602085010191505092915050565b6000603882527f596f7520617265206e6f7420726567697374657265642061732061207573657260208301527f2e20506c656173652072656769737465722066697273742100000000000000006040830152606082019050919050565b6000601582527f566f7465206d757374206265202d31206f7220312e00000000000000000000006020830152604082019050919050565b6000602482527f4e6f7420656e6f7567682076616c696461746f727320696e207468652073797360208301527f74656d21000000000000000000000000000000000000000000000000000000006040830152606082019050919050565b6000602182527f596f7520616c726561647920766f746564206f6e20746869732072657669657760208301527f2e000000000000000000000000000000000000000000000000000000000000006040830152606082019050919050565b6000602b82527f596f7520617265206e6f742063686f73656e20746f2076616c6964617465207460208301527f686973207265766965772e0000000000000000000000000000000000000000006040830152606082019050919050565b6000601782527f557365726e616d652063616e277420626520656d7074790000000000000000006020830152604082019050919050565b6000601d82527f53636f7265206d757374206265206265747765656e203120616e6420340000006020830152604082019050919050565b6000601982527f52657669657720616c72656164792076616c6964617465642e000000000000006020830152604082019050919050565b6156c181615c07565b82525050565b60006020820190506156dc6000830184615356565b92915050565b60006040820190506156f76000830185615356565b61570460208301846153cf565b9392505050565b60006060820190506157206000830186615356565b61572d60208301856153cf565b61573a60408301846156b8565b949350505050565b60006040820190506157576000830185615356565b818103602083015261576981846153fc565b90509392505050565b60006080820190506157876000830187615356565b818103602083015261579981866153fc565b905081810360408301526157ad81856153fc565b905081810360608301526157c181846153fc565b905095945050505050565b60006040820190506157e16000830185615356565b6157ee60208301846156b8565b9392505050565b6000602082019050818103600083015261580f8184615365565b905092915050565b600060208201905061582c60008301846153c0565b92915050565b600060208201905061584760008301846153de565b92915050565b600060208201905061586260008301846153ed565b92915050565b6000602082019050818103600083015261588281846153fc565b905092915050565b600060608201905081810360008301526158a481866153fc565b905081810360208301526158b881856153fc565b905081810360408301526158cc81846153fc565b9050949350505050565b600060808201905081810360008301526158f081876153fc565b9050818103602083015261590481866153fc565b905081810360408301526159188185615432565b905061592760608301846156b8565b95945050505050565b600060a082019050818103600083015261594a8188615432565b9050818103602083015261595e81876153fc565b9050818103604083015261597281866153fc565b905061598160608301856156b8565b61598e60808301846156b8565b9695505050505050565b600060a08201905081810360008301526159b28188615432565b905081810360208301526159c68187615432565b905081810360408301526159da8186615432565b90506159e960608301856156b8565b6159f660808301846156b8565b9695505050505050565b60006020820190508181036000830152615a1981615468565b9050919050565b60006020820190508181036000830152615a39816154c5565b9050919050565b60006020820190508181036000830152615a59816154fc565b9050919050565b60006020820190508181036000830152615a7981615559565b9050919050565b60006020820190508181036000830152615a99816155b6565b9050919050565b60006020820190508181036000830152615ab981615613565b9050919050565b60006020820190508181036000830152615ad98161564a565b9050919050565b60006020820190508181036000830152615af981615681565b9050919050565b6000602082019050615b1560008301846156b8565b92915050565b6000604051905081810181811067ffffffffffffffff82111715615b3e57600080fd5b8060405250919050565b600067ffffffffffffffff821115615b5f57600080fd5b601f19601f8301169050602081019050919050565b6000602082019050919050565b600081519050919050565b600081519050919050565b600081519050919050565b6000602082019050919050565b600073ffffffffffffffffffffffffffffffffffffffff82169050919050565b60008115159050919050565b6000600382101515615be957fe5b819050919050565b6000600482101515615bff57fe5b819050919050565b6000819050919050565b600073ffffffffffffffffffffffffffffffffffffffff82169050919050565b60008115159050919050565b6000819050919050565b6000819050919050565b6000615c5c82615baf565b9050919050565b6000615c6e82615bdb565b9050919050565b6000615c8082615bf1565b9050919050565b82818337600083830152505050565b60005b83811015615cb4578082015181840152602081019050615c99565b83811115615cc3576000848401525b50505050565b6000601f19601f83011690509190505600a265627a7a7230582061ef92d78e3d2035900af675d2d9c4233646b0a8a03ebaf995f15bafefb0e8e06c6578706572696d656e74616cf50037",
  "source": "pragma solidity ^0.4.24;\npragma experimental ABIEncoderV2;\n\nimport \"./REWToken.sol\";\nimport \"zeppelin-solidity/contracts/ownership/Ownable.sol\";\n\ncontract ReviewNetwork is Ownable {\n    REWToken token;\n    uint constant NUMBER_OF_VALIDATORS = 7;\n\n    enum SurveyStatus { IDLE, FUNDED, IN_PROGRESS, COMPLETED }\n    enum ReviewStatus { PENDING, APPROVED, REJECTED }\n\n    struct Answer {\n        string answersJsonHash;\n    }\n\n    struct Survey {\n        address creator;\n        string publicKey;\n        string title;\n        string surveyJsonHash;\n        uint rewardPerSurvey;\n        uint funds;\n        uint maxAnswers;\n        SurveyStatus status;\n        mapping (address => Answer) answers;\n    }\n\n    struct Brand {\n        address addedBy;\n        string name;\n        string logo;\n        string metaJsonHash;\n    }\n\n    struct Product {\n        address addedBy;\n        Brand brand;\n        uint categoryId;\n        uint subcategoryId;\n        string name;\n        string image;\n        string metaJsonHash;\n    }\n\n    struct User {\n        string username;\n    }\n\n    struct Review {\n        User author;\n        Product product;\n        uint score;\n        string metaJsonHash;\n        ReviewStatus status;\n        address[] chosenValidators;\n        mapping (address => int) validationVotes;\n    }\n\n    /**\n     * key: string - Survey JSON IPFS hash\n     */\n    mapping (string => Survey) surveys;\n    mapping (address => Brand) brands;\n    mapping (address => Product) products;\n    mapping (address => User) users;\n    mapping (address => Review) reviews;\n    address[] validators;\n\n    event LogSurveyAdded(\n        address indexed creator,\n        string publicKey,\n        string title,\n        string surveyJsonHash,\n        uint rewardPerSurvey,\n        uint maxAnswers\n    );\n    \n    event LogSurveyFunded(\n        address indexed creator,\n        string publicKey,\n        string title,\n        string surveyJsonHash,\n        uint rewardPerSurvey,\n        uint maxAnswers\n    );\n    \n    event LogSurveyStarted(\n        address indexed creator,\n        string publicKey,\n        string title,\n        string surveyJsonHash,\n        uint rewardPerSurvey,\n        uint maxAnswers\n    );\n\n    event LogSurveyCompleted(\n        address indexed creator,\n        string publicKey,\n        string title,\n        string surveyJsonHash,\n        uint rewardPerSurvey,\n        uint maxAnswers\n    );\n\n    event LogSurveyAnswered(\n        address indexed user,\n        string surveyJsonHash,\n        string answersJsonHash,\n        string title,\n        uint rewardPerSurvey\n    );\n\n    event LogBrandAdded(\n        address indexed brandAddress,\n        string name,\n        string logo,\n        string metaHashJson\n    );\n\n    event LogProductAdded(\n        address productAddress,\n        address indexed brandAddress,\n        uint indexed categoryId,\n        uint indexed subcategoryId,\n        string name,\n        string image,\n        string metaHashJson\n    );\n\n    event LogReviewAdded(\n        address reviewAddress,\n        address indexed authorAddress,\n        address indexed productAddress,\n        string metaJsonHash\n    );\n\n    event LogValidatorAdded(\n        address validatorAddress\n    );\n\n    event LogValidatorChosen(\n        address indexed reviewAddress,\n        address indexed validatorAddress\n    );\n\n    event LogReviewApproved(\n        address indexed reviewAddress\n    );\n\n    event LogReviewRejected(\n        address indexed reviewAddress\n    );\n\n    constructor (address REWTokenAddress) public {\n        token = REWToken(REWTokenAddress);\n    }\n\n    function createSurvey(\n        string publicKey,\n        string title,\n        string surveyJsonHash,\n        uint rewardPerSurvey,\n        uint maxAnswers\n    ) public {\n        Survey memory s = Survey(\n            msg.sender,\n            publicKey,\n            title,\n            surveyJsonHash,\n            rewardPerSurvey,\n            0,\n            maxAnswers,\n            SurveyStatus.IDLE\n        );\n\n        surveys[surveyJsonHash] = s;\n\n        emit LogSurveyAdded(\n            msg.sender,\n            s.publicKey,\n            title,\n            surveyJsonHash,\n            rewardPerSurvey,\n            maxAnswers\n        );\n    }\n\n    function fundSurvey(string surveyJsonHash, uint amount) public {\n        Survey memory survey = surveys[surveyJsonHash];\n\n        require(msg.sender == survey.creator);\n\n        uint allowance = token.allowance(msg.sender, this);\n        require(allowance >= amount);\n\n        require(token.transferFrom(msg.sender, this, amount));\n        surveys[surveyJsonHash].funds += amount;\n        \n        if(survey.status == SurveyStatus.IDLE) {\n            surveys[surveyJsonHash].status = SurveyStatus.FUNDED;\n        }\n\n        emit LogSurveyFunded(\n            msg.sender,\n            survey.publicKey,\n            survey.title,\n            survey.surveyJsonHash,\n            survey.rewardPerSurvey,\n            survey.maxAnswers\n        );\n    }\n\n    function startSurvey(string surveyJsonHash) public {\n        Survey memory survey = surveys[surveyJsonHash];\n        require(msg.sender == survey.creator);\n        require(survey.status == SurveyStatus.FUNDED);\n\n        surveys[surveyJsonHash].status = SurveyStatus.IN_PROGRESS;\n\n        emit LogSurveyStarted(\n            msg.sender,\n            survey.publicKey,\n            survey.title,\n            survey.surveyJsonHash,\n            survey.rewardPerSurvey,\n            survey.maxAnswers\n        );\n    }\n\n    function completeSurvey(string surveyJsonHash) public {\n        Survey memory survey = surveys[surveyJsonHash];\n        require(msg.sender == survey.creator);\n        require(survey.status == SurveyStatus.IN_PROGRESS);\n\n        surveys[surveyJsonHash].status = SurveyStatus.COMPLETED;\n\n        emit LogSurveyCompleted(\n            msg.sender,\n            survey.publicKey,\n            survey.title,\n            survey.surveyJsonHash,\n            survey.rewardPerSurvey,\n            survey.maxAnswers\n        );\n    }\n\n    function getFunds(string surveyJsonHash) public view returns (uint) {\n        return surveys[surveyJsonHash].funds;\n    }\n\n    function getSurveyStatus(string surveyJsonHash) public view returns (SurveyStatus) {\n        return surveys[surveyJsonHash].status;\n    }\n\n    function answerSurvey(string surveyJsonHash, string answersJsonHash) public returns (bool) {\n        Survey memory survey = surveys[surveyJsonHash];\n        require(keccak256(bytes(answersJsonHash)) != keccak256(\"\"));\n        require(keccak256(bytes(surveyJsonHash)) != keccak256(\"\"));\n        require(survey.status == SurveyStatus.IN_PROGRESS);\n        require(keccak256(surveys[surveyJsonHash].answers[msg.sender].answersJsonHash) == keccak256(\"\"));\n\n        surveys[surveyJsonHash].answers[msg.sender] = Answer(answersJsonHash);\n        require(token.transfer(msg.sender, survey.rewardPerSurvey));\n        surveys[surveyJsonHash].funds -= surveys[surveyJsonHash].rewardPerSurvey;\n        emit LogSurveyAnswered(msg.sender, surveyJsonHash, answersJsonHash, survey.title, survey.rewardPerSurvey);\n\n        if (surveys[surveyJsonHash].funds < survey.rewardPerSurvey) {\n            surveys[surveyJsonHash].status = SurveyStatus.COMPLETED;\n            emit LogSurveyCompleted(\n                survey.creator,\n                survey.publicKey,\n                survey.title,\n                survey.surveyJsonHash,\n                survey.rewardPerSurvey,\n                survey.maxAnswers\n            );\n        }\n    }\n\n    function isSurveyAnsweredBy(string surveyJsonHash, address user) public view returns (bool) {\n        return keccak256(bytes(surveys[surveyJsonHash].answers[user].answersJsonHash)) != keccak256(\"\");\n    }\n\n    function createBrand (\n        address brandAddress,\n        string name,\n        string logo,\n        string metaJsonHash\n    ) public onlyOwner {\n        Brand memory brand = Brand({\n            addedBy: msg.sender,\n            name: name,\n            logo: logo,\n            metaJsonHash: metaJsonHash\n        });\n\n        brands[brandAddress] = brand;\n\n        emit LogBrandAdded(brandAddress, name, logo, metaJsonHash);\n    }\n\n    function createProduct (\n        address productAddress,\n        address brandAddress,\n        uint categoryId,\n        uint subcategoryId,\n        string name,\n        string image,\n        string metaJsonHash\n    ) public onlyOwner {\n        Brand memory brand = brands[brandAddress];\n\n        Product memory product = Product({\n            addedBy: msg.sender,\n            brand: brand,\n            categoryId: categoryId,\n            subcategoryId: subcategoryId,\n            name: name,\n            image: image,\n            metaJsonHash: metaJsonHash\n        });\n\n        products[brandAddress] = product;\n\n        emit LogProductAdded(productAddress, brandAddress, categoryId, subcategoryId, name, image, metaJsonHash);\n    }\n\n    function registerUser (string username) public {\n        require(keccak256(username) != keccak256(\"\"), \"Username can't be empty\");\n        User memory user = User({ username: username });\n        users[msg.sender] = user;\n    }\n\n    function getUsername (address user) public view returns(string) {\n        return users[user].username;\n    }\n\n    function userExists (address userAddress) public view returns (bool) {\n        return keccak256(users[userAddress].username) != keccak256(\"\");\n    }\n\n    function createReview (\n        address reviewAddress,\n        address productAddress,\n        uint score,\n        string metaJsonHash\n    ) public {\n        require(score >= 1 && score <= 4, \"Score must be between 1 and 4\");\n\n        User memory author = users[msg.sender];\n        require(keccak256(author.username) != keccak256(\"\"), \"You are not registered as a user. Please register first!\");\n\n        Product memory product = products[productAddress];\n\n        Review memory review = Review({\n            author: author,\n            product: product,\n            score: score,\n            metaJsonHash: metaJsonHash,\n            status: ReviewStatus.PENDING,\n            chosenValidators: choseValidators(msg.sender)\n        });\n\n        reviews[reviewAddress] = review;\n\n        for (uint index = 0; index < review.chosenValidators.length; index++) {\n            emit LogValidatorChosen(reviewAddress, review.chosenValidators[index]);\n        }\n\n        emit LogReviewAdded(reviewAddress, msg.sender, productAddress, metaJsonHash);\n    }\n\n    function getReviewStatus(address reviewAddress) public view returns (ReviewStatus) {\n        return reviews[reviewAddress].status;\n    }\n\n    function isValidatorChosenForReview (address reviewAddress, address validator) public view returns (bool) {\n        Review memory review = reviews[reviewAddress];\n        \n        bool isValidatorChosen = false;\n        for (uint index = 0; index < review.chosenValidators.length; index++) {\n            if (review.chosenValidators[index] == validator) {\n                isValidatorChosen = true;\n            }\n        }\n\n        return isValidatorChosen;\n    }\n\n    function validatorVote(address reviewAddress, int vote) public {\n        Review storage review = reviews[reviewAddress];\n\n        require(review.status == ReviewStatus.PENDING, \"Review already validated.\");\n        require(reviews[reviewAddress].validationVotes[msg.sender] == 0, \"You already voted on this review.\");\n        require(isValidatorChosenForReview(reviewAddress, msg.sender), \"You are not chosen to validate this review.\");\n        require(vote == -1 || vote == 1, \"Vote must be -1 or 1.\");\n\n        reviews[reviewAddress].validationVotes[msg.sender] = vote;\n\n        bool everyoneVoted = true;\n        int tally = 0;\n\n        for (uint index = 0; index < NUMBER_OF_VALIDATORS; index++) {\n            tally += review.validationVotes[review.chosenValidators[index]];\n\n            if (review.validationVotes[review.chosenValidators[index]] == 0) {\n                everyoneVoted = false;\n            }\n        }\n\n        if (everyoneVoted) {\n            if (tally > 0) {\n                reviews[reviewAddress].status = ReviewStatus.APPROVED;\n                emit LogReviewApproved(reviewAddress);\n            } else {\n                reviews[reviewAddress].status = ReviewStatus.REJECTED;\n                emit LogReviewRejected(reviewAddress);\n            }\n        }\n    }\n\n    function addValidator(address validatorAddress) public onlyOwner {\n        validators.push(validatorAddress);\n\n        emit LogValidatorAdded(validatorAddress);\n    }\n\n    function choseValidators(address author) public view returns (address[]) {\n        require(validators.length >= NUMBER_OF_VALIDATORS, \"Not enough validators in the system!\");\n\n        uint a = uint256(author);\n        bytes32 b = blockhash(block.number);\n        uint r = uint(keccak256(abi.encodePacked(a, b)));\n        uint point = r % validators.length;\n\n        address[] memory chosenOnes = new address[](NUMBER_OF_VALIDATORS);\n\n        uint counter = 0;\n        uint index = 1;\n\n        while(counter < NUMBER_OF_VALIDATORS) {\n            address chosenValidator = validators[(point + index) % validators.length];\n\n            bool alreadyPicked = false;\n            for(uint i = 0; i < chosenOnes.length; i++) {\n                if (chosenOnes[i] == chosenValidator) {\n                    alreadyPicked = true;\n                } \n            }\n\n            if (!alreadyPicked) {\n                chosenOnes[counter] = chosenValidator;\n                counter++;\n            }\n\n            index++;\n\n        }\n\n        return chosenOnes;\n    }\n}\n",
  "sourcePath": "/Users/petars/projects/review-network/rn-prototype-solidity/contracts/ReviewNetwork.sol",
  "compiler": {
    "name": "solc",
    "version": "0.4.24+commit.e67f0147.Emscripten.clang"
  },
  "schemaVersion": "2.0.1",
  "updatedAt": "2018-08-24T16:01:40.043Z"
}