{
  "contractName": "ReviewNetwork",
  "abi": [
    {
      "constant": true,
      "inputs": [],
      "name": "owner",
      "outputs": [
        {
          "name": "",
          "type": "address"
        }
      ],
      "payable": false,
      "stateMutability": "view",
      "type": "function"
    },
    {
      "constant": false,
      "inputs": [
        {
          "name": "newOwner",
          "type": "address"
        }
      ],
      "name": "transferOwnership",
      "outputs": [],
      "payable": false,
      "stateMutability": "nonpayable",
      "type": "function"
    },
    {
      "inputs": [
        {
          "name": "REWTokenAddress",
          "type": "address"
        }
      ],
      "payable": false,
      "stateMutability": "nonpayable",
      "type": "constructor"
    },
    {
      "anonymous": false,
      "inputs": [
        {
          "indexed": true,
          "name": "creator",
          "type": "address"
        },
        {
          "indexed": false,
          "name": "publicKey",
          "type": "string"
        },
        {
          "indexed": false,
          "name": "title",
          "type": "string"
        },
        {
          "indexed": false,
          "name": "surveyJsonHash",
          "type": "string"
        },
        {
          "indexed": false,
          "name": "rewardPerSurvey",
          "type": "uint256"
        },
        {
          "indexed": false,
          "name": "maxAnswers",
          "type": "uint256"
        }
      ],
      "name": "LogSurveyAdded",
      "type": "event"
    },
    {
      "anonymous": false,
      "inputs": [
        {
          "indexed": true,
          "name": "creator",
          "type": "address"
        },
        {
          "indexed": false,
          "name": "publicKey",
          "type": "string"
        },
        {
          "indexed": false,
          "name": "title",
          "type": "string"
        },
        {
          "indexed": false,
          "name": "surveyJsonHash",
          "type": "string"
        },
        {
          "indexed": false,
          "name": "rewardPerSurvey",
          "type": "uint256"
        },
        {
          "indexed": false,
          "name": "maxAnswers",
          "type": "uint256"
        }
      ],
      "name": "LogSurveyFunded",
      "type": "event"
    },
    {
      "anonymous": false,
      "inputs": [
        {
          "indexed": true,
          "name": "creator",
          "type": "address"
        },
        {
          "indexed": false,
          "name": "publicKey",
          "type": "string"
        },
        {
          "indexed": false,
          "name": "title",
          "type": "string"
        },
        {
          "indexed": false,
          "name": "surveyJsonHash",
          "type": "string"
        },
        {
          "indexed": false,
          "name": "rewardPerSurvey",
          "type": "uint256"
        },
        {
          "indexed": false,
          "name": "maxAnswers",
          "type": "uint256"
        }
      ],
      "name": "LogSurveyStarted",
      "type": "event"
    },
    {
      "anonymous": false,
      "inputs": [
        {
          "indexed": true,
          "name": "creator",
          "type": "address"
        },
        {
          "indexed": false,
          "name": "publicKey",
          "type": "string"
        },
        {
          "indexed": false,
          "name": "title",
          "type": "string"
        },
        {
          "indexed": false,
          "name": "surveyJsonHash",
          "type": "string"
        },
        {
          "indexed": false,
          "name": "rewardPerSurvey",
          "type": "uint256"
        },
        {
          "indexed": false,
          "name": "maxAnswers",
          "type": "uint256"
        }
      ],
      "name": "LogSurveyCompleted",
      "type": "event"
    },
    {
      "anonymous": false,
      "inputs": [
        {
          "indexed": true,
          "name": "user",
          "type": "address"
        },
        {
          "indexed": false,
          "name": "surveyJsonHash",
          "type": "string"
        },
        {
          "indexed": false,
          "name": "answersJsonHash",
          "type": "string"
        },
        {
          "indexed": false,
          "name": "title",
          "type": "string"
        },
        {
          "indexed": false,
          "name": "rewardPerSurvey",
          "type": "uint256"
        }
      ],
      "name": "LogSurveyAnswered",
      "type": "event"
    },
    {
      "anonymous": false,
      "inputs": [
        {
          "indexed": false,
          "name": "productAddress",
          "type": "address"
        },
        {
          "indexed": true,
          "name": "categoryId",
          "type": "uint256"
        },
        {
          "indexed": true,
          "name": "subcategoryId",
          "type": "uint256"
        },
        {
          "indexed": false,
          "name": "name",
          "type": "string"
        },
        {
          "indexed": false,
          "name": "image",
          "type": "string"
        },
        {
          "indexed": false,
          "name": "description",
          "type": "string"
        },
        {
          "indexed": false,
          "name": "metaHashJson",
          "type": "string"
        }
      ],
      "name": "LogProductAdded",
      "type": "event"
    },
    {
      "anonymous": false,
      "inputs": [
        {
          "indexed": false,
          "name": "reviewAddress",
          "type": "address"
        },
        {
          "indexed": true,
          "name": "authorAddress",
          "type": "address"
        },
        {
          "indexed": true,
          "name": "productAddress",
          "type": "address"
        },
        {
          "indexed": false,
          "name": "metaJsonHash",
          "type": "string"
        }
      ],
      "name": "LogReviewAdded",
      "type": "event"
    },
    {
      "anonymous": false,
      "inputs": [
        {
          "indexed": false,
          "name": "validatorAddress",
          "type": "address"
        }
      ],
      "name": "LogValidatorAdded",
      "type": "event"
    },
    {
      "anonymous": false,
      "inputs": [
        {
          "indexed": true,
          "name": "reviewAddress",
          "type": "address"
        },
        {
          "indexed": true,
          "name": "validatorAddress",
          "type": "address"
        }
      ],
      "name": "LogValidatorChosen",
      "type": "event"
    },
    {
      "anonymous": false,
      "inputs": [
        {
          "indexed": true,
          "name": "productAddress",
          "type": "address"
        },
        {
          "indexed": true,
          "name": "reviewAddress",
          "type": "address"
        }
      ],
      "name": "LogReviewApproved",
      "type": "event"
    },
    {
      "anonymous": false,
      "inputs": [
        {
          "indexed": true,
          "name": "productAddress",
          "type": "address"
        },
        {
          "indexed": true,
          "name": "reviewAddress",
          "type": "address"
        }
      ],
      "name": "LogReviewRejected",
      "type": "event"
    },
    {
      "anonymous": false,
      "inputs": [
        {
          "indexed": true,
          "name": "previousOwner",
          "type": "address"
        },
        {
          "indexed": true,
          "name": "newOwner",
          "type": "address"
        }
      ],
      "name": "OwnershipTransferred",
      "type": "event"
    },
    {
      "constant": false,
      "inputs": [
        {
          "name": "publicKey",
          "type": "string"
        },
        {
          "name": "title",
          "type": "string"
        },
        {
          "name": "surveyJsonHash",
          "type": "string"
        },
        {
          "name": "rewardPerSurvey",
          "type": "uint256"
        },
        {
          "name": "maxAnswers",
          "type": "uint256"
        }
      ],
      "name": "createSurvey",
      "outputs": [],
      "payable": false,
      "stateMutability": "nonpayable",
      "type": "function"
    },
    {
      "constant": false,
      "inputs": [
        {
          "name": "surveyJsonHash",
          "type": "string"
        }
      ],
      "name": "suspendSurvey",
      "outputs": [],
      "payable": false,
      "stateMutability": "nonpayable",
      "type": "function"
    },
    {
      "constant": true,
      "inputs": [
        {
          "name": "surveyJsonHash",
          "type": "string"
        }
      ],
      "name": "isSurveySuspended",
      "outputs": [
        {
          "name": "",
          "type": "bool"
        }
      ],
      "payable": false,
      "stateMutability": "view",
      "type": "function"
    },
    {
      "constant": false,
      "inputs": [
        {
          "name": "surveyJsonHash",
          "type": "string"
        },
        {
          "name": "amount",
          "type": "uint256"
        }
      ],
      "name": "fundSurvey",
      "outputs": [],
      "payable": false,
      "stateMutability": "nonpayable",
      "type": "function"
    },
    {
      "constant": false,
      "inputs": [
        {
          "name": "surveyJsonHash",
          "type": "string"
        }
      ],
      "name": "startSurvey",
      "outputs": [],
      "payable": false,
      "stateMutability": "nonpayable",
      "type": "function"
    },
    {
      "constant": false,
      "inputs": [
        {
          "name": "surveyJsonHash",
          "type": "string"
        }
      ],
      "name": "completeSurvey",
      "outputs": [],
      "payable": false,
      "stateMutability": "nonpayable",
      "type": "function"
    },
    {
      "constant": true,
      "inputs": [
        {
          "name": "surveyJsonHash",
          "type": "string"
        }
      ],
      "name": "getFunds",
      "outputs": [
        {
          "name": "",
          "type": "uint256"
        }
      ],
      "payable": false,
      "stateMutability": "view",
      "type": "function"
    },
    {
      "constant": true,
      "inputs": [
        {
          "name": "surveyJsonHash",
          "type": "string"
        }
      ],
      "name": "getSurveyStatus",
      "outputs": [
        {
          "name": "",
          "type": "uint8"
        }
      ],
      "payable": false,
      "stateMutability": "view",
      "type": "function"
    },
    {
      "constant": false,
      "inputs": [
        {
          "name": "surveyJsonHash",
          "type": "string"
        },
        {
          "name": "answersJsonHash",
          "type": "string"
        }
      ],
      "name": "answerSurvey",
      "outputs": [
        {
          "name": "",
          "type": "bool"
        }
      ],
      "payable": false,
      "stateMutability": "nonpayable",
      "type": "function"
    },
    {
      "constant": true,
      "inputs": [
        {
          "name": "surveyJsonHash",
          "type": "string"
        },
        {
          "name": "user",
          "type": "address"
        }
      ],
      "name": "isSurveyAnsweredBy",
      "outputs": [
        {
          "name": "",
          "type": "bool"
        }
      ],
      "payable": false,
      "stateMutability": "view",
      "type": "function"
    },
    {
      "constant": false,
      "inputs": [
        {
          "name": "productAddress",
          "type": "address"
        },
        {
          "name": "categoryId",
          "type": "uint256"
        },
        {
          "name": "subcategoryId",
          "type": "uint256"
        },
        {
          "name": "name",
          "type": "string"
        },
        {
          "name": "image",
          "type": "string"
        },
        {
          "name": "description",
          "type": "string"
        },
        {
          "name": "metaJsonHash",
          "type": "string"
        }
      ],
      "name": "createProduct",
      "outputs": [],
      "payable": false,
      "stateMutability": "nonpayable",
      "type": "function"
    },
    {
      "constant": false,
      "inputs": [
        {
          "name": "username",
          "type": "string"
        }
      ],
      "name": "registerUser",
      "outputs": [],
      "payable": false,
      "stateMutability": "nonpayable",
      "type": "function"
    },
    {
      "constant": true,
      "inputs": [
        {
          "name": "user",
          "type": "address"
        }
      ],
      "name": "getUsername",
      "outputs": [
        {
          "name": "",
          "type": "string"
        }
      ],
      "payable": false,
      "stateMutability": "view",
      "type": "function"
    },
    {
      "constant": true,
      "inputs": [
        {
          "name": "userAddress",
          "type": "address"
        }
      ],
      "name": "userExists",
      "outputs": [
        {
          "name": "",
          "type": "bool"
        }
      ],
      "payable": false,
      "stateMutability": "view",
      "type": "function"
    },
    {
      "constant": false,
      "inputs": [
        {
          "name": "reviewAddress",
          "type": "address"
        },
        {
          "name": "productAddress",
          "type": "address"
        },
        {
          "name": "score",
          "type": "uint256"
        },
        {
          "name": "metaJsonHash",
          "type": "string"
        }
      ],
      "name": "createReview",
      "outputs": [],
      "payable": false,
      "stateMutability": "nonpayable",
      "type": "function"
    },
    {
      "constant": false,
      "inputs": [
        {
          "name": "reviewAddress",
          "type": "address"
        },
        {
          "name": "vote",
          "type": "int256"
        }
      ],
      "name": "voteReview",
      "outputs": [],
      "payable": false,
      "stateMutability": "nonpayable",
      "type": "function"
    },
    {
      "constant": true,
      "inputs": [
        {
          "name": "reviewAddress",
          "type": "address"
        }
      ],
      "name": "getReviewVotes",
      "outputs": [
        {
          "name": "upvotes",
          "type": "uint256"
        },
        {
          "name": "downvotes",
          "type": "uint256"
        }
      ],
      "payable": false,
      "stateMutability": "view",
      "type": "function"
    },
    {
      "constant": true,
      "inputs": [
        {
          "name": "reviewAddress",
          "type": "address"
        }
      ],
      "name": "getReviewStatus",
      "outputs": [
        {
          "name": "",
          "type": "uint8"
        }
      ],
      "payable": false,
      "stateMutability": "view",
      "type": "function"
    },
    {
      "constant": true,
      "inputs": [
        {
          "name": "reviewAddress",
          "type": "address"
        },
        {
          "name": "validator",
          "type": "address"
        }
      ],
      "name": "isValidatorChosenForReview",
      "outputs": [
        {
          "name": "",
          "type": "bool"
        }
      ],
      "payable": false,
      "stateMutability": "view",
      "type": "function"
    },
    {
      "constant": false,
      "inputs": [
        {
          "name": "reviewAddress",
          "type": "address"
        },
        {
          "name": "vote",
          "type": "int256"
        }
      ],
      "name": "validatorVote",
      "outputs": [],
      "payable": false,
      "stateMutability": "nonpayable",
      "type": "function"
    },
    {
      "constant": false,
      "inputs": [
        {
          "name": "validatorAddress",
          "type": "address"
        }
      ],
      "name": "addValidator",
      "outputs": [],
      "payable": false,
      "stateMutability": "nonpayable",
      "type": "function"
    },
    {
      "constant": true,
      "inputs": [
        {
          "name": "author",
          "type": "address"
        }
      ],
      "name": "choseValidators",
      "outputs": [
        {
          "name": "",
          "type": "address[]"
        }
      ],
      "payable": false,
      "stateMutability": "view",
      "type": "function"
    }
  ],
  "bytecode": "0x60806040523480156200001157600080fd5b5060405160208062005f848339810180604052620000339190810190620000d1565b336000806101000a81548173ffffffffffffffffffffffffffffffffffffffff021916908373ffffffffffffffffffffffffffffffffffffffff16021790555080600160006101000a81548173ffffffffffffffffffffffffffffffffffffffff021916908373ffffffffffffffffffffffffffffffffffffffff160217905550506200011d565b6000620000c98251620000fd565b905092915050565b600060208284031215620000e457600080fd5b6000620000f484828501620000bb565b91505092915050565b600073ffffffffffffffffffffffffffffffffffffffff82169050919050565b615e57806200012d6000396000f30060806040526004361061013e576000357c0100000000000000000000000000000000000000000000000000000000900463ffffffff16806306ba9624146101435780630e666e491461016c578063123afe9e146101a957806321d77d94146101e65780632d0c9b1c1461020f578063420ec6771461024c57806348011a58146102895780634d238c8e146102c75780635219fcdf146102f0578063569ea547146103195780635a22283a14610356578063704f1b9414610393578063882da06d146103bc5780638da5cb5b146103e55780639700909014610410578063b031e78b14610439578063b639c6c914610462578063c5b447121461049f578063caa74019146104dc578063ce43c03214610505578063d9e115d314610542578063e64f67471461057f578063f2fde38b146105a8578063f420e184146105d1575b600080fd5b34801561014f57600080fd5b5061016a60048036036101659190810190615165565b6105fa565b005b34801561017857600080fd5b50610193600480360361018e9190810190614f22565b610a8e565b6040516101a0919061591d565b60405180910390f35b3480156101b557600080fd5b506101d060048036036101cb9190810190614f22565b610b5c565b6040516101dd91906158fb565b60405180910390f35b3480156101f257600080fd5b5061020d60048036036102089190810190615266565b610dfe565b005b34801561021b57600080fd5b5061023660048036036102319190810190615165565b611058565b6040516102439190615c1a565b60405180910390f35b34801561025857600080fd5b50610273600480360361026e9190810190615165565b6110d0565b604051610280919061591d565b60405180910390f35b34801561029557600080fd5b506102b060048036036102ab9190810190614f22565b611155565b6040516102be929190615c35565b60405180910390f35b3480156102d357600080fd5b506102ee60048036036102e99190810190614f22565b6111e7565b005b3480156102fc57600080fd5b5061031760048036036103129190810190615002565b6113bf565b005b34801561032557600080fd5b50610340600480360361033b9190810190614f4b565b61198a565b60405161034d919061591d565b60405180910390f35b34801561036257600080fd5b5061037d60048036036103789190810190614f22565b611ff8565b60405161038a9190615938565b60405180910390f35b34801561039f57600080fd5b506103ba60048036036103b59190810190615165565b612051565b005b3480156103c857600080fd5b506103e360048036036103de9190810190615165565b61218e565b005b3480156103f157600080fd5b506103fa612273565b60405161040791906157b8565b60405180910390f35b34801561041c57600080fd5b5061043760048036036104329190810190615165565b612298565b005b34801561044557600080fd5b50610460600480360361045b9190810190615002565b61272b565b005b34801561046e57600080fd5b5061048960048036036104849190810190615165565b6129e5565b6040516104969190615953565b60405180910390f35b3480156104ab57600080fd5b506104c660048036036104c191908101906151fa565b612a6a565b6040516104d3919061591d565b60405180910390f35b3480156104e857600080fd5b5061050360048036036104fe919081019061503e565b613555565b005b34801561051157600080fd5b5061052c60048036036105279190810190614f22565b6137c5565b604051610539919061596e565b60405180910390f35b34801561054e57600080fd5b50610569600480360361056491908101906151a6565b6138a9565b604051610576919061591d565b60405180910390f35b34801561058b57600080fd5b506105a660048036036105a19190810190614f87565b6139e4565b005b3480156105b457600080fd5b506105cf60048036036105ca9190810190614f22565b6142fe565b005b3480156105dd57600080fd5b506105f860048036036105f39190810190615325565b614453565b005b610602614b16565b6002826040518082805190602001908083835b60208310151561063a5780518252602082019150602081019050602083039250610615565b6001836020036101000a038019825116818451168082178552505050505050905001915050908152602001604051809103902061014060405190810160405290816000820160009054906101000a900473ffffffffffffffffffffffffffffffffffffffff1673ffffffffffffffffffffffffffffffffffffffff1673ffffffffffffffffffffffffffffffffffffffff168152602001600182018054600181600116156101000203166002900480601f0160208091040260200160405190810160405280929190818152602001828054600181600116156101000203166002900480156107695780601f1061073e57610100808354040283529160200191610769565b820191906000526020600020905b81548152906001019060200180831161074c57829003601f168201915b50505050508152602001600282018054600181600116156101000203166002900480601f01602080910402602001604051908101604052809291908181526020018280546001816001161561010002031660029004801561080b5780601f106107e05761010080835404028352916020019161080b565b820191906000526020600020905b8154815290600101906020018083116107ee57829003601f168201915b50505050508152602001600382018054600181600116156101000203166002900480601f0160208091040260200160405190810160405280929190818152602001828054600181600116156101000203166002900480156108ad5780601f10610882576101008083540402835291602001916108ad565b820191906000526020600020905b81548152906001019060200180831161089057829003601f168201915b50505050508152602001600482015481526020016005820154815260200160068201548152602001600782015481526020016008820160009054906101000a900460ff1660038111156108fc57fe5b600381111561090757fe5b81526020016008820160019054906101000a900460ff1615151515815250509050806000015173ffffffffffffffffffffffffffffffffffffffff163373ffffffffffffffffffffffffffffffffffffffff1614151561096657600080fd5b6002600381111561097357fe5b816101000151600381111561098457fe5b14151561099057600080fd5b60036002836040518082805190602001908083835b6020831015156109ca57805182526020820191506020810190506020830392506109a5565b6001836020036101000a038019825116818451168082178552505050505050905001915050908152602001604051809103902060080160006101000a81548160ff02191690836003811115610a1b57fe5b02179055503373ffffffffffffffffffffffffffffffffffffffff167f8d19faf08adf4f904aba4b47ace07c0c7c74712a6d39e931bff4dcbc25b5419582602001518360400151846060015185608001518660e00151604051610a82959493929190615a52565b60405180910390a25050565b6000604051806000019050604051809103902060001916600460008473ffffffffffffffffffffffffffffffffffffffff1673ffffffffffffffffffffffffffffffffffffffff1681526020019081526020016000206000016040518082805460018160011615610100020316600290048015610b425780601f10610b20576101008083540402835291820191610b42565b820191906000526020600020905b815481529060010190602001808311610b2e575b505091505060405180910390206000191614159050919050565b606060008060008060606000806000806000600360068054905010151515610bb9576040517f08c379a0000000000000000000000000000000000000000000000000000000008152600401610bb090615b1a565b60405180910390fd5b8b73ffffffffffffffffffffffffffffffffffffffff1699504260010298508989604051602001808381526020018260001916600019168152602001925050506040516020818303038152906040526040518082805190602001908083835b602083101515610c3d5780518252602082019150602081019050602083039250610c18565b6001836020036101000a038019825116818451168082178552505050505050905001915050604051809103902060019004975060068054905088811515610c8057fe5b0696506003604051908082528060200260200182016040528015610cb35781602001602082028038833980820191505090505b50955060009450600193505b6003851015610dec5760068080549050858901811515610cdb57fe5b06815481101515610ce857fe5b9060005260206000200160009054906101000a900473ffffffffffffffffffffffffffffffffffffffff16925060009150600090505b8551811015610d84578273ffffffffffffffffffffffffffffffffffffffff168682815181101515610d4c57fe5b9060200190602002015173ffffffffffffffffffffffffffffffffffffffff161415610d7757600191505b8080600101915050610d1e565b811515610ddf57828686815181101515610d9a57fe5b9060200190602002019073ffffffffffffffffffffffffffffffffffffffff16908173ffffffffffffffffffffffffffffffffffffffff168152505084806001019550505b8380600101945050610cbf565b859a5050505050505050505050919050565b610e06614b16565b610140604051908101604052803373ffffffffffffffffffffffffffffffffffffffff168152602001878152602001868152602001858152602001848152602001600081526020016000815260200183815260200160006003811115610e6857fe5b8152602001600015158152509050806002856040518082805190602001908083835b602083101515610eaf5780518252602082019150602081019050602083039250610e8a565b6001836020036101000a038019825116818451168082178552505050505050905001915050908152602001604051809103902060008201518160000160006101000a81548173ffffffffffffffffffffffffffffffffffffffff021916908373ffffffffffffffffffffffffffffffffffffffff1602179055506020820151816001019080519060200190610f45929190614b8d565b506040820151816002019080519060200190610f62929190614b8d565b506060820151816003019080519060200190610f7f929190614b8d565b506080820151816004015560a0820151816005015560c0820151816006015560e082015181600701556101008201518160080160006101000a81548160ff02191690836003811115610fcd57fe5b02179055506101208201518160080160016101000a81548160ff0219169083151502179055509050503373ffffffffffffffffffffffffffffffffffffffff167f95425f5f4392462c32fc4957d62e15f8589a263ec26ba4b863ca0bacfca39fe68260200151878787876040516110489594939291906159ea565b60405180910390a2505050505050565b60006002826040518082805190602001908083835b602083101515611092578051825260208201915060208101905060208303925061106d565b6001836020036101000a0380198251168184511680821785525050505050509050019150509081526020016040518091039020600501549050919050565b60006002826040518082805190602001908083835b60208310151561110a57805182526020820191506020810190506020830392506110e5565b6001836020036101000a038019825116818451168082178552505050505050905001915050908152602001604051809103902060080160019054906101000a900460ff169050919050565b600080600560008473ffffffffffffffffffffffffffffffffffffffff1673ffffffffffffffffffffffffffffffffffffffff168152602001908152602001600020600a0154600560008573ffffffffffffffffffffffffffffffffffffffff1673ffffffffffffffffffffffffffffffffffffffff168152602001908152602001600020600b015491509150915091565b6000806000809054906101000a900473ffffffffffffffffffffffffffffffffffffffff1673ffffffffffffffffffffffffffffffffffffffff163373ffffffffffffffffffffffffffffffffffffffff1614151561124557600080fd5b60009150600090505b6006805490508110156112da5760068181548110151561126a57fe5b9060005260206000200160009054906101000a900473ffffffffffffffffffffffffffffffffffffffff1673ffffffffffffffffffffffffffffffffffffffff168373ffffffffffffffffffffffffffffffffffffffff1614156112cd57600191505b808060010191505061124e565b8115151561131d576040517f08c379a000000000000000000000000000000000000000000000000000000000815260040161131490615bfa565b60405180910390fd5b60068390806001815401808255809150509060018203906000526020600020016000909192909190916101000a81548173ffffffffffffffffffffffffffffffffffffffff021916908373ffffffffffffffffffffffffffffffffffffffff160217905550507f4abba4877a811c10c94281a6a64a19db457ed00ca5e9c8dcd2563023d0477139836040516113b291906157b8565b60405180910390a1505050565b600080600080600560008773ffffffffffffffffffffffffffffffffffffffff1673ffffffffffffffffffffffffffffffffffffffff16815260200190815260200160002093506000600281111561141357fe5b84600d0160009054906101000a900460ff16600281111561143057fe5b141515611472576040517f08c379a000000000000000000000000000000000000000000000000000000000815260040161146990615bda565b60405180910390fd5b6000600560008873ffffffffffffffffffffffffffffffffffffffff1673ffffffffffffffffffffffffffffffffffffffff168152602001908152602001600020600f0160003373ffffffffffffffffffffffffffffffffffffffff1673ffffffffffffffffffffffffffffffffffffffff16815260200190815260200160002054141515611536576040517f08c379a000000000000000000000000000000000000000000000000000000000815260040161152d90615b5a565b60405180910390fd5b611540863361198a565b1515611581576040517f08c379a000000000000000000000000000000000000000000000000000000000815260040161157890615b7a565b60405180910390fd5b7fffffffffffffffffffffffffffffffffffffffffffffffffffffffffffffffff8514806115af5750600185145b15156115f0576040517f08c379a00000000000000000000000000000000000000000000000000000000081526004016115e790615afa565b60405180910390fd5b84600560008873ffffffffffffffffffffffffffffffffffffffff1673ffffffffffffffffffffffffffffffffffffffff168152602001908152602001600020600f0160003373ffffffffffffffffffffffffffffffffffffffff1673ffffffffffffffffffffffffffffffffffffffff168152602001908152602001600020819055506001925060009150600090505b60038110156117a25783600f01600085600e01838154811015156116a157fe5b9060005260206000200160009054906101000a900473ffffffffffffffffffffffffffffffffffffffff1673ffffffffffffffffffffffffffffffffffffffff1673ffffffffffffffffffffffffffffffffffffffff1681526020019081526020016000205482019150600084600f01600086600e018481548110151561172457fe5b9060005260206000200160009054906101000a900473ffffffffffffffffffffffffffffffffffffffff1673ffffffffffffffffffffffffffffffffffffffff1673ffffffffffffffffffffffffffffffffffffffff16815260200190815260200160002054141561179557600092505b8080600101915050611681565b821561198257600082131561189b576001600560008873ffffffffffffffffffffffffffffffffffffffff1673ffffffffffffffffffffffffffffffffffffffff168152602001908152602001600020600d0160006101000a81548160ff0219169083600281111561181057fe5b02179055508573ffffffffffffffffffffffffffffffffffffffff168460010160000160009054906101000a900473ffffffffffffffffffffffffffffffffffffffff1673ffffffffffffffffffffffffffffffffffffffff167f9a0edc7434e25d2680cca8e42e8195c70c89559cecfa24aa86ef60e62bde93b560405160405180910390a3611981565b6002600560008873ffffffffffffffffffffffffffffffffffffffff1673ffffffffffffffffffffffffffffffffffffffff168152602001908152602001600020600d0160006101000a81548160ff021916908360028111156118fa57fe5b02179055508573ffffffffffffffffffffffffffffffffffffffff168460010160000160009054906101000a900473ffffffffffffffffffffffffffffffffffffffff1673ffffffffffffffffffffffffffffffffffffffff167f7e2f1c3e8ff474da73c6816c3ba28474efb92270e57a55e006965577b6eadfa460405160405180910390a35b5b505050505050565b6000611994614c0d565b600080600560008773ffffffffffffffffffffffffffffffffffffffff1673ffffffffffffffffffffffffffffffffffffffff16815260200190815260200160002061010060405190810160405290816000820160206040519081016040529081600082018054600181600116156101000203166002900480601f016020809104026020016040519081016040528092919081815260200182805460018160011615610100020316600290048015611a8d5780601f10611a6257610100808354040283529160200191611a8d565b820191906000526020600020905b815481529060010190602001808311611a7057829003601f168201915b50505050508152505081526020016001820161010060405190810160405290816000820160009054906101000a900473ffffffffffffffffffffffffffffffffffffffff1673ffffffffffffffffffffffffffffffffffffffff1673ffffffffffffffffffffffffffffffffffffffff1681526020016001820160009054906101000a900473ffffffffffffffffffffffffffffffffffffffff1673ffffffffffffffffffffffffffffffffffffffff1673ffffffffffffffffffffffffffffffffffffffff1681526020016002820154815260200160038201548152602001600482018054600181600116156101000203166002900480601f016020809104026020016040519081016040528092919081815260200182805460018160011615610100020316600290048015611c055780601f10611bda57610100808354040283529160200191611c05565b820191906000526020600020905b815481529060010190602001808311611be857829003601f168201915b50505050508152602001600582018054600181600116156101000203166002900480601f016020809104026020016040519081016040528092919081815260200182805460018160011615610100020316600290048015611ca75780601f10611c7c57610100808354040283529160200191611ca7565b820191906000526020600020905b815481529060010190602001808311611c8a57829003601f168201915b50505050508152602001600682018054600181600116156101000203166002900480601f016020809104026020016040519081016040528092919081815260200182805460018160011615610100020316600290048015611d495780601f10611d1e57610100808354040283529160200191611d49565b820191906000526020600020905b815481529060010190602001808311611d2c57829003601f168201915b50505050508152602001600782018054600181600116156101000203166002900480601f016020809104026020016040519081016040528092919081815260200182805460018160011615610100020316600290048015611deb5780601f10611dc057610100808354040283529160200191611deb565b820191906000526020600020905b815481529060010190602001808311611dce57829003601f168201915b505050505081525050815260200160098201548152602001600a8201548152602001600b8201548152602001600c82018054600181600116156101000203166002900480601f016020809104026020016040519081016040528092919081815260200182805460018160011615610100020316600290048015611eaf5780601f10611e8457610100808354040283529160200191611eaf565b820191906000526020600020905b815481529060010190602001808311611e9257829003601f168201915b50505050508152602001600d820160009054906101000a900460ff166002811115611ed657fe5b6002811115611ee157fe5b8152602001600e8201805480602002602001604051908101604052809291908181526020018280548015611f6a57602002820191906000526020600020905b8160009054906101000a900473ffffffffffffffffffffffffffffffffffffffff1673ffffffffffffffffffffffffffffffffffffffff1681526020019060010190808311611f20575b505050505081525050925060009150600090505b8260e0015151811015611fec578473ffffffffffffffffffffffffffffffffffffffff168360e0015182815181101515611fb457fe5b9060200190602002015173ffffffffffffffffffffffffffffffffffffffff161415611fdf57600191505b8080600101915050611f7e565b81935050505092915050565b6000600560008373ffffffffffffffffffffffffffffffffffffffff1673ffffffffffffffffffffffffffffffffffffffff168152602001908152602001600020600d0160009054906101000a900460ff169050919050565b612059614c6a565b604051806000019050604051809103902060001916826040518082805190602001908083835b6020831015156120a4578051825260208201915060208101905060208303925061207f565b6001836020036101000a03801982511681845116808217855250505050505090500191505060405180910390206000191614151515612118576040517f08c379a000000000000000000000000000000000000000000000000000000000815260040161210f90615b9a565b60405180910390fd5b60206040519081016040528083815250905080600460003373ffffffffffffffffffffffffffffffffffffffff1673ffffffffffffffffffffffffffffffffffffffff1681526020019081526020016000206000820151816000019080519060200190612186929190614b8d565b509050505050565b6000809054906101000a900473ffffffffffffffffffffffffffffffffffffffff1673ffffffffffffffffffffffffffffffffffffffff163373ffffffffffffffffffffffffffffffffffffffff161415156121e957600080fd5b60016002826040518082805190602001908083835b60208310151561222357805182526020820191506020810190506020830392506121fe565b6001836020036101000a038019825116818451168082178552505050505050905001915050908152602001604051809103902060080160016101000a81548160ff02191690831515021790555050565b6000809054906101000a900473ffffffffffffffffffffffffffffffffffffffff1681565b6122a0614b16565b6002826040518082805190602001908083835b6020831015156122d857805182526020820191506020810190506020830392506122b3565b6001836020036101000a038019825116818451168082178552505050505050905001915050908152602001604051809103902061014060405190810160405290816000820160009054906101000a900473ffffffffffffffffffffffffffffffffffffffff1673ffffffffffffffffffffffffffffffffffffffff1673ffffffffffffffffffffffffffffffffffffffff168152602001600182018054600181600116156101000203166002900480601f0160208091040260200160405190810160405280929190818152602001828054600181600116156101000203166002900480156124075780601f106123dc57610100808354040283529160200191612407565b820191906000526020600020905b8154815290600101906020018083116123ea57829003601f168201915b50505050508152602001600282018054600181600116156101000203166002900480601f0160208091040260200160405190810160405280929190818152602001828054600181600116156101000203166002900480156124a95780601f1061247e576101008083540402835291602001916124a9565b820191906000526020600020905b81548152906001019060200180831161248c57829003601f168201915b50505050508152602001600382018054600181600116156101000203166002900480601f01602080910402602001604051908101604052809291908181526020018280546001816001161561010002031660029004801561254b5780601f106125205761010080835404028352916020019161254b565b820191906000526020600020905b81548152906001019060200180831161252e57829003601f168201915b50505050508152602001600482015481526020016005820154815260200160068201548152602001600782015481526020016008820160009054906101000a900460ff16600381111561259a57fe5b60038111156125a557fe5b81526020016008820160019054906101000a900460ff1615151515815250509050806000015173ffffffffffffffffffffffffffffffffffffffff163373ffffffffffffffffffffffffffffffffffffffff1614151561260457600080fd5b6001600381111561261157fe5b816101000151600381111561262257fe5b14151561262e57600080fd5b600280836040518082805190602001908083835b6020831015156126675780518252602082019150602081019050602083039250612642565b6001836020036101000a038019825116818451168082178552505050505050905001915050908152602001604051809103902060080160006101000a81548160ff021916908360038111156126b857fe5b02179055503373ffffffffffffffffffffffffffffffffffffffff167fd2e59155eb79323d200530a040ef34592cb14783597fd17fbb14bfdfa241a19c82602001518360400151846060015185608001518660e0015160405161271f959493929190615a52565b60405180910390a25050565b600181148061275957507fffffffffffffffffffffffffffffffffffffffffffffffffffffffffffffffff81145b151561279a576040517f08c379a000000000000000000000000000000000000000000000000000000000815260040161279190615aba565b60405180910390fd5b60001515600560008473ffffffffffffffffffffffffffffffffffffffff1673ffffffffffffffffffffffffffffffffffffffff16815260200190815260200160002060100160003373ffffffffffffffffffffffffffffffffffffffff1673ffffffffffffffffffffffffffffffffffffffff16815260200190815260200160002060009054906101000a900460ff16151514151561286f576040517f08c379a000000000000000000000000000000000000000000000000000000000815260040161286690615b5a565b60405180910390fd5b6001600560008473ffffffffffffffffffffffffffffffffffffffff1673ffffffffffffffffffffffffffffffffffffffff16815260200190815260200160002060100160003373ffffffffffffffffffffffffffffffffffffffff1673ffffffffffffffffffffffffffffffffffffffff16815260200190815260200160002060006101000a81548160ff0219169083151502179055506001811415612966576001600560008473ffffffffffffffffffffffffffffffffffffffff1673ffffffffffffffffffffffffffffffffffffffff168152602001908152602001600020600a01600082825401925050819055506129e1565b7fffffffffffffffffffffffffffffffffffffffffffffffffffffffffffffffff8114156129e0576001600560008473ffffffffffffffffffffffffffffffffffffffff1673ffffffffffffffffffffffffffffffffffffffff168152602001908152602001600020600b01600082825401925050819055505b5b5050565b60006002826040518082805190602001908083835b602083101515612a1f57805182526020820191506020810190506020830392506129fa565b6001836020036101000a038019825116818451168082178552505050505050905001915050908152602001604051809103902060080160009054906101000a900460ff169050919050565b6000612a74614b16565b6002846040518082805190602001908083835b602083101515612aac5780518252602082019150602081019050602083039250612a87565b6001836020036101000a038019825116818451168082178552505050505050905001915050908152602001604051809103902061014060405190810160405290816000820160009054906101000a900473ffffffffffffffffffffffffffffffffffffffff1673ffffffffffffffffffffffffffffffffffffffff1673ffffffffffffffffffffffffffffffffffffffff168152602001600182018054600181600116156101000203166002900480601f016020809104026020016040519081016040528092919081815260200182805460018160011615610100020316600290048015612bdb5780601f10612bb057610100808354040283529160200191612bdb565b820191906000526020600020905b815481529060010190602001808311612bbe57829003601f168201915b50505050508152602001600282018054600181600116156101000203166002900480601f016020809104026020016040519081016040528092919081815260200182805460018160011615610100020316600290048015612c7d5780601f10612c5257610100808354040283529160200191612c7d565b820191906000526020600020905b815481529060010190602001808311612c6057829003601f168201915b50505050508152602001600382018054600181600116156101000203166002900480601f016020809104026020016040519081016040528092919081815260200182805460018160011615610100020316600290048015612d1f5780601f10612cf457610100808354040283529160200191612d1f565b820191906000526020600020905b815481529060010190602001808311612d0257829003601f168201915b50505050508152602001600482015481526020016005820154815260200160068201548152602001600782015481526020016008820160009054906101000a900460ff166003811115612d6e57fe5b6003811115612d7957fe5b81526020016008820160019054906101000a900460ff16151515158152505090508060e001518160c00151101515612de6576040517f08c379a0000000000000000000000000000000000000000000000000000000008152600401612ddd90615b3a565b60405180910390fd5b604051806000019050604051809103902060001916836040518082805190602001908083835b602083101515612e315780518252602082019150602081019050602083039250612e0c565b6001836020036101000a03801982511681845116808217855250505050505090500191505060405180910390206000191614151515612e6f57600080fd5b604051806000019050604051809103902060001916846040518082805190602001908083835b602083101515612eba5780518252602082019150602081019050602083039250612e95565b6001836020036101000a03801982511681845116808217855250505050505090500191505060405180910390206000191614151515612ef857600080fd5b60026003811115612f0557fe5b8161010001516003811115612f1657fe5b141515612f2257600080fd5b6040518060000190506040518091039020600019166002856040518082805190602001908083835b602083101515612f6f5780518252602082019150602081019050602083039250612f4a565b6001836020036101000a038019825116818451168082178552505050505050905001915050908152602001604051809103902060090160003373ffffffffffffffffffffffffffffffffffffffff1673ffffffffffffffffffffffffffffffffffffffff16815260200190815260200160002060000160405180828054600181600116156101000203166002900480156130405780601f1061301e576101008083540402835291820191613040565b820191906000526020600020905b81548152906001019060200180831161302c575b505091505060405180910390206000191614151561305d57600080fd5b602060405190810160405280848152506002856040518082805190602001908083835b6020831015156130a55780518252602082019150602081019050602083039250613080565b6001836020036101000a038019825116818451168082178552505050505050905001915050908152602001604051809103902060090160003373ffffffffffffffffffffffffffffffffffffffff1673ffffffffffffffffffffffffffffffffffffffff1681526020019081526020016000206000820151816000019080519060200190613134929190614b8d565b5090505060016002856040518082805190602001908083835b602083101515613172578051825260208201915060208101905060208303925061314d565b6001836020036101000a038019825116818451168082178552505050505050905001915050908152602001604051809103902060060160008282540192505081905550600160009054906101000a900473ffffffffffffffffffffffffffffffffffffffff1673ffffffffffffffffffffffffffffffffffffffff1663a9059cbb3383608001516040518363ffffffff167c01000000000000000000000000000000000000000000000000000000000281526004016132329291906158d2565b602060405180830381600087803b15801561324c57600080fd5b505af1158015613260573d6000803e3d6000fd5b505050506040513d601f19601f82011682018060405250613284919081019061513c565b151561328f57600080fd5b6002846040518082805190602001908083835b6020831015156132c757805182526020820191506020810190506020830392506132a2565b6001836020036101000a0380198251168184511680821785525050505050509050019150509081526020016040518091039020600401546002856040518082805190602001908083835b6020831015156133365780518252602082019150602081019050602083039250613311565b6001836020036101000a0380198251168184511680821785525050505050509050019150509081526020016040518091039020600501600082825403925050819055503373ffffffffffffffffffffffffffffffffffffffff167f34c6e4292ec4c54b9ebd046067b22da7c48f22dba9723a4b79b837e3a191a5d68585846040015185608001516040516133cd9493929190615990565b60405180910390a280608001516002856040518082805190602001908083835b60208310151561341257805182526020820191506020810190506020830392506133ed565b6001836020036101000a038019825116818451168082178552505050505050905001915050908152602001604051809103902060050154101561354e5760036002856040518082805190602001908083835b6020831015156134895780518252602082019150602081019050602083039250613464565b6001836020036101000a038019825116818451168082178552505050505050905001915050908152602001604051809103902060080160006101000a81548160ff021916908360038111156134da57fe5b0217905550806000015173ffffffffffffffffffffffffffffffffffffffff167f8d19faf08adf4f904aba4b47ace07c0c7c74712a6d39e931bff4dcbc25b5419582602001518360400151846060015185608001518660e00151604051613545959493929190615a52565b60405180910390a25b5092915050565b61355d614c7e565b6000809054906101000a900473ffffffffffffffffffffffffffffffffffffffff1673ffffffffffffffffffffffffffffffffffffffff163373ffffffffffffffffffffffffffffffffffffffff161415156135b857600080fd5b610100604051908101604052808973ffffffffffffffffffffffffffffffffffffffff1681526020013373ffffffffffffffffffffffffffffffffffffffff16815260200188815260200187815260200186815260200185815260200184815260200183815250905080600360008a73ffffffffffffffffffffffffffffffffffffffff1673ffffffffffffffffffffffffffffffffffffffff16815260200190815260200160002060008201518160000160006101000a81548173ffffffffffffffffffffffffffffffffffffffff021916908373ffffffffffffffffffffffffffffffffffffffff16021790555060208201518160010160006101000a81548173ffffffffffffffffffffffffffffffffffffffff021916908373ffffffffffffffffffffffffffffffffffffffff1602179055506040820151816002015560608201518160030155608082015181600401908051906020019061371f929190614b8d565b5060a082015181600501908051906020019061373c929190614b8d565b5060c0820151816006019080519060200190613759929190614b8d565b5060e0820151816007019080519060200190613776929190614b8d565b5090505085877f4053d8cb76e386f51bfe2ded3dc6303b2d7076dfa9d3fe6b8ced13a9b50f77dd8a888888886040516137b3959493929190615863565b60405180910390a35050505050505050565b6060600460008373ffffffffffffffffffffffffffffffffffffffff1673ffffffffffffffffffffffffffffffffffffffff1681526020019081526020016000206000018054600181600116156101000203166002900480601f01602080910402602001604051908101604052809291908181526020018280546001816001161561010002031660029004801561389d5780601f106138725761010080835404028352916020019161389d565b820191906000526020600020905b81548152906001019060200180831161388057829003601f168201915b50505050509050919050565b60006040518060000190506040518091039020600019166002846040518082805190602001908083835b6020831015156138f857805182526020820191506020810190506020830392506138d3565b6001836020036101000a038019825116818451168082178552505050505050905001915050908152602001604051809103902060090160008473ffffffffffffffffffffffffffffffffffffffff1673ffffffffffffffffffffffffffffffffffffffff16815260200190815260200160002060000160405180828054600181600116156101000203166002900480156139c95780601f106139a75761010080835404028352918201916139c9565b820191906000526020600020905b8154815290600101906020018083116139b5575b50509150506040518091039020600019161415905092915050565b6139ec614c6a565b6139f4614c7e565b6139fc614c0d565b600060018610158015613a10575060048611155b1515613a51576040517f08c379a0000000000000000000000000000000000000000000000000000000008152600401613a4890615bba565b60405180910390fd5b600460003373ffffffffffffffffffffffffffffffffffffffff1673ffffffffffffffffffffffffffffffffffffffff16815260200190815260200160002060206040519081016040529081600082018054600181600116156101000203166002900480601f016020809104026020016040519081016040528092919081815260200182805460018160011615610100020316600290048015613b355780601f10613b0a57610100808354040283529160200191613b35565b820191906000526020600020905b815481529060010190602001808311613b1857829003601f168201915b505050505081525050935060405180600001905060405180910390206000191684600001516040518082805190602001908083835b602083101515613b8f5780518252602082019150602081019050602083039250613b6a565b6001836020036101000a03801982511681845116808217855250505050505090500191505060405180910390206000191614151515613c03576040517f08c379a0000000000000000000000000000000000000000000000000000000008152600401613bfa90615ada565b60405180910390fd5b600360008873ffffffffffffffffffffffffffffffffffffffff1673ffffffffffffffffffffffffffffffffffffffff16815260200190815260200160002061010060405190810160405290816000820160009054906101000a900473ffffffffffffffffffffffffffffffffffffffff1673ffffffffffffffffffffffffffffffffffffffff1673ffffffffffffffffffffffffffffffffffffffff1681526020016001820160009054906101000a900473ffffffffffffffffffffffffffffffffffffffff1673ffffffffffffffffffffffffffffffffffffffff1673ffffffffffffffffffffffffffffffffffffffff1681526020016002820154815260200160038201548152602001600482018054600181600116156101000203166002900480601f016020809104026020016040519081016040528092919081815260200182805460018160011615610100020316600290048015613da85780601f10613d7d57610100808354040283529160200191613da8565b820191906000526020600020905b815481529060010190602001808311613d8b57829003601f168201915b50505050508152602001600582018054600181600116156101000203166002900480601f016020809104026020016040519081016040528092919081815260200182805460018160011615610100020316600290048015613e4a5780601f10613e1f57610100808354040283529160200191613e4a565b820191906000526020600020905b815481529060010190602001808311613e2d57829003601f168201915b50505050508152602001600682018054600181600116156101000203166002900480601f016020809104026020016040519081016040528092919081815260200182805460018160011615610100020316600290048015613eec5780601f10613ec157610100808354040283529160200191613eec565b820191906000526020600020905b815481529060010190602001808311613ecf57829003601f168201915b50505050508152602001600782018054600181600116156101000203166002900480601f016020809104026020016040519081016040528092919081815260200182805460018160011615610100020316600290048015613f8e5780601f10613f6357610100808354040283529160200191613f8e565b820191906000526020600020905b815481529060010190602001808311613f7157829003601f168201915b505050505081525050925061010060405190810160405280858152602001848152602001878152602001600081526020016000815260200186815260200160006002811115613fd957fe5b8152602001613fe733610b5c565b815250915081600560008a73ffffffffffffffffffffffffffffffffffffffff1673ffffffffffffffffffffffffffffffffffffffff1681526020019081526020016000206000820151816000016000820151816000019080519060200190614051929190614b8d565b50505060208201518160010160008201518160000160006101000a81548173ffffffffffffffffffffffffffffffffffffffff021916908373ffffffffffffffffffffffffffffffffffffffff16021790555060208201518160010160006101000a81548173ffffffffffffffffffffffffffffffffffffffff021916908373ffffffffffffffffffffffffffffffffffffffff1602179055506040820151816002015560608201518160030155608082015181600401908051906020019061411b929190614b8d565b5060a0820151816005019080519060200190614138929190614b8d565b5060c0820151816006019080519060200190614155929190614b8d565b5060e0820151816007019080519060200190614172929190614b8d565b50505060408201518160090155606082015181600a0155608082015181600b015560a082015181600c0190805190602001906141af929190614b8d565b5060c082015181600d0160006101000a81548160ff021916908360028111156141d457fe5b021790555060e082015181600e0190805190602001906141f5929190614cf0565b50905050600090505b8160e001515181101561428d578160e001518181518110151561421d57fe5b9060200190602002015173ffffffffffffffffffffffffffffffffffffffff168873ffffffffffffffffffffffffffffffffffffffff167f516fad89f67e240d0a64ec70fafc3d3e19cbef89cf5d91598b143a101e4dbf1b60405160405180910390a380806001019150506141fe565b8673ffffffffffffffffffffffffffffffffffffffff163373ffffffffffffffffffffffffffffffffffffffff167fc8e93948f0d856bad2f514ddd6a9379aabdc542c58efc5f44619ecf11dbe90328a886040516142ec929190615833565b60405180910390a35050505050505050565b6000809054906101000a900473ffffffffffffffffffffffffffffffffffffffff1673ffffffffffffffffffffffffffffffffffffffff163373ffffffffffffffffffffffffffffffffffffffff1614151561435957600080fd5b600073ffffffffffffffffffffffffffffffffffffffff168173ffffffffffffffffffffffffffffffffffffffff161415151561439557600080fd5b8073ffffffffffffffffffffffffffffffffffffffff166000809054906101000a900473ffffffffffffffffffffffffffffffffffffffff1673ffffffffffffffffffffffffffffffffffffffff167f8be0079c531659141344cd1fd0a4f28419497f9722a3daafe3b4186f6b6457e060405160405180910390a3806000806101000a81548173ffffffffffffffffffffffffffffffffffffffff021916908373ffffffffffffffffffffffffffffffffffffffff16021790555050565b61445b614b16565b60006002846040518082805190602001908083835b6020831015156144955780518252602082019150602081019050602083039250614470565b6001836020036101000a038019825116818451168082178552505050505050905001915050908152602001604051809103902061014060405190810160405290816000820160009054906101000a900473ffffffffffffffffffffffffffffffffffffffff1673ffffffffffffffffffffffffffffffffffffffff1673ffffffffffffffffffffffffffffffffffffffff168152602001600182018054600181600116156101000203166002900480601f0160208091040260200160405190810160405280929190818152602001828054600181600116156101000203166002900480156145c45780601f10614599576101008083540402835291602001916145c4565b820191906000526020600020905b8154815290600101906020018083116145a757829003601f168201915b50505050508152602001600282018054600181600116156101000203166002900480601f0160208091040260200160405190810160405280929190818152602001828054600181600116156101000203166002900480156146665780601f1061463b57610100808354040283529160200191614666565b820191906000526020600020905b81548152906001019060200180831161464957829003601f168201915b50505050508152602001600382018054600181600116156101000203166002900480601f0160208091040260200160405190810160405280929190818152602001828054600181600116156101000203166002900480156147085780601f106146dd57610100808354040283529160200191614708565b820191906000526020600020905b8154815290600101906020018083116146eb57829003601f168201915b50505050508152602001600482015481526020016005820154815260200160068201548152602001600782015481526020016008820160009054906101000a900460ff16600381111561475757fe5b600381111561476257fe5b81526020016008820160019054906101000a900460ff1615151515815250509150816000015173ffffffffffffffffffffffffffffffffffffffff163373ffffffffffffffffffffffffffffffffffffffff161415156147c157600080fd5b600160009054906101000a900473ffffffffffffffffffffffffffffffffffffffff1673ffffffffffffffffffffffffffffffffffffffff1663dd62ed3e33306040518363ffffffff167c010000000000000000000000000000000000000000000000000000000002815260040161483a9291906157d3565b602060405180830381600087803b15801561485457600080fd5b505af1158015614868573d6000803e3d6000fd5b505050506040513d601f19601f8201168201806040525061488c9190810190615379565b905082811015151561489d57600080fd5b600160009054906101000a900473ffffffffffffffffffffffffffffffffffffffff1673ffffffffffffffffffffffffffffffffffffffff166323b872dd3330866040518463ffffffff167c0100000000000000000000000000000000000000000000000000000000028152600401614918939291906157fc565b602060405180830381600087803b15801561493257600080fd5b505af1158015614946573d6000803e3d6000fd5b505050506040513d601f19601f8201168201806040525061496a919081019061513c565b151561497557600080fd5b826002856040518082805190602001908083835b6020831015156149ae5780518252602082019150602081019050602083039250614989565b6001836020036101000a038019825116818451168082178552505050505050905001915050908152602001604051809103902060050160008282540192505081905550600060038111156149fe57fe5b8261010001516003811115614a0f57fe5b1415614aa65760016002856040518082805190602001908083835b602083101515614a4f5780518252602082019150602081019050602083039250614a2a565b6001836020036101000a038019825116818451168082178552505050505050905001915050908152602001604051809103902060080160006101000a81548160ff02191690836003811115614aa057fe5b02179055505b3373ffffffffffffffffffffffffffffffffffffffff167f7d703b99136412be3113d8613d984b3314e5afef7799b73dbc59f0dc66ae2b7f83602001518460400151856060015186608001518760e00151604051614b08959493929190615a52565b60405180910390a250505050565b61014060405190810160405280600073ffffffffffffffffffffffffffffffffffffffff1681526020016060815260200160608152602001606081526020016000815260200160008152602001600081526020016000815260200160006003811115614b7e57fe5b81526020016000151581525090565b828054600181600116156101000203166002900490600052602060002090601f016020900481019282601f10614bce57805160ff1916838001178555614bfc565b82800160010185558215614bfc579182015b82811115614bfb578251825591602001919060010190614be0565b5b509050614c099190614d7a565b5090565b6101e060405190810160405280614c22614d9f565b8152602001614c2f614db3565b81526020016000815260200160008152602001600081526020016060815260200160006002811115614c5d57fe5b8152602001606081525090565b602060405190810160405280606081525090565b61010060405190810160405280600073ffffffffffffffffffffffffffffffffffffffff168152602001600073ffffffffffffffffffffffffffffffffffffffff1681526020016000815260200160008152602001606081526020016060815260200160608152602001606081525090565b828054828255906000526020600020908101928215614d69579160200282015b82811115614d685782518260006101000a81548173ffffffffffffffffffffffffffffffffffffffff021916908373ffffffffffffffffffffffffffffffffffffffff16021790555091602001919060010190614d10565b5b509050614d769190614e25565b5090565b614d9c91905b80821115614d98576000816000905550600101614d80565b5090565b90565b602060405190810160405280606081525090565b61010060405190810160405280600073ffffffffffffffffffffffffffffffffffffffff168152602001600073ffffffffffffffffffffffffffffffffffffffff1681526020016000815260200160008152602001606081526020016060815260200160608152602001606081525090565b614e6591905b80821115614e6157600081816101000a81549073ffffffffffffffffffffffffffffffffffffffff021916905550600101614e2b565b5090565b90565b6000614e748235615d54565b905092915050565b6000614e888251615d74565b905092915050565b6000614e9c8235615d80565b905092915050565b600082601f8301121515614eb757600080fd5b8135614eca614ec582615c8b565b615c5e565b91508082526020830160208301858383011115614ee657600080fd5b614ef1838284615dca565b50505092915050565b6000614f068235615d8a565b905092915050565b6000614f1a8251615d8a565b905092915050565b600060208284031215614f3457600080fd5b6000614f4284828501614e68565b91505092915050565b60008060408385031215614f5e57600080fd5b6000614f6c85828601614e68565b9250506020614f7d85828601614e68565b9150509250929050565b60008060008060808587031215614f9d57600080fd5b6000614fab87828801614e68565b9450506020614fbc87828801614e68565b9350506040614fcd87828801614efa565b925050606085013567ffffffffffffffff811115614fea57600080fd5b614ff687828801614ea4565b91505092959194509250565b6000806040838503121561501557600080fd5b600061502385828601614e68565b925050602061503485828601614e90565b9150509250929050565b600080600080600080600060e0888a03121561505957600080fd5b60006150678a828b01614e68565b97505060206150788a828b01614efa565b96505060406150898a828b01614efa565b955050606088013567ffffffffffffffff8111156150a657600080fd5b6150b28a828b01614ea4565b945050608088013567ffffffffffffffff8111156150cf57600080fd5b6150db8a828b01614ea4565b93505060a088013567ffffffffffffffff8111156150f857600080fd5b6151048a828b01614ea4565b92505060c088013567ffffffffffffffff81111561512157600080fd5b61512d8a828b01614ea4565b91505092959891949750929550565b60006020828403121561514e57600080fd5b600061515c84828501614e7c565b91505092915050565b60006020828403121561517757600080fd5b600082013567ffffffffffffffff81111561519157600080fd5b61519d84828501614ea4565b91505092915050565b600080604083850312156151b957600080fd5b600083013567ffffffffffffffff8111156151d357600080fd5b6151df85828601614ea4565b92505060206151f085828601614e68565b9150509250929050565b6000806040838503121561520d57600080fd5b600083013567ffffffffffffffff81111561522757600080fd5b61523385828601614ea4565b925050602083013567ffffffffffffffff81111561525057600080fd5b61525c85828601614ea4565b9150509250929050565b600080600080600060a0868803121561527e57600080fd5b600086013567ffffffffffffffff81111561529857600080fd5b6152a488828901614ea4565b955050602086013567ffffffffffffffff8111156152c157600080fd5b6152cd88828901614ea4565b945050604086013567ffffffffffffffff8111156152ea57600080fd5b6152f688828901614ea4565b935050606061530788828901614efa565b925050608061531888828901614efa565b9150509295509295909350565b6000806040838503121561533857600080fd5b600083013567ffffffffffffffff81111561535257600080fd5b61535e85828601614ea4565b925050602061536f85828601614efa565b9150509250929050565b60006020828403121561538b57600080fd5b600061539984828501614f0e565b91505092915050565b6153ab81615cf2565b82525050565b60006153bc82615cc4565b8084526020840193506153ce83615cb7565b60005b82811015615400576153e48683516153a2565b6153ed82615ce5565b91506020860195506001810190506153d1565b50849250505092915050565b61541581615d12565b82525050565b61542481615d94565b82525050565b61543381615da6565b82525050565b61544281615db8565b82525050565b600061545382615cda565b808452615467816020860160208601615dd9565b61547081615e0c565b602085010191505092915050565b600061548982615ccf565b80845261549d816020860160208601615dd9565b6154a681615e0c565b602085010191505092915050565b6000601c82527f566f7465206d757374206265206569746865722031206f72202d312e000000006020830152604082019050919050565b6000603882527f596f7520617265206e6f7420726567697374657265642061732061207573657260208301527f2e20506c656173652072656769737465722066697273742100000000000000006040830152606082019050919050565b6000601582527f566f7465206d757374206265202d31206f7220312e00000000000000000000006020830152604082019050919050565b6000602482527f4e6f7420656e6f7567682076616c696461746f727320696e207468652073797360208301527f74656d21000000000000000000000000000000000000000000000000000000006040830152606082019050919050565b6000602082527f4d617869756d206e756d626572206f6620616e737765727320726561636865646020830152604082019050919050565b6000602182527f596f7520616c726561647920766f746564206f6e20746869732072657669657760208301527f2e000000000000000000000000000000000000000000000000000000000000006040830152606082019050919050565b6000602b82527f596f7520617265206e6f742063686f73656e20746f2076616c6964617465207460208301527f686973207265766965772e0000000000000000000000000000000000000000006040830152606082019050919050565b6000601782527f557365726e616d652063616e277420626520656d7074790000000000000000006020830152604082019050919050565b6000601d82527f53636f7265206d757374206265206265747765656e203120616e6420340000006020830152604082019050919050565b6000601982527f52657669657720616c72656164792076616c6964617465642e000000000000006020830152604082019050919050565b6000601882527f56616c696461746f7220616c72656164792065786973747300000000000000006020830152604082019050919050565b6157b281615d4a565b82525050565b60006020820190506157cd60008301846153a2565b92915050565b60006040820190506157e860008301856153a2565b6157f5602083018461541b565b9392505050565b600060608201905061581160008301866153a2565b61581e602083018561541b565b61582b60408301846157a9565b949350505050565b600060408201905061584860008301856153a2565b818103602083015261585a8184615448565b90509392505050565b600060a08201905061587860008301886153a2565b818103602083015261588a8187615448565b9050818103604083015261589e8186615448565b905081810360608301526158b28185615448565b905081810360808301526158c68184615448565b90509695505050505050565b60006040820190506158e760008301856153a2565b6158f460208301846157a9565b9392505050565b6000602082019050818103600083015261591581846153b1565b905092915050565b6000602082019050615932600083018461540c565b92915050565b600060208201905061594d600083018461542a565b92915050565b60006020820190506159686000830184615439565b92915050565b600060208201905081810360008301526159888184615448565b905092915050565b600060808201905081810360008301526159aa8187615448565b905081810360208301526159be8186615448565b905081810360408301526159d2818561547e565b90506159e160608301846157a9565b95945050505050565b600060a0820190508181036000830152615a04818861547e565b90508181036020830152615a188187615448565b90508181036040830152615a2c8186615448565b9050615a3b60608301856157a9565b615a4860808301846157a9565b9695505050505050565b600060a0820190508181036000830152615a6c818861547e565b90508181036020830152615a80818761547e565b90508181036040830152615a94818661547e565b9050615aa360608301856157a9565b615ab060808301846157a9565b9695505050505050565b60006020820190508181036000830152615ad3816154b4565b9050919050565b60006020820190508181036000830152615af3816154eb565b9050919050565b60006020820190508181036000830152615b1381615548565b9050919050565b60006020820190508181036000830152615b338161557f565b9050919050565b60006020820190508181036000830152615b53816155dc565b9050919050565b60006020820190508181036000830152615b7381615613565b9050919050565b60006020820190508181036000830152615b9381615670565b9050919050565b60006020820190508181036000830152615bb3816156cd565b9050919050565b60006020820190508181036000830152615bd381615704565b9050919050565b60006020820190508181036000830152615bf38161573b565b9050919050565b60006020820190508181036000830152615c1381615772565b9050919050565b6000602082019050615c2f60008301846157a9565b92915050565b6000604082019050615c4a60008301856157a9565b615c5760208301846157a9565b9392505050565b6000604051905081810181811067ffffffffffffffff82111715615c8157600080fd5b8060405250919050565b600067ffffffffffffffff821115615ca257600080fd5b601f19601f8301169050602081019050919050565b6000602082019050919050565b600081519050919050565b600081519050919050565b600081519050919050565b6000602082019050919050565b600073ffffffffffffffffffffffffffffffffffffffff82169050919050565b60008115159050919050565b6000600382101515615d2c57fe5b819050919050565b6000600482101515615d4257fe5b819050919050565b6000819050919050565b600073ffffffffffffffffffffffffffffffffffffffff82169050919050565b60008115159050919050565b6000819050919050565b6000819050919050565b6000615d9f82615cf2565b9050919050565b6000615db182615d1e565b9050919050565b6000615dc382615d34565b9050919050565b82818337600083830152505050565b60005b83811015615df7578082015181840152602081019050615ddc565b83811115615e06576000848401525b50505050565b6000601f19601f83011690509190505600a265627a7a723058209e710649e5ee9b696946dd77c9f7ae46158ec1e3bcd33d65bba74e6611e180d66c6578706572696d656e74616cf50037",
  "source": "pragma solidity ^0.4.24;\npragma experimental ABIEncoderV2;\n\nimport \"./REWToken.sol\";\nimport \"zeppelin-solidity/contracts/ownership/Ownable.sol\";\n\ncontract ReviewNetwork is Ownable {\n    REWToken token;\n    uint constant NUMBER_OF_VALIDATORS = 3;\n\n    enum SurveyStatus { IDLE, FUNDED, IN_PROGRESS, COMPLETED }\n    enum ReviewStatus { PENDING, APPROVED, REJECTED }\n\n    struct User {\n        string username;\n    }\n\n    struct Answer {\n        string answersJsonHash;\n    }\n\n    struct Survey {\n        address creator;\n        string publicKey;\n        string title;\n        string surveyJsonHash;\n        uint rewardPerSurvey;\n        uint funds;\n        uint currentAnswers;\n        uint maxAnswers;\n        SurveyStatus status;\n        bool suspended;\n        mapping (address => Answer) answers;\n    }\n\n    struct Product {\n        address productAddress;\n        address addedBy;\n        uint categoryId;\n        uint subcategoryId;\n        string name;\n        string image;\n        string description;\n        string metaJsonHash;\n    }\n\n    struct Review {\n        User author;\n        Product product;\n        uint score;\n        uint upvotes;\n        uint downvotes;\n        string metaJsonHash;\n        ReviewStatus status;\n        address[] chosenValidators;\n        mapping (address => int) validationVotes;\n        mapping (address => bool) userVotes;\n    }\n\n    /**\n     * key: string - Survey JSON IPFS hash\n     */\n    mapping (string => Survey) surveys;\n    mapping (address => Product) products;\n    mapping (address => User) users;\n    mapping (address => Review) reviews;\n    address[] validators;\n\n    event LogSurveyAdded(\n        address indexed creator,\n        string publicKey,\n        string title,\n        string surveyJsonHash,\n        uint rewardPerSurvey,\n        uint maxAnswers\n    );\n    \n    event LogSurveyFunded(\n        address indexed creator,\n        string publicKey,\n        string title,\n        string surveyJsonHash,\n        uint rewardPerSurvey,\n        uint maxAnswers\n    );\n    \n    event LogSurveyStarted(\n        address indexed creator,\n        string publicKey,\n        string title,\n        string surveyJsonHash,\n        uint rewardPerSurvey,\n        uint maxAnswers\n    );\n\n    event LogSurveyCompleted(\n        address indexed creator,\n        string publicKey,\n        string title,\n        string surveyJsonHash,\n        uint rewardPerSurvey,\n        uint maxAnswers\n    );\n\n    event LogSurveyAnswered(\n        address indexed user,\n        string surveyJsonHash,\n        string answersJsonHash,\n        string title,\n        uint rewardPerSurvey\n    );\n\n    event LogProductAdded(\n        address productAddress,\n        uint indexed categoryId,\n        uint indexed subcategoryId,\n        string name,\n        string image,\n        string description,\n        string metaHashJson\n    );\n\n    event LogReviewAdded(\n        address reviewAddress,\n        address indexed authorAddress,\n        address indexed productAddress,\n        string metaJsonHash\n    );\n\n    event LogValidatorAdded(\n        address validatorAddress\n    );\n\n    event LogValidatorChosen(\n        address indexed reviewAddress,\n        address indexed validatorAddress\n    );\n\n    event LogReviewApproved(\n        address indexed productAddress,\n        address indexed reviewAddress\n    );\n\n    event LogReviewRejected(\n        address indexed productAddress,\n        address indexed reviewAddress\n    );\n\n    constructor (address REWTokenAddress) public {\n        token = REWToken(REWTokenAddress);\n    }\n\n    function createSurvey(\n        string publicKey,\n        string title,\n        string surveyJsonHash,\n        uint rewardPerSurvey,\n        uint maxAnswers\n    ) public {\n        Survey memory s = Survey(\n            msg.sender,\n            publicKey,\n            title,\n            surveyJsonHash,\n            rewardPerSurvey,\n            0,\n            0,\n            maxAnswers,\n            SurveyStatus.IDLE,\n            false\n        );\n\n        surveys[surveyJsonHash] = s;\n\n        emit LogSurveyAdded(\n            msg.sender,\n            s.publicKey,\n            title,\n            surveyJsonHash,\n            rewardPerSurvey,\n            maxAnswers\n        );\n    }\n\n    function suspendSurvey (string surveyJsonHash) public onlyOwner {\n        surveys[surveyJsonHash].suspended = true;\n    }\n\n    function isSurveySuspended (string surveyJsonHash) public view returns (bool) {\n        return surveys[surveyJsonHash].suspended;\n    }\n\n    function fundSurvey(string surveyJsonHash, uint amount) public {\n        Survey memory survey = surveys[surveyJsonHash];\n\n        require(msg.sender == survey.creator);\n\n        uint allowance = token.allowance(msg.sender, this);\n        require(allowance >= amount);\n\n        require(token.transferFrom(msg.sender, this, amount));\n        surveys[surveyJsonHash].funds += amount;\n        \n        if(survey.status == SurveyStatus.IDLE) {\n            surveys[surveyJsonHash].status = SurveyStatus.FUNDED;\n        }\n\n        emit LogSurveyFunded(\n            msg.sender,\n            survey.publicKey,\n            survey.title,\n            survey.surveyJsonHash,\n            survey.rewardPerSurvey,\n            survey.maxAnswers\n        );\n    }\n\n    function startSurvey(string surveyJsonHash) public {\n        Survey memory survey = surveys[surveyJsonHash];\n        require(msg.sender == survey.creator);\n        require(survey.status == SurveyStatus.FUNDED);\n\n        surveys[surveyJsonHash].status = SurveyStatus.IN_PROGRESS;\n\n        emit LogSurveyStarted(\n            msg.sender,\n            survey.publicKey,\n            survey.title,\n            survey.surveyJsonHash,\n            survey.rewardPerSurvey,\n            survey.maxAnswers\n        );\n    }\n\n    function completeSurvey(string surveyJsonHash) public {\n        Survey memory survey = surveys[surveyJsonHash];\n        require(msg.sender == survey.creator);\n        require(survey.status == SurveyStatus.IN_PROGRESS);\n\n        surveys[surveyJsonHash].status = SurveyStatus.COMPLETED;\n\n        emit LogSurveyCompleted(\n            msg.sender,\n            survey.publicKey,\n            survey.title,\n            survey.surveyJsonHash,\n            survey.rewardPerSurvey,\n            survey.maxAnswers\n        );\n    }\n\n    function getFunds(string surveyJsonHash) public view returns (uint) {\n        return surveys[surveyJsonHash].funds;\n    }\n\n    function getSurveyStatus(string surveyJsonHash) public view returns (SurveyStatus) {\n        return surveys[surveyJsonHash].status;\n    }\n\n    function answerSurvey(string surveyJsonHash, string answersJsonHash) public returns (bool) {\n        Survey memory survey = surveys[surveyJsonHash];\n        require(survey.currentAnswers < survey.maxAnswers, \"Maxium number of answers reached\");\n        require(keccak256(bytes(answersJsonHash)) != keccak256(\"\"));\n        require(keccak256(bytes(surveyJsonHash)) != keccak256(\"\"));\n        require(survey.status == SurveyStatus.IN_PROGRESS);\n        require(keccak256(surveys[surveyJsonHash].answers[msg.sender].answersJsonHash) == keccak256(\"\"));\n\n        surveys[surveyJsonHash].answers[msg.sender] = Answer(answersJsonHash);\n        surveys[surveyJsonHash].currentAnswers += 1;\n        require(token.transfer(msg.sender, survey.rewardPerSurvey));\n        surveys[surveyJsonHash].funds -= surveys[surveyJsonHash].rewardPerSurvey;\n        emit LogSurveyAnswered(msg.sender, surveyJsonHash, answersJsonHash, survey.title, survey.rewardPerSurvey);\n\n        if (surveys[surveyJsonHash].funds < survey.rewardPerSurvey) {\n            surveys[surveyJsonHash].status = SurveyStatus.COMPLETED;\n            emit LogSurveyCompleted(\n                survey.creator,\n                survey.publicKey,\n                survey.title,\n                survey.surveyJsonHash,\n                survey.rewardPerSurvey,\n                survey.maxAnswers\n            );\n        }\n    }\n\n    function isSurveyAnsweredBy(string surveyJsonHash, address user) public view returns (bool) {\n        return keccak256(bytes(surveys[surveyJsonHash].answers[user].answersJsonHash)) != keccak256(\"\");\n    }\n\n    function createProduct (\n        address productAddress,\n        uint categoryId,\n        uint subcategoryId,\n        string name,\n        string image,\n        string description,\n        string metaJsonHash\n    ) public onlyOwner {\n        Product memory product = Product({\n            productAddress: productAddress,\n            addedBy: msg.sender,\n            categoryId: categoryId,\n            subcategoryId: subcategoryId,\n            name: name,\n            image: image,\n            description: description,\n            metaJsonHash: metaJsonHash\n        });\n\n        products[productAddress] = product;\n\n        emit LogProductAdded(productAddress, categoryId, subcategoryId, name, image, description, metaJsonHash);\n    }\n\n    function registerUser (string username) public {\n        require(keccak256(username) != keccak256(\"\"), \"Username can't be empty\");\n        User memory user = User({ username: username });\n        users[msg.sender] = user;\n    }\n\n    function getUsername (address user) public view returns (string) {\n        return users[user].username;\n    }\n\n    function userExists (address userAddress) public view returns (bool) {\n        return keccak256(users[userAddress].username) != keccak256(\"\");\n    }\n\n    function createReview (\n        address reviewAddress,\n        address productAddress,\n        uint score,\n        string metaJsonHash\n    ) public {\n        require(score >= 1 && score <= 4, \"Score must be between 1 and 4\");\n\n        User memory author = users[msg.sender];\n        require(keccak256(author.username) != keccak256(\"\"), \"You are not registered as a user. Please register first!\");\n\n        Product memory product = products[productAddress];\n\n        Review memory review = Review({\n            author: author,\n            product: product,\n            score: score,\n            upvotes: 0,\n            downvotes: 0,\n            metaJsonHash: metaJsonHash,\n            status: ReviewStatus.PENDING,\n            chosenValidators: choseValidators(msg.sender)\n        });\n\n        reviews[reviewAddress] = review;\n\n        for (uint index = 0; index < review.chosenValidators.length; index++) {\n            emit LogValidatorChosen(reviewAddress, review.chosenValidators[index]);\n        }\n\n        emit LogReviewAdded(reviewAddress, msg.sender, productAddress, metaJsonHash);\n    }\n\n    function voteReview (address reviewAddress, int vote) public {\n        require(vote == 1 || vote == -1, \"Vote must be either 1 or -1.\");\n        require(reviews[reviewAddress].userVotes[msg.sender] == false, \"You already voted on this review.\");\n\n        reviews[reviewAddress].userVotes[msg.sender] = true;\n\n        if (vote == 1) {\n            reviews[reviewAddress].upvotes += 1;\n        } else if (vote == -1) {\n            reviews[reviewAddress].downvotes += 1;\n        }\n    }\n\n    function getReviewVotes (address reviewAddress) public view returns (uint upvotes, uint downvotes) {\n        return (reviews[reviewAddress].upvotes, reviews[reviewAddress].downvotes);\n    }\n\n    function getReviewStatus(address reviewAddress) public view returns (ReviewStatus) {\n        return reviews[reviewAddress].status;\n    }\n\n    function isValidatorChosenForReview (address reviewAddress, address validator) public view returns (bool) {\n        Review memory review = reviews[reviewAddress];\n        \n        bool isValidatorChosen = false;\n        for (uint index = 0; index < review.chosenValidators.length; index++) {\n            if (review.chosenValidators[index] == validator) {\n                isValidatorChosen = true;\n            }\n        }\n\n        return isValidatorChosen;\n    }\n\n    function validatorVote(address reviewAddress, int vote) public {\n        Review storage review = reviews[reviewAddress];\n\n        require(review.status == ReviewStatus.PENDING, \"Review already validated.\");\n        require(reviews[reviewAddress].validationVotes[msg.sender] == 0, \"You already voted on this review.\");\n        require(isValidatorChosenForReview(reviewAddress, msg.sender), \"You are not chosen to validate this review.\");\n        require(vote == -1 || vote == 1, \"Vote must be -1 or 1.\");\n\n        reviews[reviewAddress].validationVotes[msg.sender] = vote;\n\n        bool everyoneVoted = true;\n        int tally = 0;\n\n        for (uint index = 0; index < NUMBER_OF_VALIDATORS; index++) {\n            tally += review.validationVotes[review.chosenValidators[index]];\n\n            if (review.validationVotes[review.chosenValidators[index]] == 0) {\n                everyoneVoted = false;\n            }\n        }\n\n        if (everyoneVoted) {\n            if (tally > 0) {\n                reviews[reviewAddress].status = ReviewStatus.APPROVED;\n                emit LogReviewApproved(review.product.productAddress, reviewAddress);\n            } else {\n                reviews[reviewAddress].status = ReviewStatus.REJECTED;\n                emit LogReviewRejected(review.product.productAddress, reviewAddress);\n            }\n        }\n    }\n\n    function addValidator(address validatorAddress) public onlyOwner {\n        bool validatorExists = false;\n        for(uint i = 0; i < validators.length; i++) {\n            if (validatorAddress == validators[i]) {\n                validatorExists = true;\n            }\n        }\n        \n        require(!validatorExists, \"Validator already exists\");\n        validators.push(validatorAddress);\n\n        emit LogValidatorAdded(validatorAddress);\n    }\n\n    function choseValidators(address author) public view returns (address[]) {\n        require(validators.length >= NUMBER_OF_VALIDATORS, \"Not enough validators in the system!\");\n\n        uint a = uint256(author);\n        bytes32 b = bytes32(block.timestamp);\n        uint r = uint(keccak256(abi.encodePacked(a, b)));\n        uint point = r % validators.length;\n\n        address[] memory chosenOnes = new address[](NUMBER_OF_VALIDATORS);\n\n        uint counter = 0;\n        uint index = 1;\n\n        while(counter < NUMBER_OF_VALIDATORS) {\n            address chosenValidator = validators[(point + index) % validators.length];\n\n            bool alreadyPicked = false;\n            for(uint i = 0; i < chosenOnes.length; i++) {\n                if (chosenOnes[i] == chosenValidator) {\n                    alreadyPicked = true;\n                } \n            }\n\n            if (!alreadyPicked) {\n                chosenOnes[counter] = chosenValidator;\n                counter++;\n            }\n\n            index++;\n\n        }\n\n        return chosenOnes;\n    }\n}\n",
  "sourcePath": "/Users/petars/projects/review-network/rn-prototype-solidity/contracts/ReviewNetwork.sol",
  "compiler": {
    "name": "solc",
    "version": "0.4.24+commit.e67f0147.Emscripten.clang"
  },
  "schemaVersion": "2.0.1",
  "updatedAt": "2018-08-31T01:15:17.453Z"
}