{
  "contractName": "ReviewNetwork",
  "abi": [
    {
      "constant": true,
      "inputs": [],
      "name": "owner",
      "outputs": [
        {
          "name": "",
          "type": "address"
        }
      ],
      "payable": false,
      "stateMutability": "view",
      "type": "function"
    },
    {
      "constant": false,
      "inputs": [
        {
          "name": "newOwner",
          "type": "address"
        }
      ],
      "name": "transferOwnership",
      "outputs": [],
      "payable": false,
      "stateMutability": "nonpayable",
      "type": "function"
    },
    {
      "inputs": [
        {
          "name": "REWTokenAddress",
          "type": "address"
        }
      ],
      "payable": false,
      "stateMutability": "nonpayable",
      "type": "constructor"
    },
    {
      "anonymous": false,
      "inputs": [
        {
          "indexed": true,
          "name": "creator",
          "type": "address"
        },
        {
          "indexed": false,
          "name": "publicKey",
          "type": "string"
        },
        {
          "indexed": false,
          "name": "title",
          "type": "string"
        },
        {
          "indexed": false,
          "name": "surveyJsonHash",
          "type": "string"
        },
        {
          "indexed": false,
          "name": "rewardPerSurvey",
          "type": "uint256"
        }
      ],
      "name": "LogSurveyAdded",
      "type": "event"
    },
    {
      "anonymous": false,
      "inputs": [
        {
          "indexed": true,
          "name": "creator",
          "type": "address"
        },
        {
          "indexed": false,
          "name": "publicKey",
          "type": "string"
        },
        {
          "indexed": false,
          "name": "title",
          "type": "string"
        },
        {
          "indexed": false,
          "name": "surveyJsonHash",
          "type": "string"
        },
        {
          "indexed": false,
          "name": "rewardPerSurvey",
          "type": "uint256"
        }
      ],
      "name": "LogSurveyFunded",
      "type": "event"
    },
    {
      "anonymous": false,
      "inputs": [
        {
          "indexed": true,
          "name": "creator",
          "type": "address"
        },
        {
          "indexed": false,
          "name": "publicKey",
          "type": "string"
        },
        {
          "indexed": false,
          "name": "title",
          "type": "string"
        },
        {
          "indexed": false,
          "name": "surveyJsonHash",
          "type": "string"
        },
        {
          "indexed": false,
          "name": "rewardPerSurvey",
          "type": "uint256"
        }
      ],
      "name": "LogSurveyStarted",
      "type": "event"
    },
    {
      "anonymous": false,
      "inputs": [
        {
          "indexed": true,
          "name": "creator",
          "type": "address"
        },
        {
          "indexed": false,
          "name": "publicKey",
          "type": "string"
        },
        {
          "indexed": false,
          "name": "title",
          "type": "string"
        },
        {
          "indexed": false,
          "name": "surveyJsonHash",
          "type": "string"
        },
        {
          "indexed": false,
          "name": "rewardPerSurvey",
          "type": "uint256"
        }
      ],
      "name": "LogSurveyCompleted",
      "type": "event"
    },
    {
      "anonymous": false,
      "inputs": [
        {
          "indexed": true,
          "name": "user",
          "type": "address"
        },
        {
          "indexed": false,
          "name": "surveyJsonHash",
          "type": "string"
        },
        {
          "indexed": false,
          "name": "answersJsonHash",
          "type": "string"
        },
        {
          "indexed": false,
          "name": "title",
          "type": "string"
        },
        {
          "indexed": false,
          "name": "rewardPerSurvey",
          "type": "uint256"
        }
      ],
      "name": "LogSurveyAnswered",
      "type": "event"
    },
    {
      "anonymous": false,
      "inputs": [
        {
          "indexed": true,
          "name": "brandAddress",
          "type": "address"
        },
        {
          "indexed": false,
          "name": "name",
          "type": "string"
        },
        {
          "indexed": false,
          "name": "logo",
          "type": "string"
        },
        {
          "indexed": false,
          "name": "metaHashJson",
          "type": "string"
        }
      ],
      "name": "LogBrandAdded",
      "type": "event"
    },
    {
      "anonymous": false,
      "inputs": [
        {
          "indexed": true,
          "name": "productAddress",
          "type": "address"
        },
        {
          "indexed": true,
          "name": "brandAddress",
          "type": "address"
        },
        {
          "indexed": false,
          "name": "name",
          "type": "string"
        },
        {
          "indexed": false,
          "name": "image",
          "type": "string"
        },
        {
          "indexed": false,
          "name": "metaHashJson",
          "type": "string"
        }
      ],
      "name": "LogProductAdded",
      "type": "event"
    },
    {
      "anonymous": false,
      "inputs": [
        {
          "indexed": false,
          "name": "reviewAddress",
          "type": "address"
        },
        {
          "indexed": true,
          "name": "authorAddress",
          "type": "address"
        },
        {
          "indexed": true,
          "name": "productAddress",
          "type": "address"
        }
      ],
      "name": "LogReviewAdded",
      "type": "event"
    },
    {
      "anonymous": false,
      "inputs": [
        {
          "indexed": true,
          "name": "previousOwner",
          "type": "address"
        },
        {
          "indexed": true,
          "name": "newOwner",
          "type": "address"
        }
      ],
      "name": "OwnershipTransferred",
      "type": "event"
    },
    {
      "constant": false,
      "inputs": [
        {
          "name": "publicKey",
          "type": "string"
        },
        {
          "name": "title",
          "type": "string"
        },
        {
          "name": "surveyJsonHash",
          "type": "string"
        },
        {
          "name": "rewardPerSurvey",
          "type": "uint256"
        }
      ],
      "name": "createSurvey",
      "outputs": [],
      "payable": false,
      "stateMutability": "nonpayable",
      "type": "function"
    },
    {
      "constant": false,
      "inputs": [
        {
          "name": "surveyJsonHash",
          "type": "string"
        },
        {
          "name": "amount",
          "type": "uint256"
        }
      ],
      "name": "fundSurvey",
      "outputs": [],
      "payable": false,
      "stateMutability": "nonpayable",
      "type": "function"
    },
    {
      "constant": false,
      "inputs": [
        {
          "name": "surveyJsonHash",
          "type": "string"
        }
      ],
      "name": "startSurvey",
      "outputs": [],
      "payable": false,
      "stateMutability": "nonpayable",
      "type": "function"
    },
    {
      "constant": false,
      "inputs": [
        {
          "name": "surveyJsonHash",
          "type": "string"
        }
      ],
      "name": "completeSurvey",
      "outputs": [],
      "payable": false,
      "stateMutability": "nonpayable",
      "type": "function"
    },
    {
      "constant": true,
      "inputs": [
        {
          "name": "surveyJsonHash",
          "type": "string"
        }
      ],
      "name": "getFunds",
      "outputs": [
        {
          "name": "",
          "type": "uint256"
        }
      ],
      "payable": false,
      "stateMutability": "view",
      "type": "function"
    },
    {
      "constant": true,
      "inputs": [
        {
          "name": "surveyJsonHash",
          "type": "string"
        }
      ],
      "name": "getSurveyStatus",
      "outputs": [
        {
          "name": "",
          "type": "uint8"
        }
      ],
      "payable": false,
      "stateMutability": "view",
      "type": "function"
    },
    {
      "constant": false,
      "inputs": [
        {
          "name": "surveyJsonHash",
          "type": "string"
        },
        {
          "name": "answersJsonHash",
          "type": "string"
        }
      ],
      "name": "answerSurvey",
      "outputs": [],
      "payable": false,
      "stateMutability": "nonpayable",
      "type": "function"
    },
    {
      "constant": true,
      "inputs": [
        {
          "name": "surveyJsonHash",
          "type": "string"
        },
        {
          "name": "user",
          "type": "address"
        }
      ],
      "name": "isSurveyAnsweredBy",
      "outputs": [
        {
          "name": "",
          "type": "bool"
        }
      ],
      "payable": false,
      "stateMutability": "view",
      "type": "function"
    },
    {
      "constant": false,
      "inputs": [
        {
          "name": "brandAddress",
          "type": "address"
        },
        {
          "name": "name",
          "type": "string"
        },
        {
          "name": "logo",
          "type": "string"
        },
        {
          "name": "metaJsonHash",
          "type": "string"
        }
      ],
      "name": "createBrand",
      "outputs": [],
      "payable": false,
      "stateMutability": "nonpayable",
      "type": "function"
    },
    {
      "constant": false,
      "inputs": [
        {
          "name": "productAddress",
          "type": "address"
        },
        {
          "name": "brandAddress",
          "type": "address"
        },
        {
          "name": "name",
          "type": "string"
        },
        {
          "name": "image",
          "type": "string"
        },
        {
          "name": "metaJsonHash",
          "type": "string"
        }
      ],
      "name": "createProduct",
      "outputs": [],
      "payable": false,
      "stateMutability": "nonpayable",
      "type": "function"
    },
    {
      "constant": false,
      "inputs": [
        {
          "name": "reviewAddress",
          "type": "address"
        },
        {
          "name": "authorAddress",
          "type": "address"
        },
        {
          "name": "productAddress",
          "type": "address"
        },
        {
          "name": "score",
          "type": "uint256"
        },
        {
          "name": "metaJsonHash",
          "type": "string"
        }
      ],
      "name": "createReview",
      "outputs": [],
      "payable": false,
      "stateMutability": "nonpayable",
      "type": "function"
    }
  ],
  "bytecode": "0x60806040523480156200001157600080fd5b5060405160208062003d8e8339810180604052620000339190810190620000d1565b336000806101000a81548173ffffffffffffffffffffffffffffffffffffffff021916908373ffffffffffffffffffffffffffffffffffffffff16021790555080600160006101000a81548173ffffffffffffffffffffffffffffffffffffffff021916908373ffffffffffffffffffffffffffffffffffffffff160217905550506200011d565b6000620000c98251620000fd565b905092915050565b600060208284031215620000e457600080fd5b6000620000f484828501620000bb565b91505092915050565b600073ffffffffffffffffffffffffffffffffffffffff82169050919050565b613c61806200012d6000396000f3006080604052600436106100c5576000357c0100000000000000000000000000000000000000000000000000000000900463ffffffff16806306ba9624146100ca5780632d0c9b1c146100f35780638da5cb5b14610130578063970090901461015b578063b581e9cf14610184578063b639c6c9146101ad578063c4f2949b146101ea578063c5b4471214610213578063d9e115d31461023c578063f2fde38b14610279578063f420e184146102a2578063f52641de146102cb578063fc2fd1ca146102f4575b600080fd5b3480156100d657600080fd5b506100f160048036036100ec9190810190613590565b61031d565b005b3480156100ff57600080fd5b5061011a60048036036101159190810190613590565b61077a565b6040516101279190613aa4565b60405180910390f35b34801561013c57600080fd5b506101456107f2565b6040516101529190613870565b60405180910390f35b34801561016757600080fd5b50610182600480360361017d9190810190613590565b610817565b005b34801561019057600080fd5b506101ab60048036036101a691908101906133fd565b610c73565b005b3480156101b957600080fd5b506101d460048036036101cf9190810190613590565b6111a3565b6040516101e1919061392f565b60405180910390f35b3480156101f657600080fd5b50610211600480360361020c919081019061336e565b611228565b005b34801561021f57600080fd5b5061023a60048036036102359190810190613625565b611a9d565b005b34801561024857600080fd5b50610263600480360361025e91908101906135d1565b612328565b6040516102709190613914565b60405180910390f35b34801561028557600080fd5b506102a0600480360361029b9190810190613345565b612463565b005b3480156102ae57600080fd5b506102c960048036036102c4919081019061373c565b6125b8565b005b3480156102d757600080fd5b506102f260048036036102ed9190810190613691565b612c44565b005b34801561030057600080fd5b5061031b600480360361031691908101906134bc565b612e4e565b005b610325613025565b6002826040518082805190602001908083835b60208310151561035d5780518252602082019150602081019050602083039250610338565b6001836020036101000a038019825116818451168082178552505050505050905001915050908152602001604051809103902060e060405190810160405290816000820160009054906101000a900473ffffffffffffffffffffffffffffffffffffffff1673ffffffffffffffffffffffffffffffffffffffff1673ffffffffffffffffffffffffffffffffffffffff168152602001600182018054600181600116156101000203166002900480601f01602080910402602001604051908101604052809291908181526020018280546001816001161561010002031660029004801561048b5780601f106104605761010080835404028352916020019161048b565b820191906000526020600020905b81548152906001019060200180831161046e57829003601f168201915b50505050508152602001600282018054600181600116156101000203166002900480601f01602080910402602001604051908101604052809291908181526020018280546001816001161561010002031660029004801561052d5780601f106105025761010080835404028352916020019161052d565b820191906000526020600020905b81548152906001019060200180831161051057829003601f168201915b50505050508152602001600382018054600181600116156101000203166002900480601f0160208091040260200160405190810160405280929190818152602001828054600181600116156101000203166002900480156105cf5780601f106105a4576101008083540402835291602001916105cf565b820191906000526020600020905b8154815290600101906020018083116105b257829003601f168201915b5050505050815260200160048201548152602001600582015481526020016006820160009054906101000a900460ff16600381111561060a57fe5b600381111561061557fe5b815250509050806000015173ffffffffffffffffffffffffffffffffffffffff163373ffffffffffffffffffffffffffffffffffffffff1614151561065957600080fd5b6002600381111561066657fe5b8160c00151600381111561067657fe5b14151561068257600080fd5b60036002836040518082805190602001908083835b6020831015156106bc5780518252602082019150602081019050602083039250610697565b6001836020036101000a038019825116818451168082178552505050505050905001915050908152602001604051809103902060060160006101000a81548160ff0219169083600381111561070d57fe5b02179055503373ffffffffffffffffffffffffffffffffffffffff167f5e760a5fb8baba2f199649adb35be1f40f9d6bece29c46e7a67e43cd85a5cdef826020015183604001518460600151856080015160405161076e9493929190613a4a565b60405180910390a25050565b60006002826040518082805190602001908083835b6020831015156107b4578051825260208201915060208101905060208303925061078f565b6001836020036101000a0380198251168184511680821785525050505050509050019150509081526020016040518091039020600501549050919050565b6000809054906101000a900473ffffffffffffffffffffffffffffffffffffffff1681565b61081f613025565b6002826040518082805190602001908083835b6020831015156108575780518252602082019150602081019050602083039250610832565b6001836020036101000a038019825116818451168082178552505050505050905001915050908152602001604051809103902060e060405190810160405290816000820160009054906101000a900473ffffffffffffffffffffffffffffffffffffffff1673ffffffffffffffffffffffffffffffffffffffff1673ffffffffffffffffffffffffffffffffffffffff168152602001600182018054600181600116156101000203166002900480601f0160208091040260200160405190810160405280929190818152602001828054600181600116156101000203166002900480156109855780601f1061095a57610100808354040283529160200191610985565b820191906000526020600020905b81548152906001019060200180831161096857829003601f168201915b50505050508152602001600282018054600181600116156101000203166002900480601f016020809104026020016040519081016040528092919081815260200182805460018160011615610100020316600290048015610a275780601f106109fc57610100808354040283529160200191610a27565b820191906000526020600020905b815481529060010190602001808311610a0a57829003601f168201915b50505050508152602001600382018054600181600116156101000203166002900480601f016020809104026020016040519081016040528092919081815260200182805460018160011615610100020316600290048015610ac95780601f10610a9e57610100808354040283529160200191610ac9565b820191906000526020600020905b815481529060010190602001808311610aac57829003601f168201915b5050505050815260200160048201548152602001600582015481526020016006820160009054906101000a900460ff166003811115610b0457fe5b6003811115610b0f57fe5b815250509050806000015173ffffffffffffffffffffffffffffffffffffffff163373ffffffffffffffffffffffffffffffffffffffff16141515610b5357600080fd5b60016003811115610b6057fe5b8160c001516003811115610b7057fe5b141515610b7c57600080fd5b600280836040518082805190602001908083835b602083101515610bb55780518252602082019150602081019050602083039250610b90565b6001836020036101000a038019825116818451168082178552505050505050905001915050908152602001604051809103902060060160006101000a81548160ff02191690836003811115610c0657fe5b02179055503373ffffffffffffffffffffffffffffffffffffffff167fe2c2e8720f245d184f0b90c0543f8dda4e210e8c718a70547125628216ed0c5c8260200151836040015184606001518560800151604051610c679493929190613a4a565b60405180910390a25050565b610c7b613084565b610c836130c3565b6000809054906101000a900473ffffffffffffffffffffffffffffffffffffffff1673ffffffffffffffffffffffffffffffffffffffff163373ffffffffffffffffffffffffffffffffffffffff16141515610cde57600080fd5b600360008773ffffffffffffffffffffffffffffffffffffffff1673ffffffffffffffffffffffffffffffffffffffff168152602001908152602001600020608060405190810160405290816000820160009054906101000a900473ffffffffffffffffffffffffffffffffffffffff1673ffffffffffffffffffffffffffffffffffffffff1673ffffffffffffffffffffffffffffffffffffffff168152602001600182018054600181600116156101000203166002900480601f016020809104026020016040519081016040528092919081815260200182805460018160011615610100020316600290048015610e185780601f10610ded57610100808354040283529160200191610e18565b820191906000526020600020905b815481529060010190602001808311610dfb57829003601f168201915b50505050508152602001600282018054600181600116156101000203166002900480601f016020809104026020016040519081016040528092919081815260200182805460018160011615610100020316600290048015610eba5780601f10610e8f57610100808354040283529160200191610eba565b820191906000526020600020905b815481529060010190602001808311610e9d57829003601f168201915b50505050508152602001600382018054600181600116156101000203166002900480601f016020809104026020016040519081016040528092919081815260200182805460018160011615610100020316600290048015610f5c5780601f10610f3157610100808354040283529160200191610f5c565b820191906000526020600020905b815481529060010190602001808311610f3f57829003601f168201915b505050505081525050915060a0604051908101604052803373ffffffffffffffffffffffffffffffffffffffff16815260200183815260200186815260200185815260200184815250905080600460008873ffffffffffffffffffffffffffffffffffffffff1673ffffffffffffffffffffffffffffffffffffffff16815260200190815260200160002060008201518160000160006101000a81548173ffffffffffffffffffffffffffffffffffffffff021916908373ffffffffffffffffffffffffffffffffffffffff16021790555060208201518160010160008201518160000160006101000a81548173ffffffffffffffffffffffffffffffffffffffff021916908373ffffffffffffffffffffffffffffffffffffffff160217905550602082015181600101908051906020019061109a929190613110565b5060408201518160020190805190602001906110b7929190613110565b5060608201518160030190805190602001906110d4929190613110565b50505060408201518160050190805190602001906110f3929190613110565b506060820151816006019080519060200190611110929190613110565b50608082015181600701908051906020019061112d929190613110565b509050508573ffffffffffffffffffffffffffffffffffffffff168773ffffffffffffffffffffffffffffffffffffffff167f9d793cdf8c643309229028c49e7d504e34321cbee1e423583e2685885585458e8787876040516111929392919061394a565b60405180910390a350505050505050565b60006002826040518082805190602001908083835b6020831015156111dd57805182526020820191506020810190506020830392506111b8565b6001836020036101000a038019825116818451168082178552505050505050905001915050908152602001604051809103902060060160009054906101000a900460ff169050919050565b611230613190565b6112386130c3565b6112406131a4565b60018510158015611252575060048511155b151561125d57600080fd5b600560008873ffffffffffffffffffffffffffffffffffffffff1673ffffffffffffffffffffffffffffffffffffffff16815260200190815260200160002060206040519081016040529081600082018054600181600116156101000203166002900480601f0160208091040260200160405190810160405280929190818152602001828054600181600116156101000203166002900480156113415780601f1061131657610100808354040283529160200191611341565b820191906000526020600020905b81548152906001019060200180831161132457829003601f168201915b5050505050815250509250600460008773ffffffffffffffffffffffffffffffffffffffff1673ffffffffffffffffffffffffffffffffffffffff16815260200190815260200160002060a060405190810160405290816000820160009054906101000a900473ffffffffffffffffffffffffffffffffffffffff1673ffffffffffffffffffffffffffffffffffffffff1673ffffffffffffffffffffffffffffffffffffffff16815260200160018201608060405190810160405290816000820160009054906101000a900473ffffffffffffffffffffffffffffffffffffffff1673ffffffffffffffffffffffffffffffffffffffff1673ffffffffffffffffffffffffffffffffffffffff168152602001600182018054600181600116156101000203166002900480601f0160208091040260200160405190810160405280929190818152602001828054600181600116156101000203166002900480156114ed5780601f106114c2576101008083540402835291602001916114ed565b820191906000526020600020905b8154815290600101906020018083116114d057829003601f168201915b50505050508152602001600282018054600181600116156101000203166002900480601f01602080910402602001604051908101604052809291908181526020018280546001816001161561010002031660029004801561158f5780601f106115645761010080835404028352916020019161158f565b820191906000526020600020905b81548152906001019060200180831161157257829003601f168201915b50505050508152602001600382018054600181600116156101000203166002900480601f0160208091040260200160405190810160405280929190818152602001828054600181600116156101000203166002900480156116315780601f1061160657610100808354040283529160200191611631565b820191906000526020600020905b81548152906001019060200180831161161457829003601f168201915b5050505050815250508152602001600582018054600181600116156101000203166002900480601f0160208091040260200160405190810160405280929190818152602001828054600181600116156101000203166002900480156116d75780601f106116ac576101008083540402835291602001916116d7565b820191906000526020600020905b8154815290600101906020018083116116ba57829003601f168201915b50505050508152602001600682018054600181600116156101000203166002900480601f0160208091040260200160405190810160405280929190818152602001828054600181600116156101000203166002900480156117795780601f1061174e57610100808354040283529160200191611779565b820191906000526020600020905b81548152906001019060200180831161175c57829003601f168201915b50505050508152602001600782018054600181600116156101000203166002900480601f01602080910402602001604051908101604052809291908181526020018280546001816001161561010002031660029004801561181b5780601f106117f05761010080835404028352916020019161181b565b820191906000526020600020905b8154815290600101906020018083116117fe57829003601f168201915b505050505081525050915060806040519081016040528084815260200183815260200186815260200185815250905080600660008a73ffffffffffffffffffffffffffffffffffffffff1673ffffffffffffffffffffffffffffffffffffffff16815260200190815260200160002060008201518160000160008201518160000190805190602001906118af929190613110565b50505060208201518160010160008201518160000160006101000a81548173ffffffffffffffffffffffffffffffffffffffff021916908373ffffffffffffffffffffffffffffffffffffffff16021790555060208201518160010160008201518160000160006101000a81548173ffffffffffffffffffffffffffffffffffffffff021916908373ffffffffffffffffffffffffffffffffffffffff160217905550602082015181600101908051906020019061196e929190613110565b50604082015181600201908051906020019061198b929190613110565b5060608201518160030190805190602001906119a8929190613110565b50505060408201518160050190805190602001906119c7929190613110565b5060608201518160060190805190602001906119e4929190613110565b506080820151816007019080519060200190611a01929190613110565b50505060408201518160090155606082015181600a019080519060200190611a2a929190613110565b509050508573ffffffffffffffffffffffffffffffffffffffff168773ffffffffffffffffffffffffffffffffffffffff167f98f6997fdd719a2c2a0d71661735475a9d4fa5ef11b5285e7d7c1499be391c5e8a604051611a8b9190613870565b60405180910390a35050505050505050565b611aa5613025565b6002836040518082805190602001908083835b602083101515611add5780518252602082019150602081019050602083039250611ab8565b6001836020036101000a038019825116818451168082178552505050505050905001915050908152602001604051809103902060e060405190810160405290816000820160009054906101000a900473ffffffffffffffffffffffffffffffffffffffff1673ffffffffffffffffffffffffffffffffffffffff1673ffffffffffffffffffffffffffffffffffffffff168152602001600182018054600181600116156101000203166002900480601f016020809104026020016040519081016040528092919081815260200182805460018160011615610100020316600290048015611c0b5780601f10611be057610100808354040283529160200191611c0b565b820191906000526020600020905b815481529060010190602001808311611bee57829003601f168201915b50505050508152602001600282018054600181600116156101000203166002900480601f016020809104026020016040519081016040528092919081815260200182805460018160011615610100020316600290048015611cad5780601f10611c8257610100808354040283529160200191611cad565b820191906000526020600020905b815481529060010190602001808311611c9057829003601f168201915b50505050508152602001600382018054600181600116156101000203166002900480601f016020809104026020016040519081016040528092919081815260200182805460018160011615610100020316600290048015611d4f5780601f10611d2457610100808354040283529160200191611d4f565b820191906000526020600020905b815481529060010190602001808311611d3257829003601f168201915b5050505050815260200160048201548152602001600582015481526020016006820160009054906101000a900460ff166003811115611d8a57fe5b6003811115611d9557fe5b815250509050604051806000019050604051809103902060001916826040518082805190602001908083835b602083101515611de65780518252602082019150602081019050602083039250611dc1565b6001836020036101000a03801982511681845116808217855250505050505090500191505060405180910390206000191614151515611e2457600080fd5b604051806000019050604051809103902060001916836040518082805190602001908083835b602083101515611e6f5780518252602082019150602081019050602083039250611e4a565b6001836020036101000a03801982511681845116808217855250505050505090500191505060405180910390206000191614151515611ead57600080fd5b60026003811115611eba57fe5b8160c001516003811115611eca57fe5b141515611ed657600080fd5b6040518060000190506040518091039020600019166002846040518082805190602001908083835b602083101515611f235780518252602082019150602081019050602083039250611efe565b6001836020036101000a038019825116818451168082178552505050505050905001915050908152602001604051809103902060070160003373ffffffffffffffffffffffffffffffffffffffff1673ffffffffffffffffffffffffffffffffffffffff1681526020019081526020016000206000016040518082805460018160011615610100020316600290048015611ff45780601f10611fd2576101008083540402835291820191611ff4565b820191906000526020600020905b815481529060010190602001808311611fe0575b505091505060405180910390206000191614151561201157600080fd5b80608001518160a001511015151561202857600080fd5b602060405190810160405280838152506002846040518082805190602001908083835b602083101515612070578051825260208201915060208101905060208303925061204b565b6001836020036101000a038019825116818451168082178552505050505050905001915050908152602001604051809103902060070160003373ffffffffffffffffffffffffffffffffffffffff1673ffffffffffffffffffffffffffffffffffffffff16815260200190815260200160002060008201518160000190805190602001906120ff929190613110565b50905050600160009054906101000a900473ffffffffffffffffffffffffffffffffffffffff1673ffffffffffffffffffffffffffffffffffffffff1663a9059cbb3383608001516040518363ffffffff167c01000000000000000000000000000000000000000000000000000000000281526004016121809291906138eb565b602060405180830381600087803b15801561219a57600080fd5b505af11580156121ae573d6000803e3d6000fd5b505050506040513d601f19601f820116820180604052506121d29190810190613567565b15156121dd57600080fd5b6002836040518082805190602001908083835b60208310151561221557805182526020820191506020810190506020830392506121f0565b6001836020036101000a0380198251168184511680821785525050505050509050019150509081526020016040518091039020600401546002846040518082805190602001908083835b602083101515612284578051825260208201915060208101905060208303925061225f565b6001836020036101000a0380198251168184511680821785525050505050509050019150509081526020016040518091039020600501600082825403925050819055503373ffffffffffffffffffffffffffffffffffffffff167f34c6e4292ec4c54b9ebd046067b22da7c48f22dba9723a4b79b837e3a191a5d684848460400151856080015160405161231b9493929190613996565b60405180910390a2505050565b60006040518060000190506040518091039020600019166002846040518082805190602001908083835b6020831015156123775780518252602082019150602081019050602083039250612352565b6001836020036101000a038019825116818451168082178552505050505050905001915050908152602001604051809103902060070160008473ffffffffffffffffffffffffffffffffffffffff1673ffffffffffffffffffffffffffffffffffffffff16815260200190815260200160002060000160405180828054600181600116156101000203166002900480156124485780601f10612426576101008083540402835291820191612448565b820191906000526020600020905b815481529060010190602001808311612434575b50509150506040518091039020600019161415905092915050565b6000809054906101000a900473ffffffffffffffffffffffffffffffffffffffff1673ffffffffffffffffffffffffffffffffffffffff163373ffffffffffffffffffffffffffffffffffffffff161415156124be57600080fd5b600073ffffffffffffffffffffffffffffffffffffffff168173ffffffffffffffffffffffffffffffffffffffff16141515156124fa57600080fd5b8073ffffffffffffffffffffffffffffffffffffffff166000809054906101000a900473ffffffffffffffffffffffffffffffffffffffff1673ffffffffffffffffffffffffffffffffffffffff167f8be0079c531659141344cd1fd0a4f28419497f9722a3daafe3b4186f6b6457e060405160405180910390a3806000806101000a81548173ffffffffffffffffffffffffffffffffffffffff021916908373ffffffffffffffffffffffffffffffffffffffff16021790555050565b6125c0613025565b60006002846040518082805190602001908083835b6020831015156125fa57805182526020820191506020810190506020830392506125d5565b6001836020036101000a038019825116818451168082178552505050505050905001915050908152602001604051809103902060e060405190810160405290816000820160009054906101000a900473ffffffffffffffffffffffffffffffffffffffff1673ffffffffffffffffffffffffffffffffffffffff1673ffffffffffffffffffffffffffffffffffffffff168152602001600182018054600181600116156101000203166002900480601f0160208091040260200160405190810160405280929190818152602001828054600181600116156101000203166002900480156127285780601f106126fd57610100808354040283529160200191612728565b820191906000526020600020905b81548152906001019060200180831161270b57829003601f168201915b50505050508152602001600282018054600181600116156101000203166002900480601f0160208091040260200160405190810160405280929190818152602001828054600181600116156101000203166002900480156127ca5780601f1061279f576101008083540402835291602001916127ca565b820191906000526020600020905b8154815290600101906020018083116127ad57829003601f168201915b50505050508152602001600382018054600181600116156101000203166002900480601f01602080910402602001604051908101604052809291908181526020018280546001816001161561010002031660029004801561286c5780601f106128415761010080835404028352916020019161286c565b820191906000526020600020905b81548152906001019060200180831161284f57829003601f168201915b5050505050815260200160048201548152602001600582015481526020016006820160009054906101000a900460ff1660038111156128a757fe5b60038111156128b257fe5b815250509150816000015173ffffffffffffffffffffffffffffffffffffffff163373ffffffffffffffffffffffffffffffffffffffff161415156128f657600080fd5b600160009054906101000a900473ffffffffffffffffffffffffffffffffffffffff1673ffffffffffffffffffffffffffffffffffffffff1663dd62ed3e33306040518363ffffffff167c010000000000000000000000000000000000000000000000000000000002815260040161296f92919061388b565b602060405180830381600087803b15801561298957600080fd5b505af115801561299d573d6000803e3d6000fd5b505050506040513d601f19601f820116820180604052506129c19190810190613790565b90508281101515156129d257600080fd5b600160009054906101000a900473ffffffffffffffffffffffffffffffffffffffff1673ffffffffffffffffffffffffffffffffffffffff166323b872dd3330866040518463ffffffff167c0100000000000000000000000000000000000000000000000000000000028152600401612a4d939291906138b4565b602060405180830381600087803b158015612a6757600080fd5b505af1158015612a7b573d6000803e3d6000fd5b505050506040513d601f19601f82011682018060405250612a9f9190810190613567565b1515612aaa57600080fd5b826002856040518082805190602001908083835b602083101515612ae35780518252602082019150602081019050602083039250612abe565b6001836020036101000a03801982511681845116808217855250505050505090500191505090815260200160405180910390206005016000828254019250508190555060006003811115612b3357fe5b8260c001516003811115612b4357fe5b1415612bda5760016002856040518082805190602001908083835b602083101515612b835780518252602082019150602081019050602083039250612b5e565b6001836020036101000a038019825116818451168082178552505050505050905001915050908152602001604051809103902060060160006101000a81548160ff02191690836003811115612bd457fe5b02179055505b3373ffffffffffffffffffffffffffffffffffffffff167fed447a85cb5983297d36035d405b6ca83cf5c1cea355f4668a54fb506505b7758360200151846040015185606001518660800151604051612c369493929190613a4a565b60405180910390a250505050565b612c4c613025565b60e0604051908101604052803373ffffffffffffffffffffffffffffffffffffffff1681526020018681526020018581526020018481526020018381526020016000815260200160006003811115612ca057fe5b8152509050806002846040518082805190602001908083835b602083101515612cde5780518252602082019150602081019050602083039250612cb9565b6001836020036101000a038019825116818451168082178552505050505050905001915050908152602001604051809103902060008201518160000160006101000a81548173ffffffffffffffffffffffffffffffffffffffff021916908373ffffffffffffffffffffffffffffffffffffffff1602179055506020820151816001019080519060200190612d74929190613110565b506040820151816002019080519060200190612d91929190613110565b506060820151816003019080519060200190612dae929190613110565b506080820151816004015560a0820151816005015560c08201518160060160006101000a81548160ff02191690836003811115612de757fe5b02179055509050503373ffffffffffffffffffffffffffffffffffffffff167fab210e98fc1f300718b08d571af14d095b902150ffd9c189126f028dd0ce0d818260200151868686604051612e3f94939291906139f0565b60405180910390a25050505050565b612e56613084565b6000809054906101000a900473ffffffffffffffffffffffffffffffffffffffff1673ffffffffffffffffffffffffffffffffffffffff163373ffffffffffffffffffffffffffffffffffffffff16141515612eb157600080fd5b6080604051908101604052803373ffffffffffffffffffffffffffffffffffffffff16815260200185815260200184815260200183815250905080600360008773ffffffffffffffffffffffffffffffffffffffff1673ffffffffffffffffffffffffffffffffffffffff16815260200190815260200160002060008201518160000160006101000a81548173ffffffffffffffffffffffffffffffffffffffff021916908373ffffffffffffffffffffffffffffffffffffffff1602179055506020820151816001019080519060200190612f8e929190613110565b506040820151816002019080519060200190612fab929190613110565b506060820151816003019080519060200190612fc8929190613110565b509050508473ffffffffffffffffffffffffffffffffffffffff167f93344bf09616cc759180686da113c69c7179b2ffe0492c8714a97a99a2f912748585856040516130169392919061394a565b60405180910390a25050505050565b60e060405190810160405280600073ffffffffffffffffffffffffffffffffffffffff16815260200160608152602001606081526020016060815260200160008152602001600081526020016000600381111561307e57fe5b81525090565b608060405190810160405280600073ffffffffffffffffffffffffffffffffffffffff1681526020016060815260200160608152602001606081525090565b61010060405190810160405280600073ffffffffffffffffffffffffffffffffffffffff1681526020016130f56131da565b81526020016060815260200160608152602001606081525090565b828054600181600116156101000203166002900490600052602060002090601f016020900481019282601f1061315157805160ff191683800117855561317f565b8280016001018555821561317f579182015b8281111561317e578251825591602001919060010190613163565b5b50905061318c9190613219565b5090565b602060405190810160405280606081525090565b610160604051908101604052806131b961323e565b81526020016131c6613252565b815260200160008152602001606081525090565b608060405190810160405280600073ffffffffffffffffffffffffffffffffffffffff1681526020016060815260200160608152602001606081525090565b61323b91905b8082111561323757600081600090555060010161321f565b5090565b90565b602060405190810160405280606081525090565b61010060405190810160405280600073ffffffffffffffffffffffffffffffffffffffff1681526020016132846131da565b81526020016060815260200160608152602001606081525090565b60006132ab8235613b7a565b905092915050565b60006132bf8251613b9a565b905092915050565b600082601f83011215156132da57600080fd5b81356132ed6132e882613aec565b613abf565b9150808252602083016020830185838301111561330957600080fd5b613314838284613bd4565b50505092915050565b60006133298235613ba6565b905092915050565b600061333d8251613ba6565b905092915050565b60006020828403121561335757600080fd5b60006133658482850161329f565b91505092915050565b600080600080600060a0868803121561338657600080fd5b60006133948882890161329f565b95505060206133a58882890161329f565b94505060406133b68882890161329f565b93505060606133c78882890161331d565b925050608086013567ffffffffffffffff8111156133e457600080fd5b6133f0888289016132c7565b9150509295509295909350565b600080600080600060a0868803121561341557600080fd5b60006134238882890161329f565b95505060206134348882890161329f565b945050604086013567ffffffffffffffff81111561345157600080fd5b61345d888289016132c7565b935050606086013567ffffffffffffffff81111561347a57600080fd5b613486888289016132c7565b925050608086013567ffffffffffffffff8111156134a357600080fd5b6134af888289016132c7565b9150509295509295909350565b600080600080608085870312156134d257600080fd5b60006134e08782880161329f565b945050602085013567ffffffffffffffff8111156134fd57600080fd5b613509878288016132c7565b935050604085013567ffffffffffffffff81111561352657600080fd5b613532878288016132c7565b925050606085013567ffffffffffffffff81111561354f57600080fd5b61355b878288016132c7565b91505092959194509250565b60006020828403121561357957600080fd5b6000613587848285016132b3565b91505092915050565b6000602082840312156135a257600080fd5b600082013567ffffffffffffffff8111156135bc57600080fd5b6135c8848285016132c7565b91505092915050565b600080604083850312156135e457600080fd5b600083013567ffffffffffffffff8111156135fe57600080fd5b61360a858286016132c7565b925050602061361b8582860161329f565b9150509250929050565b6000806040838503121561363857600080fd5b600083013567ffffffffffffffff81111561365257600080fd5b61365e858286016132c7565b925050602083013567ffffffffffffffff81111561367b57600080fd5b613687858286016132c7565b9150509250929050565b600080600080608085870312156136a757600080fd5b600085013567ffffffffffffffff8111156136c157600080fd5b6136cd878288016132c7565b945050602085013567ffffffffffffffff8111156136ea57600080fd5b6136f6878288016132c7565b935050604085013567ffffffffffffffff81111561371357600080fd5b61371f878288016132c7565b92505060606137308782880161331d565b91505092959194509250565b6000806040838503121561374f57600080fd5b600083013567ffffffffffffffff81111561376957600080fd5b613775858286016132c7565b92505060206137868582860161331d565b9150509250929050565b6000602082840312156137a257600080fd5b60006137b084828501613331565b91505092915050565b6137c281613b2e565b82525050565b6137d181613b4e565b82525050565b6137e081613bb0565b82525050565b6137ef81613bc2565b82525050565b600061380082613b23565b808452613814816020860160208601613be3565b61381d81613c16565b602085010191505092915050565b600061383682613b18565b80845261384a816020860160208601613be3565b61385381613c16565b602085010191505092915050565b61386a81613b70565b82525050565b600060208201905061388560008301846137b9565b92915050565b60006040820190506138a060008301856137b9565b6138ad60208301846137d7565b9392505050565b60006060820190506138c960008301866137b9565b6138d660208301856137d7565b6138e36040830184613861565b949350505050565b600060408201905061390060008301856137b9565b61390d6020830184613861565b9392505050565b600060208201905061392960008301846137c8565b92915050565b600060208201905061394460008301846137e6565b92915050565b6000606082019050818103600083015261396481866137f5565b9050818103602083015261397881856137f5565b9050818103604083015261398c81846137f5565b9050949350505050565b600060808201905081810360008301526139b081876137f5565b905081810360208301526139c481866137f5565b905081810360408301526139d8818561382b565b90506139e76060830184613861565b95945050505050565b60006080820190508181036000830152613a0a818761382b565b90508181036020830152613a1e81866137f5565b90508181036040830152613a3281856137f5565b9050613a416060830184613861565b95945050505050565b60006080820190508181036000830152613a64818761382b565b90508181036020830152613a78818661382b565b90508181036040830152613a8c818561382b565b9050613a9b6060830184613861565b95945050505050565b6000602082019050613ab96000830184613861565b92915050565b6000604051905081810181811067ffffffffffffffff82111715613ae257600080fd5b8060405250919050565b600067ffffffffffffffff821115613b0357600080fd5b601f19601f8301169050602081019050919050565b600081519050919050565b600081519050919050565b600073ffffffffffffffffffffffffffffffffffffffff82169050919050565b60008115159050919050565b6000600482101515613b6857fe5b819050919050565b6000819050919050565b600073ffffffffffffffffffffffffffffffffffffffff82169050919050565b60008115159050919050565b6000819050919050565b6000613bbb82613b2e565b9050919050565b6000613bcd82613b5a565b9050919050565b82818337600083830152505050565b60005b83811015613c01578082015181840152602081019050613be6565b83811115613c10576000848401525b50505050565b6000601f19601f83011690509190505600a265627a7a723058204c3290dd4cc0ca7d484dd7ad4804747b62474566e8be32174a7cb01515662d0e6c6578706572696d656e74616cf50037",
  "source": "pragma solidity ^0.4.24;\npragma experimental ABIEncoderV2;\n\nimport \"./REWToken.sol\";\nimport \"zeppelin-solidity/contracts/ownership/Ownable.sol\";\n\ncontract ReviewNetwork is Ownable {\n    REWToken token;\n\n    enum SurveyStatus { IDLE, FUNDED, IN_PROGRESS, COMPLETED }\n\n    struct Answer {\n        string answersJsonHash;\n    }\n\n    struct Survey {\n        address creator;\n        string publicKey;\n        string title;\n        string surveyJsonHash;\n        uint rewardPerSurvey;\n        uint funds;\n        SurveyStatus status;\n        mapping (address => Answer) answers;\n    }\n\n    // surveyJsonHash => survey\n    mapping (string => Survey) surveys;\n\n    struct Brand {\n        address addedBy;\n        string name;\n        string logo;\n        string metaJsonHash;\n    }\n\n    mapping (address => Brand) brands;\n    \n    struct Product {\n        address addedBy;\n        Brand brand;\n        string name;\n        string image;\n        string metaJsonHash;\n    }\n\n    mapping (address => Product) products;\n\n    struct User {\n        string username;\n    }\n\n    mapping (address => User) users;\n\n    struct Review {\n        User author;\n        Product product;\n        uint score;\n        string metaJsonHash;\n    }\n\n    mapping (address => Review) reviews;\n\n    event LogSurveyAdded(\n        address indexed creator,\n        string publicKey,\n        string title,\n        string surveyJsonHash,\n        uint rewardPerSurvey\n    );\n    \n    event LogSurveyFunded(\n        address indexed creator,\n        string publicKey,\n        string title,\n        string surveyJsonHash,\n        uint rewardPerSurvey\n    );\n    \n    event LogSurveyStarted(\n        address indexed creator,\n        string publicKey,\n        string title,\n        string surveyJsonHash,\n        uint rewardPerSurvey\n    );\n\n    event LogSurveyCompleted(\n        address indexed creator,\n        string publicKey,\n        string title,\n        string surveyJsonHash,\n        uint rewardPerSurvey\n    );\n\n    event LogSurveyAnswered(\n        address indexed user,\n        string surveyJsonHash,\n        string answersJsonHash,\n        string title,\n        uint rewardPerSurvey\n    );\n\n    event LogBrandAdded(\n        address indexed brandAddress,\n        string name,\n        string logo,\n        string metaHashJson\n    );\n\n    event LogProductAdded(\n        address indexed productAddress,\n        address indexed brandAddress,\n        string name,\n        string image,\n        string metaHashJson\n    );\n\n    event LogReviewAdded(\n        address reviewAddress,\n        address indexed authorAddress,\n        address indexed productAddress\n    );\n\n    constructor (address REWTokenAddress) public {\n        token = REWToken(REWTokenAddress);\n    }\n\n    function createSurvey(string publicKey, string title, string surveyJsonHash, uint rewardPerSurvey) public {\n        Survey memory s = Survey(\n            msg.sender,\n            publicKey,\n            title,\n            surveyJsonHash,\n            rewardPerSurvey,\n            0,\n            SurveyStatus.IDLE\n        );\n\n        surveys[surveyJsonHash] = s;\n\n        emit LogSurveyAdded(\n            msg.sender,\n            s.publicKey,\n            title,\n            surveyJsonHash,\n            rewardPerSurvey\n        );\n    }\n\n    function fundSurvey(string surveyJsonHash, uint amount) public {\n        Survey memory survey = surveys[surveyJsonHash];\n\n        require(msg.sender == survey.creator);\n\n        uint allowance = token.allowance(msg.sender, this);\n        require(allowance >= amount);\n\n        require(token.transferFrom(msg.sender, this, amount));\n        surveys[surveyJsonHash].funds += amount;\n        \n        if(survey.status == SurveyStatus.IDLE) {\n            surveys[surveyJsonHash].status = SurveyStatus.FUNDED;\n        }\n\n        emit LogSurveyFunded(\n            msg.sender,\n            survey.publicKey,\n            survey.title,\n            survey.surveyJsonHash,\n            survey.rewardPerSurvey\n        );\n    }\n\n    function startSurvey(string surveyJsonHash) public {\n        Survey memory survey = surveys[surveyJsonHash];\n        require(msg.sender == survey.creator);\n        require(survey.status == SurveyStatus.FUNDED);\n\n        surveys[surveyJsonHash].status = SurveyStatus.IN_PROGRESS;\n\n        emit LogSurveyStarted(\n            msg.sender,\n            survey.publicKey,\n            survey.title,\n            survey.surveyJsonHash,\n            survey.rewardPerSurvey\n        );\n    }\n\n    function completeSurvey(string surveyJsonHash) public {\n        Survey memory survey = surveys[surveyJsonHash];\n        require(msg.sender == survey.creator);\n        require(survey.status == SurveyStatus.IN_PROGRESS);\n\n        surveys[surveyJsonHash].status = SurveyStatus.COMPLETED;\n\n        emit LogSurveyCompleted(\n            msg.sender,\n            survey.publicKey,\n            survey.title,\n            survey.surveyJsonHash,\n            survey.rewardPerSurvey\n        );\n    }\n\n    function getFunds(string surveyJsonHash) public view returns (uint) {\n        return surveys[surveyJsonHash].funds;\n    }\n\n    function getSurveyStatus(string surveyJsonHash) public view returns (SurveyStatus) {\n        return surveys[surveyJsonHash].status;\n    }\n\n    function answerSurvey(string surveyJsonHash, string answersJsonHash) public {\n        Survey memory survey = surveys[surveyJsonHash];\n        require(keccak256(bytes(answersJsonHash)) != keccak256(\"\"));\n        require(keccak256(bytes(surveyJsonHash)) != keccak256(\"\"));\n        require(survey.status == SurveyStatus.IN_PROGRESS);\n        require(keccak256(surveys[surveyJsonHash].answers[msg.sender].answersJsonHash) == keccak256(\"\"));\n        require(survey.funds >= survey.rewardPerSurvey);\n        surveys[surveyJsonHash].answers[msg.sender] = Answer(answersJsonHash);\n        require(token.transfer(msg.sender, survey.rewardPerSurvey));\n        surveys[surveyJsonHash].funds -= surveys[surveyJsonHash].rewardPerSurvey;\n        emit LogSurveyAnswered(msg.sender, surveyJsonHash, answersJsonHash, survey.title, survey.rewardPerSurvey);\n    }\n\n    function isSurveyAnsweredBy(string surveyJsonHash, address user) public view returns (bool) {\n        return keccak256(bytes(surveys[surveyJsonHash].answers[user].answersJsonHash)) != keccak256(\"\");\n    }\n\n    function createBrand (\n        address brandAddress,\n        string name,\n        string logo,\n        string metaJsonHash\n    ) public onlyOwner {\n        Brand memory brand = Brand({\n            addedBy: msg.sender,\n            name: name,\n            logo: logo,\n            metaJsonHash: metaJsonHash\n        });\n\n        brands[brandAddress] = brand;\n\n        emit LogBrandAdded(brandAddress, name, logo, metaJsonHash);\n    }\n\n    function createProduct (\n        address productAddress,\n        address brandAddress,\n        string name,\n        string image,\n        string metaJsonHash\n    ) public onlyOwner {\n        Brand memory brand = brands[brandAddress];\n\n        Product memory product = Product({\n            addedBy: msg.sender,\n            brand: brand,\n            name: name,\n            image: image,\n            metaJsonHash: metaJsonHash\n        });\n\n        products[brandAddress] = product;\n\n        emit LogProductAdded(productAddress, brandAddress, name, image, metaJsonHash);\n    }\n\n    function createReview (\n        address reviewAddress,\n        address authorAddress,\n        address productAddress,\n        uint score,\n        string metaJsonHash\n    ) public {\n        require(score >= 1 && score <= 4);\n\n        User memory author = users[authorAddress];\n        Product memory product = products[productAddress];\n\n        Review memory review = Review({\n            author: author,\n            product: product,\n            score: score,\n            metaJsonHash: metaJsonHash\n        });\n\n        reviews[reviewAddress] = review;\n\n        emit LogReviewAdded(reviewAddress, authorAddress, productAddress);\n    }\n}\n",
  "sourcePath": "/Users/alan/projects/RN/rn-solidity/contracts/ReviewNetwork.sol",
  "compiler": {
    "name": "solc",
    "version": "0.4.24+commit.e67f0147.Emscripten.clang"
  },
  "schemaVersion": "2.0.1",
  "updatedAt": "2018-08-09T11:23:39.824Z"
}