{
  "contractName": "RNDelegate",
  "abi": [
    {
      "constant": false,
      "inputs": [],
      "name": "renounceOwnership",
      "outputs": [],
      "payable": false,
      "stateMutability": "nonpayable",
      "type": "function"
    },
    {
      "constant": true,
      "inputs": [],
      "name": "owner",
      "outputs": [
        {
          "name": "",
          "type": "address"
        }
      ],
      "payable": false,
      "stateMutability": "view",
      "type": "function"
    },
    {
      "constant": false,
      "inputs": [
        {
          "name": "_newOwner",
          "type": "address"
        }
      ],
      "name": "transferOwnership",
      "outputs": [],
      "payable": false,
      "stateMutability": "nonpayable",
      "type": "function"
    },
    {
      "inputs": [],
      "payable": false,
      "stateMutability": "nonpayable",
      "type": "constructor"
    },
    {
      "anonymous": false,
      "inputs": [
        {
          "indexed": true,
          "name": "creator",
          "type": "address"
        },
        {
          "indexed": false,
          "name": "publicKey",
          "type": "string"
        },
        {
          "indexed": false,
          "name": "title",
          "type": "string"
        },
        {
          "indexed": false,
          "name": "surveyJsonHash",
          "type": "string"
        },
        {
          "indexed": false,
          "name": "rewardPerSurvey",
          "type": "uint256"
        },
        {
          "indexed": false,
          "name": "maxAnswers",
          "type": "uint256"
        }
      ],
      "name": "LogSurveyAdded",
      "type": "event"
    },
    {
      "anonymous": false,
      "inputs": [
        {
          "indexed": true,
          "name": "creator",
          "type": "address"
        },
        {
          "indexed": false,
          "name": "publicKey",
          "type": "string"
        },
        {
          "indexed": false,
          "name": "title",
          "type": "string"
        },
        {
          "indexed": false,
          "name": "surveyJsonHash",
          "type": "string"
        },
        {
          "indexed": false,
          "name": "rewardPerSurvey",
          "type": "uint256"
        },
        {
          "indexed": false,
          "name": "maxAnswers",
          "type": "uint256"
        }
      ],
      "name": "LogSurveyFunded",
      "type": "event"
    },
    {
      "anonymous": false,
      "inputs": [
        {
          "indexed": true,
          "name": "creator",
          "type": "address"
        },
        {
          "indexed": false,
          "name": "publicKey",
          "type": "string"
        },
        {
          "indexed": false,
          "name": "title",
          "type": "string"
        },
        {
          "indexed": false,
          "name": "surveyJsonHash",
          "type": "string"
        },
        {
          "indexed": false,
          "name": "rewardPerSurvey",
          "type": "uint256"
        },
        {
          "indexed": false,
          "name": "maxAnswers",
          "type": "uint256"
        }
      ],
      "name": "LogSurveyStarted",
      "type": "event"
    },
    {
      "anonymous": false,
      "inputs": [
        {
          "indexed": true,
          "name": "creator",
          "type": "address"
        },
        {
          "indexed": false,
          "name": "publicKey",
          "type": "string"
        },
        {
          "indexed": false,
          "name": "title",
          "type": "string"
        },
        {
          "indexed": false,
          "name": "surveyJsonHash",
          "type": "string"
        },
        {
          "indexed": false,
          "name": "rewardPerSurvey",
          "type": "uint256"
        },
        {
          "indexed": false,
          "name": "maxAnswers",
          "type": "uint256"
        }
      ],
      "name": "LogSurveyCompleted",
      "type": "event"
    },
    {
      "anonymous": false,
      "inputs": [
        {
          "indexed": true,
          "name": "user",
          "type": "address"
        },
        {
          "indexed": false,
          "name": "surveyJsonHash",
          "type": "string"
        },
        {
          "indexed": false,
          "name": "answersJsonHash",
          "type": "string"
        },
        {
          "indexed": false,
          "name": "title",
          "type": "string"
        },
        {
          "indexed": false,
          "name": "rewardPerSurvey",
          "type": "uint256"
        }
      ],
      "name": "LogSurveyAnswered",
      "type": "event"
    },
    {
      "anonymous": false,
      "inputs": [
        {
          "indexed": false,
          "name": "productAddress",
          "type": "address"
        },
        {
          "indexed": true,
          "name": "categoryId",
          "type": "uint256"
        },
        {
          "indexed": true,
          "name": "subcategoryId",
          "type": "uint256"
        },
        {
          "indexed": false,
          "name": "name",
          "type": "string"
        },
        {
          "indexed": false,
          "name": "image",
          "type": "string"
        },
        {
          "indexed": false,
          "name": "description",
          "type": "string"
        },
        {
          "indexed": false,
          "name": "metaHashJson",
          "type": "string"
        }
      ],
      "name": "LogProductAdded",
      "type": "event"
    },
    {
      "anonymous": false,
      "inputs": [
        {
          "indexed": false,
          "name": "reviewAddress",
          "type": "address"
        },
        {
          "indexed": true,
          "name": "authorAddress",
          "type": "address"
        },
        {
          "indexed": true,
          "name": "productAddress",
          "type": "address"
        },
        {
          "indexed": false,
          "name": "metaJsonHash",
          "type": "string"
        }
      ],
      "name": "LogReviewAdded",
      "type": "event"
    },
    {
      "anonymous": false,
      "inputs": [
        {
          "indexed": false,
          "name": "validatorAddress",
          "type": "address"
        }
      ],
      "name": "LogValidatorAdded",
      "type": "event"
    },
    {
      "anonymous": false,
      "inputs": [
        {
          "indexed": true,
          "name": "reviewAddress",
          "type": "address"
        },
        {
          "indexed": true,
          "name": "validatorAddress",
          "type": "address"
        }
      ],
      "name": "LogValidatorChosen",
      "type": "event"
    },
    {
      "anonymous": false,
      "inputs": [
        {
          "indexed": true,
          "name": "productAddress",
          "type": "address"
        },
        {
          "indexed": true,
          "name": "reviewAddress",
          "type": "address"
        }
      ],
      "name": "LogReviewApproved",
      "type": "event"
    },
    {
      "anonymous": false,
      "inputs": [
        {
          "indexed": true,
          "name": "productAddress",
          "type": "address"
        },
        {
          "indexed": true,
          "name": "reviewAddress",
          "type": "address"
        }
      ],
      "name": "LogReviewRejected",
      "type": "event"
    },
    {
      "anonymous": false,
      "inputs": [
        {
          "indexed": true,
          "name": "previousOwner",
          "type": "address"
        }
      ],
      "name": "OwnershipRenounced",
      "type": "event"
    },
    {
      "anonymous": false,
      "inputs": [
        {
          "indexed": true,
          "name": "previousOwner",
          "type": "address"
        },
        {
          "indexed": true,
          "name": "newOwner",
          "type": "address"
        }
      ],
      "name": "OwnershipTransferred",
      "type": "event"
    },
    {
      "constant": false,
      "inputs": [
        {
          "name": "publicKey",
          "type": "string"
        },
        {
          "name": "title",
          "type": "string"
        },
        {
          "name": "surveyJsonHash",
          "type": "string"
        },
        {
          "name": "rewardPerSurvey",
          "type": "uint256"
        },
        {
          "name": "maxAnswers",
          "type": "uint256"
        }
      ],
      "name": "createSurvey",
      "outputs": [],
      "payable": false,
      "stateMutability": "nonpayable",
      "type": "function"
    },
    {
      "constant": false,
      "inputs": [
        {
          "name": "surveyJsonHash",
          "type": "string"
        }
      ],
      "name": "suspendSurvey",
      "outputs": [],
      "payable": false,
      "stateMutability": "nonpayable",
      "type": "function"
    },
    {
      "constant": true,
      "inputs": [
        {
          "name": "surveyJsonHash",
          "type": "string"
        }
      ],
      "name": "isSurveySuspended",
      "outputs": [
        {
          "name": "",
          "type": "bool"
        }
      ],
      "payable": false,
      "stateMutability": "view",
      "type": "function"
    },
    {
      "constant": false,
      "inputs": [
        {
          "name": "surveyJsonHash",
          "type": "string"
        },
        {
          "name": "amount",
          "type": "uint256"
        }
      ],
      "name": "fundSurvey",
      "outputs": [],
      "payable": false,
      "stateMutability": "nonpayable",
      "type": "function"
    },
    {
      "constant": false,
      "inputs": [
        {
          "name": "surveyJsonHash",
          "type": "string"
        }
      ],
      "name": "startSurvey",
      "outputs": [],
      "payable": false,
      "stateMutability": "nonpayable",
      "type": "function"
    },
    {
      "constant": false,
      "inputs": [
        {
          "name": "surveyJsonHash",
          "type": "string"
        }
      ],
      "name": "completeSurvey",
      "outputs": [],
      "payable": false,
      "stateMutability": "nonpayable",
      "type": "function"
    },
    {
      "constant": true,
      "inputs": [
        {
          "name": "surveyJsonHash",
          "type": "string"
        }
      ],
      "name": "getFunds",
      "outputs": [
        {
          "name": "",
          "type": "uint256"
        }
      ],
      "payable": false,
      "stateMutability": "view",
      "type": "function"
    },
    {
      "constant": true,
      "inputs": [
        {
          "name": "surveyJsonHash",
          "type": "string"
        }
      ],
      "name": "getSurveyStatus",
      "outputs": [
        {
          "name": "",
          "type": "uint8"
        }
      ],
      "payable": false,
      "stateMutability": "view",
      "type": "function"
    },
    {
      "constant": false,
      "inputs": [
        {
          "name": "surveyJsonHash",
          "type": "string"
        },
        {
          "name": "answersJsonHash",
          "type": "string"
        }
      ],
      "name": "answerSurvey",
      "outputs": [
        {
          "name": "",
          "type": "bool"
        }
      ],
      "payable": false,
      "stateMutability": "nonpayable",
      "type": "function"
    },
    {
      "constant": true,
      "inputs": [
        {
          "name": "surveyJsonHash",
          "type": "string"
        },
        {
          "name": "user",
          "type": "address"
        }
      ],
      "name": "isSurveyAnsweredBy",
      "outputs": [
        {
          "name": "",
          "type": "bool"
        }
      ],
      "payable": false,
      "stateMutability": "view",
      "type": "function"
    },
    {
      "constant": false,
      "inputs": [
        {
          "name": "productAddress",
          "type": "address"
        },
        {
          "name": "categoryId",
          "type": "uint256"
        },
        {
          "name": "subcategoryId",
          "type": "uint256"
        },
        {
          "name": "name",
          "type": "string"
        },
        {
          "name": "image",
          "type": "string"
        },
        {
          "name": "description",
          "type": "string"
        },
        {
          "name": "metaJsonHash",
          "type": "string"
        }
      ],
      "name": "createProduct",
      "outputs": [],
      "payable": false,
      "stateMutability": "nonpayable",
      "type": "function"
    },
    {
      "constant": false,
      "inputs": [
        {
          "name": "username",
          "type": "string"
        }
      ],
      "name": "registerUser",
      "outputs": [],
      "payable": false,
      "stateMutability": "nonpayable",
      "type": "function"
    },
    {
      "constant": true,
      "inputs": [
        {
          "name": "user",
          "type": "address"
        }
      ],
      "name": "getUsername",
      "outputs": [
        {
          "name": "",
          "type": "string"
        }
      ],
      "payable": false,
      "stateMutability": "view",
      "type": "function"
    },
    {
      "constant": true,
      "inputs": [
        {
          "name": "userAddress",
          "type": "address"
        }
      ],
      "name": "userExists",
      "outputs": [
        {
          "name": "",
          "type": "bool"
        }
      ],
      "payable": false,
      "stateMutability": "view",
      "type": "function"
    },
    {
      "constant": false,
      "inputs": [
        {
          "name": "reviewAddress",
          "type": "address"
        },
        {
          "name": "productAddress",
          "type": "address"
        },
        {
          "name": "score",
          "type": "uint256"
        },
        {
          "name": "metaJsonHash",
          "type": "string"
        }
      ],
      "name": "createReview",
      "outputs": [],
      "payable": false,
      "stateMutability": "nonpayable",
      "type": "function"
    },
    {
      "constant": false,
      "inputs": [
        {
          "name": "reviewAddress",
          "type": "address"
        },
        {
          "name": "vote",
          "type": "int256"
        }
      ],
      "name": "voteReview",
      "outputs": [],
      "payable": false,
      "stateMutability": "nonpayable",
      "type": "function"
    },
    {
      "constant": true,
      "inputs": [
        {
          "name": "reviewAddress",
          "type": "address"
        }
      ],
      "name": "getReviewVotes",
      "outputs": [
        {
          "name": "upvotes",
          "type": "uint256"
        },
        {
          "name": "downvotes",
          "type": "uint256"
        }
      ],
      "payable": false,
      "stateMutability": "view",
      "type": "function"
    },
    {
      "constant": true,
      "inputs": [
        {
          "name": "reviewAddress",
          "type": "address"
        }
      ],
      "name": "getReviewStatus",
      "outputs": [
        {
          "name": "",
          "type": "uint8"
        }
      ],
      "payable": false,
      "stateMutability": "view",
      "type": "function"
    },
    {
      "constant": true,
      "inputs": [
        {
          "name": "reviewAddress",
          "type": "address"
        },
        {
          "name": "validator",
          "type": "address"
        }
      ],
      "name": "isValidatorChosenForReview",
      "outputs": [
        {
          "name": "",
          "type": "bool"
        }
      ],
      "payable": false,
      "stateMutability": "view",
      "type": "function"
    },
    {
      "constant": false,
      "inputs": [
        {
          "name": "reviewAddress",
          "type": "address"
        },
        {
          "name": "vote",
          "type": "int256"
        }
      ],
      "name": "validatorVote",
      "outputs": [],
      "payable": false,
      "stateMutability": "nonpayable",
      "type": "function"
    },
    {
      "constant": false,
      "inputs": [
        {
          "name": "validatorAddress",
          "type": "address"
        }
      ],
      "name": "addValidator",
      "outputs": [],
      "payable": false,
      "stateMutability": "nonpayable",
      "type": "function"
    },
    {
      "constant": true,
      "inputs": [
        {
          "name": "author",
          "type": "address"
        }
      ],
      "name": "choseValidators",
      "outputs": [
        {
          "name": "",
          "type": "address[]"
        }
      ],
      "payable": false,
      "stateMutability": "view",
      "type": "function"
    }
  ],
  "bytecode": "0x608060405234801561001057600080fd5b5033600660006101000a81548173ffffffffffffffffffffffffffffffffffffffff021916908373ffffffffffffffffffffffffffffffffffffffff160217905550615f8c80620000626000396000f300608060405260043610610149576000357c0100000000000000000000000000000000000000000000000000000000900463ffffffff16806306ba96241461014e5780630e666e4914610177578063123afe9e146101b457806321d77d94146101f15780632d0c9b1c1461021a578063420ec6771461025757806348011a58146102945780634d238c8e146102d25780635219fcdf146102fb578063569ea547146103245780635a22283a14610361578063704f1b941461039e578063715018a6146103c7578063882da06d146103de5780638da5cb5b146104075780639700909014610432578063b031e78b1461045b578063b639c6c914610484578063c5b44712146104c1578063caa74019146104fe578063ce43c03214610527578063d9e115d314610564578063e64f6747146105a1578063f2fde38b146105ca578063f420e184146105f3575b600080fd5b34801561015a57600080fd5b506101756004803603610170919081019061529a565b61061c565b005b34801561018357600080fd5b5061019e60048036036101999190810190615057565b610ab0565b6040516101ab9190615a52565b60405180910390f35b3480156101c057600080fd5b506101db60048036036101d69190810190615057565b610b7e565b6040516101e89190615a30565b60405180910390f35b3480156101fd57600080fd5b506102186004803603610213919081019061539b565b610e20565b005b34801561022657600080fd5b50610241600480360361023c919081019061529a565b61107a565b60405161024e9190615d4f565b60405180910390f35b34801561026357600080fd5b5061027e6004803603610279919081019061529a565b6110f2565b60405161028b9190615a52565b60405180910390f35b3480156102a057600080fd5b506102bb60048036036102b69190810190615057565b611177565b6040516102c9929190615d6a565b60405180910390f35b3480156102de57600080fd5b506102f960048036036102f49190810190615057565b611209565b005b34801561030757600080fd5b50610322600480360361031d9190810190615137565b6113e2565b005b34801561033057600080fd5b5061034b60048036036103469190810190615080565b6119ad565b6040516103589190615a52565b60405180910390f35b34801561036d57600080fd5b5061038860048036036103839190810190615057565b61201b565b6040516103959190615a6d565b60405180910390f35b3480156103aa57600080fd5b506103c560048036036103c0919081019061529a565b612074565b005b3480156103d357600080fd5b506103dc6121b1565b005b3480156103ea57600080fd5b506104056004803603610400919081019061529a565b6122b6565b005b34801561041357600080fd5b5061041c61239b565b60405161042991906158ed565b60405180910390f35b34801561043e57600080fd5b506104596004803603610454919081019061529a565b6123c1565b005b34801561046757600080fd5b50610482600480360361047d9190810190615137565b612855565b005b34801561049057600080fd5b506104ab60048036036104a6919081019061529a565b612b0f565b6040516104b89190615a88565b60405180910390f35b3480156104cd57600080fd5b506104e860048036036104e3919081019061532f565b612b94565b6040516104f59190615a52565b60405180910390f35b34801561050a57600080fd5b5061052560048036036105209190810190615173565b61367d565b005b34801561053357600080fd5b5061054e60048036036105499190810190615057565b6138ee565b60405161055b9190615aa3565b60405180910390f35b34801561057057600080fd5b5061058b600480360361058691908101906152db565b6139d2565b6040516105989190615a52565b60405180910390f35b3480156105ad57600080fd5b506105c860048036036105c391908101906150bc565b613b0d565b005b3480156105d657600080fd5b506105f160048036036105ec9190810190615057565b614427565b005b3480156105ff57600080fd5b5061061a6004803603610615919081019061545a565b61448f565b005b610624614c4b565b6001826040518082805190602001908083835b60208310151561065c5780518252602082019150602081019050602083039250610637565b6001836020036101000a038019825116818451168082178552505050505050905001915050908152602001604051809103902061014060405190810160405290816000820160009054906101000a900473ffffffffffffffffffffffffffffffffffffffff1673ffffffffffffffffffffffffffffffffffffffff1673ffffffffffffffffffffffffffffffffffffffff168152602001600182018054600181600116156101000203166002900480601f01602080910402602001604051908101604052809291908181526020018280546001816001161561010002031660029004801561078b5780601f106107605761010080835404028352916020019161078b565b820191906000526020600020905b81548152906001019060200180831161076e57829003601f168201915b50505050508152602001600282018054600181600116156101000203166002900480601f01602080910402602001604051908101604052809291908181526020018280546001816001161561010002031660029004801561082d5780601f106108025761010080835404028352916020019161082d565b820191906000526020600020905b81548152906001019060200180831161081057829003601f168201915b50505050508152602001600382018054600181600116156101000203166002900480601f0160208091040260200160405190810160405280929190818152602001828054600181600116156101000203166002900480156108cf5780601f106108a4576101008083540402835291602001916108cf565b820191906000526020600020905b8154815290600101906020018083116108b257829003601f168201915b50505050508152602001600482015481526020016005820154815260200160068201548152602001600782015481526020016008820160009054906101000a900460ff16600381111561091e57fe5b600381111561092957fe5b81526020016008820160019054906101000a900460ff1615151515815250509050806000015173ffffffffffffffffffffffffffffffffffffffff163373ffffffffffffffffffffffffffffffffffffffff1614151561098857600080fd5b6002600381111561099557fe5b81610100015160038111156109a657fe5b1415156109b257600080fd5b60036001836040518082805190602001908083835b6020831015156109ec57805182526020820191506020810190506020830392506109c7565b6001836020036101000a038019825116818451168082178552505050505050905001915050908152602001604051809103902060080160006101000a81548160ff02191690836003811115610a3d57fe5b02179055503373ffffffffffffffffffffffffffffffffffffffff167f8d19faf08adf4f904aba4b47ace07c0c7c74712a6d39e931bff4dcbc25b5419582602001518360400151846060015185608001518660e00151604051610aa4959493929190615b87565b60405180910390a25050565b6000604051806000019050604051809103902060001916600360008473ffffffffffffffffffffffffffffffffffffffff1673ffffffffffffffffffffffffffffffffffffffff1681526020019081526020016000206000016040518082805460018160011615610100020316600290048015610b645780601f10610b42576101008083540402835291820191610b64565b820191906000526020600020905b815481529060010190602001808311610b50575b505091505060405180910390206000191614159050919050565b606060008060008060606000806000806000600360058054905010151515610bdb576040517f08c379a0000000000000000000000000000000000000000000000000000000008152600401610bd290615c4f565b60405180910390fd5b8b73ffffffffffffffffffffffffffffffffffffffff1699504260010298508989604051602001808381526020018260001916600019168152602001925050506040516020818303038152906040526040518082805190602001908083835b602083101515610c5f5780518252602082019150602081019050602083039250610c3a565b6001836020036101000a038019825116818451168082178552505050505050905001915050604051809103902060019004975060058054905088811515610ca257fe5b0696506003604051908082528060200260200182016040528015610cd55781602001602082028038833980820191505090505b50955060009450600193505b6003851015610e0e5760058080549050858901811515610cfd57fe5b06815481101515610d0a57fe5b9060005260206000200160009054906101000a900473ffffffffffffffffffffffffffffffffffffffff16925060009150600090505b8551811015610da6578273ffffffffffffffffffffffffffffffffffffffff168682815181101515610d6e57fe5b9060200190602002015173ffffffffffffffffffffffffffffffffffffffff161415610d9957600191505b8080600101915050610d40565b811515610e0157828686815181101515610dbc57fe5b9060200190602002019073ffffffffffffffffffffffffffffffffffffffff16908173ffffffffffffffffffffffffffffffffffffffff168152505084806001019550505b8380600101945050610ce1565b859a5050505050505050505050919050565b610e28614c4b565b610140604051908101604052803373ffffffffffffffffffffffffffffffffffffffff168152602001878152602001868152602001858152602001848152602001600081526020016000815260200183815260200160006003811115610e8a57fe5b8152602001600015158152509050806001856040518082805190602001908083835b602083101515610ed15780518252602082019150602081019050602083039250610eac565b6001836020036101000a038019825116818451168082178552505050505050905001915050908152602001604051809103902060008201518160000160006101000a81548173ffffffffffffffffffffffffffffffffffffffff021916908373ffffffffffffffffffffffffffffffffffffffff1602179055506020820151816001019080519060200190610f67929190614cc2565b506040820151816002019080519060200190610f84929190614cc2565b506060820151816003019080519060200190610fa1929190614cc2565b506080820151816004015560a0820151816005015560c0820151816006015560e082015181600701556101008201518160080160006101000a81548160ff02191690836003811115610fef57fe5b02179055506101208201518160080160016101000a81548160ff0219169083151502179055509050503373ffffffffffffffffffffffffffffffffffffffff167f95425f5f4392462c32fc4957d62e15f8589a263ec26ba4b863ca0bacfca39fe682602001518787878760405161106a959493929190615b1f565b60405180910390a2505050505050565b60006001826040518082805190602001908083835b6020831015156110b4578051825260208201915060208101905060208303925061108f565b6001836020036101000a0380198251168184511680821785525050505050509050019150509081526020016040518091039020600501549050919050565b60006001826040518082805190602001908083835b60208310151561112c5780518252602082019150602081019050602083039250611107565b6001836020036101000a038019825116818451168082178552505050505050905001915050908152602001604051809103902060080160019054906101000a900460ff169050919050565b600080600460008473ffffffffffffffffffffffffffffffffffffffff1673ffffffffffffffffffffffffffffffffffffffff168152602001908152602001600020600a0154600460008573ffffffffffffffffffffffffffffffffffffffff1673ffffffffffffffffffffffffffffffffffffffff168152602001908152602001600020600b015491509150915091565b600080600660009054906101000a900473ffffffffffffffffffffffffffffffffffffffff1673ffffffffffffffffffffffffffffffffffffffff163373ffffffffffffffffffffffffffffffffffffffff1614151561126857600080fd5b60009150600090505b6005805490508110156112fd5760058181548110151561128d57fe5b9060005260206000200160009054906101000a900473ffffffffffffffffffffffffffffffffffffffff1673ffffffffffffffffffffffffffffffffffffffff168373ffffffffffffffffffffffffffffffffffffffff1614156112f057600191505b8080600101915050611271565b81151515611340576040517f08c379a000000000000000000000000000000000000000000000000000000000815260040161133790615d2f565b60405180910390fd5b60058390806001815401808255809150509060018203906000526020600020016000909192909190916101000a81548173ffffffffffffffffffffffffffffffffffffffff021916908373ffffffffffffffffffffffffffffffffffffffff160217905550507f4abba4877a811c10c94281a6a64a19db457ed00ca5e9c8dcd2563023d0477139836040516113d591906158ed565b60405180910390a1505050565b600080600080600460008773ffffffffffffffffffffffffffffffffffffffff1673ffffffffffffffffffffffffffffffffffffffff16815260200190815260200160002093506000600281111561143657fe5b84600d0160009054906101000a900460ff16600281111561145357fe5b141515611495576040517f08c379a000000000000000000000000000000000000000000000000000000000815260040161148c90615d0f565b60405180910390fd5b6000600460008873ffffffffffffffffffffffffffffffffffffffff1673ffffffffffffffffffffffffffffffffffffffff168152602001908152602001600020600f0160003373ffffffffffffffffffffffffffffffffffffffff1673ffffffffffffffffffffffffffffffffffffffff16815260200190815260200160002054141515611559576040517f08c379a000000000000000000000000000000000000000000000000000000000815260040161155090615c8f565b60405180910390fd5b61156386336119ad565b15156115a4576040517f08c379a000000000000000000000000000000000000000000000000000000000815260040161159b90615caf565b60405180910390fd5b7fffffffffffffffffffffffffffffffffffffffffffffffffffffffffffffffff8514806115d25750600185145b1515611613576040517f08c379a000000000000000000000000000000000000000000000000000000000815260040161160a90615c2f565b60405180910390fd5b84600460008873ffffffffffffffffffffffffffffffffffffffff1673ffffffffffffffffffffffffffffffffffffffff168152602001908152602001600020600f0160003373ffffffffffffffffffffffffffffffffffffffff1673ffffffffffffffffffffffffffffffffffffffff168152602001908152602001600020819055506001925060009150600090505b60038110156117c55783600f01600085600e01838154811015156116c457fe5b9060005260206000200160009054906101000a900473ffffffffffffffffffffffffffffffffffffffff1673ffffffffffffffffffffffffffffffffffffffff1673ffffffffffffffffffffffffffffffffffffffff1681526020019081526020016000205482019150600084600f01600086600e018481548110151561174757fe5b9060005260206000200160009054906101000a900473ffffffffffffffffffffffffffffffffffffffff1673ffffffffffffffffffffffffffffffffffffffff1673ffffffffffffffffffffffffffffffffffffffff1681526020019081526020016000205414156117b857600092505b80806001019150506116a4565b82156119a55760008213156118be576001600460008873ffffffffffffffffffffffffffffffffffffffff1673ffffffffffffffffffffffffffffffffffffffff168152602001908152602001600020600d0160006101000a81548160ff0219169083600281111561183357fe5b02179055508573ffffffffffffffffffffffffffffffffffffffff168460010160000160009054906101000a900473ffffffffffffffffffffffffffffffffffffffff1673ffffffffffffffffffffffffffffffffffffffff167f9a0edc7434e25d2680cca8e42e8195c70c89559cecfa24aa86ef60e62bde93b560405160405180910390a36119a4565b6002600460008873ffffffffffffffffffffffffffffffffffffffff1673ffffffffffffffffffffffffffffffffffffffff168152602001908152602001600020600d0160006101000a81548160ff0219169083600281111561191d57fe5b02179055508573ffffffffffffffffffffffffffffffffffffffff168460010160000160009054906101000a900473ffffffffffffffffffffffffffffffffffffffff1673ffffffffffffffffffffffffffffffffffffffff167f7e2f1c3e8ff474da73c6816c3ba28474efb92270e57a55e006965577b6eadfa460405160405180910390a35b5b505050505050565b60006119b7614d42565b600080600460008773ffffffffffffffffffffffffffffffffffffffff1673ffffffffffffffffffffffffffffffffffffffff16815260200190815260200160002061010060405190810160405290816000820160206040519081016040529081600082018054600181600116156101000203166002900480601f016020809104026020016040519081016040528092919081815260200182805460018160011615610100020316600290048015611ab05780601f10611a8557610100808354040283529160200191611ab0565b820191906000526020600020905b815481529060010190602001808311611a9357829003601f168201915b50505050508152505081526020016001820161010060405190810160405290816000820160009054906101000a900473ffffffffffffffffffffffffffffffffffffffff1673ffffffffffffffffffffffffffffffffffffffff1673ffffffffffffffffffffffffffffffffffffffff1681526020016001820160009054906101000a900473ffffffffffffffffffffffffffffffffffffffff1673ffffffffffffffffffffffffffffffffffffffff1673ffffffffffffffffffffffffffffffffffffffff1681526020016002820154815260200160038201548152602001600482018054600181600116156101000203166002900480601f016020809104026020016040519081016040528092919081815260200182805460018160011615610100020316600290048015611c285780601f10611bfd57610100808354040283529160200191611c28565b820191906000526020600020905b815481529060010190602001808311611c0b57829003601f168201915b50505050508152602001600582018054600181600116156101000203166002900480601f016020809104026020016040519081016040528092919081815260200182805460018160011615610100020316600290048015611cca5780601f10611c9f57610100808354040283529160200191611cca565b820191906000526020600020905b815481529060010190602001808311611cad57829003601f168201915b50505050508152602001600682018054600181600116156101000203166002900480601f016020809104026020016040519081016040528092919081815260200182805460018160011615610100020316600290048015611d6c5780601f10611d4157610100808354040283529160200191611d6c565b820191906000526020600020905b815481529060010190602001808311611d4f57829003601f168201915b50505050508152602001600782018054600181600116156101000203166002900480601f016020809104026020016040519081016040528092919081815260200182805460018160011615610100020316600290048015611e0e5780601f10611de357610100808354040283529160200191611e0e565b820191906000526020600020905b815481529060010190602001808311611df157829003601f168201915b505050505081525050815260200160098201548152602001600a8201548152602001600b8201548152602001600c82018054600181600116156101000203166002900480601f016020809104026020016040519081016040528092919081815260200182805460018160011615610100020316600290048015611ed25780601f10611ea757610100808354040283529160200191611ed2565b820191906000526020600020905b815481529060010190602001808311611eb557829003601f168201915b50505050508152602001600d820160009054906101000a900460ff166002811115611ef957fe5b6002811115611f0457fe5b8152602001600e8201805480602002602001604051908101604052809291908181526020018280548015611f8d57602002820191906000526020600020905b8160009054906101000a900473ffffffffffffffffffffffffffffffffffffffff1673ffffffffffffffffffffffffffffffffffffffff1681526020019060010190808311611f43575b505050505081525050925060009150600090505b8260e001515181101561200f578473ffffffffffffffffffffffffffffffffffffffff168360e0015182815181101515611fd757fe5b9060200190602002015173ffffffffffffffffffffffffffffffffffffffff16141561200257600191505b8080600101915050611fa1565b81935050505092915050565b6000600460008373ffffffffffffffffffffffffffffffffffffffff1673ffffffffffffffffffffffffffffffffffffffff168152602001908152602001600020600d0160009054906101000a900460ff169050919050565b61207c614d9f565b604051806000019050604051809103902060001916826040518082805190602001908083835b6020831015156120c757805182526020820191506020810190506020830392506120a2565b6001836020036101000a0380198251168184511680821785525050505050509050019150506040518091039020600019161415151561213b576040517f08c379a000000000000000000000000000000000000000000000000000000000815260040161213290615ccf565b60405180910390fd5b60206040519081016040528083815250905080600360003373ffffffffffffffffffffffffffffffffffffffff1673ffffffffffffffffffffffffffffffffffffffff16815260200190815260200160002060008201518160000190805190602001906121a9929190614cc2565b509050505050565b600660009054906101000a900473ffffffffffffffffffffffffffffffffffffffff1673ffffffffffffffffffffffffffffffffffffffff163373ffffffffffffffffffffffffffffffffffffffff1614151561220d57600080fd5b600660009054906101000a900473ffffffffffffffffffffffffffffffffffffffff1673ffffffffffffffffffffffffffffffffffffffff167ff8df31144d9c2f0f6b59d69b8b98abd5459d07f2742c4df920b25aae33c6482060405160405180910390a26000600660006101000a81548173ffffffffffffffffffffffffffffffffffffffff021916908373ffffffffffffffffffffffffffffffffffffffff160217905550565b600660009054906101000a900473ffffffffffffffffffffffffffffffffffffffff1673ffffffffffffffffffffffffffffffffffffffff163373ffffffffffffffffffffffffffffffffffffffff1614151561231257600080fd5b600180826040518082805190602001908083835b60208310151561234b5780518252602082019150602081019050602083039250612326565b6001836020036101000a038019825116818451168082178552505050505050905001915050908152602001604051809103902060080160016101000a81548160ff02191690831515021790555050565b600660009054906101000a900473ffffffffffffffffffffffffffffffffffffffff1681565b6123c9614c4b565b6001826040518082805190602001908083835b60208310151561240157805182526020820191506020810190506020830392506123dc565b6001836020036101000a038019825116818451168082178552505050505050905001915050908152602001604051809103902061014060405190810160405290816000820160009054906101000a900473ffffffffffffffffffffffffffffffffffffffff1673ffffffffffffffffffffffffffffffffffffffff1673ffffffffffffffffffffffffffffffffffffffff168152602001600182018054600181600116156101000203166002900480601f0160208091040260200160405190810160405280929190818152602001828054600181600116156101000203166002900480156125305780601f1061250557610100808354040283529160200191612530565b820191906000526020600020905b81548152906001019060200180831161251357829003601f168201915b50505050508152602001600282018054600181600116156101000203166002900480601f0160208091040260200160405190810160405280929190818152602001828054600181600116156101000203166002900480156125d25780601f106125a7576101008083540402835291602001916125d2565b820191906000526020600020905b8154815290600101906020018083116125b557829003601f168201915b50505050508152602001600382018054600181600116156101000203166002900480601f0160208091040260200160405190810160405280929190818152602001828054600181600116156101000203166002900480156126745780601f1061264957610100808354040283529160200191612674565b820191906000526020600020905b81548152906001019060200180831161265757829003601f168201915b50505050508152602001600482015481526020016005820154815260200160068201548152602001600782015481526020016008820160009054906101000a900460ff1660038111156126c357fe5b60038111156126ce57fe5b81526020016008820160019054906101000a900460ff1615151515815250509050806000015173ffffffffffffffffffffffffffffffffffffffff163373ffffffffffffffffffffffffffffffffffffffff1614151561272d57600080fd5b6001600381111561273a57fe5b816101000151600381111561274b57fe5b14151561275757600080fd5b60026001836040518082805190602001908083835b602083101515612791578051825260208201915060208101905060208303925061276c565b6001836020036101000a038019825116818451168082178552505050505050905001915050908152602001604051809103902060080160006101000a81548160ff021916908360038111156127e257fe5b02179055503373ffffffffffffffffffffffffffffffffffffffff167fd2e59155eb79323d200530a040ef34592cb14783597fd17fbb14bfdfa241a19c82602001518360400151846060015185608001518660e00151604051612849959493929190615b87565b60405180910390a25050565b600181148061288357507fffffffffffffffffffffffffffffffffffffffffffffffffffffffffffffffff81145b15156128c4576040517f08c379a00000000000000000000000000000000000000000000000000000000081526004016128bb90615bef565b60405180910390fd5b60001515600460008473ffffffffffffffffffffffffffffffffffffffff1673ffffffffffffffffffffffffffffffffffffffff16815260200190815260200160002060100160003373ffffffffffffffffffffffffffffffffffffffff1673ffffffffffffffffffffffffffffffffffffffff16815260200190815260200160002060009054906101000a900460ff161515141515612999576040517f08c379a000000000000000000000000000000000000000000000000000000000815260040161299090615c8f565b60405180910390fd5b6001600460008473ffffffffffffffffffffffffffffffffffffffff1673ffffffffffffffffffffffffffffffffffffffff16815260200190815260200160002060100160003373ffffffffffffffffffffffffffffffffffffffff1673ffffffffffffffffffffffffffffffffffffffff16815260200190815260200160002060006101000a81548160ff0219169083151502179055506001811415612a90576001600460008473ffffffffffffffffffffffffffffffffffffffff1673ffffffffffffffffffffffffffffffffffffffff168152602001908152602001600020600a0160008282540192505081905550612b0b565b7fffffffffffffffffffffffffffffffffffffffffffffffffffffffffffffffff811415612b0a576001600460008473ffffffffffffffffffffffffffffffffffffffff1673ffffffffffffffffffffffffffffffffffffffff168152602001908152602001600020600b01600082825401925050819055505b5b5050565b60006001826040518082805190602001908083835b602083101515612b495780518252602082019150602081019050602083039250612b24565b6001836020036101000a038019825116818451168082178552505050505050905001915050908152602001604051809103902060080160009054906101000a900460ff169050919050565b6000612b9e614c4b565b6001846040518082805190602001908083835b602083101515612bd65780518252602082019150602081019050602083039250612bb1565b6001836020036101000a038019825116818451168082178552505050505050905001915050908152602001604051809103902061014060405190810160405290816000820160009054906101000a900473ffffffffffffffffffffffffffffffffffffffff1673ffffffffffffffffffffffffffffffffffffffff1673ffffffffffffffffffffffffffffffffffffffff168152602001600182018054600181600116156101000203166002900480601f016020809104026020016040519081016040528092919081815260200182805460018160011615610100020316600290048015612d055780601f10612cda57610100808354040283529160200191612d05565b820191906000526020600020905b815481529060010190602001808311612ce857829003601f168201915b50505050508152602001600282018054600181600116156101000203166002900480601f016020809104026020016040519081016040528092919081815260200182805460018160011615610100020316600290048015612da75780601f10612d7c57610100808354040283529160200191612da7565b820191906000526020600020905b815481529060010190602001808311612d8a57829003601f168201915b50505050508152602001600382018054600181600116156101000203166002900480601f016020809104026020016040519081016040528092919081815260200182805460018160011615610100020316600290048015612e495780601f10612e1e57610100808354040283529160200191612e49565b820191906000526020600020905b815481529060010190602001808311612e2c57829003601f168201915b50505050508152602001600482015481526020016005820154815260200160068201548152602001600782015481526020016008820160009054906101000a900460ff166003811115612e9857fe5b6003811115612ea357fe5b81526020016008820160019054906101000a900460ff16151515158152505090508060e001518160c00151101515612f10576040517f08c379a0000000000000000000000000000000000000000000000000000000008152600401612f0790615c6f565b60405180910390fd5b604051806000019050604051809103902060001916836040518082805190602001908083835b602083101515612f5b5780518252602082019150602081019050602083039250612f36565b6001836020036101000a03801982511681845116808217855250505050505090500191505060405180910390206000191614151515612f9957600080fd5b604051806000019050604051809103902060001916846040518082805190602001908083835b602083101515612fe45780518252602082019150602081019050602083039250612fbf565b6001836020036101000a0380198251168184511680821785525050505050509050019150506040518091039020600019161415151561302257600080fd5b6002600381111561302f57fe5b816101000151600381111561304057fe5b14151561304c57600080fd5b6040518060000190506040518091039020600019166001856040518082805190602001908083835b6020831015156130995780518252602082019150602081019050602083039250613074565b6001836020036101000a038019825116818451168082178552505050505050905001915050908152602001604051809103902060090160003373ffffffffffffffffffffffffffffffffffffffff1673ffffffffffffffffffffffffffffffffffffffff168152602001908152602001600020600001604051808280546001816001161561010002031660029004801561316a5780601f1061314857610100808354040283529182019161316a565b820191906000526020600020905b815481529060010190602001808311613156575b505091505060405180910390206000191614151561318757600080fd5b602060405190810160405280848152506001856040518082805190602001908083835b6020831015156131cf57805182526020820191506020810190506020830392506131aa565b6001836020036101000a038019825116818451168082178552505050505050905001915050908152602001604051809103902060090160003373ffffffffffffffffffffffffffffffffffffffff1673ffffffffffffffffffffffffffffffffffffffff168152602001908152602001600020600082015181600001908051906020019061325e929190614cc2565b50905050600180856040518082805190602001908083835b60208310151561329b5780518252602082019150602081019050602083039250613276565b6001836020036101000a0380198251168184511680821785525050505050509050019150509081526020016040518091039020600601600082825401925050819055506000809054906101000a900473ffffffffffffffffffffffffffffffffffffffff1673ffffffffffffffffffffffffffffffffffffffff1663a9059cbb3383608001516040518363ffffffff167c010000000000000000000000000000000000000000000000000000000002815260040161335a929190615a07565b602060405180830381600087803b15801561337457600080fd5b505af1158015613388573d6000803e3d6000fd5b505050506040513d601f19601f820116820180604052506133ac9190810190615271565b15156133b757600080fd5b6001846040518082805190602001908083835b6020831015156133ef57805182526020820191506020810190506020830392506133ca565b6001836020036101000a0380198251168184511680821785525050505050509050019150509081526020016040518091039020600401546001856040518082805190602001908083835b60208310151561345e5780518252602082019150602081019050602083039250613439565b6001836020036101000a0380198251168184511680821785525050505050509050019150509081526020016040518091039020600501600082825403925050819055503373ffffffffffffffffffffffffffffffffffffffff167f34c6e4292ec4c54b9ebd046067b22da7c48f22dba9723a4b79b837e3a191a5d68585846040015185608001516040516134f59493929190615ac5565b60405180910390a280608001516001856040518082805190602001908083835b60208310151561353a5780518252602082019150602081019050602083039250613515565b6001836020036101000a03801982511681845116808217855250505050505090500191505090815260200160405180910390206005015410156136765760036001856040518082805190602001908083835b6020831015156135b1578051825260208201915060208101905060208303925061358c565b6001836020036101000a038019825116818451168082178552505050505050905001915050908152602001604051809103902060080160006101000a81548160ff0219169083600381111561360257fe5b0217905550806000015173ffffffffffffffffffffffffffffffffffffffff167f8d19faf08adf4f904aba4b47ace07c0c7c74712a6d39e931bff4dcbc25b5419582602001518360400151846060015185608001518660e0015160405161366d959493929190615b87565b60405180910390a25b5092915050565b613685614db3565b600660009054906101000a900473ffffffffffffffffffffffffffffffffffffffff1673ffffffffffffffffffffffffffffffffffffffff163373ffffffffffffffffffffffffffffffffffffffff161415156136e157600080fd5b610100604051908101604052808973ffffffffffffffffffffffffffffffffffffffff1681526020013373ffffffffffffffffffffffffffffffffffffffff16815260200188815260200187815260200186815260200185815260200184815260200183815250905080600260008a73ffffffffffffffffffffffffffffffffffffffff1673ffffffffffffffffffffffffffffffffffffffff16815260200190815260200160002060008201518160000160006101000a81548173ffffffffffffffffffffffffffffffffffffffff021916908373ffffffffffffffffffffffffffffffffffffffff16021790555060208201518160010160006101000a81548173ffffffffffffffffffffffffffffffffffffffff021916908373ffffffffffffffffffffffffffffffffffffffff16021790555060408201518160020155606082015181600301556080820151816004019080519060200190613848929190614cc2565b5060a0820151816005019080519060200190613865929190614cc2565b5060c0820151816006019080519060200190613882929190614cc2565b5060e082015181600701908051906020019061389f929190614cc2565b5090505085877f4053d8cb76e386f51bfe2ded3dc6303b2d7076dfa9d3fe6b8ced13a9b50f77dd8a888888886040516138dc959493929190615998565b60405180910390a35050505050505050565b6060600360008373ffffffffffffffffffffffffffffffffffffffff1673ffffffffffffffffffffffffffffffffffffffff1681526020019081526020016000206000018054600181600116156101000203166002900480601f0160208091040260200160405190810160405280929190818152602001828054600181600116156101000203166002900480156139c65780601f1061399b576101008083540402835291602001916139c6565b820191906000526020600020905b8154815290600101906020018083116139a957829003601f168201915b50505050509050919050565b60006040518060000190506040518091039020600019166001846040518082805190602001908083835b602083101515613a2157805182526020820191506020810190506020830392506139fc565b6001836020036101000a038019825116818451168082178552505050505050905001915050908152602001604051809103902060090160008473ffffffffffffffffffffffffffffffffffffffff1673ffffffffffffffffffffffffffffffffffffffff1681526020019081526020016000206000016040518082805460018160011615610100020316600290048015613af25780601f10613ad0576101008083540402835291820191613af2565b820191906000526020600020905b815481529060010190602001808311613ade575b50509150506040518091039020600019161415905092915050565b613b15614d9f565b613b1d614db3565b613b25614d42565b600060018610158015613b39575060048611155b1515613b7a576040517f08c379a0000000000000000000000000000000000000000000000000000000008152600401613b7190615cef565b60405180910390fd5b600360003373ffffffffffffffffffffffffffffffffffffffff1673ffffffffffffffffffffffffffffffffffffffff16815260200190815260200160002060206040519081016040529081600082018054600181600116156101000203166002900480601f016020809104026020016040519081016040528092919081815260200182805460018160011615610100020316600290048015613c5e5780601f10613c3357610100808354040283529160200191613c5e565b820191906000526020600020905b815481529060010190602001808311613c4157829003601f168201915b505050505081525050935060405180600001905060405180910390206000191684600001516040518082805190602001908083835b602083101515613cb85780518252602082019150602081019050602083039250613c93565b6001836020036101000a03801982511681845116808217855250505050505090500191505060405180910390206000191614151515613d2c576040517f08c379a0000000000000000000000000000000000000000000000000000000008152600401613d2390615c0f565b60405180910390fd5b600260008873ffffffffffffffffffffffffffffffffffffffff1673ffffffffffffffffffffffffffffffffffffffff16815260200190815260200160002061010060405190810160405290816000820160009054906101000a900473ffffffffffffffffffffffffffffffffffffffff1673ffffffffffffffffffffffffffffffffffffffff1673ffffffffffffffffffffffffffffffffffffffff1681526020016001820160009054906101000a900473ffffffffffffffffffffffffffffffffffffffff1673ffffffffffffffffffffffffffffffffffffffff1673ffffffffffffffffffffffffffffffffffffffff1681526020016002820154815260200160038201548152602001600482018054600181600116156101000203166002900480601f016020809104026020016040519081016040528092919081815260200182805460018160011615610100020316600290048015613ed15780601f10613ea657610100808354040283529160200191613ed1565b820191906000526020600020905b815481529060010190602001808311613eb457829003601f168201915b50505050508152602001600582018054600181600116156101000203166002900480601f016020809104026020016040519081016040528092919081815260200182805460018160011615610100020316600290048015613f735780601f10613f4857610100808354040283529160200191613f73565b820191906000526020600020905b815481529060010190602001808311613f5657829003601f168201915b50505050508152602001600682018054600181600116156101000203166002900480601f0160208091040260200160405190810160405280929190818152602001828054600181600116156101000203166002900480156140155780601f10613fea57610100808354040283529160200191614015565b820191906000526020600020905b815481529060010190602001808311613ff857829003601f168201915b50505050508152602001600782018054600181600116156101000203166002900480601f0160208091040260200160405190810160405280929190818152602001828054600181600116156101000203166002900480156140b75780601f1061408c576101008083540402835291602001916140b7565b820191906000526020600020905b81548152906001019060200180831161409a57829003601f168201915b50505050508152505092506101006040519081016040528085815260200184815260200187815260200160008152602001600081526020018681526020016000600281111561410257fe5b815260200161411033610b7e565b815250915081600460008a73ffffffffffffffffffffffffffffffffffffffff1673ffffffffffffffffffffffffffffffffffffffff168152602001908152602001600020600082015181600001600082015181600001908051906020019061417a929190614cc2565b50505060208201518160010160008201518160000160006101000a81548173ffffffffffffffffffffffffffffffffffffffff021916908373ffffffffffffffffffffffffffffffffffffffff16021790555060208201518160010160006101000a81548173ffffffffffffffffffffffffffffffffffffffff021916908373ffffffffffffffffffffffffffffffffffffffff16021790555060408201518160020155606082015181600301556080820151816004019080519060200190614244929190614cc2565b5060a0820151816005019080519060200190614261929190614cc2565b5060c082015181600601908051906020019061427e929190614cc2565b5060e082015181600701908051906020019061429b929190614cc2565b50505060408201518160090155606082015181600a0155608082015181600b015560a082015181600c0190805190602001906142d8929190614cc2565b5060c082015181600d0160006101000a81548160ff021916908360028111156142fd57fe5b021790555060e082015181600e01908051906020019061431e929190614e25565b50905050600090505b8160e00151518110156143b6578160e001518181518110151561434657fe5b9060200190602002015173ffffffffffffffffffffffffffffffffffffffff168873ffffffffffffffffffffffffffffffffffffffff167f516fad89f67e240d0a64ec70fafc3d3e19cbef89cf5d91598b143a101e4dbf1b60405160405180910390a38080600101915050614327565b8673ffffffffffffffffffffffffffffffffffffffff163373ffffffffffffffffffffffffffffffffffffffff167fc8e93948f0d856bad2f514ddd6a9379aabdc542c58efc5f44619ecf11dbe90328a88604051614415929190615968565b60405180910390a35050505050505050565b600660009054906101000a900473ffffffffffffffffffffffffffffffffffffffff1673ffffffffffffffffffffffffffffffffffffffff163373ffffffffffffffffffffffffffffffffffffffff1614151561448357600080fd5b61448c81614b4f565b50565b614497614c4b565b60006001846040518082805190602001908083835b6020831015156144d157805182526020820191506020810190506020830392506144ac565b6001836020036101000a038019825116818451168082178552505050505050905001915050908152602001604051809103902061014060405190810160405290816000820160009054906101000a900473ffffffffffffffffffffffffffffffffffffffff1673ffffffffffffffffffffffffffffffffffffffff1673ffffffffffffffffffffffffffffffffffffffff168152602001600182018054600181600116156101000203166002900480601f0160208091040260200160405190810160405280929190818152602001828054600181600116156101000203166002900480156146005780601f106145d557610100808354040283529160200191614600565b820191906000526020600020905b8154815290600101906020018083116145e357829003601f168201915b50505050508152602001600282018054600181600116156101000203166002900480601f0160208091040260200160405190810160405280929190818152602001828054600181600116156101000203166002900480156146a25780601f10614677576101008083540402835291602001916146a2565b820191906000526020600020905b81548152906001019060200180831161468557829003601f168201915b50505050508152602001600382018054600181600116156101000203166002900480601f0160208091040260200160405190810160405280929190818152602001828054600181600116156101000203166002900480156147445780601f1061471957610100808354040283529160200191614744565b820191906000526020600020905b81548152906001019060200180831161472757829003601f168201915b50505050508152602001600482015481526020016005820154815260200160068201548152602001600782015481526020016008820160009054906101000a900460ff16600381111561479357fe5b600381111561479e57fe5b81526020016008820160019054906101000a900460ff1615151515815250509150816000015173ffffffffffffffffffffffffffffffffffffffff163373ffffffffffffffffffffffffffffffffffffffff161415156147fd57600080fd5b6000809054906101000a900473ffffffffffffffffffffffffffffffffffffffff1673ffffffffffffffffffffffffffffffffffffffff1663dd62ed3e33306040518363ffffffff167c0100000000000000000000000000000000000000000000000000000000028152600401614875929190615908565b602060405180830381600087803b15801561488f57600080fd5b505af11580156148a3573d6000803e3d6000fd5b505050506040513d601f19601f820116820180604052506148c791908101906154ae565b90508281101515156148d857600080fd5b6000809054906101000a900473ffffffffffffffffffffffffffffffffffffffff1673ffffffffffffffffffffffffffffffffffffffff166323b872dd3330866040518463ffffffff167c010000000000000000000000000000000000000000000000000000000002815260040161495293929190615931565b602060405180830381600087803b15801561496c57600080fd5b505af1158015614980573d6000803e3d6000fd5b505050506040513d601f19601f820116820180604052506149a49190810190615271565b15156149af57600080fd5b826001856040518082805190602001908083835b6020831015156149e857805182526020820191506020810190506020830392506149c3565b6001836020036101000a03801982511681845116808217855250505050505090500191505090815260200160405180910390206005016000828254019250508190555060006003811115614a3857fe5b8261010001516003811115614a4957fe5b1415614adf57600180856040518082805190602001908083835b602083101515614a885780518252602082019150602081019050602083039250614a63565b6001836020036101000a038019825116818451168082178552505050505050905001915050908152602001604051809103902060080160006101000a81548160ff02191690836003811115614ad957fe5b02179055505b3373ffffffffffffffffffffffffffffffffffffffff167f7d703b99136412be3113d8613d984b3314e5afef7799b73dbc59f0dc66ae2b7f83602001518460400151856060015186608001518760e00151604051614b41959493929190615b87565b60405180910390a250505050565b600073ffffffffffffffffffffffffffffffffffffffff168173ffffffffffffffffffffffffffffffffffffffff1614151515614b8b57600080fd5b8073ffffffffffffffffffffffffffffffffffffffff16600660009054906101000a900473ffffffffffffffffffffffffffffffffffffffff1673ffffffffffffffffffffffffffffffffffffffff167f8be0079c531659141344cd1fd0a4f28419497f9722a3daafe3b4186f6b6457e060405160405180910390a380600660006101000a81548173ffffffffffffffffffffffffffffffffffffffff021916908373ffffffffffffffffffffffffffffffffffffffff16021790555050565b61014060405190810160405280600073ffffffffffffffffffffffffffffffffffffffff1681526020016060815260200160608152602001606081526020016000815260200160008152602001600081526020016000815260200160006003811115614cb357fe5b81526020016000151581525090565b828054600181600116156101000203166002900490600052602060002090601f016020900481019282601f10614d0357805160ff1916838001178555614d31565b82800160010185558215614d31579182015b82811115614d30578251825591602001919060010190614d15565b5b509050614d3e9190614eaf565b5090565b6101e060405190810160405280614d57614ed4565b8152602001614d64614ee8565b81526020016000815260200160008152602001600081526020016060815260200160006002811115614d9257fe5b8152602001606081525090565b602060405190810160405280606081525090565b61010060405190810160405280600073ffffffffffffffffffffffffffffffffffffffff168152602001600073ffffffffffffffffffffffffffffffffffffffff1681526020016000815260200160008152602001606081526020016060815260200160608152602001606081525090565b828054828255906000526020600020908101928215614e9e579160200282015b82811115614e9d5782518260006101000a81548173ffffffffffffffffffffffffffffffffffffffff021916908373ffffffffffffffffffffffffffffffffffffffff16021790555091602001919060010190614e45565b5b509050614eab9190614f5a565b5090565b614ed191905b80821115614ecd576000816000905550600101614eb5565b5090565b90565b602060405190810160405280606081525090565b61010060405190810160405280600073ffffffffffffffffffffffffffffffffffffffff168152602001600073ffffffffffffffffffffffffffffffffffffffff1681526020016000815260200160008152602001606081526020016060815260200160608152602001606081525090565b614f9a91905b80821115614f9657600081816101000a81549073ffffffffffffffffffffffffffffffffffffffff021916905550600101614f60565b5090565b90565b6000614fa98235615e89565b905092915050565b6000614fbd8251615ea9565b905092915050565b6000614fd18235615eb5565b905092915050565b600082601f8301121515614fec57600080fd5b8135614fff614ffa82615dc0565b615d93565b9150808252602083016020830185838301111561501b57600080fd5b615026838284615eff565b50505092915050565b600061503b8235615ebf565b905092915050565b600061504f8251615ebf565b905092915050565b60006020828403121561506957600080fd5b600061507784828501614f9d565b91505092915050565b6000806040838503121561509357600080fd5b60006150a185828601614f9d565b92505060206150b285828601614f9d565b9150509250929050565b600080600080608085870312156150d257600080fd5b60006150e087828801614f9d565b94505060206150f187828801614f9d565b93505060406151028782880161502f565b925050606085013567ffffffffffffffff81111561511f57600080fd5b61512b87828801614fd9565b91505092959194509250565b6000806040838503121561514a57600080fd5b600061515885828601614f9d565b925050602061516985828601614fc5565b9150509250929050565b600080600080600080600060e0888a03121561518e57600080fd5b600061519c8a828b01614f9d565b97505060206151ad8a828b0161502f565b96505060406151be8a828b0161502f565b955050606088013567ffffffffffffffff8111156151db57600080fd5b6151e78a828b01614fd9565b945050608088013567ffffffffffffffff81111561520457600080fd5b6152108a828b01614fd9565b93505060a088013567ffffffffffffffff81111561522d57600080fd5b6152398a828b01614fd9565b92505060c088013567ffffffffffffffff81111561525657600080fd5b6152628a828b01614fd9565b91505092959891949750929550565b60006020828403121561528357600080fd5b600061529184828501614fb1565b91505092915050565b6000602082840312156152ac57600080fd5b600082013567ffffffffffffffff8111156152c657600080fd5b6152d284828501614fd9565b91505092915050565b600080604083850312156152ee57600080fd5b600083013567ffffffffffffffff81111561530857600080fd5b61531485828601614fd9565b925050602061532585828601614f9d565b9150509250929050565b6000806040838503121561534257600080fd5b600083013567ffffffffffffffff81111561535c57600080fd5b61536885828601614fd9565b925050602083013567ffffffffffffffff81111561538557600080fd5b61539185828601614fd9565b9150509250929050565b600080600080600060a086880312156153b357600080fd5b600086013567ffffffffffffffff8111156153cd57600080fd5b6153d988828901614fd9565b955050602086013567ffffffffffffffff8111156153f657600080fd5b61540288828901614fd9565b945050604086013567ffffffffffffffff81111561541f57600080fd5b61542b88828901614fd9565b935050606061543c8882890161502f565b925050608061544d8882890161502f565b9150509295509295909350565b6000806040838503121561546d57600080fd5b600083013567ffffffffffffffff81111561548757600080fd5b61549385828601614fd9565b92505060206154a48582860161502f565b9150509250929050565b6000602082840312156154c057600080fd5b60006154ce84828501615043565b91505092915050565b6154e081615e27565b82525050565b60006154f182615df9565b80845260208401935061550383615dec565b60005b82811015615535576155198683516154d7565b61552282615e1a565b9150602086019550600181019050615506565b50849250505092915050565b61554a81615e47565b82525050565b61555981615ec9565b82525050565b61556881615edb565b82525050565b61557781615eed565b82525050565b600061558882615e0f565b80845261559c816020860160208601615f0e565b6155a581615f41565b602085010191505092915050565b60006155be82615e04565b8084526155d2816020860160208601615f0e565b6155db81615f41565b602085010191505092915050565b6000601c82527f566f7465206d757374206265206569746865722031206f72202d312e000000006020830152604082019050919050565b6000603882527f596f7520617265206e6f7420726567697374657265642061732061207573657260208301527f2e20506c656173652072656769737465722066697273742100000000000000006040830152606082019050919050565b6000601582527f566f7465206d757374206265202d31206f7220312e00000000000000000000006020830152604082019050919050565b6000602482527f4e6f7420656e6f7567682076616c696461746f727320696e207468652073797360208301527f74656d21000000000000000000000000000000000000000000000000000000006040830152606082019050919050565b6000602082527f4d617869756d206e756d626572206f6620616e737765727320726561636865646020830152604082019050919050565b6000602182527f596f7520616c726561647920766f746564206f6e20746869732072657669657760208301527f2e000000000000000000000000000000000000000000000000000000000000006040830152606082019050919050565b6000602b82527f596f7520617265206e6f742063686f73656e20746f2076616c6964617465207460208301527f686973207265766965772e0000000000000000000000000000000000000000006040830152606082019050919050565b6000601782527f557365726e616d652063616e277420626520656d7074790000000000000000006020830152604082019050919050565b6000601d82527f53636f7265206d757374206265206265747765656e203120616e6420340000006020830152604082019050919050565b6000601982527f52657669657720616c72656164792076616c6964617465642e000000000000006020830152604082019050919050565b6000601882527f56616c696461746f7220616c72656164792065786973747300000000000000006020830152604082019050919050565b6158e781615e7f565b82525050565b600060208201905061590260008301846154d7565b92915050565b600060408201905061591d60008301856154d7565b61592a6020830184615550565b9392505050565b600060608201905061594660008301866154d7565b6159536020830185615550565b61596060408301846158de565b949350505050565b600060408201905061597d60008301856154d7565b818103602083015261598f818461557d565b90509392505050565b600060a0820190506159ad60008301886154d7565b81810360208301526159bf818761557d565b905081810360408301526159d3818661557d565b905081810360608301526159e7818561557d565b905081810360808301526159fb818461557d565b90509695505050505050565b6000604082019050615a1c60008301856154d7565b615a2960208301846158de565b9392505050565b60006020820190508181036000830152615a4a81846154e6565b905092915050565b6000602082019050615a676000830184615541565b92915050565b6000602082019050615a82600083018461555f565b92915050565b6000602082019050615a9d600083018461556e565b92915050565b60006020820190508181036000830152615abd818461557d565b905092915050565b60006080820190508181036000830152615adf818761557d565b90508181036020830152615af3818661557d565b90508181036040830152615b0781856155b3565b9050615b1660608301846158de565b95945050505050565b600060a0820190508181036000830152615b3981886155b3565b90508181036020830152615b4d818761557d565b90508181036040830152615b61818661557d565b9050615b7060608301856158de565b615b7d60808301846158de565b9695505050505050565b600060a0820190508181036000830152615ba181886155b3565b90508181036020830152615bb581876155b3565b90508181036040830152615bc981866155b3565b9050615bd860608301856158de565b615be560808301846158de565b9695505050505050565b60006020820190508181036000830152615c08816155e9565b9050919050565b60006020820190508181036000830152615c2881615620565b9050919050565b60006020820190508181036000830152615c488161567d565b9050919050565b60006020820190508181036000830152615c68816156b4565b9050919050565b60006020820190508181036000830152615c8881615711565b9050919050565b60006020820190508181036000830152615ca881615748565b9050919050565b60006020820190508181036000830152615cc8816157a5565b9050919050565b60006020820190508181036000830152615ce881615802565b9050919050565b60006020820190508181036000830152615d0881615839565b9050919050565b60006020820190508181036000830152615d2881615870565b9050919050565b60006020820190508181036000830152615d48816158a7565b9050919050565b6000602082019050615d6460008301846158de565b92915050565b6000604082019050615d7f60008301856158de565b615d8c60208301846158de565b9392505050565b6000604051905081810181811067ffffffffffffffff82111715615db657600080fd5b8060405250919050565b600067ffffffffffffffff821115615dd757600080fd5b601f19601f8301169050602081019050919050565b6000602082019050919050565b600081519050919050565b600081519050919050565b600081519050919050565b6000602082019050919050565b600073ffffffffffffffffffffffffffffffffffffffff82169050919050565b60008115159050919050565b6000600382101515615e6157fe5b819050919050565b6000600482101515615e7757fe5b819050919050565b6000819050919050565b600073ffffffffffffffffffffffffffffffffffffffff82169050919050565b60008115159050919050565b6000819050919050565b6000819050919050565b6000615ed482615e27565b9050919050565b6000615ee682615e53565b9050919050565b6000615ef882615e69565b9050919050565b82818337600083830152505050565b60005b83811015615f2c578082015181840152602081019050615f11565b83811115615f3b576000848401525b50505050565b6000601f19601f83011690509190505600a265627a7a7230582098ee05d7d34d24dc24d46702b2a46faf5c964578a46ecbd3eaa9f99134277b966c6578706572696d656e74616cf50037",
  "source": "pragma solidity ^0.4.24;\npragma experimental ABIEncoderV2;\n\nimport \"zeppelin-solidity/contracts/ownership/Ownable.sol\";\nimport \"./RNStorage.sol\";\n\ncontract RNDelegate is RNStorage, Ownable {\n    RNStorage rnStorage;\n\n    event LogSurveyAdded(\n        address indexed creator,\n        string publicKey,\n        string title,\n        string surveyJsonHash,\n        uint rewardPerSurvey,\n        uint maxAnswers\n    );\n    \n    event LogSurveyFunded(\n        address indexed creator,\n        string publicKey,\n        string title,\n        string surveyJsonHash,\n        uint rewardPerSurvey,\n        uint maxAnswers\n    );\n    \n    event LogSurveyStarted(\n        address indexed creator,\n        string publicKey,\n        string title,\n        string surveyJsonHash,\n        uint rewardPerSurvey,\n        uint maxAnswers\n    );\n\n    event LogSurveyCompleted(\n        address indexed creator,\n        string publicKey,\n        string title,\n        string surveyJsonHash,\n        uint rewardPerSurvey,\n        uint maxAnswers\n    );\n\n    event LogSurveyAnswered(\n        address indexed user,\n        string surveyJsonHash,\n        string answersJsonHash,\n        string title,\n        uint rewardPerSurvey\n    );\n\n    event LogProductAdded(\n        address productAddress,\n        uint indexed categoryId,\n        uint indexed subcategoryId,\n        string name,\n        string image,\n        string description,\n        string metaHashJson\n    );\n\n    event LogReviewAdded(\n        address reviewAddress,\n        address indexed authorAddress,\n        address indexed productAddress,\n        string metaJsonHash\n    );\n\n    event LogValidatorAdded(\n        address validatorAddress\n    );\n\n    event LogValidatorChosen(\n        address indexed reviewAddress,\n        address indexed validatorAddress\n    );\n\n    event LogReviewApproved(\n        address indexed productAddress,\n        address indexed reviewAddress\n    );\n\n    event LogReviewRejected(\n        address indexed productAddress,\n        address indexed reviewAddress\n    );\n\n    constructor () public {}\n\n    function createSurvey(\n        string publicKey,\n        string title,\n        string surveyJsonHash,\n        uint rewardPerSurvey,\n        uint maxAnswers\n    ) public {\n        Survey memory s = Survey(\n            msg.sender,\n            publicKey,\n            title,\n            surveyJsonHash,\n            rewardPerSurvey,\n            0,\n            0,\n            maxAnswers,\n            SurveyStatus.IDLE,\n            false\n        );\n\n        surveys[surveyJsonHash] = s;\n\n        emit LogSurveyAdded(\n            msg.sender,\n            s.publicKey,\n            title,\n            surveyJsonHash,\n            rewardPerSurvey,\n            maxAnswers\n        );\n    }\n\n    function suspendSurvey (string surveyJsonHash) public onlyOwner {\n        surveys[surveyJsonHash].suspended = true;\n    }\n\n    function isSurveySuspended (string surveyJsonHash) public view returns (bool) {\n        return surveys[surveyJsonHash].suspended;\n    }\n\n    function fundSurvey(string surveyJsonHash, uint amount) public {\n        Survey memory survey = surveys[surveyJsonHash];\n\n        require(msg.sender == survey.creator);\n\n        uint allowance = token.allowance(msg.sender, this);\n        require(allowance >= amount);\n\n        require(token.transferFrom(msg.sender, this, amount));\n        surveys[surveyJsonHash].funds += amount;\n        \n        if(survey.status == SurveyStatus.IDLE) {\n            surveys[surveyJsonHash].status = SurveyStatus.FUNDED;\n        }\n\n        emit LogSurveyFunded(\n            msg.sender,\n            survey.publicKey,\n            survey.title,\n            survey.surveyJsonHash,\n            survey.rewardPerSurvey,\n            survey.maxAnswers\n        );\n    }\n\n    function startSurvey(string surveyJsonHash) public {\n        Survey memory survey = surveys[surveyJsonHash];\n        require(msg.sender == survey.creator);\n        require(survey.status == SurveyStatus.FUNDED);\n\n        surveys[surveyJsonHash].status = SurveyStatus.IN_PROGRESS;\n\n        emit LogSurveyStarted(\n            msg.sender,\n            survey.publicKey,\n            survey.title,\n            survey.surveyJsonHash,\n            survey.rewardPerSurvey,\n            survey.maxAnswers\n        );\n    }\n\n    function completeSurvey(string surveyJsonHash) public {\n        Survey memory survey = surveys[surveyJsonHash];\n        require(msg.sender == survey.creator);\n        require(survey.status == SurveyStatus.IN_PROGRESS);\n\n        surveys[surveyJsonHash].status = SurveyStatus.COMPLETED;\n\n        emit LogSurveyCompleted(\n            msg.sender,\n            survey.publicKey,\n            survey.title,\n            survey.surveyJsonHash,\n            survey.rewardPerSurvey,\n            survey.maxAnswers\n        );\n    }\n\n    function getFunds(string surveyJsonHash) public view returns (uint) {\n        return surveys[surveyJsonHash].funds;\n    }\n\n    function getSurveyStatus(string surveyJsonHash) public view returns (SurveyStatus) {\n        return surveys[surveyJsonHash].status;\n    }\n\n    function answerSurvey(string surveyJsonHash, string answersJsonHash) public returns (bool) {\n        Survey memory survey = surveys[surveyJsonHash];\n        require(survey.currentAnswers < survey.maxAnswers, \"Maxium number of answers reached\");\n        require(keccak256(bytes(answersJsonHash)) != keccak256(\"\"));\n        require(keccak256(bytes(surveyJsonHash)) != keccak256(\"\"));\n        require(survey.status == SurveyStatus.IN_PROGRESS);\n        require(keccak256(surveys[surveyJsonHash].answers[msg.sender].answersJsonHash) == keccak256(\"\"));\n\n        surveys[surveyJsonHash].answers[msg.sender] = Answer(answersJsonHash);\n        surveys[surveyJsonHash].currentAnswers += 1;\n        require(token.transfer(msg.sender, survey.rewardPerSurvey));\n        surveys[surveyJsonHash].funds -= surveys[surveyJsonHash].rewardPerSurvey;\n        emit LogSurveyAnswered(msg.sender, surveyJsonHash, answersJsonHash, survey.title, survey.rewardPerSurvey);\n\n        if (surveys[surveyJsonHash].funds < survey.rewardPerSurvey) {\n            surveys[surveyJsonHash].status = SurveyStatus.COMPLETED;\n            emit LogSurveyCompleted(\n                survey.creator,\n                survey.publicKey,\n                survey.title,\n                survey.surveyJsonHash,\n                survey.rewardPerSurvey,\n                survey.maxAnswers\n            );\n        }\n    }\n\n    function isSurveyAnsweredBy(string surveyJsonHash, address user) public view returns (bool) {\n        return keccak256(bytes(surveys[surveyJsonHash].answers[user].answersJsonHash)) != keccak256(\"\");\n    }\n\n    function createProduct (\n        address productAddress,\n        uint categoryId,\n        uint subcategoryId,\n        string name,\n        string image,\n        string description,\n        string metaJsonHash\n    ) public onlyOwner {\n        Product memory product = Product({\n            productAddress: productAddress,\n            addedBy: msg.sender,\n            categoryId: categoryId,\n            subcategoryId: subcategoryId,\n            name: name,\n            image: image,\n            description: description,\n            metaJsonHash: metaJsonHash\n        });\n\n        products[productAddress] = product;\n\n        emit LogProductAdded(productAddress, categoryId, subcategoryId, name, image, description, metaJsonHash);\n    }\n\n    function registerUser (string username) public {\n        require(keccak256(username) != keccak256(\"\"), \"Username can't be empty\");\n        User memory user = User({ username: username });\n        users[msg.sender] = user;\n    }\n\n    function getUsername (address user) public view returns (string) {\n        return users[user].username;\n    }\n\n    function userExists (address userAddress) public view returns (bool) {\n        return keccak256(users[userAddress].username) != keccak256(\"\");\n    }\n\n    function createReview (\n        address reviewAddress,\n        address productAddress,\n        uint score,\n        string metaJsonHash\n    ) public {\n        require(score >= 1 && score <= 4, \"Score must be between 1 and 4\");\n\n        User memory author = users[msg.sender];\n        require(keccak256(author.username) != keccak256(\"\"), \"You are not registered as a user. Please register first!\");\n\n        Product memory product = products[productAddress];\n\n        Review memory review = Review({\n            author: author,\n            product: product,\n            score: score,\n            upvotes: 0,\n            downvotes: 0,\n            metaJsonHash: metaJsonHash,\n            status: ReviewStatus.PENDING,\n            chosenValidators: choseValidators(msg.sender)\n        });\n\n        reviews[reviewAddress] = review;\n\n        for (uint index = 0; index < review.chosenValidators.length; index++) {\n            emit LogValidatorChosen(reviewAddress, review.chosenValidators[index]);\n        }\n\n        emit LogReviewAdded(reviewAddress, msg.sender, productAddress, metaJsonHash);\n    }\n\n    function voteReview (address reviewAddress, int vote) public {\n        require(vote == 1 || vote == -1, \"Vote must be either 1 or -1.\");\n        require(reviews[reviewAddress].userVotes[msg.sender] == false, \"You already voted on this review.\");\n\n        reviews[reviewAddress].userVotes[msg.sender] = true;\n\n        if (vote == 1) {\n            reviews[reviewAddress].upvotes += 1;\n        } else if (vote == -1) {\n            reviews[reviewAddress].downvotes += 1;\n        }\n    }\n\n    function getReviewVotes (address reviewAddress) public view returns (uint upvotes, uint downvotes) {\n        return (reviews[reviewAddress].upvotes, reviews[reviewAddress].downvotes);\n    }\n\n    function getReviewStatus(address reviewAddress) public view returns (ReviewStatus) {\n        return reviews[reviewAddress].status;\n    }\n\n    function isValidatorChosenForReview (address reviewAddress, address validator) public view returns (bool) {\n        Review memory review = reviews[reviewAddress];\n        \n        bool isValidatorChosen = false;\n        for (uint index = 0; index < review.chosenValidators.length; index++) {\n            if (review.chosenValidators[index] == validator) {\n                isValidatorChosen = true;\n            }\n        }\n\n        return isValidatorChosen;\n    }\n\n    function validatorVote(address reviewAddress, int vote) public {\n        Review storage review = reviews[reviewAddress];\n\n        require(review.status == ReviewStatus.PENDING, \"Review already validated.\");\n        require(reviews[reviewAddress].validationVotes[msg.sender] == 0, \"You already voted on this review.\");\n        require(isValidatorChosenForReview(reviewAddress, msg.sender), \"You are not chosen to validate this review.\");\n        require(vote == -1 || vote == 1, \"Vote must be -1 or 1.\");\n\n        reviews[reviewAddress].validationVotes[msg.sender] = vote;\n\n        bool everyoneVoted = true;\n        int tally = 0;\n\n        for (uint index = 0; index < NUMBER_OF_VALIDATORS; index++) {\n            tally += review.validationVotes[review.chosenValidators[index]];\n\n            if (review.validationVotes[review.chosenValidators[index]] == 0) {\n                everyoneVoted = false;\n            }\n        }\n\n        if (everyoneVoted) {\n            if (tally > 0) {\n                reviews[reviewAddress].status = ReviewStatus.APPROVED;\n                emit LogReviewApproved(review.product.productAddress, reviewAddress);\n            } else {\n                reviews[reviewAddress].status = ReviewStatus.REJECTED;\n                emit LogReviewRejected(review.product.productAddress, reviewAddress);\n            }\n        }\n    }\n\n    function addValidator(address validatorAddress) public onlyOwner {\n        bool validatorExists = false;\n        for(uint i = 0; i < validators.length; i++) {\n            if (validatorAddress == validators[i]) {\n                validatorExists = true;\n            }\n        }\n        \n        require(!validatorExists, \"Validator already exists\");\n        validators.push(validatorAddress);\n\n        emit LogValidatorAdded(validatorAddress);\n    }\n\n    function choseValidators(address author) public view returns (address[]) {\n        require(validators.length >= NUMBER_OF_VALIDATORS, \"Not enough validators in the system!\");\n\n        uint a = uint256(author);\n        bytes32 b = bytes32(block.timestamp);\n        uint r = uint(keccak256(abi.encodePacked(a, b)));\n        uint point = r % validators.length;\n\n        address[] memory chosenOnes = new address[](NUMBER_OF_VALIDATORS);\n\n        uint counter = 0;\n        uint index = 1;\n\n        while(counter < NUMBER_OF_VALIDATORS) {\n            address chosenValidator = validators[(point + index) % validators.length];\n\n            bool alreadyPicked = false;\n            for(uint i = 0; i < chosenOnes.length; i++) {\n                if (chosenOnes[i] == chosenValidator) {\n                    alreadyPicked = true;\n                } \n            }\n\n            if (!alreadyPicked) {\n                chosenOnes[counter] = chosenValidator;\n                counter++;\n            }\n\n            index++;\n\n        }\n\n        return chosenOnes;\n    }\n}\n",
  "sourcePath": "/Users/petars/projects/review-network/rn-prototype-solidity/contracts/RNDelegate.sol",
  "compiler": {
    "name": "solc",
    "version": "0.4.24+commit.e67f0147.Emscripten.clang"
  },
  "schemaVersion": "2.0.1",
  "updatedAt": "2018-09-13T16:10:08.961Z"
}