{
  "contractName": "Versionable",
  "abi": [
    {
      "inputs": [],
      "payable": false,
      "stateMutability": "nonpayable",
      "type": "constructor"
    },
    {
      "constant": false,
      "inputs": [],
      "name": "bumpVersion",
      "outputs": [],
      "payable": false,
      "stateMutability": "nonpayable",
      "type": "function"
    },
    {
      "constant": true,
      "inputs": [],
      "name": "getCurrentVersion",
      "outputs": [
        {
          "name": "",
          "type": "uint256"
        }
      ],
      "payable": false,
      "stateMutability": "view",
      "type": "function"
    }
  ],
  "bytecode": "0x6060604052341561000f57600080fd5b600160008190555060cd806100256000396000f3006060604052600436106049576000357c0100000000000000000000000000000000000000000000000000000000900463ffffffff168063d304d8bf14604e578063fabec44a146060575b600080fd5b3415605857600080fd5b605e6086565b005b3415606a57600080fd5b60706098565b6040518082815260200191505060405180910390f35b60016000808282540192505081905550565b600080549050905600a165627a7a723058206c815cb7623796f6bb4ba6b6afca10728a8e5dd5f1b1c51c1da6da79f2d239e80029",
  "source": "pragma solidity ^0.4.19;\n\ncontract Versionable {\n    uint version;\n\n    function Versionable () public {\n        version = 1;\n    }\n\n    function bumpVersion () public {\n        version += 1;\n    }\n\n    function getCurrentVersion () public view returns (uint) {\n        return version;\n    }\n}",
  "sourcePath": "/Users/petars/projects/review-network/rew/contracts/Versionable.sol",
  "compiler": {
    "name": "solc",
    "version": "0.4.21+commit.dfe3193c.Emscripten.clang"
  },
  "schemaVersion": "2.0.0",
  "updatedAt": "2018-04-15T09:02:41.308Z"
}